:020000040800F2
:10200000C80B00205921000861450008A9420008BA
:1020100000000000000000000000000000000000C0
:10202000000000000000000000000000794E0008E1
:10203000000000000000000021470008C94F000810
:10204000892100080000000089210008892100087A
:1020500089210008892100088921000889210008B8
:1020600000000000E93400088D35000889210008CF
:102070008921000871520008892100080000000031
:10208000AD52000800000000000000003D520008B2
:10209000892100084152000889210008892100088F
:1020A00089210008892100088921000809580008B1
:1020B0008921000800F002F800F03EF80CA030C8BA
:1020C000083824182D18A246671EAB4654465D46B4
:1020D000AC4201D100F030F87E460F3E0FCCB64640
:1020E0000126334200D0FB1AA246AB4633431847C1
:1020F0001059000030590000103A02D378C878C156
:10210000FAD8520701D330C830C101D504680C6039
:10211000704700000023002400250026103A01D358
:1021200078C1FBD8520700D330C100D50B6070478F
:102130001FB51FBD10B510BD00F0CAFD1146FFF759
:10214000F7FF03F025FE00F0E2FD03B4FFF7F2FF16
:1021500003BC00F017FE00000F4880F308880F480A
:102160000168090E0E4A914205D10E480E490160E0
:102170000E480F4901600F4880470F480047FEE7AF
:10218000FEE7FEE7FEE7FEE7FEE700000B480C492E
:102190000C4A0D4B70470000C80B002004000000E3
:1021A0001F00000018100240010000000000014064
:1021B0000000000009510008B5200008C8050020F3
:1021C000C80B0020C8070020C80700200FB41CB5AA
:1021D000074B06AA7B4469460090059800F0E3FC93
:1021E0000020694600F0F2FC1CBC08BC04B0184793
:1021F000F5090000002203098B422CD3030A8B420D
:1022000011D300239C464EE003460B433CD40022EE
:1022100043088B4231D303098B421CD3030A8B4200
:1022200001D394463FE0C3098B4201D3CB01C01ACE
:10223000524183098B4201D38B01C01A5241430999
:102240008B4201D34B01C01A524103098B4201D387
:102250000B01C01A5241C3088B4201D3CB00C01AF4
:10226000524183088B4201D38B00C01A524143086C
:102270008B4201D34B00C01A5241411A00D2014691
:102280005241104670475DE0CA0F00D0494203102A
:1022900000D34042534000229C4603098B422DD379
:1022A000030A8B4212D3FC22890112BA030A8B4221
:1022B0000CD3890192118B4208D3890192118B4270
:1022C00004D389013AD0921100E08909C3098B42F5
:1022D00001D3CB01C01A524183098B4201D38B0138
:1022E000C01A524143098B4201D34B01C01A5241DB
:1022F00003098B4201D30B01C01A5241C3088B4220
:1023000001D3CB00C01A524183088B4201D38B000A
:10231000C01A5241D9D243088B4201D34B00C01A94
:102320005241411A00D20146634652415B101046A9
:1023300001D34042002B00D54942704763465B10F1
:1023400000D3404201B50020C046C04602BD7047E0
:1023500070477047F0B5F94D0C091E092C402E400E
:102360002F468BB0A7437DD0B543FCD0002E7AD04A
:10237000002CFCD00D465D40ED0F2543AC1BFF2526
:10238000AD0464190894C502440DC9022143500DDF
:10239000DC0204430120C00701430443D20201913F
:1023A000200C110C00958C46010423468B430A91A6
:1023B00061460904E24D8A430991010A7D444919A5
:1023C0008039097805464D4301266D18F605751BC1
:1023D0006943C90C640B891C4C436418B5012C1B60
:1023E000250C2E04B4434C434D43210C6918890934
:1023F0000591009DE90701D00121C90704912C46F0
:1024000001996708CD072F434C08059DE10B4D430B
:102410002D0C29466646754302950D4645432E46CA
:10242000029D7D1BB44100950D465D4301942C0C2B
:102430002F040D465543AE462D0C3D4302950394A3
:102440007546049C2D04641B049406D2029C039DD3
:10245000641C002675410395029401AC70CC009F6A
:102460007D1B01E03EE162E1B44109040095079162
:1024700001940599A4086143090C0C464443650B7B
:10248000E7040C4666467443A646640B3C4303953A
:1024900002947446049DE4042C1B049406D2029C0E
:1024A000039D641C002675410395029401AC70CC19
:1024B000009F7D1BB44101940C465C430095650F61
:1024C000E7000C465443A646640F3C430395029430
:1024D0007446049DE4002C1B049406D2029C039DC8
:1024E000641C002675410395029401AC70CC009FDA
:1024F0007D1BB441AE09AF06049DC900AD092F4351
:10250000049DA406AD060495079D34436918079100
:10251000059DE10B4D432D0C2946664675430295FA
:102520000D4645432E46029D7D1BB44100950D4648
:102530005D4301942C0C2F040D465543AE462D0CE3
:102540003D43029503947546049C2D04641B04943A
:1025500006D2029C039D641C0026754103950294DB
:1025600001AC70CC009F7D1BB44101948C05069496
:10257000079C890A611800950791019C0599A40898
:102580006143090C0D464543680BEF040D46644654
:1025900065436C0B3C43049FED047D1BAC4602D2AB
:1025A0000025641C6841009E019D371B854108463B
:1025B000584301950C46460FC5005443600F28430D
:1025C0006546E4002C1B02D20025401C6E41019D93
:1025D0003F1AB5412846BD09800628438446A00914
:1025E000BF064E020699A40676180743079D0020F1
:1025F00068410A99079019430020099B00906046A2
:10260000FF1913434041E20F64003A43A4460446D5
:10261000D71A8C41A04203D90120009020463A46A7
:10262000C70F941840416246D20F224364466400AB
:102630000494009CBE466400D71AA4460446029740
:102640008C417746002F01D1A04204D96046401C3E
:102650008446029A2046C40FA64694184041049A24
:102660000546D20F224364466400D31A8D41714659
:10267000002901D1A84202D928461A46641C1043F9
:102680000122002800D0164361020020079B89190F
:1026900004465C410223002C02DB491813466441C6
:1026A000089DCE0A2D145D194B056705E10A2C051E
:1026B0000D1908993E43C9076940002B08D0934083
:1026C00006D30022761C5141002B01D176087600FA
:1026D0001C4A002D43DB154241D0AA433FD030466F
:1026E0000BB0F0BD06180D464D41174C7642AC417B
:1026F0001AD395181C465C41134A6D42A24113D36C
:10270000012252054C00D4420AD15C00D4420BD0C5
:102710004B4002D592021143E2E749004908DFE746
:102720005940C90FC90718E000200849D8E70548F3
:1027300001420DD10342F7D0F2E700000000FF078D
:10274000C05500000000F07F0000E0FF0000F87FAF
:10275000114859400143C01241400020C0E7012305
:10276000089A9B069A4205DC032252078918C90F72
:10277000C907B5E7052252078918074A1143D21243
:102780005140ADE770B515461C4602460B4628463B
:102790002146FFF7DFFD70BDFFFFFF7F30B5034629
:1027A000CA02400D1043164D164C0A1502D02043A4
:1027B000002A06DBAA1A002A12DDD040FF2A0BDC11
:1027C00030BD5205520D01D140004008AA1A07D46D
:1027D000D0404042FF2A01DD002030BD0028FCDD52
:1027E0004A00002B01D0012000E000201018012237
:1027F0005205D042F0D8C817C043604030BD000039
:102800001E040000000000800346CA02400D10B5FF
:1028100010430A1504D00124E4072043002A05DBF5
:102820000A4CA21A04D4D040FF2A00DD002010BDBB
:102830004A00002B01D0012000E0002010180122E6
:102840005205D042F2D8C817C04310BD1E04000084
:102850001F22030C02D10F22000402D0030E03D06A
:1028600004E00020014670470002083A030F01D13E
:102870000001121F830F01D18000921E002801DB8E
:102880004000521E120551184205C0124118104650
:102890007047C10FC90700D040420122920711437F
:1028A000D6E701218907D3E7F0B58B4C0F09254600
:1028B00089B0BD437BD01D092646AE43FAD00E46F3
:1028C0005E402740F60F3E43254071D0240121424F
:1028D000FBD0FF24AD19A4042D1B039501252D0564
:1028E000DB02DB0AC9022B43C90A29431E01090185
:1028F000040F130F050121431701880B8203914335
:102900002D098C46A90B1E438A039543B30B9A03EA
:1029100096433F09BA0B9403A74302962E467E4383
:102920000497B6464E19D7190C460196544305979D
:102930007E43371B7646BF1B3601B646BE0B3619A3
:1029400000967646BC043719009C01D3641C0094A1
:102950006400002F01D001263443029E049F75437A
:1029600066467E430496760034196E00341900944E
:10297000029C019E1C196643751BAE460694654673
:102980004519059C05956C43594375460891691A8C
:102990000191049E01465143A41B0491611A009CBD
:1029A0000791E10605D061090122114302E072E0BE
:1029B0006EE06109089D00272C0A2D066918049D08
:1029C0007C412A0A2D066918019D6241AC0DAD02B9
:1029D0006D185441079A910D920255196141029A5E
:1029E000644658435443069B059A5A43121A131BD4
:1029F0009A0E9B015B187A41010B0005C3185141E7
:102A0000220A200644195A419A4200D2491C012048
:102A10004002814203D315230226F64302E0142329
:102A20000326F6432020C51AA9401746AF40DA40D6
:102A30000A4320460399D840091473181905511800
:102A4000039A3843D2075140AC4009D00122944048
:102A500006D30022401C5141002C01D14008400007
:102A60001E4A934212D3012203989206904207DB3A
:102A70000520400709181A480143C012414004E0EC
:102A8000032040070818C10FC907002009B0F0BD96
:102A90000020F107FAE705180C464C4111486D4239
:102AA000A04115D394181A465A410E4864429041E9
:102AB0000ED301204A004005824209D35A008242C7
:102AC00006D35940C90F084AC90700201143DDE762
:102AD00000200649DAE700000000FF07FE070000BB
:102AE000FFFFFF7F0000E0FF0000F07F0000F87FA5
:102AF00010B501469E240002CA15A307002A02D081
:102B00001843002A04DBA21A002A0CDDD04010BDB5
:102B10001206120E01D140004008A21A03D4D04080
:102B200040420028F3DDFF2248001206904201D9FE
:102B3000002010BDC817C043584010BD1F22030C11
:102B400002D10F2200041CD0030E01D10002083A6A
:102B5000030F01D10001121F830F01D18000921ECB
:102B6000002801DB4000521ED205511802125118F4
:102B70001922904004D3491C002801D1490849007A
:102B800008467047C10FC90700D040420122920792
:102B90001143D3E701218907D0E7000001694A1CEE
:102BA00002610878704700B58FB00291002105914D
:102BB000054901937944039111460490684600F059
:102BC00053F80FB000BD0000E5FFFFFF0A6810706A
:102BD000521C0A6070470000F8B5224C4E00069D5A
:102BE000A6420AD8A64201D1002806D15E00A6421C
:102BF00003D8A6420AD1002A08D00D242404254275
:102C00002CD02946002000F041F8F8BD0C461C43AA
:102C10000CD4994202D0EFF30080F8BD904202D06C
:102C2000EFF30080F8BDEFF30080F8BD092424071E
:102C3000E5008B4206D0EFF30080A043591A06D27C
:102C4000284304E0101A05D3EFF30080A04380F37B
:102C50000088F8BDEFF30080A043F1E7009500F095
:102C60002DF8F8BD0000E0FFF8B5064600244768DF
:102C7000806800903046F56803E00099B847641C0E
:102C80003046A8470028F8D12046F8BDC80212D522
:102C90004803400F002804D0C803C04301218840E6
:102CA0007047EFF300800001000903210907084382
:102CB00080F30088704700207047000010B50020A6
:102CC0000249029A00F02BF810BD00000000F87FC6
:102CD000754600F053F8AE46050069465346C008F5
:102CE000C000854618B020B5FFF750FA60BC002739
:102CF0004908B6460026C0C5C0C5C0C5C0C5C0C5C8
:102D0000C0C5C0C5C0C5403D49008D46704710B51F
:102D10000446C046C0462046FFF717FA10BD10B55E
:102D20000C461107090F092904D00A290AD00829DD
:102D30000CD104E011460820FFF7A8FF06E0510679
:102D400006D501E0510601D50120C007214610BD7E
:102D5000D10607D501010909CC084907000E000674
:102D6000044309E0410F20024907000A0143200EF5
:102D700000061D22D14101430846E7E7004870479D
:102D80006405002001491820ABBEFEE726000200C2
:102D90007047002904D0C26801231A43C26003E0CF
:102DA000C26852085200C2607047C26802239A4348
:102DB000C260C2680A43C2607047000010B5044692
:102DC0000548844207D10121401501F00DFD002185
:102DD000601501F009FD10BD0024014030B5014629
:102DE0000020002200238C680125ED072C438C6015
:102DF00000BF8C68E30FDB07521C0F242403A242A0
:102E000001D0002BF5D18C68E40FE407002C01D130
:102E1000086C00E0002030BD30B5024600200023E1
:102E2000012424060C40002C05D0946801252D06B1
:102E3000AC43234600E013681C460C40002C01D034
:102E4000012000E0002030BD10B50022C268084B10
:102E50001A400C7964030B6823438C682343CC68C5
:102E600023430C6923434C6923431A43C26010BDBA
:102E700003D2FFFF00B595B00121480401F084FCA6
:102E80003F201390032110A801740021C17413A9DD
:102E90000920C00600F0F2FEF320000101F0FCFF63
:102EA0000121480201F090FC3B48FFF787FF00201A
:102EB0000D90002108A801760120C0020F9040204B
:102EC00010900020119012900DA93348FFF7BCFF1D
:102ED0000120314948613F2088620846FFF77EFFA4
:102EE00002212D48FFF761FF01212B48FFF751FF19
:102EF00029488068012108432749886000BF0121D3
:102F00002548FFF789FF0028F9D02348806804216D
:102F10000843214988600121084601F035FC1F481B
:102F200000F05EFB1C4840300290002004901C48DA
:102F30000390062005900020069080200790400016
:102F400008908000099020200A9000020B90002039
:102F50000C9002A9114800F019FC002202210F4830
:102F600000F00AFC01210D4800F02CFB00F01AF8DB
:102F7000022000F017FB01220221084800F0FCFBB0
:102F8000092168460171022141710121817101A865
:102F900001F0E8FA15B000BD00240140080002402D
:102FA000E80000203EB500200090019002904849C2
:102FB0004880088000242EE000BF022000F0C2FB01
:102FC0000028FAD0022000F0EDFA68460088404957
:102FD0008988401881B26846018041883C48C08891
:102FE000081881B2684641808188394800890818EC
:102FF00081B268468180C18835484089081881B20D
:103000006846C18001893248C089081881B2684683
:103010000181601CC4B2102CCEDB6846008801110F
:103020006846018000882A49088009880846EB38EC
:10303000002801DB014600E041423C290BDB042073
:10304000244908700A204873234880782021884347
:1030500020302149887068464088011168464180C7
:1030600040881B49488049880846EB38002801DB26
:10307000014600E041423C290BDB04201549087061
:103080000A20487314488078202188432030124950
:10309000887068468088011168468180808801B206
:1030A0000C48403001806846C08801116846C180E4
:1030B000C08801B20748C030818768460089011185
:1030C00068460181008901B2044801833EBD0000C9
:1030D000E4000020FC030020FC000020FC04002091
:1030E00000B589B001210320400401F04DFB01220D
:1030F00007210920C00600F009FE0122062109204F
:10310000C00600F003FEC0200790022108A801704D
:103110000321417000218170C17007A90920C006F8
:1031200000F0ACFD012200213E4800F0EFFD01203F
:103130000790022108A801700321417000218170CD
:10314000C17007A9374800F099FD0121022001F064
:103150002BFB2F21684601820021418232480590D5
:1031600068460183817604A9304802F0ABFA002159
:10317000684681800A21C1800121018100214181AD
:103180000421818101A9294802F0DAF80421684666
:10319000818001A9254802F0D3F808216846818082
:1031A00001A9224802F0CCF81021684601700021E4
:1031B00041700121817001F0D5F901220F211B48D6
:1031C00002F0F6F80121194802F088F801214804BC
:1031D00001F0FAFA2F21684601820021418212484B
:1031E000059068460183817604A9114802F06AFAC5
:1031F00000200F49088208468089022108430C49B3
:10320000888115216846017001214170817001F0AB
:10321000A9F907480088012108430549088009B039
:1032200000BD000000040048FFFF00000004004053
:103230000044014010B55048807A030002F05EFD62
:10324000069A040C3D5D809A4B48007F002802D10D
:103250000120494908778DE04748007F002817D1B1
:10326000012045490877022044490874444888826F
:10327000414CA37F0C46A28AA18AA08A00F010FBD1
:103280003D49887F04F000F80A2001F00BFE13E0AE
:1032900000F076FD01280FD10020384988820120F6
:1032A0000003384908803848364920394863886324
:1032B000C8630320304988725CE001F0C9FB3349E0
:1032C00008700846007848702B48007BC0003049E1
:1032D00040182E490978405C2749887748772D495E
:1032E000254880304161143041608160C1600161D6
:1032F00041610420204988723CE001F06BF9012013
:103300001E490874C72088821B49887F03F0BCFFD0
:1033100000201E4908818883174908771B49488186
:103320000021154880300187803081831248C08C8D
:103330001149486105208872012001F0B3FD19E0B0
:1033400000F01EFD012814D101F0ACFD0F4CA36963
:103350006269094C6169606801F0C2FD21464861FB
:10336000084640690969884203DD20460069214614
:10337000486100BF00BF10BDFC030020E400002036
:10338000AF040000202C01409F0F0000200500200A
:103390007079000890D003000120000307490880DD
:1033A000002007498882488206480449203948633A
:1033B0008863C8630020044988727047202C01404C
:1033C000E40000209F0F0000FC03002070B50246BF
:1033D0000C4609480AE0011205062B0C15784D40F1
:1033E0006D00064E755B5D402846521C2546661EE4
:1033F000B4B2002DEFD170BDFFFF00007077000860
:1034000010B533488089800004B232480A21415EF9
:10341000314A204600F0ADFF2E4948810A20085E5F
:10342000FF21C431884217DB2A488089142805DA35
:1034300028488089401C274988812AE04021274864
:1034400000F092FC01202349887325480078102160
:103450008843234908701CE01E488089002805DD48
:103460001C488089401E1B49888112E040211B486E
:1034700000F078FC00201749887319480078102163
:1034800088431030164908700420164908700B2034
:103490004873134800780007C00F00280FD1104868
:1034A000C07800280BD10E480078C007C00F002854
:1034B00005D00B4800788007C00F002806D10948C6
:1034C000C07A012802D103200649087010BD00000F
:1034D000E40000204C0500204C0F000000140048C0
:1034E000FC000020FC03002010B5022000F02AF9A7
:1034F000012841D1022000F055F8204880881F495A
:103500000988884208DD1D4880881C490988401ABE
:1035100001B21B48C18002E000211948C18018484F
:10352000C18801810821415E4F204001814211DBA9
:1035300014480088401C1349088008460088052864
:103540001ADBFFF729FF04200D49403908700C20D1
:10355000487311E000200B49088009480821415EAA
:103560000948814203DB00200449C88202E00020B0
:103570000249C88200F086FF10BD0000E400002070
:103580003C040020E0000020A405000010B501204C
:10359000400200F0D7F8012802D1400200F002F802
:1035A00010BD0000012109070140002902D0034994
:1035B000486001E002494860704700000004024092
:1035C00000000240002904D0026801231A4302606F
:1035D00003E00268014B1A4002607047FEFF0000E2
:1035E0000168554A1140016000210160416081601D
:1035F000C1605249884208D15049083949680F22B0
:1036000011434E4A083A516094E04C4914318842C3
:1036100008D14A4908394968F0221143474A083A13
:10362000516087E045492831884209D1434908392A
:1036300049680F2212021143404A083A516079E06A
:103640003E493C31884209D13C49083949680F223A
:1036500012031143394A083A51606BE0374950313F
:10366000884209D13549083949680F2212041143AB
:10367000324A083A51605DE030496431884209D1EC
:103680002E49083949680F22120511432B4A083A7E
:1036900051604FE029497831884209D127490839DA
:1036A00049680F2212061143244A083A516041E04A
:1036B0002349884208D12249083949680F22114319
:1036C0001F4A083A516035E01D491431884208D13B
:1036D0001B4908394968F0221143194A083A5160D8
:1036E00028E017492831884209D115490839496825
:1036F0000F2212021143124A083A51601AE010498F
:103700003C31884209D10E49083949680F22120319
:1037100011430B4A083A51600CE009495031884284
:1037200008D10749083949680F2212041143044A95
:10373000083A516070470000FEFF00000800024098
:103740000804024001460020002201231B070B4011
:10375000002B02D0064B1A6801E0064B1A6813468C
:103760000B40002B01D0012000E00020704700003A
:103770000004024000000240002A03D003680B430B
:10378000036002E003688B430360704710B50022BA
:1037900002680D4B1A400C6A8B6823430C69234363
:1037A0004C6923438C692343CC6923434C6A2343EC
:1037B0008C6A23431A430260CB6843600B688360C2
:1037C0004B68C36010BD00000F80FFFF00B531489B
:1037D000C07A030002F092FA050408090D111600E0
:1037E0000A202D49C8700DE000BF01202A49C87089
:1037F00008E00A202849C87004E02648407B264992
:10380000C87000BF00BF2448C078002804D1012040
:10381000C002224988613BE01F48C0780A2805D1D0
:103820000120C0021D492031088131E01A4800887A
:10383000401C1949088008460088282805DA01201C
:10384000C00216492031088122E013480088FF2178
:10385000B931884204DA0120C0021049886117E0BA
:103860000D488178C078401E814207DA0A48807886
:10387000401C094988700020088009E0064800883B
:103880002D214901884203DB00200349088088700C
:1038900000BD0000FC0300204C050020000400488F
:1038A00030B51C46224B1B7C002B03D0204B1B7CCD
:1038B000012B31D1230002F021FA06040B1219204A
:1038C000272E1C4B1C4DAB63EB631B1A6B6322E072
:1038D000184B194DAB63EB631B1A6B631BE0154B65
:1038E000154D6B63EB635B1AAB6314E0114B124D28
:1038F0006B63EB635B1AAB630DE00E4B0E4D6B63BA
:10390000AB639B1AEB6306E00A4B0B4D6B63AB6337
:103910009B1AEB6300BF09E0064B1B1A064D6B6355
:10392000044B5B1AAB63034B9B1AEB6330BD000087
:10393000E40000209F0F0000002C01407FB50446EA
:103940000D4616460094019502960D48C06B0390F3
:103950000C4800F05BF80A483030009900F0A2F8FB
:1039600007483430019900F09DF805483830029935
:1039700000F098F802483C30039900F093F87FBDBE
:10398000C0FF000800FC00081FB504461048006B8B
:1039900000900F48406B01900D48806B029003949B
:1039A0000C4800F033F80A483030009900F07AF8FB
:1039B00007483430019900F075F80548383002990D
:1039C00000F070F802483C30039900F06BF81FBD1E
:1039D000C0FF000800FC00080149C86070470000F3
:1039E0000020024070B505460E462C4609E02046F0
:1039F00000F00CF8042802D10002241801E0012094
:103A000070BDB442F3D90020FAE7000030B5044697
:103A100004250B20000400F08DF80546042D17D175
:103A20000C480069022108430A49086108464461BC
:103A3000006940210843074908610B20000400F099
:103A400079F8054603480069022188430149086165
:103A5000284630BD0020024004200D49C968C9072E
:103A6000C90F002901D0012010E00949C9681022BE
:103A70001140002901D0022008E00549C96804224C
:103A80001140002901D0032000E00420704700000D
:103A90000020024010B500F03BF83520FFF79CFFF6
:103AA00010BD000078B506460C46042500200090A5
:103AB0000B20000400F03EF80546042D24D11348E5
:103AC0000069012108431149086134800B2000047A
:103AD00000F030F80546042D10D1B01C0090200CE9
:103AE000009908800B20000400F024F805460748E0
:103AF0000069400840000549086105E00348006985
:103B00004008400001490861284678BD0020024075
:103B10000548006980210840002804D00348024974
:103B20004860034848607047002002402301674511
:103B3000AB89EFCD10B503460424FFF78DFF044693
:103B400003E0FFF789FF04465B1E012C01D1002B27
:103B5000F7D1002B00D10524204610BDFFB583B05E
:103B60000D4617460024002002904348806A401EFC
:103B7000069988425DD14048406A8608002E24D0CC
:103B800020E0069878430399401800190190295DB8
:103B9000601C285C00020918A01C285C000409189D
:103BA000E01C285C00060818009000990198FFF7B7
:103BB00079FF042802D0012007B0F0BD241D02982F
:103BC000401C02900298B042DBD32B48406A061B8F
:103BD000002E4ED0069878430399401800190190A2
:103BE000012E04D1285DFF380138009019E0022E23
:103BF00008D1285DF103411A601C285C00020818F6
:103C000000900EE0032E0CD1285DFF21090641181B
:103C1000601C285C00020918A01C285C000408181D
:103C2000009000990198FFF73DFF042821D0012062
:103C3000C2E71CE0069878430399401800190190E8
:103C4000295D601C285C00020918A01C285C000487
:103C50000918E01C285C00060818009000990198DB
:103C6000FFF720FF042801D00120A5E7241DBC4256
:103C7000E0D30020A0E70000FC020020F0B50A46D7
:103C800000210023002400BF3DE001258D402B468C
:103C900015681D402C469C4234D11579012D02D067
:103CA0001579022D16D185684F000326BE40B54315
:103CB000856055794E00B5408668354385608588B6
:103CC00001268E40B5438580858896798E40B6B2B0
:103CD0003543858005684F000326BE40B543056027
:103CE00015794E00B540066835430560C5684F003C
:103CF0000326BE40B543C560D5794E00B540C668C1
:103D00003543C560491C1029BFD3F0BDF0B5002371
:103D100000244D07EE0E1546B5402B46CD10AE00E3
:103D200005462035AD594E07F70E0F26BE40B54368
:103D3000CE10B60007462037BD51CD10AE003D462F
:103D4000AD591D432C46CD10AD003E467451F0BD1B
:103D500002460020938A0B40002B01D0012000E096
:103D600000207047018570478161704703480088D3
:103D7000002801D1012070470020FCE7D600002078
:103D800003480088002801D1012070470020FCE78B
:103D9000D000002003480088002801D1012070478E
:103DA0000020FCE7DA00002003480088002801D149
:103DB000012070470020FCE7D8000020034800885D
:103DC000002801D1012070470020FCE7D40000202A
:103DD00003480088002801D1012070470020FCE73B
:103DE000D200002010B5FE48008A0E2108400028AD
:103DF0007ED0FB480088FB490840F9490880084606
:103E0000008A02210840002803D0F548406BF6499B
:103E10000882F348008A04210840002803D0F048B3
:103E2000806BF1490882EE48008A0821084000288A
:103E300003D0EB48C06BEC490882EB488089000452
:103E4000E949098A4018C01CE849C862084614308C
:103E5000416814384161143081684160C1688160F3
:103E60000169C160416901611438C16A143041615E
:103E70000020DB4948620846008801210843D849F0
:103E8000088000F0E5FDD8490870D8488030C07F30
:103E9000012812D1D5488038007A012803D10020AA
:103EA000D24980390873D1488038007A002814D16B
:103EB0000120CE49803908730FE0CC488038007A61
:103EC000002802D1C94980390873C8488038007A6F
:103ED000012802D1C54980390873C4488038007B65
:103EE00001287DD1C0484078062805D1BE4800E0B1
:103EF0005CE10078042827D0BB484078042803D12F
:103F0000B948007805281FD0B7484078052803D164
:103F1000B5480078012817D0B3484078012803D16C
:103F2000B148007803280FD0AF484078032803D168
:103F3000AD480078022807D0AB48407802287DD1F0
:103F4000A94800780628FAD1A7480078A649487001
:103F50000020C8608883A2490882A34840780028CE
:103F60007AD0A1480078002876D09F48407806286B
:103F70000ED19D48007804280AD09B480078052877
:103F800006D099480078062802D00020964908708B
:103F90009548407804280ED19348007805280AD027
:103FA00091480078062806D08F480078042802D06F
:103FB00000208D4908708C48407805280ED18A4829
:103FC000007804280AD088480078012806D086485E
:103FD0000078052802D0002083490870824800E05C
:103FE00060E0407801280ED17F48007805280AD08B
:103FF0007D480078032806D07B480078012802D04D
:104000000020794908707848407803280ED1764816
:10401000007801280AD074480078022806D0724837
:104020000078032802D000206F4908706E4840785D
:10403000022811D16C480078032801E02FE00BE042
:104040000AD069480078062806D067480078022818
:1040500002D000206449087064488038007BC000AA
:104060006349401860490978405C60498039887725
:104070000846C07A012803D00846C07A022809D130
:104080005A488038807A052804D158498039887F79
:1040900003F038F9002155488030818302E0002088
:1040A0004F49088251488038007B00287ED14E4815
:1040B0004078022803D14C480078032827D04A488A
:1040C0004078032803D14848007801281FD046488B
:1040D0004078012803D144480078052817D0424889
:1040E0004078052803D14048007804280FD03E4886
:1040F0004078042803D13C480078062807D03A4885
:104100004078062876D138480078022872D136489F
:104110000078354948700020C8608883304908829B
:1041200031484078002866D02F480078002862D0B7
:104130002D48407806280ED12B48007804280AD054
:1041400029480078052806D027480078062802D09C
:104150000020254908702448407804280ED12248C0
:10416000007805280AD020480078062806D01E4886
:104170000078042802D000201B4908701A484078B3
:1041800005280ED11848007804280AD0164800786F
:10419000012806D014480078052802D000201249D2
:1041A000087011484078012810D100E062E00E4804
:1041B000007805280AD00C480078032806D00A4861
:1041C0000078012802D0002007490870064840788E
:1041D00003281BD104480078012817D002480BE0BF
:1041E00000040040FEFF0000200500207C040020A9
:1041F000707900083BE01CE00078022806D02548D2
:104200000078032802D00020224908702148407815
:1042100002280ED11F48007803280AD01D480078D4
:10422000062806D01B480078022802D00020194931
:1042300008701948007BC0001849401815490978D2
:10424000405C154988770846C07A012803D00846A3
:10425000C07A022807D11048807A052803D10E4978
:10426000887F03F04FF800210D48818302E0002091
:104270000C4908820B48008AC007C00F002808D0EC
:104280000120C043074908820248C068401C014918
:10429000C86010BD20050020FC03002070790008D4
:1042A000FC0400200004004000BFFEE710B51348E6
:1042B000C08812494988884208DD1048C0880F49E3
:1042C0004988401A01B20E48C18502E000210C481D
:1042D000C1850B482E21415E3022825E8818411034
:1042E0000748018602463021515E403A506F7832CD
:1042F00000F008F802494031086110BDE4000020D8
:104300003C040020F0B587B006460F461446F51B66
:104310002846FEF737FC0390616803F0B3F8059078
:10432000A168681AFEF72EFC0190216803F0AAF834
:1043300003906069FEF726FC0290039903F05CF895
:104340000490059903F058F80690FEF7D1FB6061E0
:10435000A560E1686069884202DDE068606105E0AF
:1043600021696069884201DA20696061606907B08B
:10437000F0BD10B503465C1A204650438013401828
:1043800000B210BD10B53E48C07A030001F0B6FC83
:1043900005041F395768760039480078012804D091
:1043A00002280BD0032810D109E03548007A34499F
:1043B0000873032088720120C87206E005E0FEF74A
:1043C000EBFF03202E49C87200BF00BF56E0FEF786
:1043D00031FF2B480078012804D0032803D004289B
:1043E0000DD106E00BE0FEF7D7FF03202449C87289
:1043F00005E0FEF7D1FF04202149C87200BF00BFCD
:104400003CE01F480078012804D002280AD0032885
:1044100013D108E0FFF7AAFC012802D100201849B7
:10442000C8720AE009E0FFF7A1FC012804D1FEF7F9
:10443000B3FF03201249C87200BF00BF1EE010483E
:104440000078012804D0022806D0032806D104E011
:1044500000200B49C87201E000E000BF00BF0DE082
:1044600007480078012804D0022803D0032803D18C
:1044700001E001E000E000BF00BF00BF00BF10BDD1
:10448000FC03002010B53348C07A030001F036FC6D
:10449000050405065D5E5F0059E000BF2E48C08A36
:1044A000012813D12C48808A2B49498A884231DB64
:1044B0002948408A012805DD2748408A401E2649B0
:1044C000888227E000202449888223E000F01EFD36
:1044D000FFF7ECFE1F4880300169806D81420CDCE3
:1044E0001C488030008A1C4988821A488030016943
:1044F00081650169403041610CE016488030806D73
:104500001549888213488030816D08384161083030
:10451000816D01611048808A1049884202DD084699
:104520000D4988820B48C07A012807D1094CA37F26
:10453000094CA28AA18AA08AFFF7B2F90648808AAC
:104540000549488200F0EEF801E000E000BF00BF3E
:1045500010BD0000FC030020E40000200F0E00004E
:104560007047000000218278002A27D0184A0323D0
:104570001B02D21803789B109B00D1580278920737
:10458000D30EFF229A400B46934319464278920776
:10459000120E03789B07DB0E9A4011430C4A03234B
:1045A0001B02D21803789B109B00D1500278D306CF
:1045B000DB0E01229A40064B1A6007E00278D30610
:1045C000DB0E01229A40024B80331A6070470000D4
:1045D00000E100E010B50021244881602449403802
:1045E00001642449403041602349C16028210161B0
:1045F000C038C18CC0304161C038C18C8030816509
:104600001E481F49FEF7CAF800B21849C039C864ED
:1046100000211648C03881651A481449C039086518
:1046200014491248C03841651349C165002101662B
:1046300011494166FF20B2300C49C039486700215A
:104640000A484838816010480849C03988670949D4
:104650000648C038C16708497830C160002101614F
:104660000549416100200949C88210BDBC040020F1
:10467000CDCCCC3D8FC2F53C9F0F0000DFA8AB5ADC
:104680008777F9409A99993ECDCC4C3DE4000020C3
:10469000FFB581B014461F465A211F484173A5201B
:1046A0001D490D314870019888700298C8700846FD
:1046B000047120124871002507E03978A81D164AB8
:1046C0000D3211547F1C681CC5B2A542F5DBA11D3B
:1046D00011480D30FEF77AFE06460F4A0D32A01D36
:1046E00016543112E01D115400250EE000BF402188
:1046F0000A4801F027F90028F9D007480D30415D3C
:10470000064801F0F2F9681CC5B22046083085421F
:10471000ECDB05B0F0BD00007C0300200038014058
:10472000704700007FB51348446A1348808900042D
:10473000041912484069A0421AD210484461062167
:1047400061430846FEF7ADF8054600220C4BFEF724
:10475000ABF802460B460191009000200949FDF795
:10476000F9FD03910290FEF719F804491439086322
:104770007FBD0000000400402005002090040020C0
:1047800000001040389C8C41002905D0054A526930
:104790000243044B5A6104E0024A52698243014BCE
:1047A0005A61704700100240002905D0054AD269BD
:1047B0000243044BDA6104E0024AD2698243014BAE
:1047C000DA61704700100240002905D0054A92695D
:1047D0000243044B9A6104E0024A92698243014B0E
:1047E0009A61704700100240002905D0054AD2683E
:1047F0000243044BDA6004E0024AD2688243014B70
:10480000DA60704700100240FEB50446002500261D
:1048100000200290019000900027864840680C21FB
:1048200008400546002D06D0042D07D0082D08D0DD
:104830000C2D2CD128E0804820602BE07E482060A1
:1048400028E07C4840680F218904084006467948E2
:1048500040680321C90308400290B00C861C0298EE
:10486000002803D17548374647430BE07148C06ABA
:104870000007000F401C01906F480199FDF7BAFC3A
:1048800070430746276005E06D48206002E06A48F3
:10489000206000BF00BF67484068F021084005461F
:1048A0002D096848405D009020680099C84060600C
:1048B0006048406807210902084005462D0A614802
:1048C000405D009061680098C140A1605948006B4C
:1048D000FF2101310840884202D05B48E0600DE0D2
:1048E00054484068012189030840884203D0A068E9
:1048F0004008E06002E0A0688008E0604D48006B7E
:1049000040210840402802D05048206102E00120A8
:10491000C00320614748006B10210840102802D0D6
:104920004548606101E0206860614248006B800793
:10493000800F002802D1A068A06119E03D48006BFB
:104940008007800F012802D12068A06110E039485B
:10495000006B8007800F022802D18003A06107E06E
:104960003448006B8007800F032801D13248A061D2
:104970003048006B032109040840002802D1A068D8
:10498000E06120E02B48006B03210904084001216D
:104990000904884202D12068E06114E02548006BD8
:1049A00003210904084001214904884202D18010F2
:1049B000E06108E01F48006B0321090408408842B9
:1049C00001D11D48E0611B48006B032189040840A8
:1049D000002802D1A068206220E01648006B032165
:1049E0008904084001218904884202D1206820629C
:1049F00014E01048006B0321890408400121C90418
:104A0000884202D10011206208E00A48006B0321AD
:104A100089040840884201D1074820620548006B9C
:104A200080210840802802D00548606200E067626B
:104A3000FEBD00000010024000127A0000093D0097
:104A4000006CDC02C0000020809FD50012800000B6
:104A5000F8B50021002200230024002500260020B4
:104A60000090B3E00098002819D10920C006008A00
:104A700080273840002801D0042001430920C006C7
:104A8000008A40273840002801D0022001438F4887
:104A9000008AC007C00F002801D001200143009800
:104AA0003C2819D10920C006008A802738400028F8
:104AB00001D0042002430920C006008A4027384064
:104AC000002801D0022002438048008AC007C00F9E
:104AD000002801D0012002430098782819D109202C
:104AE000C006008A80273840002801D004200343F4
:104AF0000920C006008A40273840002801D0022043
:104B000003437248008AC007C00F002801D001206B
:104B100003430098B42819D10920C006008A8027D1
:104B20003840002801D0042004430920C006008A30
:104B300040273840002801D0022004436348008AFF
:104B4000C007C00F002801D0012004430098F028BE
:104B500019D10920C006008A80273840002801D0DA
:104B6000042005430920C006008A40273840002859
:104B700001D0022005435548008AC007C00F002815
:104B800001D001200543FF272D370098B84219D1E5
:104B90000920C006008A80273840002801D0042060
:104BA00006430920C006008A40273840002801D06B
:104BB000022006434548008AC007C00F002801D0E4
:104BC000012006430098401C80B20090FF272D373B
:104BD0000098B84200DC45E7A34205D1AB4203D1BF
:104BE000B34201D11846F8BDA24205D1AA4203D171
:104BF000B24201D11046F6E79A4205D1AA4203D14A
:104C0000B24201D11046EEE79A4205D1A24203D149
:104C1000B24201D11046E6E79A4205D1A24203D141
:104C2000AA4201D11046DEE7B14205D1A14203D12B
:104C3000A94201D10846D6E7B14205D1994203D134
:104C4000A94201D10846CEE7B14205D1994203D12C
:104C5000A14201D10846C6E7A94205D1994203D134
:104C6000A14201D10846BEE7A94205D1914203D134
:104C7000B14201D10846B6E7A14205D1914203D124
:104C8000B14201D10846AEE7A14205D1914203D11C
:104C9000A94201D10846A6E7994205D1914203D124
:104CA000B14201D108469EE7994205D1914203D114
:104CB000A94201D1084696E7994205D1914203D114
:104CC000A14201D108468EE700208CE7000400488D
:104CD00010B51048046B601C00280ED10E480F4917
:104CE000086107200E49486188610B469A69596935
:104CF0000A4B1869FEF722FE0AE00648006B0749D6
:104D000008610448406B064948610248806B88612D
:104D100010BD0000C0FF0008DC050000FC030020FF
:104D20002005002070B5FFF735F801286FD100F09D
:104D3000BFF84A48807A052842D14848C07A0128FD
:104D40003ED1464841698030406B081A7D21C90038
:104D5000884235DD414840303021415E48292FDD11
:104D60000146C031888BFDF79CFD044600223C4B78
:104D700002F0DCFA06D23B48808B401C81B23948F5
:104D8000818327E038480078401C374908707D212E
:104D9000C900344881833448007802280CDB0420A1
:104DA0002E49087007204873304880784021884396
:104DB00040302E4988700DE001202849487209E0F2
:104DC0002848808B002805DD2648808B401E81B254
:104DD000244881832148407A012828D1244800882A
:104DE000401C2349088008460088642803DA032011
:104DF0001A4908701EE01E4800887D21C9008842BB
:104E000006DA0120154908700020087212E023E03C
:104E1000174800881749884205DA03200F490870AF
:104E20000120087206E000200C49487202E00020D0
:104E30000F490880094841698030406B081AFF21FA
:104E40002D31884208DA054840697D21C900884231
:104E500002DD00200449087070BD0000FC03002042
:104E600000408F40FC040020DE000020FC000020F9
:104E7000DC0000204C0400007047000001460020C8
:104E8000044A10688008800002460A431046014A1E
:104E90001060704700000140014908607047000041
:104EA000402C01400149088070470000D0000020DC
:104EB0000149088070470000DA000020014908809D
:104EC00070470000D80000200149088070470000AA
:104ED000D40000200149088070470000D200002063
:104EE00010B504468C4206DD8818A04201DB20463E
:104EF00010BD8818FCE78C4206DAC81AA04201DC13
:104F00002046F5E7C81AF3E72046F1E7FEB5224848
:104F100041691430406809181F4814308068091826
:104F20001D481430C06809181B481430006909185E
:104F3000194814304069081802900298FDF7B1FC36
:104F400004460022154BFDF7AFFC02460B460191CB
:104F5000009000201249FDF7FDF90646FDF71EFC02
:104F60000D4908630846416B006B081841100A4858
:104F70004163008F401C81B2074801870A290ADB80
:104F8000002101870246516B803A5069C032FFF719
:104F9000B9F901498865FEBD7C040020000010407D
:104FA000389C8C41042806D1064909690422114322
:104FB000044A116105E00349096904229143014A49
:104FC0001161704700E000E010B500F059F82A4880
:104FD0008088002804DD28488088401E2649888073
:104FE0002648C08D002804DD2448C08D401E23497A
:104FF000C8852248408E002804DD2048408E401E8F
:105000001E4948861D48808E002804DD1B48808E7E
:10501000401E1A4988861948C08E002804DD1748AA
:10502000C08E401E1549C8861448008F002805DD33
:105030001248008F401E81B2104801870F48008E31
:10504000002805DD0D48008E401E81B20B48018608
:105050000A48808F002804DD0848808F401E0749D9
:1050600088870648408F002804DD0448408F401E92
:105070000249488710BD0000FC000020BC0300204E
:105080001B480088002804D019480088401E184991
:10509000088018480088002804D016480088401E60
:1050A0001449088014480088002804D01248008859
:1050B000401E1149088011480088002804D00F487C
:1050C0000088401E0D4908800D480088002804D043
:1050D0000B480088401E0A4908800A4800880028BA
:1050E00004D008480088401E064908807047000028
:1050F000D0000020D2000020D4000020D6000020E4
:10510000D8000020DA000020704700000349088022
:1051100000BF024909880029FBD17047D000002058
:10512000F0B50C4600210025068C0A4F3E4006844F
:10513000018B058C074EF23E31401E05360C16439E
:105140003143044E093E3540012626433543018351
:105150000584F0BDFEFF0000F8B50C4600210025D7
:1051600000260096068C0D4F3E400684018B058C70
:105170002605360C00960A4E31401E07360C314388
:105180001606360C3143054E903E35401027009EE2
:105190003E43354301830584F8BD0000EFFF000066
:1051A000FF0C0000F8B50C460021002500260096F3
:1051B000068C0C4F3E400684818B058C2606360CEF
:1051C0000096084E0D3631401E05360C164331430D
:1051D000054E3540FF270137009E3E43354381830E
:1051E0000584F8BDFFFE0000FFF50000F8B50C4691
:1051F0000021002500260096068C0D4F3E400684B7
:10520000818B058C2607360C00960A4E3140160617
:10521000360C31431E07360C3143074E354001270B
:105220003F03009E3E43354381830584F8BD000063
:10523000FFEF0000FF0C0000FF5F00007047000060
:105240000948008A02210840002809D0481F064961
:10525000088208460088054908400349088002E0A2
:10526000002001490882704700440140FEFF000011
:1052700010B580210B4800F050F8012807D180219B
:10528000084800F027F804200749087048730121F6
:10529000044800F042F8012803D10121014800F040
:1052A00019F810BD002C0140FC03002010B5FEF7DA
:1052B00099FD10BD0A884B881A438B881A43CB8806
:1052C0001A430B891A434B891A438B891A43442387
:1052D0001A527047CA43028270470000002904D066
:1052E000028801231A43028003E00288014B1A401E
:1052F00002807047FEFF0000002907D04422125AA6
:105300000123DB031A4344231A5205E04422125AB4
:1053100053045B0C44221352704730B50246002000
:1053200000230024158A0D402B4695890D402C46FC
:10533000002B03D0002C01D0012000E0002030BD64
:1053400070B505460C46208800280AD12389A2881A
:1053500061882846FFF7E4FEE188284600F086F9D8
:1053600025E0208804280AD12389A288618828465C
:10537000FFF7F2FEE188284600F082F917E0208866
:1053800008280AD12389A28861882846FFF70AFFE6
:10539000E188284600F080F909E02389A288618825
:1053A0002846FFF723FFE188284600F07FF970BD0B
:1053B000002A03D083890B43838102E083898B43D6
:1053C0008381704770B5002400220023058C1C4E99
:1053D00035400584028C8388048B194D6F3D2C4029
:1053E000B51E2C400D882C43751E2A408D892A43FA
:1053F0004D882A43134DA84208D0134DA84205D02A
:10540000124DA84202D0124DA84212D10C4DED1FF0
:105410002A40CD892A430A4DED1E2A408D882A4311
:10542000074DFF3D2B400B4D2B400D8A2B434D8AE2
:105430002B43838004838D684563028470BD000024
:10544000FEFF0000002C01400040014000440140EC
:1054500000480140FFFD00000A460021018B034B7C
:1054600019400B461343194601837047F7FF0000AC
:1054700070B5002400220023058C214E35400584A0
:10548000028C8388048B1F4D2C401F4D2C400D78BF
:105490002D062D0C2C431A4D103D2A408D892D05CB
:1054A0002D0C2A434D882D052D0C2A43174DA8425B
:1054B00002D0174DA8421CD1164D2B400D8AAD04C9
:1054C0002D0C2B43114DA84213D10D4D703D2A4098
:1054D000CD892D052D0C2A43094D303D2A408D885C
:1054E0002D052D0C2A430C4D2B404D8AAD042D0C5F
:1054F0002B43838004838D688563028470BD000024
:10550000EFFF0000FF8F0000FFFC0000002C0140B7
:1055100000400140FFFB0000FFF700000A460021A9
:10552000018B034B194013061B0C19430183704771
:10553000FFF7000070B5002400220023058C1C4EEC
:1055400035400584028C8388848B194D90352C401E
:10555000174DFD352C400D882C43164D2A400D7BF0
:105560002D062D0C2A438D782D062D0C2A43124D25
:10557000A84217D1114D2A408D7B2D062D0C2A43B0
:105580000F4D2A400D792D062D0C2A430D4D2B4031
:105590000D4D2B400D8A2D052D0C2B434D8A2D05CD
:1055A0002D0C2B43838084838D68C563028470BD7A
:1055B000FFFE0000FFFD0000002C0140FFF700008F
:1055C000FFFB0000FFEF0000FFDF00000A460021A4
:1055D000818B034B19400B46134319468183704757
:1055E000F7FF000070B5002200230024058C134E45
:1055F00035400584038C8488828B114D2A40114DDF
:105600002A400D782D062D0C2A430F4D2B400D7B83
:105610002D072D0C2B438D782D072D0C2B430B4D77
:10562000A84205D10A4D2C400D8AAD052D0C2C4306
:10563000848082838D680564038470BDFFEF000061
:10564000FF8F0000FFFC0000FFDF0000002C014086
:10565000FFBF00000A460021818B034B194013064F
:105660001B0C194381837047FFF70000028B034B2B
:105670001A400283028B0A4302837047F3FF000043
:10568000028B044B1A400283028B0B061B0C1A433D
:1056900002837047FFF30000828B034B1A40828322
:1056A000828B0A4382837047F3FF0000828B044B96
:1056B0001A408283828B0B061B0C1A43828370472D
:1056C000FFF3000000220288154B984206D0012308
:1056D0009B07984202D0134B984203D1124B1A40B9
:1056E0004B881A43114B984203D0114B1A400B8937
:1056F0001A4302804B68C3620B880385084B9842AB
:1057000008D00C4B984205D00B4B984202D00B4B63
:10571000984201D18B7A038601238382704700006F
:10572000002C0140000400408FFF000000100040EA
:10573000FFFC0000004001400044014000480140DF
:1057400010B5FEF731FB012856D10520FFF7B6FB57
:105750002A48008809280FDA2948C08901B2274859
:10576000008842002548801C8152801E0088401C11
:1057700081B22248018012E00021204801800A21E4
:10578000801C00F047FB1D49C8820A461821515E63
:105790001620105E1B4AFEF7ECFD184908831748D7
:1057A0004038808C092811DA1548408901B2134825
:1057B0004038808C420011481A3881522638808C3B
:1057C000401C81B20D484038818415E000210B480F
:1057D000403881840A21263000F01CFB07494039FB
:1057E00048870A463C21515E3A20105E054AFEF782
:1057F000C0FD02494039888710BD0000FC0400202C
:10580000E4000020DA0C000010B54349434800F0E2
:10581000A3F8012872D1414800F062F9C4B23E49B0
:105820003E4800F081F83E48007C002865D13C48A5
:10583000C189C089401C82B23948C281FF38FB3817
:1058400044543748C08902280CD1364880795A28F8
:1058500003D13448C079A5284FD000213048C181F8
:1058600001744AE02E48C089062815D12D48C17A16
:105870002B484182807C01022A48807A081808302F
:1058800081B2274841822748017A25480175254879
:10589000417A2348417530E02148C189408A8142DC
:1058A00005DB01211E4801740021C18125E01C484F
:1058B000C089022821DD1A48C089801E1949891D26
:1058C000085C5A2819D11648C089401E085CA528D2
:1058D00013D15A20891F8871A5211248C171002255
:1058E0000F48C089801E0F49891D0A540C48C08981
:1058F000401E0A5402210A48C18100BF08210748FE
:1059000000F020F8012806D1044800F0E9F8082149
:10591000024800F009F810BD0501050000380140FB
:10592000FC020020FC00002001627047002904D026
:10593000026801231A43026003E002685208520021
:105940000260704702460020D3690B40002B01D053
:10595000012000E00020704770B502460B4600248D
:105960000021002500201E04350ED9B201268E40EC
:105970003146012D02D11668314006E0022D02D1D8
:105980005668314001E0966831401C0C0126A64063
:105990003446D6693440002903D0002C01D00120C0
:1059A00000E0002070BDF8B50346002400260096F4
:1059B0000025002018460E04340ECEB200960127B2
:1059C000009EB7403D46022C01D1001D02E0032C91
:1059D00000D10830002A03D006682E43066002E09A
:1059E0000668AE430660F8BDF0B58BB004460D46C0
:1059F000002700200A900026206840084000206010
:105A0000666803210903304688430646A8680643B2
:105A1000666026682D480640E96868680843296979
:105A2000084306432660A6680321090230468843DE
:105A3000064668690643A6606846FEF7E5FE244808
:105A4000844202D106980A900DE02248844202D195
:105A500007980A9007E02048844202D108980A90EB
:105A600001E002980A9020680121C903084000283B
:105A70000CD029680A9A5000FCF7BCFB074629683D
:105A80000A9A5000FCF7B6FB0E4609E029680A980E
:105A9000FCF7B0FB074629680A98FCF7ABFB0E46FB
:105AA00028684008B04200D87F1C20680121C90343
:105AB0000840002806D03807460F384607490840F6
:105AC00030430746A7810BB0F0BD0000F3E9FFFFAC
:105AD000003801400044004000480040F0FF000052
:105AE0000146888CC005C00D7047CA05D20D0285DD
:105AF0007047000010B5FEF761F9012827D1FFF7C4
:105B0000E3F9FDF763FEFDF77BFC11488088002870
:105B100005DD0F488088401E0D49888017E08021F0
:105B20000C48FEF715F9002804D180210948FEF73A
:105B30001BF90CE00648C088002805DD0448C08831
:105B4000401E0349C88002E001200149087210BDCF
:105B50004C050020001400481CB5012111208004D0
:105B6000FEF712FE8020009001216846017141710C
:105B700000218171C17169462648FEF77FF88021B6
:105B80002448FEF7EFF802200090012168460171D9
:105B9000417100218171C17169461E48FEF76EF89E
:105BA00002211C48FEF7E0F80120C002009001210C
:105BB000684601710321417100218171C1716946FB
:105BC0001548FEF75BF80120C002134988614020A8
:105BD000009001216846017103214171002181710A
:105BE000C17169460B48FEF749F840210948FEF7A4
:105BF000B9F800200949488101208873C870002045
:105C00000880887006488880FF20F530C880002012
:105C100008721CBD00140048000400484C05002018
:105C2000B80B000010B5FEF7D3F801285AD10220B6
:105C3000FFF750F92C48008D09280EDA2B4800890F
:105C400001B22948008D420027482A3081522A3863
:105C5000008D401C2449088516E000202249088553
:105C60000A2121482A3000F0D5F81F49C8870A4682
:105C700040320021515E403A3E20105E1C4AFEF741
:105C800078FB1949403108801A4C174840303021C0
:105C9000415EA14219D9808DFF21F531884208DA91
:105CA00011484030808D401C81B20F4840308185C2
:105CB00018E004200C49087048730F4880780221CE
:105CC0008843801C0C4988700CE007484030808D68
:105CD000002807DD04484030808D401E81B2024814
:105CE0004030818510BD0000FC030020E40000204E
:105CF000DA0C0000D2020000FC00002030B4744630
:105D0000641E2578641CAB4204D3635D5B00E3181A
:105D100030BC18471D46F8E710B5002819DB1A4AB1
:105D200003231B02D21883089B00D2588307DC0E82
:105D3000FF23A3409A438B071B0E8407E40EA34066
:105D40001A43114B032424021B198408A4001A517E
:105D500018E00E4A03071B0F083B9B089B00D25814
:105D60008307DC0EFF23A3409A438B071B0E840797
:105D7000E40EA3401A43054B0407240F083CA40873
:105D8000A4001A5110BD000000E100E01CED00E08D
:105D9000002007E081001B4A8918096882001A4B1D
:105DA0009950401C3028F5D301210846FEF71CFD10
:105DB0000320FFF763F8FDF76DFE00F0CBF801F06C
:105DC000CDF8FFF7C9FE00F067F8FDF789F901F09B
:105DD0005FF9FDF74FF8FEF77BFF0C480C49486070
:105DE00003200870012008720BE0FFF783FE00F02B
:105DF000DBF8FEF797FFFFF715FFFFF7A1FCFEF7B3
:105E0000C1FAF2E70020000800000020DC050000D5
:105E1000FC030020FCB5024600241AE0002312E037
:105E20005800165E581C4000105E864209DD58007E
:105E3000155E581C4000105A5E009053581C4000DC
:105E40001552581CC3B2081B401E9842E8DC601C67
:105E5000C4B2481EA042E1DCC807C00F002806DD1E
:105E6000481CC60F361876107600955F12E008467B
:105E7000CE0F361876107600965FCF0F3F187F1042
:105E80007F1C7F000091D75FF619F70F0196BE19AE
:105E9000761035B22846FCBD032029490870002041
:105EA00048600120087200208872C87208730120BF
:105EB0004873002048610883087788770862214882
:105EC00088844820C88420491D4840300180002033
:105ED0001B4908851C48C88700211948403041806B
:105EE0008180C03081830184C0388185C18501866D
:105EF000FF20B230124948670846818C803001612A
:105F000032210163416300210187C16381650F492B
:105F1000C1624161143041608160C16001614161D1
:105F200000212C3081840A49418781870021C18763
:105F3000403001800649C1820183002141837047BE
:105F4000FC0300209F0F00003C0700006A180000BF
:105F50008B0E000010B58AB06846FEF755FC042091
:105F6000FFF720F87D21C9000198FCF743F90446AA
:105F7000601E0B49884200D90CE0601E0949486147
:105F80000321081FFFF7C8FE00200649886107208B
:105F9000086100BF0A20FFF7B9F80AB010BD000081
:105FA000FFFFFF0000E000E0F0B589B0FE48808808
:105FB000002805D1FC48007840084000FA490870E4
:105FC000FA48007C002877D0F848408A801E81B2C9
:105FD000F548801DFDF7FAF9F449C8820846408A61
:105FE000801EFF39FB390A5CF048418A491EFF38A0
:105FF000FB38405C0002101881B20791EB48C18A5F
:10600000079881427BD1EA49E7488180E748007DD3
:10601000112875D243007B449B885B009F4410008D
:1060200024008200830050029B02C50270007000B1
:10603000700070004F038E035C040D0539053E05AA
:10604000D948007802218843D749097B49000222B8
:1060500011400843D4490870D448417D00231A46B2
:106060000120FEF715FB2AE2D048417D2030007E5A
:10607000814210D1CD48E030C07940084000401C3A
:10608000CA49E031C871C848007840084000401C47
:10609000C549087045E0C548407DC4493831497854
:1060A00088420AD1C148E030C07902218843801C6F
:1060B000BE49E031C87134E0F3E3BC48407DBB49E0
:1060C00038318978884209D1B848E030C079042154
:1060D0008843001DB549E031C87122E0B348407DD6
:1060E000B2493831C97888420BD1B048E030C07924
:1060F000082188430830AD49E031C87111E0FDE363
:10610000FDE3AA48407DA94938310979884208D180
:10611000A648E030C079102188431030A349E0310F
:10612000C871A0E79FE7A0480078C007C00F00280B
:106130007ED09D4800788007C00F0028F8D09B488B
:10614000417D00231A460120FEF7A2FA9648007B03
:106150000300FFF7D3FD0B07FEFEFEFEFD5843E9EB
:10616000FCFBFE0093493020085EFCF792FB0646DC
:10617000914A924BFCF798FB0022914B01910090C1
:10618000FCF792FB8F4A904B03910290FCF7E2F8E8
:1061900005910490FCF738FB84B2844820304477A2
:1061A000201282493D31487082484030008E88700C
:1061B00080484030008E0004000EC87008461D382C
:1061C000C07D401CC1B279482030C175C17D0346F5
:1061D0001D3304220920FEF75BFA6FE17348C030DB
:1061E000808D7249203148770846C07D401CC1B27D
:1061F0006E482030C175C17D03461D330122072042
:10620000FEF746FA5AE168480078C007C00F002838
:1062100018D0654800788007C00F0028F8D0634880
:106220002030007D01280ED10B206049203100E094
:1062300045E148775D48417D03463D330122022018
:10624000FEF726FA6FE05848017B407B00020918F0
:106250005548807B000409185348C07B0006091884
:10626000524881625048017C407C000209184E4827
:10627000807C000409184C48C07C000609184B4873
:10628000016380210162006A4849896A491E4843C6
:106290004649096B091A45484162006B1B21890276
:1062A000884234D84148006A0121490288422ED8E8
:1062B00040484038C07A012805D1FDF76DF8032128
:1062C0003C484038017001213848203001750021D8
:1062D0002038C162FDF7DEFB3C493D48FDF782FBFB
:1062E000002807D13148417D00231A460120FEF7DE
:1062F000CFF918E009212D48203041772038417D21
:1063000003463D3301220220FEF7C2F90BE00820CC
:106310002649203148772548417D03463D330122F7
:106320000220FEF7B5F9C9E02048C030408D1F4972
:10633000203148770846C07D401CC1B21B48203040
:10634000C175C17D03461D33012203E057E005E01E
:1063500085E0A6E00820FEF79BF9AFE01549302064
:10636000085EFCF796FA0646134A144BFCF79CFAB3
:106370000022134B01910090FCF796FA114A124B40
:1063800003910290FBF7E6FF05910490FCF73CFABD
:1063900084B2064820304477201204493D314870C9
:1063A00004484030008E15E0FC000020FC02002074
:1063B000881300003C0400206666666666660A4034
:1063C00000408F405B2041F163CC6D40FFF7000837
:1063D000009000088870FE48008E0004000EC8700F
:1063E00008461D38C07D401CC1B2FA48C175C17D48
:1063F00003461D3304220920FEF74AF95EE0F44902
:1064000040390020085EFCF744FA0646F24AF34B96
:10641000FCF74AFA0022F24B01910090FCF744FA93
:106420000022F04B03910290FBF794FF059104903A
:10643000FCF7B4F905B2E7494D772804000E1D3189
:106440004870E448C07D401CC1B2E248C175C17DBE
:1064500003461D3302220A20FEF71AF92EE0E2A1BC
:10646000DC481D30FBF7B2FEE4A1DA483130FBF71F
:10647000ADFEE7A1D7484530FBF7A8FEE9A1D54816
:106480005930FBF7A3FED348C07D401CD149C875E5
:106490000846C17D03461D3350220520FEF7F8F85B
:1064A0000CE00520CB49487708462038417D03465B
:1064B0003D3301220220FEF7EBF800BF00BF2EE3C0
:1064C000DD480078C007C00F002843D0DA480078C4
:1064D0008007C00F00283DD0D848807B002839D0E5
:1064E000D648007A002835D0B9488038C07A0428C8
:1064F00030D0D14800780007C00F00282AD1CE48FC
:10650000C078002826D1CC48067B0120B0498039CC
:106510000872002E08D103200870C74800780421B3
:106520008843C54908700CE0012E0AD10120A84912
:1065300080390870C048007804218843001DBE4996
:106540000870A4482038417D00231A460120FEF738
:106550009FF800BFE3E29F482038417D00231A46A0
:106560000120FEF795F8A0A19A481D30FBF72EFEFA
:10657000A2A198483130FBF729FEA5A195484530E6
:10658000FBF724FEA7A193485930FBF71FFE914863
:10659000C07D401CC1B28F48C175C17D03461D330B
:1065A00050220520FEF774F8B9E2A3480078C0072E
:1065B000C00F00287ED0A04800788007C00F0028B8
:1065C0007CD09D48017B407B000209189A48807B63
:1065D000000409189848C07B00060E1898488642A7
:1065E00006D8FF20F530864202D37948803806610C
:1065F0009148017C407C000209188F48807C00048F
:1066000009188D48C07C00060E1871488038466015
:106610008948017D407D000209188748807D00047B
:1066200009188548C07D00060E18642E01D2642624
:1066300007E0674880380069B04202D26448803879
:1066400006696349803908693146FBF7D3FD7D4906
:1066500048617948017E407E000209187648807EB4
:10666000000409187448C07E00060E18642E01D27A
:10667000642607E0564880380069B04202D2544888
:10668000803806695249803908693146FBF7B2FD06
:106690006C4988610846826941694D4880380369C0
:1066A0001846FDF74BF94B482038417D00231A4628
:1066B000012000E002E0FDF7EBFF00BF2FE25E48A3
:1066C0000078C007C00F002837D05B4800788007EB
:1066D000C00F002831D05848007B0821084000280E
:1066E00012D03B488038417304210170042038499E
:1066F0008039C872FCF750FE4F4800780821884363
:1067000008304D4908700CE0012031498039487348
:1067100003200870C8724848007808218843464919
:1067200008704548407B4449C8702A482038417D5C
:1067300000231A460120FDF7ABFFF0E13E48007848
:10674000C007C00F002815D03B4800788007C00F55
:1067500000280FD01F48007D01280CD10B201D49B7
:10676000487708462038417D03463D330122022008
:10677000FDF78EFFAFE03048017B407B0002091837
:106780002D48807B000409182B48C07B000609189F
:106790001048203881622848017C407C000209189A
:1067A0002548807C000409182348C07C000609188D
:1067B00008482038016380210162006A05492039B8
:1067C000896A491E484303492039096B091A3BE08D
:1067D0007C0400201C0300206666666666660A402C
:1067E000002069400000B040202020535A2D4C4822
:1067F0002D4D43552D424C44433231002020202062
:106800002020202020202032332E30332E3237001B
:106810002020202020202020202020202030302E4A
:106820005330330020202020202020202020202032
:106830002030302E53313100FC0000204C05002068
:10684000DC05000020050020FE484162006B1B2192
:106850008902884233D8FB48006A012149028842F4
:106860002DD8F948C07A012804D1FCF795FD032002
:10687000F54908700120F349203108750021F148DD
:10688000C162FDF707F9F149F148FDF7ABF80028BF
:1068900008D1EC48417D00231A460120FDF7F8FE9F
:1068A00019E05AE10921E748203041772038417D3D
:1068B00003463D3301220220FDF7EAFE0BE00820EB
:1068C000E04920314877DF48417D03463D330122CE
:1068D0000220FDF7DDFE22E1DE480078C007C00F90
:1068E000002874D0DB4800788007C00F00286ED0E5
:1068F000D4482030007D00286AD001E010E101E199
:10690000D448017B407B00020918D248807B0004F8
:106910000918D048C07B00060E18CA48C06AB042A9
:1069200064D1C848806A401EB04238D9C548408A00
:106930000C38C449096A884224D1B3B2C148008CDA
:1069400082B2C4491031C248FDF708F900280CD1C1
:10695000BC48C06A401CBB49C8620846417D002350
:106960001A460120FDF794FE4CE00920B54920317C
:106970004877B448417D03463D3301220220FDF7AC
:1069800087FE3FE00820AF4920314877AD48417D80
:1069900003463D3301220220FDF77AFE32E0B3B216
:1069A000A848008C82B2AB491031A948FDF7D6F84F
:1069B00000280ED1A348C06A401CA249C8620846FC
:1069C000417D00231A460120FDF762FE1AE027E010
:1069D00019E009209B49203148779A48417D0346B8
:1069E0003D3301220220FDF753FE0BE007209549BD
:1069F000203148779348417D03463D3301220220F0
:106A0000FDF746FE18E006208E49203148778D4874
:106A1000417D03463D3301220220FDF739FE0BE0A4
:106A200000208849203148778648417D03463D3320
:106A300001220220FDF72CFE71E086480078C00795
:106A4000C00F002820D0834800788007C00F00289E
:106A50001AD07C482030007D002815D07948C16AC2
:106A6000806A814210D17B48007B01280CD1754996
:106A7000086BFCF789FF002172480163417D002308
:106A80001A460120FDF704FE00206E4920310875EA
:106A900045E000206B492031087540E06D480078E2
:106AA000C007C00F00282CD06A4800788007C00FAC
:106AB000002826D0FCF770FC032063490870614869
:106AC000417D00231A460120FDF7E2FD0020FEF77C
:106AD000D5F900BF00BF00BF00BF00BFBFF34F8F9D
:106AE00000BF00BF00BF5C485C49C86000BF00BF7A
:106AF00000BFBFF34F8F00BF00BF00BF00BF00BF8C
:106B0000FDE70CE003204F49203148774D48417D97
:106B100003463D3301220220FDF7BAFD00BF0BE022
:106B200002204849203148774648417D03463D339D
:106B300001220220FDF7ACFD0020464988710021AA
:106B40004448C17101724121C9003E484182FF2180
:106B5000017500214175017400BF3E4800783D4930
:106B60004978884204D13748C030C08D002829D1E7
:106B700038480078374948703248E030C0794008DA
:106B800040003049E031C87132480078C039487758
:106B9000304880781D31487008461D38C07D401C43
:106BA0001D39C8750846C07D08760846C17D034674
:106BB0001D3302220020FDF76BFD7D20C00021491E
:106BC000C031C8851F482030007D00287DD1214874
:106BD0000078C007C00F002877D01E4800788007D3
:106BE000C00F0028F8D01748C030008E002865D1AB
:106BF0001548C07A012861D1134940313020085E20
:106C0000FBF747FE0646164A164BFBF74DFE0022E1
:106C1000154B03910290FBF747FE144A144B059164
:106C20000490FBF797FB07910690FBF7EDFD84B20C
:106C3000044920314C7720121D31487002488030C1
:106C4000008E17E0FC020020FC030020FFF7000884
:106C500000900008FC0000200400FA0500ED00E0B0
:106C60006666666666660A4000408F405B2041F1BA
:106C700063CC6D408870B148008E0004000EC8706F
:106C80000846A330C07908218843AD49C871084639
:106C9000C038C07D401CC039C8750846C07D183159
:106CA000C87008461838C17D03461D3304220920E8
:106CB000FDF7EEFC6420A24920390886A048203860
:106CC000808F00287ED1002602E034E1701C86B25D
:106CD00070009C49095A994840303C22825E91429A
:106CE00001DC922EF2DB96482038818D30461E3032
:106CF00081422FD0922E04DBFF20914920398885D4
:106D000005E030461E3081B28D48203881858C48A0
:106D10002038808D8A49C03948770846C07D401C9C
:106D2000C1B28748C038C175C07D8549A83948704F
:106D300008461838C17D03461D3301220720FDF7A0
:106D4000A7FC7F48C079022188437D49C871C820CB
:106D500020398886002601E0701C86B270007949CF
:106D6000095A764880301822825E914201DC922EC8
:106D7000F2DB73482038418D30461E30814231D0DD
:106D8000922E04DBFF216E482038418504E0304616
:106D90001E306B492039488569482038408D684944
:106DA000C03948770846C07D401CC1B26448C0382D
:106DB000C175C07D6249A839887008461838C17D00
:106DC000034600E05AE01D3301220820FDF760FC75
:106DD0005B48C079042188435949C871C821584883
:106DE0002038C186554940390020085EFBF751FD27
:106DF000554A564B01910090FBF756FD0022544B2B
:106E000003910290FBF750FD0022524B0591049034
:106E1000FBF7A0FA07910690FBF7C0FC05B24849C2
:106E200020392820085EA84223D008460585A039CD
:106E30004D772804000E1D31487008461D38C07D6E
:106E4000401C1D39C8750846C07D183108710846B8
:106E50001838C17D03461D3302220A20FDF718FCB5
:106E60003748C079102188433549C871C820203976
:106E70000887394832492039888700BF3048203890
:106E8000808E002817D12E48C0798007C00F0028B7
:106E900011D12B482038808D2949C03948770846C0
:106EA00018304178431D01220720FDF7F1FBC8206F
:106EB00023492039888622482038C08E002817D1DF
:106EC0001F48C0794007C00F002811D11C48203846
:106ED000408D1B49C0394877084618308178431DDA
:106EE00001220820FDF7D4FBC82015492039C886A7
:106EF00013482038008F00281DD11148C079C006E2
:106F0000C00F002817D10E482038008D0C49C03919
:106F100048770846A030008D0004000E1D314870EF
:106F2000481F0179431D02220A20FDF7B1FBC8204A
:106F300003492039088709B0F0BD00007C04002017
:106F4000DC0300204C7600086666666666660A40CA
:106F5000002069400000B040DC05000000B589B0A9
:106F600001218804FDF710FC002206214148FCF7AE
:106F7000CDFE002207213F48FCF7C8FEC020079045
:106F8000022108A8017003214170002181700121B4
:106F9000C17007A93748FCF771FE01218803FDF78E
:106FA00013FCE12040020190002002900390049025
:106FB00006900C20059001A92F48FEF715FD1B2116
:106FC000684601700321417001218170FDF7CAFA02
:106FD000002029490862012228492748FEF7E3FCDE
:106FE00001212548FEF7A2FC002025490870FF205A
:106FF000487000208870C87000212248C181224852
:107000001F498880FF211F48E030C1714121C9001C
:10701000E0384182FF210175002141750183FF2184
:1070200081760021C176017700201649203148750C
:10703000C87500211348E030417100201149E0314A
:107040008871C8202039C88548868886C886088700
:1070500064210C48C03041870C4981878021C038A9
:107060000162002181620163002006492031087518
:1070700009B000BD000400480038014005010500CA
:10708000FC000020FC02002088130000DC0500004A
:1070900010B590B00121C802FDF796FB00216846AB
:1070A0008185C18573480C906846818608A88175E2
:1070B0000BA97148FEF706FB702168460183012188
:1070C0004183002181836B48401C0890022168465F
:1070D00081840821C18449010185418506A966484A
:1070E000FEF770F906A96448FEF7C2F906A96248DE
:1070F000FEF720FA602168460183F3200001089022
:1071000006A95D48FEF76EFA00215B48FEF7A4F978
:1071100000215948FEF702FA00215748FEF756FAB7
:1071200000215548FEF796FA0121C90268460181FF
:1071300049104181891081816021C18101210903A8
:10714000018200214182818202A94B48FEF7B2F8F8
:10715000012103204004FDF717FB02220C214748C0
:10716000FCF7D4FD012000030E90022108A801774E
:107170000321417700218177C1770EA93F48FCF7B1
:107180007DFD022208210920C006FCF7BFFD022276
:107190000921C806FCF7BAFD02220A210920C0060F
:1071A000FCF7B4FD02220B210920C006FCF7AEFD5E
:1071B0000F2000020E90022108A8017703214177D9
:1071C000002181770121C1770EA90920C006FCF7B3
:1071D00055FD02220D212948FCF798FD02220E21BF
:1071E0002648FCF793FD02220F212448FCF78EFD70
:1071F000072040030E90022108A801770321417760
:10720000002181770121C1770EA91C48FCF736FDCA
:1072100081211948FEF75EF8012280211648FEF709
:10722000C7F801211448FEF767F801211248FEF75C
:1072300055F80D21684601710021417101218171CC
:1072400001A8FDF78FF900200D4988770D490874D2
:107250000848401C88820A4CA37F0C46A28AA18A57
:10726000A08AFCF71DFB0649887F00F00DF810B0DE
:1072700010BD00009E0F0000002C014000040048DB
:10728000FC030020E400002070B5044617480821E4
:10729000415E902911DA16494889FBF702FB054641
:1072A0000022144B00F074F80ED81348007C01281B
:1072B0000AD100201049087406E00F48007C00281D
:1072C00002D101200C4908740B48007C0C21484372
:1072D0000A4940186100405A09490880064B9A8AB9
:1072E000998A988A2346FCF7DBFA70BD3C0400209B
:1072F0002005002000003840E4000020047600084B
:10730000202C01400121064A11741146097C0C22EF
:107310005143044A89184200895A034A1180704730
:10732000E400002028760008202C014070B50125DB
:107330000C002D051C4310D4EC4206D4AC420AD4F8
:10734000994200D070BD904270BDE94217D4EB4223
:1073500015D4994270BD894270BDEC4206D5AC424D
:10736000F9D58B4200D070BD824270BD6D004C00DB
:10737000EC4204D25C00EC4201D28B4270BD034C63
:1073800030B4FBF729FC30BC70BD00BF19001604F7
:1073900070B501251C002D050C4310D4EC4206D419
:1073A000AC420AD48B4200D070BD824270BDEB4229
:1073B00017D4E94215D48B4270BD9B4270BDEC429C
:1073C00006D5AC42F9D5994200D070BD904270BD4F
:1073D0006D005C00EC4204D24C00EC4201D29942B8
:1073E00070BD0FB4034C0CBC03BC30B4FBF7F4FB12
:1073F00030BC70BD1900160470B501250400ED07FE
:107400004C4020D4441A01D2001B0919C60D4B0070
:10741000F2B2FF2A29D01B0E2CD000020C02D31A84
:107420002C43DC402843051910D2280A02D3401C03
:107430006D0611D0761EF6058019FF2A00DA70BDA0
:10744000C00DC00570BD694000F07AF80120054309
:10745000C541521C761CE8E764089C40C9016140A4
:107460008900E7D10124A043E4E71B0E440200D0C9
:10747000034870BD002AFCD1C00FC00770BD00BF1B
:107480000000C07F70B5420064414B005C41120EA9
:1074900039D01B0E38D0FF2A3CD0FF2B3AD0400207
:1074A0004902400A490A060045184E43000A090AE3
:1074B000D2184843ED017F3A0104731A4019190CA0
:1074C0004318990F04D001215B0849075B1A521C2D
:1074D000D80904D3401CF50301D19D0607D0FF2A2B
:1074E00008D2D50506D0E4072043401970BD012518
:1074F000A843F4E7002A01DCE00770BD2402FF2066
:107500002043C00570BD1B0EFF2A03D0FF2B01D006
:10751000E00770BDFF2645003606B54206D84D008F
:10752000B54203D8D218FF2A00D0E7E7004870BD63
:107530000000C07F70B501250400ED074C4022D447
:10754000441A02D26C40001B0919C60D4B00F2B25E
:10755000FF2A4BD01B0E50D000020C02D31A2C4332
:10756000DC40A843051B05D5AD0019D36D08761E78
:10757000521E37D0F605280A01D2801970BD70411D
:107580006D0603D070BD6940FFF73CFF9C400902C7
:107590006140490001D0401E70BD0124A04370BD70
:1075A0006D081DD001202B0C01D12D0410302B0EA5
:1075B00001D12D0208302B0F01D12D01001DAB0F81
:1075C00001D1AD00801CEB0F01D16D00401C6D009E
:1075D000361A121A680AF5054019012A02DB70BD35
:1075E000002070BDC036300AC00770BD1B0E4402BB
:1075F00001D1FF2B00D1024870BD002AF0D070BD30
:107600000000C07FFB177B1FB71FBF177F1BF71B37
:10761000FF170F1FF71FFF177F1FF71FFF1FFF1F0A
:10762000FF1FFF1FFF1FFF1FFB177B1FB71FBF178A
:107630007F1BF71BFF170F1FF71FFF177F1FF71F7A
:10764000FF1FFF1FFF1FFF1FFF1FFF1FC60FC30FDF
:10765000C00FBD0FB90FB60FB20FAF0FAB0FA70F13
:10766000A30F9E0F9A0F950F900F8B0F860F810F10
:107670007B0F760F700F6A0F630F5D0F560F4F0F62
:10768000480F400F380F300F280F200F170F0E0F25
:10769000050FFB0EF10EE70EDD0ED20EC70EBB0E70
:1076A000B00EA40E980E8B0E7E0E710E640E560E4A
:1076B000480E390E2A0E1B0E0B0EFC0DEB0DDB0DCA
:1076C000CA0DB90DA70D950D800D710D5E0D4B0DF9
:1076D000370D230D0F0DFB0CE60CD10CBB0CA60CCB
:1076E0008F0C790C630C4C0C350C1D0C050CEE0B3F
:1076F000D50BBD0BA40B8B0B720B590B400B260B40
:107700000C0BF20AD80ABE0AA30A890A6E0A540AA6
:10771000390A1E0A030AE809CD09B20996097B094C
:10772000600945092A090F09F308D808BD08A2080D
:1077300087086D08520837081D080208E807CE07B9
:10774000B4079A07800767074D0734071B0702072E
:10775000E906D106B906A106890671065A0642064F
:107760002B061406FE05E805D205BC05A605910505
:1077700000002110422063308440A550C660E770AD
:10778000088129914AA16BB18CC1ADD1CEE1EFF155
:107790003112100273325222B5529442F772D662FD
:1077A000399318837BB35AA3BDD39CC3FFF3DEE3A5
:1077B0006224433420040114E664C774A44485544D
:1077C0006AA54BB528850995EEE5CFF5ACC58DD5F5
:1077D0005336722611163006D776F6669556B4469D
:1077E0005BB77AA719973887DFF7FEE79DD7BCC745
:1077F000C448E5588668A7784008611802282338ED
:10780000CCC9EDD98EE9AFF9488969990AA92BB994
:10781000F55AD44AB77A966A711A500A333A122A3C
:10782000FDDBDCCBBFFB9EEB799B588B3BBB1AABE4
:10783000A66C877CE44CC55C222C033C600C411C8C
:10784000AEED8FFDECCDCDDD2AAD0BBD688D499D34
:10785000977EB66ED55EF44E133E322E511E700EDC
:107860009FFFBEEFDDDFFCCF1BBF3AAF599F788F84
:107870008891A981CAB1EBA10CD12DC14EF16FE164
:107880008010A100C230E32004502540467067609C
:10789000B9839893FBA3DAB33DC31CD37FE35EF3B4
:1078A000B1029012F322D2323542145277625672EC
:1078B000EAB5CBA5A89589856EF54FE52CD50DC504
:1078C000E234C324A014810466744764245405443C
:1078D000DBA7FAB79987B8975FE77EF71DC73CD754
:1078E000D326F2369106B01657667676154634568C
:1078F0004CD96DC90EF92FE9C899E9898AB9ABA9A4
:107900004458654806782768C018E1088238A328DB
:107910007DCB5CDB3FEB1EFBF98BD89BBBAB9ABBF3
:10792000754A545A376A167AF10AD01AB32A923A2B
:107930002EFD0FED6CDD4DCDAABD8BADE89DC98D43
:10794000267C076C645C454CA23C832CE01CC10C7B
:107950001FEF3EFF5DCF7CDF9BAFBABFD98FF89F93
:10796000176E367E554E745E932EB23ED10EF01ECB
:1079700007010302050004070704000502030107CD
:1079800080807F7E7D7C7B7A79787776767574735C
:10799000727171706F6E6E6D6C6C6B6A6A6968681B
:1079A000676666656464636362616160605F5F5EB1
:1079B0005E5D5D5C5C5B5B5A5A5959585857575627
:1079C000565555555454535352525251515050508C
:1079D0004F4F4F4E4E4D4D4D4C4C4C4B4B4B4A4ADE
:1079E0004A49494948484847474747464646454522
:1079F000454444444443434343424242424141415B
:107A0000207A0008C000002024000000F8200008B0
:107A1000447A0008E4000020E40A00001421000871
:107A20000000000001020304010203040607080924
:107A30000000000000000000000000000000000046
:047A40000000000042
:04000005080020B51A
:00000001FF
