:020000040800F2
:10200000E00B0020592100085146000899430008C0
:1020100000000000000000000000000000000000C0
:10202000000000000000000000000000254D000836
:10203000000000000000000011480008754E000874
:10204000892100080000000089210008892100087A
:1020500089210008892100088921000889210008B8
:1020600000000000E93400088D35000889210008CF
:10207000892100082951000889210008000000007A
:10208000655100080000000000000000F550000845
:1020900089210008F95000088921000889210008D9
:1020A000892100088921000889210008C1560008FB
:1020B0008921000800F002F800F03EF80CA030C8BA
:1020C000083824182D18A246671EAB4654465D46B4
:1020D000AC4201D100F030F87E460F3E0FCCB64640
:1020E0000126334200D0FB1AA246AB4633431847C1
:1020F0008C5B0000AC5B0000103A02D378C878C15A
:10210000FAD8520701D330C830C101D504680C6039
:10211000704700000023002400250026103A01D358
:1021200078C1FBD8520700D330C100D50B6070478F
:102130001FB51FBD10B510BD00F0CAFD1146FFF759
:10214000F7FF03F063FE00F0E2FD03B4FFF7F2FFD8
:1021500003BC00F017FE00000F4880F308880F480A
:102160000168090E0E4A914205D10E480E490160E0
:102170000E480F4901600F4880470F480047FEE7AF
:10218000FEE7FEE7FEE7FEE7FEE700000B480C492E
:102190000C4A0D4B70470000E00B002004000000CB
:1021A0001F00000018100240010000000000014064
:1021B00000000000C14F0008B5200008E005002025
:1021C000E00B0020E0070020E00700200FB41CB562
:1021D000074B06AA7B4469460090059800F0E3FC93
:1021E0000020694600F0F2FC1CBC08BC04B0184793
:1021F000F5090000002203098B422CD3030A8B420D
:1022000011D300239C464EE003460B433CD40022EE
:1022100043088B4231D303098B421CD3030A8B4200
:1022200001D394463FE0C3098B4201D3CB01C01ACE
:10223000524183098B4201D38B01C01A5241430999
:102240008B4201D34B01C01A524103098B4201D387
:102250000B01C01A5241C3088B4201D3CB00C01AF4
:10226000524183088B4201D38B00C01A524143086C
:102270008B4201D34B00C01A5241411A00D2014691
:102280005241104670475DE0CA0F00D0494203102A
:1022900000D34042534000229C4603098B422DD379
:1022A000030A8B4212D3FC22890112BA030A8B4221
:1022B0000CD3890192118B4208D3890192118B4270
:1022C00004D389013AD0921100E08909C3098B42F5
:1022D00001D3CB01C01A524183098B4201D38B0138
:1022E000C01A524143098B4201D34B01C01A5241DB
:1022F00003098B4201D30B01C01A5241C3088B4220
:1023000001D3CB00C01A524183088B4201D38B000A
:10231000C01A5241D9D243088B4201D34B00C01A94
:102320005241411A00D20146634652415B101046A9
:1023300001D34042002B00D54942704763465B10F1
:1023400000D3404201B50020C046C04602BD7047E0
:1023500070477047F0B5F94D0C091E092C402E400E
:102360002F468BB0A7437DD0B543FCD0002E7AD04A
:10237000002CFCD00D465D40ED0F2543AC1BFF2526
:10238000AD0464190894C502440DC9022143500DDF
:10239000DC0204430120C00701430443D20201913F
:1023A000200C110C00958C46010423468B430A91A6
:1023B00061460904E24D8A430991010A7D444919A5
:1023C0008039097805464D4301266D18F605751BC1
:1023D0006943C90C640B891C4C436418B5012C1B60
:1023E000250C2E04B4434C434D43210C6918890934
:1023F0000591009DE90701D00121C90704912C46F0
:1024000001996708CD072F434C08059DE10B4D430B
:102410002D0C29466646754302950D4645432E46CA
:10242000029D7D1BB44100950D465D4301942C0C2B
:102430002F040D465543AE462D0C3D4302950394A3
:102440007546049C2D04641B049406D2029C039DD3
:10245000641C002675410395029401AC70CC009F6A
:102460007D1B01E03EE162E1B44109040095079162
:1024700001940599A4086143090C0C464443650B7B
:10248000E7040C4666467443A646640B3C4303953A
:1024900002947446049DE4042C1B049406D2029C0E
:1024A000039D641C002675410395029401AC70CC19
:1024B000009F7D1BB44101940C465C430095650F61
:1024C000E7000C465443A646640F3C430395029430
:1024D0007446049DE4002C1B049406D2029C039DC8
:1024E000641C002675410395029401AC70CC009FDA
:1024F0007D1BB441AE09AF06049DC900AD092F4351
:10250000049DA406AD060495079D34436918079100
:10251000059DE10B4D432D0C2946664675430295FA
:102520000D4645432E46029D7D1BB44100950D4648
:102530005D4301942C0C2F040D465543AE462D0CE3
:102540003D43029503947546049C2D04641B04943A
:1025500006D2029C039D641C0026754103950294DB
:1025600001AC70CC009F7D1BB44101948C05069496
:10257000079C890A611800950791019C0599A40898
:102580006143090C0D464543680BEF040D46644654
:1025900065436C0B3C43049FED047D1BAC4602D2AB
:1025A0000025641C6841009E019D371B854108463B
:1025B000584301950C46460FC5005443600F28430D
:1025C0006546E4002C1B02D20025401C6E41019D93
:1025D0003F1AB5412846BD09800628438446A00914
:1025E000BF064E020699A40676180743079D0020F1
:1025F00068410A99079019430020099B00906046A2
:10260000FF1913434041E20F64003A43A4460446D5
:10261000D71A8C41A04203D90120009020463A46A7
:10262000C70F941840416246D20F224364466400AB
:102630000494009CBE466400D71AA4460446029740
:102640008C417746002F01D1A04204D96046401C3E
:102650008446029A2046C40FA64694184041049A24
:102660000546D20F224364466400D31A8D41714659
:10267000002901D1A84202D928461A46641C1043F9
:102680000122002800D0164361020020079B89190F
:1026900004465C410223002C02DB491813466441C6
:1026A000089DCE0A2D145D194B056705E10A2C051E
:1026B0000D1908993E43C9076940002B08D0934083
:1026C00006D30022761C5141002B01D176087600FA
:1026D0001C4A002D43DB154241D0AA433FD030466F
:1026E0000BB0F0BD06180D464D41174C7642AC417B
:1026F0001AD395181C465C41134A6D42A24113D36C
:10270000012252054C00D4420AD15C00D4420BD0C5
:102710004B4002D592021143E2E749004908DFE746
:102720005940C90FC90718E000200849D8E70548F3
:1027300001420DD10342F7D0F2E700000000FF078D
:102740003C5800000000F07F0000E0FF0000F87F30
:10275000114859400143C01241400020C0E7012305
:10276000089A9B069A4205DC032252078918C90F72
:10277000C907B5E7052252078918074A1143D21243
:102780005140ADE770B515461C4602460B4628463B
:102790002146FFF7DFFD70BDFFFFFF7F30B5034629
:1027A000CA02400D1043164D164C0A1502D02043A4
:1027B000002A06DBAA1A002A12DDD040FF2A0BDC11
:1027C00030BD5205520D01D140004008AA1A07D46D
:1027D000D0404042FF2A01DD002030BD0028FCDD52
:1027E0004A00002B01D0012000E000201018012237
:1027F0005205D042F0D8C817C043604030BD000039
:102800001E040000000000800346CA02400D10B5FF
:1028100010430A1504D00124E4072043002A05DBF5
:102820000A4CA21A04D4D040FF2A00DD002010BDBB
:102830004A00002B01D0012000E0002010180122E6
:102840005205D042F2D8C817C04310BD1E04000084
:102850001F22030C02D10F22000402D0030E03D06A
:1028600004E00020014670470002083A030F01D13E
:102870000001121F830F01D18000921E002801DB8E
:102880004000521E120551184205C0124118104650
:102890007047C10FC90700D040420122920711437F
:1028A000D6E701218907D3E7F0B58B4C0F09254600
:1028B00089B0BD437BD01D092646AE43FAD00E46F3
:1028C0005E402740F60F3E43254071D0240121424F
:1028D000FBD0FF24AD19A4042D1B039501252D0564
:1028E000DB02DB0AC9022B43C90A29431E01090185
:1028F000040F130F050121431701880B8203914335
:102900002D098C46A90B1E438A039543B30B9A03EA
:1029100096433F09BA0B9403A74302962E467E4383
:102920000497B6464E19D7190C460196544305979D
:102930007E43371B7646BF1B3601B646BE0B3619A3
:1029400000967646BC043719009C01D3641C0094A1
:102950006400002F01D001263443029E049F75437A
:1029600066467E430496760034196E00341900944E
:10297000029C019E1C196643751BAE460694654673
:102980004519059C05956C43594375460891691A8C
:102990000191049E01465143A41B0491611A009CBD
:1029A0000791E10605D061090122114302E072E0BE
:1029B0006EE06109089D00272C0A2D066918049D08
:1029C0007C412A0A2D066918019D6241AC0DAD02B9
:1029D0006D185441079A910D920255196141029A5E
:1029E000644658435443069B059A5A43121A131BD4
:1029F0009A0E9B015B187A41010B0005C3185141E7
:102A0000220A200644195A419A4200D2491C012048
:102A10004002814203D315230226F64302E0142329
:102A20000326F6432020C51AA9401746AF40DA40D6
:102A30000A4320460399D840091473181905511800
:102A4000039A3843D2075140AC4009D00122944048
:102A500006D30022401C5141002C01D14008400007
:102A60001E4A934212D3012203989206904207DB3A
:102A70000520400709181A480143C012414004E0EC
:102A8000032040070818C10FC907002009B0F0BD96
:102A90000020F107FAE705180C464C4111486D4239
:102AA000A04115D394181A465A410E4864429041E9
:102AB0000ED301204A004005824209D35A008242C7
:102AC00006D35940C90F084AC90700201143DDE762
:102AD00000200649DAE700000000FF07FE070000BB
:102AE000FFFFFF7F0000E0FF0000F07F0000F87FA5
:102AF00010B501469E240002CA15A307002A02D081
:102B00001843002A04DBA21A002A0CDDD04010BDB5
:102B10001206120E01D140004008A21A03D4D04080
:102B200040420028F3DDFF2248001206904201D9FE
:102B3000002010BDC817C043584010BD1F22030C11
:102B400002D10F2200041CD0030E01D10002083A6A
:102B5000030F01D10001121F830F01D18000921ECB
:102B6000002801DB4000521ED205511802125118F4
:102B70001922904004D3491C002801D1490849007A
:102B800008467047C10FC90700D040420122920792
:102B90001143D3E701218907D0E7000001694A1CEE
:102BA00002610878704700B58FB00291002105914D
:102BB000054901937944039111460490684600F059
:102BC00053F80FB000BD0000E5FFFFFF0A6810706A
:102BD000521C0A6070470000F8B5224C4E00069D5A
:102BE000A6420AD8A64201D1002806D15E00A6421C
:102BF00003D8A6420AD1002A08D00D242404254275
:102C00002CD02946002000F041F8F8BD0C461C43AA
:102C10000CD4994202D0EFF30080F8BD904202D06C
:102C2000EFF30080F8BDEFF30080F8BD092424071E
:102C3000E5008B4206D0EFF30080A043591A06D27C
:102C4000284304E0101A05D3EFF30080A04380F37B
:102C50000088F8BDEFF30080A043F1E7009500F095
:102C60002DF8F8BD0000E0FFF8B5064600244768DF
:102C7000806800903046F56803E00099B847641C0E
:102C80003046A8470028F8D12046F8BDC80212D522
:102C90004803400F002804D0C803C04301218840E6
:102CA0007047EFF300800001000903210907084382
:102CB00080F30088704700207047000010B50020A6
:102CC0000249029A00F02BF810BD00000000F87FC6
:102CD000754600F053F8AE46050069465346C008F5
:102CE000C000854618B020B5FFF750FA60BC002739
:102CF0004908B6460026C0C5C0C5C0C5C0C5C0C5C8
:102D0000C0C5C0C5C0C5403D49008D46704710B51F
:102D10000446C046C0462046FFF717FA10BD10B55E
:102D20000C461107090F092904D00A290AD00829DD
:102D30000CD104E011460820FFF7A8FF06E0510679
:102D400006D501E0510601D50120C007214610BD7E
:102D5000D10607D501010909CC084907000E000674
:102D6000044309E0410F20024907000A0143200EF5
:102D700000061D22D14101430846E7E7004870479D
:102D80008005002001491820ABBEFEE726000200A6
:102D90007047002904D0C26801231A43C26003E0CF
:102DA000C26852085200C2607047C26802239A4348
:102DB000C260C2680A43C2607047000010B5044692
:102DC0000548844207D10121401501F085FD00210D
:102DD000601501F081FD10BD0024014030B50146B1
:102DE0000020002200238C680125ED072C438C6015
:102DF00000BF8C68E30FDB07521C0F242403A242A0
:102E000001D0002BF5D18C68E40FE407002C01D130
:102E1000086C00E0002030BD30B5024600200023E1
:102E2000012424060C40002C05D0946801252D06B1
:102E3000AC43234600E013681C460C40002C01D034
:102E4000012000E0002030BD10B50022C268084B10
:102E50001A400C7964030B6823438C682343CC68C5
:102E600023430C6923434C6923431A43C26010BDBA
:102E700003D2FFFF00B595B00121480401F0FCFC2E
:102E80003F201390032110A801740021C17413A9DD
:102E90000920C00600F0F2FEF320000101F052FF0D
:102EA0000121480201F008FD3B48FFF787FF0020A1
:102EB0000D90002108A801760120C0020F9040204B
:102EC00010900020119012900DA93348FFF7BCFF1D
:102ED0000120314948613F2088620846FFF77EFFA4
:102EE00002212D48FFF761FF01212B48FFF751FF19
:102EF00029488068012108432749886000BF0121D3
:102F00002548FFF789FF0028F9D02348806804216D
:102F10000843214988600121084601F0ADFC1F48A3
:102F200000F05EFB1C4840300290002004901C48DA
:102F30000390062005900020069080200790400016
:102F400008908000099020200A9000020B90002039
:102F50000C9002A9114800F019FC002202210F4830
:102F600000F00AFC01210D4800F02CFB00F01AF8DB
:102F7000022000F017FB01220221084800F0FCFBB0
:102F8000092168460171022141710121817101A865
:102F900001F060FB15B000BD0024014008000240B4
:102FA000F80000203EB500200090019002904849B2
:102FB0004880088000242EE000BF022000F0C2FB01
:102FC0000028FAD0022000F0EDFA68460088404957
:102FD0008988401881B26846018041883C48C08891
:102FE000081881B2684641808188394800890818EC
:102FF00081B268468180C18835484089081881B20D
:103000006846C18001893248C089081881B2684683
:103010000181601CC4B2102CCEDB6846008801110F
:103020006846018000882A49088009880846EB38EC
:10303000002801DB014600E041423C290BDB042073
:10304000244908700A204873234880782021884347
:1030500020302149887068464088011168464180C7
:1030600040881B49488049880846EB38002801DB26
:10307000014600E041423C290BDB04201549087061
:103080000A20487314488078202188432030124950
:10309000887068468088011168468180808801B206
:1030A0000C48403001806846C08801116846C180E4
:1030B000C08801B20748C030818768460089011185
:1030C00068460181008901B2044801833EBD0000C9
:1030D000F4000020140400200C010020140500203E
:1030E00000B589B001210320400401F0C5FB012295
:1030F00007210920C00600F009FE0122062109204F
:10310000C00600F003FEC0200790022108A801704D
:103110000321417000218170C17007A90920C006F8
:1031200000F0ACFD012200213E4800F0EFFD01203F
:103130000790022108A801700321417000218170CD
:10314000C17007A9374800F099FD0121022001F064
:10315000A3FB2F216846018200214182324805905D
:1031600068460183817604A9304802F007FA0021FD
:10317000684681800A21C1800121018100214181AD
:103180000421818101A9294802F036F8042168460A
:10319000818001A9254802F02FF808216846818026
:1031A00001A9224802F028F8102168460170002188
:1031B00041700121817001F04DFA01220F211B485D
:1031C00002F052F80121194801F0E4FF01214804FE
:1031D00001F072FB2F2168460182002141821248D2
:1031E000059068460183817604A9114802F0C6F96A
:1031F00000200F49088208468089022108430C49B3
:10320000888115216846017001214170817001F0AB
:1032100021FA07480088012108430549088009B0C0
:1032200000BD000000040048FFFF00000004004053
:103230000044014010B55048807A030002F09CFD24
:10324000069A040C3D5D809A4B48007F002802D10D
:103250000120494908778DE04748007F002817D1B1
:10326000012045490877022044490874444888826F
:10327000414CA37F0C46A28AA18AA08A00F010FBD1
:103280003D49887F04F03EF90A2001F061FD13E01A
:1032900000F080FD01280FD10020384988820120EC
:1032A0000003384908803848364920394863886324
:1032B000C8630320304988725CE001F041FC334967
:1032C00008700846007848702B48007BC0003049E1
:1032D00040182E490978405C2749887748772D495E
:1032E000254880304161143041608160C1600161D6
:1032F00041610420204988723CE001F0E3F901209B
:103300001E490874C72088821B49887F04F0FAF898
:1033100000201E4908818883174908771B49488186
:103320000021154880300187803081831248C08C8D
:103330001149486105208872012001F009FD19E05A
:1033400000F028FD012814D101F002FD0F4CA36903
:103350006269094C6169606801F018FD21464861A5
:10336000084640690969884203DD20460069214614
:10337000486100BF00BF10BD14040020F40000200D
:10338000AF040000202C01409F0F000038050020F2
:10339000EC7B000890D0030001200003074908805F
:1033A000002007498882488206480449203948633A
:1033B0008863C8630020044988727047202C01404C
:1033C000F40000209F0F00001404002070B5024696
:1033D0000C4609480AE0011205062B0C15784D40F1
:1033E0006D00064E755B5D402846521C2546661EE4
:1033F000B4B2002DEFD170BDFFFF0000EC790008E2
:1034000010B533488089800004B232480A21415EF9
:10341000314A204601F025F82E4948810A20085EED
:10342000FF21C431884217DB2A488089142805DA35
:1034300028488089401C274988812AE04021274864
:1034400000F09CFC0120234988732548007808215E
:103450008843234908701CE01E488089002805DD48
:103460001C488089401E1B49888112E040211B486E
:1034700000F082FC00201749887319480078082161
:1034800088430830164908700420164908700B203C
:103490004873134800784007C00F00280FD1104828
:1034A000007900280BD10E480078C007C00F002813
:1034B00005D00B4800784006C00F002806D1094807
:1034C000C07A012802D103200649087010BD00000F
:1034D000F4000020640500204C0F00000014004898
:1034E0000C0100201404002010B5022000F02AF97D
:1034F000012841D1022000F055F8204880881F495A
:103500000988884208DD1D4880881C490988401ABE
:1035100001B21B48C18002E000211948C18018484F
:10352000C18801810821415E4F204001814211DBA9
:1035300014480088401C1349088008460088052864
:103540001ADBFFF729FF04200D49403908700C20D1
:10355000487311E000200B49088009480821415EAA
:103560000948814203DB00200449C88202E00020B0
:103570000249C88200F0FEFF10BD0000F4000020E8
:1035800054040020E2000020A405000010B5012032
:10359000400200F0D7F8012802D1400200F002F802
:1035A00010BD0000012109070140002902D0034994
:1035B000486001E002494860704700000004024092
:1035C00000000240002904D0026801231A4302606F
:1035D00003E00268014B1A4002607047FEFF0000E2
:1035E0000168554A1140016000210160416081601D
:1035F000C1605249884208D15049083949680F22B0
:1036000011434E4A083A516094E04C4914318842C3
:1036100008D14A4908394968F0221143474A083A13
:10362000516087E045492831884209D1434908392A
:1036300049680F2212021143404A083A516079E06A
:103640003E493C31884209D13C49083949680F223A
:1036500012031143394A083A51606BE0374950313F
:10366000884209D13549083949680F2212041143AB
:10367000324A083A51605DE030496431884209D1EC
:103680002E49083949680F22120511432B4A083A7E
:1036900051604FE029497831884209D127490839DA
:1036A00049680F2212061143244A083A516041E04A
:1036B0002349884208D12249083949680F22114319
:1036C0001F4A083A516035E01D491431884208D13B
:1036D0001B4908394968F0221143194A083A5160D8
:1036E00028E017492831884209D115490839496825
:1036F0000F2212021143124A083A51601AE010498F
:103700003C31884209D10E49083949680F22120319
:1037100011430B4A083A51600CE009495031884284
:1037200008D10749083949680F2212041143044A95
:10373000083A516070470000FEFF00000800024098
:103740000804024001460020002201231B070B4011
:10375000002B02D0064B1A6801E0064B1A6813468C
:103760000B40002B01D0012000E00020704700003A
:103770000004024000000240002A03D003680B430B
:10378000036002E003688B430360704710B50022BA
:1037900002680D4B1A400C6A8B6823430C69234363
:1037A0004C6923438C692343CC6923434C6A2343EC
:1037B0008C6A23431A430260CB6843600B688360C2
:1037C0004B68C36010BD00000F80FFFF00B531489B
:1037D000C07A030002F0D0FA050408090D111600A2
:1037E0000D202D49C8700DE000BF01202A49C87086
:1037F00008E00D202849C87004E02648407B26498F
:10380000C87000BF00BF2448C078002804D1012040
:10381000C002224988613BE01F48C0780D2805D1CD
:103820000120C0021D492031088131E01A4800887A
:10383000401C1949088008460088282805DA01201C
:10384000C00216492031088122E013480088FF2178
:10385000B931884204DA0120C0021049886117E0BA
:103860000D488178C078401E814207DA0A48807886
:10387000401C094988700020088009E0064800883B
:103880002D214901884203DB00200349088088700C
:1038900000BD00001404002064050020000400485E
:1038A00030B51C46224B1B7C002B03D0204B1B7CCD
:1038B000012B31D1230002F05FFA06040B1219200C
:1038C000272E1C4B1C4DAB63EB631B1A6B6322E072
:1038D000184B194DAB63EB631B1A6B631BE0154B65
:1038E000154D6B63EB635B1AAB6314E0114B124D28
:1038F0006B63EB635B1AAB630DE00E4B0E4D6B63BA
:10390000AB639B1AEB6306E00A4B0B4D6B63AB6337
:103910009B1AEB6300BF09E0064B1B1A064D6B6355
:10392000044B5B1AAB63034B9B1AEB6330BD000087
:10393000F40000209F0F0000002C01407FB50446DA
:103940000D4616460094019502960D48C06B0390F3
:103950000C4800F05BF80A483030009900F0A2F8FB
:1039600007483430019900F09DF805483830029935
:1039700000F098F802483C30039900F093F87FBDBE
:10398000C0FF000800FC00081FB504461048006B8B
:1039900000900F48406B01900D48806B029003949B
:1039A0000C4800F033F80A483030009900F07AF8FB
:1039B00007483430019900F075F80548383002990D
:1039C00000F070F802483C30039900F06BF81FBD1E
:1039D000C0FF000800FC00080149C86070470000F3
:1039E0000020024070B505460E462C4609E02046F0
:1039F00000F00CF8042802D10002241801E0012094
:103A000070BDB442F3D90020FAE7000030B5044697
:103A100004250B20000400F08DF80546042D17D175
:103A20000C480069022108430A49086108464461BC
:103A3000006940210843074908610B20000400F099
:103A400079F8054603480069022188430149086165
:103A5000284630BD0020024004200D49C968C9072E
:103A6000C90F002901D0012010E00949C9681022BE
:103A70001140002901D0022008E00549C96804224C
:103A80001140002901D0032000E00420704700000D
:103A90000020024010B500F03BF83520FFF79CFFF6
:103AA00010BD000078B506460C46042500200090A5
:103AB0000B20000400F03EF80546042D24D11348E5
:103AC0000069012108431149086134800B2000047A
:103AD00000F030F80546042D10D1B01C0090200CE9
:103AE000009908800B20000400F024F805460748E0
:103AF0000069400840000549086105E00348006985
:103B00004008400001490861284678BD0020024075
:103B10000548006980210840002804D00348024974
:103B20004860034848607047002002402301674511
:103B3000AB89EFCD10B503460424FFF78DFF044693
:103B400003E0FFF789FF04465B1E012C01D1002B27
:103B5000F7D1002B00D10524204610BDFFB583B05E
:103B60000D4617460024002002904348806A401EFC
:103B7000069988425DD14048406A8608002E24D0CC
:103B800020E0069878430399401800190190295DB8
:103B9000601C285C00020918A01C285C000409189D
:103BA000E01C285C00060818009000990198FFF7B7
:103BB00079FF042802D0012007B0F0BD241D02982F
:103BC000401C02900298B042DBD32B48406A061B8F
:103BD000002E4ED0069878430399401800190190A2
:103BE000012E04D1285DFF380138009019E0022E23
:103BF00008D1285DF103411A601C285C00020818F6
:103C000000900EE0032E0CD1285DFF21090641181B
:103C1000601C285C00020918A01C285C000408181D
:103C2000009000990198FFF73DFF042821D0012062
:103C3000C2E71CE0069878430399401800190190E8
:103C4000295D601C285C00020918A01C285C000487
:103C50000918E01C285C00060818009000990198DB
:103C6000FFF720FF042801D00120A5E7241DBC4256
:103C7000E0D30020A0E700000C030020F0B50A46C6
:103C800000210023002400BF3DE001258D402B468C
:103C900015681D402C469C4234D11579012D02D067
:103CA0001579022D16D185684F000326BE40B54315
:103CB000856055794E00B5408668354385608588B6
:103CC00001268E40B5438580858896798E40B6B2B0
:103CD0003543858005684F000326BE40B543056027
:103CE00015794E00B540066835430560C5684F003C
:103CF0000326BE40B543C560D5794E00B540C668C1
:103D00003543C560491C1029BFD3F0BDF0B5002371
:103D100000244D07EE0E1546B5402B46CD10AE00E3
:103D200005462035AD594E07F70E0F26BE40B54368
:103D3000CE10B60007462037BD51CD10AE003D462F
:103D4000AD591D432C46CD10AD003E467451F0BD1B
:103D500002460020138A0B40002B01D0012000E016
:103D60000020704702460020938A0B40002B01D0B0
:103D7000012000E000207047018570478161704795
:103D800003480088002801D1012070470020FCE78B
:103D9000D600002003480088002801D10120704788
:103DA0000020FCE7D000002003480088002801D153
:103DB000012070470020FCE7DA000020034800885B
:103DC000002801D1012070470020FCE7D800002026
:103DD00003480088002801D1012070470020FCE73B
:103DE000D400002003480088002801D1012070473A
:103DF0000020FCE7D200002010B500F0A1FE044630
:103E0000072C01D0002C05D111480088401C104916
:103E1000088002E000200E4908800D4800886428D0
:103E20000FDB64200A49088004200A490870092031
:103E300048730948807810218843103006498870FB
:103E400005E005488078102188430349887010BD3B
:103E5000E0000020140400200C01002010B5FE48F2
:103E6000008A0E21084000287ED000F069FEFB4940
:103E70000870FB48C07F01280ED1FA48007A01285B
:103E800002D10020F7490873F648007A00280FD1C4
:103E90000120F44908730BE0F248007A002801D1B0
:103EA000F0490873EF48007A012801D1ED49087301
:103EB000EC48007B01287DD1E8484078062803D1F2
:103EC000E6480078042827D0E4484078042803D145
:103ED000E248007805281FD0E0484078052803D143
:103EE000DE480078012817D0DC484078012803D14B
:103EF000DA48007803280FD0D8484078032803D147
:103F0000D6480078022807D0D448407802287DD1CE
:103F1000D24800780628FAD1D0480078CF494870B6
:103F2000CD480088D0490840CB4908800846008A1F
:103F300002210840002803D0C748406BC7490882C7
:103F4000C548008A04210840002803D0C248806B7D
:103F5000C2490882C048008A08210840002805D0CC
:103F6000BD48C06BBD4900E04AE10882BB4880897A
:103F70000004BA49098A4018C01CB9498039C8628E
:103F80000020B649C8608883B34948620882084661
:103F9000008801210843B0490880B1486C38416865
:103FA00014384161143081684160C16881600169E1
:103FB000C16000E0A2E0416901611438C16A1430B7
:103FC0004161A6484078002877D0A44800780028AE
:103FD00073D0A248407806280ED1A0480078042863
:103FE0000AD09E480078052806D09C48007806280C
:103FF00002D000209949087098484078042810D1D0
:104000009648007805280CD0944800E073E00078CA
:10401000062806D091480078042802D000208F4955
:1040200008708E48407805280ED18C480078042806
:104030000AD08A480078012806D0884800780528E8
:1040400002D00020854908708448407801280ED1AC
:104050008248007805280AD080480078032806D0D6
:104060007E480078012802D000207C4908707B48F7
:10407000407803280ED17948007801280AD0774883
:104080000078022806D075480078032802D0002066
:10409000724908707148407802280ED16F48007844
:1040A00003280AD06D480078062806D06B480078AF
:1040B000022802D00020694908706A48007BC000CD
:1040C0006A49401865490978405C6649887708461E
:1040D000C07A012803D00846C07A022807D1614877
:1040E000807A052803D15F49887F03F049FA0021CF
:1040F0005B48818302E00020574908825948007BD1
:1041000000287DD155484078022803D153480078D3
:10411000032827D051484078032803D14F4800781E
:1041200001281FD04D484078012803D14B48007822
:10413000052817D049484078052803D1474800781A
:1041400004280FD045484078042803D1434800781C
:10415000062807D04148407806287BD13F480078A0
:104160000228FAD13D4800783C4948703A48008816
:104170003D490840384908800846008A0221084025
:10418000002803D03448406B344908823248008A02
:1041900004210840002803D02F48806B2F49088253
:1041A0002D48008A08210840002803D02A48C06B07
:1041B0002A4908822948808900042849098A401828
:1041C000C01C27498039C86200202449C860888300
:1041D00021494862088208460088012108431E4997
:1041E00008801F486C384168143841611430816878
:1041F0004160C16881600169C1604169016100E09D
:10420000AFE01438C16A1430416114484078002886
:104210007ED01248007800287AD0104840780628CE
:104220000ED10E48007804280AD00C4800780528E2
:1042300006D00A480078062802D0002007490870F6
:104240000648407804281DD104480078052819D074
:1042500002480DE082E00000000400403805002024
:104260001405002014040020FEFF0000EC7B000871
:104270000078062806D043480078042802D00020A1
:10428000404908703F48407805280ED13D480078E5
:1042900004280AD03B480078012806D03948007825
:1042A000052802D000203749087036484078012898
:1042B0000ED13448007805280AD032480078032807
:1042C00006D030480078012802D000202D4908701F
:1042D0002C48407803280ED12A48007801280AD0BB
:1042E00028480078022806D026480078032802D003
:1042F00000202449087023484078022810D1214822
:10430000007803280CD01F480078062808D000E069
:1043100006E01C480078022802D0002019490870E5
:104320001948007BC0001949401816490978405CBB
:10433000154988770846C07A012803D00846C07A14
:10434000022807D11048807A052803D10E49887FBA
:1043500003F016F900210E48818302E000200D4988
:1043600008820C48008AC007C00F002808D001202E
:10437000C043084908820348C068401C0149C8601E
:1043800010BD00003805002014040020EC7B00085C
:10439000140500200004004000BFFEE710B51348DC
:1043A000C08812494988884208DD1048C0880F49F2
:1043B0004988401A01B20E48C18502E000210C482C
:1043C000C1850B482E21415E3022825E8818411043
:1043D0000748018602463021515E403A506F7832DC
:1043E00000F008F802494031086110BDF4000020D7
:1043F00054040020F0B587B006460F461446F51B5E
:104400002846FEF7BFFB0390616803F079F9059039
:10441000A168681AFEF7B6FB0190216803F070F9F5
:1044200003906069FEF7AEFB0290039903F022F956
:104430000490059903F01EF90690FEF759FB6061A0
:10444000A560E1686069884202DDE068606105E0BE
:1044500021696069884201DA20696061606907B09A
:10446000F0BD10B503465C1A204650438013401837
:1044700000B210BD10B53E48C07A030001F07CFCCC
:1044800005041F395768760039480078012804D0A0
:1044900002280BD0032810D109E03548007A3449AE
:1044A0000873032088720120C87206E005E0FEF759
:1044B00073FF03202E49C87200BF00BF56E0FEF70D
:1044C000B9FE2B480078012804D0032803D0042823
:1044D0000DD106E00BE0FEF75FFF03202449C87210
:1044E00005E0FEF759FF04202149C87200BF00BF54
:1044F0003CE01F480078012804D002280AD0032895
:1045000013D108E0FFF73CFC012802D10020184934
:10451000C8720AE009E0FFF733FC012804D1FEF776
:104520003BFF03201249C87200BF00BF1EE01048C5
:104530000078012804D0022806D0032806D104E020
:1045400000200B49C87201E000E000BF00BF0DE091
:1045500007480078012804D0022803D0032803D19B
:1045600001E001E000E000BF00BF00BF00BF10BDE0
:104570001404002010B53348C07A030001F0FCFB9E
:10458000050405065D5E5F0059E000BF2E48C08A45
:10459000012813D12C48808A2B49498A884231DB73
:1045A0002948408A012805DD2748408A401E2649BF
:1045B000888227E000202449888223E000F0FCFB69
:1045C000FFF7ECFE1F4880300169806D81420CDCF2
:1045D0001C488030008A1C4988821A488030016952
:1045E00081650169403041610CE016488030806D82
:1045F0001549888213488030816D08384161083040
:10460000816D01611048808A1049884202DD0846A8
:104610000D4988820B48C07A012807D1094CA37F35
:10462000094CA28AA18AA08AFFF73AF90648808A33
:104630000549488200F0EEF801E000E000BF00BF4D
:1046400010BD000014040020F40000200F0E000034
:104650007047000000218278002A27D0184A0323DF
:104660001B02D21803789B109B00D1580278920746
:10467000D30EFF229A400B46934319464278920785
:10468000120E03789B07DB0E9A4011430C4A03235A
:104690001B02D21803789B109B00D1500278D306DE
:1046A000DB0E01229A40064B1A6007E00278D3061F
:1046B000DB0E01229A40024B80331A6070470000E3
:1046C00000E100E010B50021244881602449403811
:1046D00001642449403041602349C16028210161BF
:1046E000C038C18CC0304161C038C18C8030816518
:1046F0001E481F49FEF752F800B21849C039C86475
:1047000000211648C03881651A481449C039086527
:1047100014491248C03841651349C165002101663A
:1047200011494166FF20B2300C49C0394867002169
:104730000A484838816010480849C03988670949E3
:104740000648C038C16708497830C160002101615E
:104750000549416100200949C88210BDD4040020E8
:10476000CDCCCC3D8FC2F53C9F0F0000DFA8AB5AEB
:104770008777F9409A99993ECDCC4C3DF4000020C2
:10478000FFB581B014461F465A211F484173A5202A
:104790001D490D314870019888700298C87008460C
:1047A000047120124871002507E03978A81D164AC7
:1047B0000D3211547F1C681CC5B2A542F5DBA11D4A
:1047C00011480D30FEF702FE06460F4A0D32A01DBD
:1047D00016543112E01D115400250EE000BF402197
:1047E0000A4801F00BF80028F9D007480D30415D68
:1047F000064801F0D6F8681CC5B22046083085424C
:10480000ECDB05B0F0BD00008C0300200038014057
:10481000704700007FB51348446A1348808900043C
:10482000041912484069A0421AD210484461062176
:1048300061430846FEF735F8054600220C4BFEF7AB
:1048400033F802460B460191009000200949FDF71C
:1048500081FD03910290FDF7A1FF0449143908631B
:104860007FBD00000004004038050020A80400209F
:1048700000001040389C8C41002905D0054A52693F
:104880000243044B5A6104E0024A52698243014BDD
:104890005A61704700100240002905D0054AD269CC
:1048A0000243044BDA6104E0024AD2698243014BBD
:1048B000DA61704700100240002905D0054A92696C
:1048C0000243044B9A6104E0024A92698243014B1D
:1048D0009A61704700100240002905D0054AD2684D
:1048E0000243044BDA6004E0024AD2688243014B7F
:1048F000DA60704700100240FEB50446002500262D
:1049000000200290019000900027864840680C210A
:1049100008400546002D06D0042D07D0082D08D0EC
:104920000C2D2CD128E0804820602BE07E482060B0
:1049300028E07C4840680F218904084006467948F1
:1049400040680321C90308400290B00C861C0298FD
:10495000002803D17548374647430BE07148C06AC9
:104960000007000F401C01906F480199FDF742FCC1
:1049700070430746276005E06D48206002E06A4802
:10498000206000BF00BF67484068F021084005462E
:104990002D096848405D009020680099C84060601B
:1049A0006048406807210902084005462D0A614811
:1049B000405D009061680098C140A1605948006B5B
:1049C000FF2101310840884202D05B48E0600DE0E1
:1049D00054484068012189030840884203D0A068F8
:1049E0004008E06002E0A0688008E0604D48006B8D
:1049F00040210840402802D05048206102E00120B8
:104A0000C00320614748006B10210840102802D0E5
:104A10004548606101E0206860614248006B8007A2
:104A2000800F002802D1A068A06119E03D48006B0A
:104A30008007800F012802D12068A06110E039486A
:104A4000006B8007800F022802D18003A06107E07D
:104A50003448006B8007800F032801D13248A061E1
:104A60003048006B032109040840002802D1A068E7
:104A7000E06120E02B48006B03210904084001217C
:104A80000904884202D12068E06114E02548006BE7
:104A900003210904084001214904884202D1801001
:104AA000E06108E01F48006B0321090408408842C8
:104AB00001D11D48E0611B48006B032189040840B7
:104AC000002802D1A068206220E01648006B032174
:104AD0008904084001218904884202D120682062AB
:104AE00014E01048006B0321890408400121C90427
:104AF000884202D10011206208E00A48006B0321BD
:104B000089040840884201D1074820620548006BAB
:104B100080210840802802D00548606200E067627A
:104B2000FEBD00000010024000127A0000093D00A6
:104B3000006CDC02C0000020809FD50012800000C5
:104B400000200921C906098A80221140002901D0CC
:104B5000042108430921C906098A4022114000297D
:104B600001D0022108430449098AC907C90F002955
:104B700001D00121084370470004004810B51048D7
:104B8000046B601C00280ED10E480F4908610720F5
:104B90000E49486188610B469A6959690A4B186940
:104BA000FEF7CCFE0AE00648006B0749086104489E
:104BB000406B064948610248806B886110BD000067
:104BC000C0FF0008DC0500001404002038050020A8
:104BD00070B5FFF7E9F801286FD100F0BFF84A4837
:104BE000807A052842D14848C07A01283ED14648FB
:104BF00041698030406B081A7D21C900884235DD4B
:104C0000414840303021415E48292FDD0146C03106
:104C1000888BFDF746FE044600223C4B02F0C4FCA4
:104C200006D23B48808B401C81B23948818327E003
:104C300038480078401C374908707D21C900344845
:104C400081833448007802280CDB04202E49087048
:104C500007204873304880784021884340302E49EF
:104C600088700DE001202849487209E02848808BAF
:104C7000002805DD2648808B401E81B224488183B0
:104C80002148407A012828D124480088401C234923
:104C9000088008460088642803DA03201A4908704F
:104CA0001EE01E4800887D21C900884206DA0120E6
:104CB000154908700020087212E023E017480088A8
:104CC0001749884205DA03200F490870012008724D
:104CD00006E000200C49487202E000200F490880DD
:104CE000094841698030406B081AFF212D31884204
:104CF00008DA054840697D21C900884202DD0020AC
:104D00000449087070BD00001404002000408F406A
:104D100014050020DE0000200C010020DC00002033
:104D20004C0400007047000001460020044A10684F
:104D30008008800002460A431046014A106070470E
:104D4000000001400149086070470000402C01400C
:104D50000149088070470000D00000200149088008
:104D600070470000DA000020014908807047000009
:104D7000D80000200149088070470000D4000020BE
:104D80000149088070470000D200002010B5044699
:104D90008C4206DD8818A04201DB204610BD881831
:104DA000FCE78C4206DAC81AA04201DC2046F5E78F
:104DB000C81AF3E72046F1E7FEB5224841691430EE
:104DC000406809181F481430806809181D481430BD
:104DD000C06809181B4814300069091819481430B4
:104DE0004069081802900298FDF75BFD0446002216
:104DF000154BFDF759FD02460B460191009000202E
:104E00001249FDF7A7FA0646FDF7C8FC0D490863ED
:104E10000846416B006B081841100A484163008F37
:104E2000401C81B2074801870A290ADB002101875B
:104E30000246516B803A5069C032FFF7DBFA0149F4
:104E40008865FEBD9404002000001040389C8C4111
:104E5000042806D10649096904221143044A116154
:104E600005E00349096904229143014A1161704731
:104E700000E000E010B500F05FF82D48C088002881
:104E800004DD2B48C088401E2949C8802948C08DB0
:104E9000002804DD2748C08D401E2649C8852548C6
:104EA000408E002804DD2348408E401E214948865C
:104EB0002048808E002804DD1E48808E401E1D493B
:104EC00088861C48C08E002804DD1A48C08E401E0B
:104ED0001849C8861748008F002805DD1548008F3F
:104EE000401E81B2134801871248008E002805DD5C
:104EF0001048008E401E81B20E4801860D48403099
:104F0000C088002806DD0B484030C088401E094993
:104F10004031C880074840308088002806DD0548B9
:104F200040308088401E03494031888010BD000019
:104F30000C010020CC0300201B480088002804D06E
:104F400019480088401E1849088018480088002821
:104F500004D016480088401E144908801448008870
:104F6000002804D012480088401E114908801148CA
:104F70000088002804D00F480088401E0D49088092
:104F80000D480088002804D00B480088401E0A49BC
:104F900008800A480088002804D008480088401E7D
:104FA0000649088070470000D0000020D200002091
:104FB000D4000020D6000020D8000020DA00002015
:104FC000704700000349088000BF02490988002992
:104FD000FBD17047D0000020F0B50C460021002521
:104FE000068C0A4F3E400684018B058C074EF23E2C
:104FF00031401E05360C16433143044E093E354000
:1050000001262643354301830584F0BDFEFF0000E1
:10501000F8B50C460021002500260096068C0D4FA1
:105020003E400684018B058C2605360C00960A4E00
:1050300031401E07360C31431606360C3143054EFF
:10504000903E35401027009E3E4335430183058442
:10505000F8BD0000EFFF0000FF0C0000F8B50C46A3
:105060000021002500260096068C0C4F3E40068449
:10507000818B058C2606360C0096084E0D36314085
:105080001E05360C16433143054E3540FF270137C8
:10509000009E3E43354381830584F8BDFFFE00003A
:1050A000FFF50000F8B50C4600210025002600960B
:1050B000068C0D4F3E400684818B058C2607360CEE
:1050C00000960A4E31401606360C31431E07360C48
:1050D0003143074E354001273F03009E3E43354391
:1050E00081830584F8BD0000FFEF0000FF0C000085
:1050F000FF5F0000704700000948008A0221084055
:10510000002809D0481F064908820846008805493A
:1051100008400349088002E00020014908827047E6
:1051200000440140FEFF000010B580210B4800F054
:1051300050F8012807D18021084800F027F8042002
:105140000749087048730121044800F042F801281B
:1051500003D10121014800F019F810BD002C0140D5
:105160001404002010B5FEF779FE10BD0A884B88A4
:105170001A438B881A43CB881A430B891A434B89ED
:105180001A438B891A4344231A527047CA43028236
:1051900070470000002904D0028801231A430280CE
:1051A00003E00288014B1A4002807047FEFF0000B6
:1051B000002907D04422125A0123DB031A43442357
:1051C0001A5205E04422125A53045B0C4422135233
:1051D000704730B50246002000230024158A0D4098
:1051E0002B4695890D402C46002B03D0002C01D076
:1051F000012000E0002030BD70B505460C46208837
:1052000000280AD12389A28861882846FFF7E4FE96
:10521000E188284600F086F925E0208804280AD194
:105220002389A28861882846FFF7F2FEE188284694
:1052300000F082F917E0208808280AD12389A28883
:1052400061882846FFF70AFFE188284600F080F9C8
:1052500009E02389A28861882846FFF723FFE188B7
:10526000284600F07FF970BD002A03D083890B43E4
:10527000838102E083898B438381704770B500246A
:1052800000220023058C1C4E35400584028C838847
:10529000048B194D6F3D2C40B51E2C400D882C43BE
:1052A000751E2A408D892A434D882A43134DA842F2
:1052B00008D0134DA84205D0124DA84202D0124D7D
:1052C000A84212D10C4DED1F2A40CD892A430A4D28
:1052D000ED1E2A408D882A43074DFF3D2B400B4D84
:1052E0002B400D8A2B434D8A2B43838004838D688A
:1052F0004563028470BD0000FEFF0000002C0140E9
:10530000004001400044014000480140FFFD000012
:105310000A460021018B034B19400B4613431946E3
:1053200001837047F7FF000070B5002400220023BE
:10533000058C214E35400584028C8388048B1F4DDB
:105340002C401F4D2C400D782D062D0C2C431A4D52
:10535000103D2A408D892D052D0C2A434D882D05A1
:105360002D0C2A43174DA84202D0174DA8421CD13C
:10537000164D2B400D8AAD042D0C2B43114DA84228
:1053800013D10D4D703D2A40CD892D052D0C2A439A
:10539000094D303D2A408D882D052D0C2A430C4D9A
:1053A0002B404D8AAD042D0C2B43838004838D68E4
:1053B0008563028470BD0000EFFF0000FF8F0000D6
:1053C000FFFC0000002C014000400140FFFB0000FA
:1053D000FFF700000A460021018B034B194013061A
:1053E0001B0C194301837047FFF7000070B50024C0
:1053F00000220023058C1C4E35400584028C8388D6
:10540000848B194D90352C40174DFD352C400D885F
:105410002C43164D2A400D7B2D062D0C2A438D78EA
:105420002D062D0C2A43124DA84217D1114D2A40AA
:105430008D7B2D062D0C2A430F4D2A400D792D060C
:105440002D0C2A430D4D2B400D4D2B400D8A2D0563
:105450002D0C2B434D8A2D052D0C2B4383808483EB
:105460008D68C563028470BDFFFE0000FFFD000073
:10547000002C0140FFF70000FFFB0000FFEF0000E1
:10548000FFDF00000A460021818B034B19400B46C9
:105490001343194681837047F7FF000070B500225F
:1054A00000230024058C134E35400584038C84882A
:1054B000828B114D2A40114D2A400D782D062D0C5E
:1054C0002A430F4D2B400D7B2D072D0C2B438D7840
:1054D0002D072D0C2B430B4DA84205D10A4D2C4016
:1054E0000D8AAD052D0C2C43848082838D68056464
:1054F000038470BDFFEF0000FF8F0000FFFC000081
:10550000FFDF0000002C0140FFBF00000A46002121
:10551000818B034B194013061B0C19438183704781
:10552000FFF70000028B034B1A400283028B0A43F1
:1055300002837047F3FF0000028B044B1A40028382
:10554000028B0B061B0C1A4302837047FFF300000B
:10555000828B034B1A408283828B0A43828370477B
:10556000F3FF0000828B044B1A408283828B0B0670
:105570001B0C1A4382837047FFF30000002202884D
:10558000154B984206D001239B07984202D0134B3B
:10559000984203D1124B1A404B881A43114B984240
:1055A00003D0114B1A400B891A4302804B68C36227
:1055B0000B880385084B984208D00C4B984205D0C5
:1055C0000B4B984202D00B4B984201D18B7A038649
:1055D0000123838270470000002C0140000400403A
:1055E0008FFF000000100040FFFC00000040014061
:1055F000004401400048014010B5FEF7DFFB0128E0
:1056000056D10520FFF7B0FB2A48008809280FDA99
:105610002948C08901B22748008842002548801CDB
:105620008152801E0088401C81B22248018012E015
:105630000021204801800A21801C00F02BFC1D491C
:10564000C8820A461821515E1620105E1B4AFEF7DA
:1056500008FF1849088317484038808C092811DA58
:105660001548408901B213484038808C42001148E7
:105670001A3881522638808C401C81B20D4840383F
:10568000818415E000210B48403881840A212630AE
:1056900000F000FC0749403948870A463C21515E2A
:1056A0003A20105E054AFEF7DCFE02494039888741
:1056B00010BD000014050020F4000020DA0C0000EA
:1056C00010B54349434800F0A3F8012872D141487E
:1056D00000F062F9C4B23E493E4800F081F83E480D
:1056E000807C002865D13C48018A008A401C82B237
:1056F00039480282FF38F93844543748008A022872
:105700000CD13648007A5A2803D13448407AA5286B
:105710004FD000213048018281744AE02E48008A2F
:10572000062815D12D48417B2B488182007D01023E
:105730002A48007B0818083081B227488182274810
:10574000817A254881752548C17A2348C17530E0A2
:105750002148018A808A814205DB01211E4881742B
:105760000021018225E01C48008A022821DD1A4818
:10577000008A801E19490831085C5A2819D1164838
:10578000008A401E085CA52813D15A2008390872E7
:10579000A5211248417200220F48008A801E0F493D
:1057A00008310A540C48008A401E0A5402210A4853
:1057B000018200BF0821074800F020F8012806D127
:1057C000044800F0E9F80821024800F009F810BD8B
:1057D00005010500003801400C0300200C010020E9
:1057E00001627047002904D0026801231A43026055
:1057F00003E002685208520002607047024600202F
:10580000D3690B40002B01D0012000E0002070473D
:1058100070B502460B4600240021002500201E041E
:10582000350ED9B201268E403146012D02D11668BF
:10583000314006E0022D02D15668314001E0966801
:1058400031401C0C0126A6403446D669344000295C
:1058500003D0002C01D0012000E0002070BDF8B57D
:1058600003460024002600960025002018460E045A
:10587000340ECEB200960127009EB7403D46022C62
:1058800001D1001D02E0032C00D10830002A03D012
:1058900006682E43066002E00668AE430660F8BD67
:1058A000F0B58BB004460D46002700200A90002674
:1058B00020684008400020606668032109033046E4
:1058C00088430646A8680643666026682D48064059
:1058D000E968686808432969084306432660A668A2
:1058E0000321090230468843064668690643A660DC
:1058F0006846FFF701F82448844202D106980A90CE
:105900000DE02248844202D107980A9007E020481F
:10591000844202D108980A9001E002980A90206817
:105920000121C903084000280CD029680A9A5000B8
:10593000FCF760FC074629680A9A5000FCF75AFCFD
:105940000E4609E029680A98FCF754FC07462968C6
:105950000A98FCF74FFC0E4628684008B04200D871
:105960007F1C20680121C9030840002806D03807A1
:10597000460F38460749084030430746A7810BB019
:10598000F0BD0000F3E9FFFF003801400044004093
:1059900000480040F0FF00000146888CC005C00DA3
:1059A0007047CA05D20D02857047000010B501216D
:1059B0005348FEF7CDF9002807D152480088401C13
:1059C000504908800020504908804E48008803282C
:1059D00005DB03204B49088001204C490880012148
:1059E0004748FEF7B5F9012807D10020454908804E
:1059F00045480088401C44490880434800883228B4
:105A000005DB3220404908800020404908803F489B
:105A10000088002805D13E480088012801D13D4971
:105A200008833A480088012802D1002039490883B8
:105A300036480088364908803648008B012859D1FD
:105A400035480088002803D134480089344908804B
:105A500031480088401C3049088008460088FF21F2
:105A6000F531884204DA08212E48FEF787F946E02E
:105A700029480088FF21F531884216D1274800893E
:105A800027490988401A1E2806DD0120264908807A
:105A900000202649088032E000202349088023485E
:105AA0000088401C2149088029E01B4800881921F2
:105AB000490188420DDA1C480088002804D10821D9
:105AC0001848FEF759F91AE008211648FEF756F96A
:105AD00015E016480088032808DD4B20C0000E4959
:105AE000088008210F48FEF747F908E000200A491E
:105AF000088004E00020084908800C49088010BD97
:105B000000140048E4000020F2000020EE00002015
:105B1000F000002064050020E6000020F4000020D2
:105B2000E800002000040048EA000020EC0000200B
:105B300010B5FEF74DF9012829D1FFF71BF9FDF744
:105B400045FEFDF75DFCFFF731FF11488088002816
:105B500005DD0F488088401E0D49888017E08021B0
:105B60000C48FEF7FFF8002804D180210948FEF711
:105B700005F90CE00648C088002805DD0448C08807
:105B8000401E0349C88002E001200149087210BD8F
:105B900064050020001400481CB501211120800478
:105BA000FEF76AFE80200090012168460171417174
:105BB00000218171C17169463548FEF75FF8802187
:105BC0003348FEF7D9F802200090012168460171A0
:105BD000417100218171C17169462D48FEF74EF86F
:105BE00002212B48FEF7CAF80120C00200900121D3
:105BF000684601710321417100218171C1716946BB
:105C00002448FEF73BF80120C00222498861402069
:105C100000900121684601710321417100218171C9
:105C2000C17169461A48FEF729F840211848FEF765
:105C3000A3F80020184948810120887300900021B2
:105C4000684601710121417169461148FEF716F855
:105C50000820009001216846017141710021817185
:105C6000C17169460B48FEF709F808210948FEF79B
:105C700083F801200849C870002008808870074810
:105C80008880FF20F530C8800020087208831CBD82
:105C9000001400480004004864050020B80B000010
:105CA00010B5FEF79FF801285AD10220FFF768F8D7
:105CB0002C48008D09280EDA2B48008901B22948AA
:105CC000008D420027482A3081522A38008D401C1E
:105CD0002449088516E00020224908850A21214828
:105CE0002A3000F0D7F81F49C8870A464032002101
:105CF000515E403A3E20105E1C4AFEF7B2FB194945
:105D0000403108801A4C174840303021415EA14292
:105D100019D9808DFF21F531884208DA11484030C9
:105D2000808D401C81B20F484030818518E00420EE
:105D30000C49087048730F48807802218843801C02
:105D40000C4988700CE007484030808D002807DD42
:105D500004484030808D401E81B202484030818529
:105D600010BD000014040020F4000020DA0C000034
:105D7000D20200000C01002030B47446641E257865
:105D8000641CAB4204D3635D5B00E31830BC18476E
:105D90001D46F8E710B5002819DB1A4A03231B0239
:105DA000D21883089B00D2588307DC0EFF23A34040
:105DB0009A438B071B0E8407E40EA3401A43114B32
:105DC000032424021B198408A4001A5118E00E4A67
:105DD00003071B0F083B9B089B00D2588307DC0E70
:105DE000FF23A3409A438B071B0E8407E40EA340B6
:105DF0001A43054B0407240F083CA408A4001A51B9
:105E000010BD000000E100E01CED00E0002007E014
:105E100081001C4A8918096882001B4B9950401C5C
:105E20003028F5D301210846FEF756FD0320FEF782
:105E30007BFFFDF72FFE00F0CDF801F0BBF9FFF777
:105E4000ABFE00F069F8FDF74BF901F05FFAFDF7E2
:105E500011F8FEF793FE0D480D49486003200870C5
:105E6000012008720DE0FFF763FE00F0DDF8FEF799
:105E7000AFFEFFF715FFFFF7BFFBFDF7BDFFFEF716
:105E8000F9FAF0E70020000800000020DC0500001F
:105E900014040020FCB5024600241AE0002312E09E
:105EA0005800165E581C4000105E864209DD5800FE
:105EB000155E581C4000105A5E009053581C40005C
:105EC0001552581CC3B2081B401E9842E8DC601CE7
:105ED000C4B2481EA042E1DCC807C00F002806DD9E
:105EE000481CC60F361876107600955F12E00846FB
:105EF000CE0F361876107600965FCF0F3F187F10C2
:105F00007F1C7F000091D75FF619F70F0196BE192D
:105F1000761035B22846FCBD0320294908700020C0
:105F200048600120087200208872C872087301203E
:105F30004873002048610883087788770862214801
:105F400088844820C88420491D48403001800020B2
:105F50001B4908851C48C8870021194840304180EA
:105F60008180C03081830184C0388185C1850186EC
:105F7000FF20B230124948670846818C80300161A9
:105F800032210163416300210187C16381650F49AB
:105F9000C1624161143041608160C1600161416151
:105FA00000212C3081840A49418781870021C187E3
:105FB000403001800649C18201830021418370473E
:105FC000140400209F0F00003C0700006A18000026
:105FD0008B0E000010B58AB06846FEF78DFC0420D9
:105FE000FEF736FF7D21C9000198FCF703F904464E
:105FF000601E0B49884200D90CE0601E09494861C7
:106000000321081FFFF7C6FE00200649886107200C
:10601000086100BF0A20FEF7D5FF0AB010BD0000DE
:10602000FFFFFF0000E000E0F0B58BB0002400258A
:10603000FE48C088002805D1FC4800784008400090
:10604000FA490870FA48807C002876D0F848808A9F
:10605000801E81B2F5480830FDF7B8F9F44908838D
:106060000846808A801EFF39F9390A5CF048808A28
:10607000401E085C0002101881B20891EC48018BA8
:10608000089881427CD1EB48E849C880E848807D87
:10609000112876D243007B449B885B009F4410000C
:1060A0002400830084005502A002CA02710071001E
:1060B0007100710055039603650413053F054405FF
:1060C000DA48007840218843D849897B89014022F9
:1060D00011400843D5490870D548C17D00231A46B0
:1060E0000120FEF74DFB2FE2D148C07DD049203181
:1060F000097E884210D1CE48E030C0794008400087
:10610000401CCB49E031C871C848007840084000C5
:10611000401CC649087045E0C548C07DC4493831B7
:10612000497888420AD1C248E030C07902218843C8
:10613000801CBF49E031C87134E0F9E3BC48C07D40
:10614000BB4938318978884209D1B948E030C079F3
:1061500004218843001DB649E031C87122E0B448EB
:10616000C07DB3493831C97888420BD1B048E0309E
:10617000C079082188430830AD49E031C87111E089
:10618000F1E3F1E3AA48C07DA94938310979884291
:1061900008D1A748E030C079102188431030A449C5
:1061A000E031C8719FE79EE7A0480078C007C00FA4
:1061B00000287DD09D4800784006C00F0028F8D008
:1061C0009B48C17D00231A460120FEF7D9FA974863
:1061D000807B0300FFF7D0FD0B07EFEFEFEFEE5AE8
:1061E00045F0ECEBEF0094493020085EFCF751FBE2
:1061F000924A934B01910090FCF756FB0022914B81
:1062000003910290FCF750FB8F4A904B059104904C
:10621000FCF7A0F807910690FCF7F6FA80B2099017
:106220008349203109984877099800121D31487038
:1062300081484030008E88707F484030008E0004D6
:10624000000EC87008461D38C07D401C1D39C87539
:106250000846C17D03461D3304220920FEF790FA4B
:1062600071E17348C030808DC1B2714820304177F0
:10627000C07D401C6E492031C8750846C17D03466B
:106280001D3301220720FEF77BFA5CE167480078A6
:10629000C007C00F002818D0644800784006C00F1F
:1062A0000028F8D062482030007D01280ED100E09F
:1062B0004AE10B205E49203148775D48C17D0346A5
:1062C0003D3301220220FEF75BFA6FE05748817BE5
:1062D000C07B000209185548007C00040918534887
:1062E000407C00060918524881625048817CC07C7D
:1062F000000209184D48007D000409184B48407DF4
:10630000000609184A48016380210162006A484971
:10631000896A491E48434649096B091A4448416243
:10632000006B1B218902884234D84148016A012050
:10633000400281422ED840484038C07A012805D119
:10634000FDF72AF803213C48403801700120384904
:106350002031087500213648C162FDF79BFB3C499E
:106360003C48FDF73FFB002807D13148C17D0023A1
:106370001A460120FEF704FA18E009202C492031C2
:1063800048772B48C17D03463D3301220220FEF7AA
:10639000F7F90BE008202649203148772448C17DD1
:1063A00003463D3301220220FEF7EAF9CBE06AE022
:1063B00015E001E098E0B9E01D48C030408D1C496F
:1063C000203148770846C07D401CC8750846C17D0D
:1063D00003461D3301220820FEF7D2F9B3E0164927
:1063E0003020085EFCF755FA144A154B01910090D5
:1063F000FCF75AFA0022134B03910290FCF754FA6F
:10640000114A124B05910490FBF7A4FF07910690E7
:10641000FCF7FAF980B209900549203109984877CC
:10642000099800121D314870034815E00C01002046
:106430000C03002088130000540400206666666682
:1064400066660A4000408F405B2041F163CC6D409E
:10645000FFF70008009000084030008E8870FE486A
:10646000008E0004000EC87008461D38C07D401C18
:106470001D39C8750846C17D03461D330422092015
:10648000FEF77EF95FE0F44940390020085EFCF732
:1064900000FAF24AF24B01910090FCF705FA002253
:1064A000F04B03910290FCF7FFF90022EE4B0591AF
:1064B0000490FBF74FFF07910690FCF76FF906B2C7
:1064C000EA494E773004000E1D314870E748C07D20
:1064D000401C1D39C8750846C17D03461D33022284
:1064E0000A20FEF74DF92EE0E1A1E0481D30FBF750
:1064F0006DFEE4A1DD483130FBF768FEE6A1DB4824
:106500004530FBF763FEE9A1D8485930FBF75EFE42
:10651000D648C07D401CC1B2D448C175C17D034678
:106520001D3350220520FEF72BF90CE00520CF4942
:10653000487708462038C17D03463D3301220220BA
:10654000FEF71EF900BF00BF2FE3DD480078C0074B
:10655000C00F002843D0DA4800784006C00F00285A
:106560003DD0D848807B002839D0D648007A002812
:1065700035D0B9488038C07A042830D0D048007867
:106580004007C00F00282AD1CD480079002826D125
:10659000CB48877B0120B04980390872002F08D191
:1065A00003200870C648007802218843C449087057
:1065B0000CE0012F0AD10120A74980390870C0489A
:1065C000007802218843801CBD490870A748203804
:1065D000C17D00231A460120FEF7D2F800BFE4E295
:1065E000A2482038C17D00231A460120FEF7C8F8D2
:1065F0009FA19E481D30FBF7E9FDA2A19B483130C9
:10660000FBF7E4FDA4A199484530FBF7DFFDA7A106
:1066100096485930FBF7DAFD9448C07D401CC1B262
:106620009248C175C17D03461D3350220520FEF7F7
:10663000A7F8BAE2A2480078C007C00F00287DD0B2
:106640009F4800784006C00F00287DD09C48817B81
:10665000C07B000209189A48007C00040918984879
:10666000407C00060F189848874206D8FF20F53076
:10667000874202D37848803807619148817CC07C8A
:10668000000209188E48007D000409188C48407DDE
:1066900000060F187048803847608948817DC07DAA
:1066A000000209188648007E000409188448407ECC
:1066B00000060F18642F01D2642707E0664880386F
:1066C0000069B84202D2644880380769624980395B
:1066D00008693946FBF78EFD7C4948617848817E20
:1066E000C07E000209187648007F0004091874482B
:1066F000407F00060F18642F01D2642707E0564838
:1067000080380069B84202D253488038076952493C
:10671000803908693946FBF76DFD6C498861084688
:10672000826941694C488038079103691846FDF732
:1067300005F94E482038C17D002300E004E01A46E8
:106740000120FEF71DF800BF2FE25D480078C0076A
:10675000C00F002839D05A4800784006C00F0028E2
:1067600033D05748807B08210840002814D03A488D
:106770008038417304203849803908700421364834
:106780008038C172FCF708FE4D4800780421884328
:10679000001D4B4908700CE001202F4980394873D7
:1067A00003200870C8724648007804218843444991
:1067B00008704348C07B424908712C482038C17D8D
:1067C00000231A460120FDF7DBFFEEE13C4800788C
:1067D000C007C00F002815D0394800784006C00F08
:1067E00000280FD02148007D01280CD10B201F4923
:1067F000487708462038C17D03463D3301220220F8
:10680000FDF7BEFFAEE02E48817BC07B0002091879
:106810002B48007C000409182948407C0006091810
:106820001248203881622648817CC07C0002091809
:106830002348007D000409182148407D00060918FE
:106840000A482038016380210162006A0749203923
:10685000896A491E48433BE09404002066666666E8
:1068600066660A40002069400000B0402C0300200A
:10687000202020535A2D4C482D4D43552D424C4439
:1068800043323100202020202020202020202032D0
:10689000322E31302E31390020202020202020209F
:1068A000202020202030302E533033002020202084
:1068B00020202020202020202030302E533137006F
:1068C0000C01002064050020DC05000038050020D4
:1068D000FE49096B091AFD484162006B1B218902C0
:1068E000884233D8F948006A0121490288422DD8EC
:1068F000F748C07A012804D1FCF74EFD0320F44983
:1069000008700120F149203108750021EF48C1626B
:10691000FDF7C0F8EF49F048FDF764F8002808D10A
:10692000EA48C17D00231A460120FDF729FF19E03E
:1069300057E10920E54920314877E448C17D034605
:106940003D3301220220FDF71BFF0BE00820DF4949
:1069500020314877DD48C17D03463D3301220220C6
:10696000FDF70EFF21E121E112E1DC480078C007CC
:10697000C00F002871D0D94800784006C00F002809
:106980006BD0D2482030007D002867D0D348817B6F
:10699000C07B00020918D148007C00040918CF48C8
:1069A000407C00060F18C948C06AB84264D1C74885
:1069B000806A401EB84238D9C448808A0C38C3491E
:1069C000096A884224D1BBB2C048008C82B2C34954
:1069D0001231C148FDF7C2F800280CD1BB48C06A8B
:1069E000401CBA49C8620846C17D00231A460120EE
:1069F000FDF7C6FE4CE00920B44920314877B34882
:106A0000C17D03463D3301220220FDF7B9FE3FE080
:106A10000821AE48203041772038C17D03463D3300
:106A200001220220FDF7ACFE32E0BBB2A748008C89
:106A300082B2AA491231A848FDF790F800280ED179
:106A4000A248C06A401CA149C8620846C17D002313
:106A50001A460120FDF794FE1AE027E019E009200C
:106A60009A49203148779948C17D03463D33012238
:106A70000220FDF785FE0BE0072194482030417786
:106A80002038C17D03463D3301220220FDF778FE08
:106A900018E006218D48203041772038C17D03461B
:106AA0003D3301220220FDF76BFE0BE000218748F9
:106AB000203041772038C17D03463D33012202203A
:106AC000FDF75EFE71E085480078C007C00F002822
:106AD00020D0824800784006C00F00281AD07B489A
:106AE0002030007D002815D07848C16A806A814234
:106AF00010D17A48807B01280CD17449086BFCF7CF
:106B000043FF002171480163C17D00231A46012023
:106B1000FDF736FE00206D492031087545E0002163
:106B20006A482030017540E06C480078C007C00F0B
:106B300000282CD0694800784006C00F002826D0D5
:106B4000FCF72AFC0320624908706048C17D0023DD
:106B50001A460120FDF714FE0020FEF7E5F800BFFD
:106B600000BF00BF00BF00BFBFF34F8F00BF00BF1B
:106B700000BF5B495B48C16000BF00BF00BFBFF3FF
:106B80004F8F00BF00BF00BF00BF00BFFDE70CE09C
:106B900003204E49203148774C48C17D03463D33A0
:106BA00001220220FDF7ECFD00BF0BE00220474967
:106BB000203148774548C17D03463D3301220220FC
:106BC000FDF7DEFD002145480172417281724121CD
:106BD000C9003E488182FF2181750021C175817401
:106BE00000BF3E4800783D49497888420AD13B4879
:106BF000C0783A498978884204D13448C030C08D81
:106C000000282CD1354800783449487008468078EF
:106C1000C8702E48E030C079400840002B49E03170
:106C2000C8712E480078C03948772C4880781D31CB
:106C3000487008461D38C07D401C1D39C87508467F
:106C4000C07D08760846C17D03461D330222002020
:106C5000FDF796FD7D20C0001C49C031C8851B484A
:106C60002030007D00287DD11C480078C007C00F6F
:106C7000002877D0194800784006C00F0028F8D0C7
:106C80001248C030008E002868D11148C07A01280F
:106C900064D10F4940313020085EFBF7FAFD124AFB
:106CA000124B01910090FBF7FFFD0022104B039166
:106CB0000290FBF7F9FD0F4A0F4B05910490FBF78B
:106CC00049FB07910690FBF79FFD17E00C0300209E
:106CD00014040020FFF70008009000080C010020B9
:106CE0000400FA0500ED00E06666666666660A4026
:106CF00000408F405B2041F163CC6D4080B2099031
:106D00000998C1B2FC48417709980012FA491D312F
:106D10004870FA48008E8870F848008E0004000E13
:106D2000C8700846A330C07908218843F249C031B1
:106D3000C871F148C07D401CC039C8750846C07D87
:106D40001831C870EC48C17D03461D330422092068
:106D5000FDF716FD6420E849A0310886E648E030DA
:106D6000C08800E0B1E100287ED101E0601C84B25F
:106D7000E24840303C21415E6000E14A105A8142C5
:106D800001DC922CF2DBDC48A030818D20461E30E5
:106D900081421FD0D848A030808DD7494877084617
:106DA000C07D401CC8750846C07D18314870D24867
:106DB000C17D03461D3301220720FDF7E1FCCE48CB
:106DC000C030C07902218843CB49C031C871C82086
:106DD00020398886002C01D0922C04DBFF20C64984
:106DE000A031888504E020461E30C349A031888543
:106DF00001E0681C85B2C14880301821415E6800FE
:106E0000BF4A105A814201DC922DF2DBBA48A03011
:106E1000418D28461E3081421CD0B748C07D401CA1
:106E2000B549C8750846C07D18318870B248C17D23
:106E300003461D3301220820FDF7A2FCAE48C030F6
:106E4000C07904218843AC49C031C871C821AA481F
:106E5000A030C186A848A030408DA7494877002DB2
:106E600001D0922D06DB00E05CE0FF20A249A031BA
:106E7000488504E028461E309F49A03148859F4937
:106E800040390020085EFBF704FD9E4A9E4B0191AD
:106E90000090FBF709FD00229C4B03910290FBF749
:106EA00003FD00229A4B05910490FBF753FA0791DA
:106EB0000690FBF773FC06B28F49A0312820085ECC
:106EC000B0422BD0084606850A2E03DB4B20C000BB
:106ED000864201DD0026F64387494E773004000ED6
:106EE0001D3148708448C07D401C1D39C875084656
:106EF000C07D183108718048C17D03461D330222D0
:106F00000A20FDF73DFC7C48C030C0791021884341
:106F10007949C031C871C820203908877D48764931
:106F2000E031C8807448A030808E00282DD172488E
:106F3000C030C0798007C00F002826D16E48A0302D
:106F4000808F002821DD6C48A030808F012807DB6E
:106F50006948A030808F401E6749A031888703E0D0
:106F600000206549A03188876348A030808D624940
:106F70004877084618304178431D01220720FDF765
:106F8000FFFBC8205C49A03188865B48A030C08EDA
:106F900000282DD15848C030C0794007C00F0028C4
:106FA00026D15548A030C08F002821DD5248A0309E
:106FB000C08F012807DB5048A030C08F401E4E49CB
:106FC000A031C88703E000204B49A031C8874A4858
:106FD000A030408D48494877084618308178431DD5
:106FE00001220820FDF7CCFBC8204349A031C88608
:106FF0004148A030008F002833D13F48C030C079CD
:10700000C006C00F00282CD13B48E0300088002883
:1070100027DD3948E0300088012807DB3648E030BA
:107020000088401E3449E031088003E000203249E6
:10703000E03108803048A030008D2F49487708465D
:10704000A030008D0004000E1D314870481F0179EA
:10705000431D02220A20FDF793FBC8202649A031D8
:1070600008872548A030808E00282DD12248C030C6
:10707000C0798007C00F002826D11F48A030808F1C
:10708000002821DD1C48A030808F012807DB1A482A
:10709000A030808F401E1849A031888703E000206F
:1070A0001549A03188871448A030808D124948774F
:1070B000084618304178431D01220720FDF760FB88
:1070C000C8200D49A031888663E001E0601C84B2CD
:1070D0000A4840303C21415E6000094A105A814212
:1070E00001DC922CF2DB002C01D0922C14DBFF206F
:1070F0000149A031888514E02C030020940400206D
:10710000C87800086666666666660A4000206940C0
:107110000000B040DC05000020461E3081B21E4851
:10712000818501E0681C85B21C481821415E680019
:107130001B4A105A814201DC922DF3DB002D01D055
:10714000922D03DBFF201449488503E028461E30BA
:10715000114948851149C0390020085EFBF799FBA9
:10716000104A114B01910090FBF79EFB00220F4B40
:1071700003910290FBF798FB00220D4B05910490C0
:10718000FBF7E8F807910690FBF708FB06B2024808
:1071900006850BB0F0BD0000CC03002014050020D4
:1071A000C87800086666666666660A400020694020
:1071B0000000B04000B589B001218804FDF75CFBF8
:1071C000002206214948FCF7A1FD0022072147487B
:1071D000FCF79CFDC0200790022108A80170032144
:1071E0004170002181700121C17007A93F48FCF75F
:1071F00045FD01218803FDF75FFBE120400201907E
:10720000002002900390049006900C20059001A9A4
:107210003748FEF745FB1B2168460170032141708A
:1072200001218170FDF716FA002031490862012220
:1072300030492F48FEF713FB01212D48FEF7D2FA03
:1072400000202D490870FF20487000208870C87009
:10725000087100212948018229482749C880FF2058
:107260002649E031C8714121C90024488182FF21AB
:1072700081750021C1754183FF210177002141778C
:10728000817700201D4920314875C87500211B48B1
:10729000E03041718171C8201849C031C8854886E5
:1072A000C8211648C0308186C18601870320134952
:1072B000C0314887888703211048C030C187032028
:1072C0001049088003210F48418064200D498880BF
:1072D0000D48C88080210948016200218162016354
:1072E000002006492031087509B000BD000400489F
:1072F00000380140050105000C0100200C030020AE
:10730000881300000C040020DC05000010B590B0CC
:107310000121C802FDF7D0FA002168468185C185A8
:1073200073480C906846818608A881750BA971483E
:10733000FEF724F970216846018301214183002171
:1073400081836B48401C0890022168468184082193
:10735000C18449010185418506A96648FDF78EFF74
:1073600006A96448FDF7E0FF06A96248FEF73EF86B
:10737000602168460183F3200001089006A95D485A
:10738000FEF78CF800215B48FDF7C2FF0021594849
:10739000FEF720F800215748FEF774F80021554801
:1073A000FEF7B4F80121C902684601814910418104
:1073B000891081816021C18101210903018200219D
:1073C0004182818202A94B48FDF7D0FE01210320B2
:1073D0004004FDF751FA02220C214748FCF796FCC5
:1073E000012000030E90022108A8017703214177B4
:1073F00000218177C1770EA93F48FCF73FFC0222AC
:1074000008210920C006FCF781FC02220921C806D8
:10741000FCF77CFC02220A210920C006FCF776FC5E
:1074200002220B210920C006FCF770FC0F2000028D
:107430000E90022108A8017703214177002181776E
:107440000121C1770EA90920C006FCF717FC022212
:107450000D212948FCF75AFC02220E212648FCF790
:1074600055FC02220F212448FCF750FC0720400362
:107470000E90022108A8017703214177002181772E
:107480000121C1770EA91C48FCF7F8FB812119489E
:10749000FDF77CFE012280211648FDF7E5FE012163
:1074A0001448FDF785FE01211248FDF773FE0D21FA
:1074B00068460171002141710121817101A8FDF728
:1074C000C9F800200D4988770D4908740848401C08
:1074D00088820A4CA37F0C46A28AA18AA08AFCF764
:1074E000DFF90649887F00F00DF810B010BD0000EC
:1074F0009E0F0000002C01400004004814040020EE
:10750000F400002070B5044617480821415E902918
:1075100011DA16494889FBF7C4F905460022144BD5
:1075200000F074F80ED81348007C01280AD100201E
:107530001049087406E00F48007C002802D10120A1
:107540000C4908740B48007C0C2148430A49401838
:107550006100405A09490880064B9A8A998A988A9C
:107560002346FCF79DF970BD540400203805002027
:1075700000003840F400002080780008202C0140F2
:107580000121064A11741146097C0C225143044A18
:1075900089184200895A034A11807047F40000207C
:1075A000A4780008202C014070B501250C002D05A1
:1075B0001C4310D4EC4206D4AC420AD4994200D009
:1075C00070BD904270BDE94217D4EB4215D4994288
:1075D00070BD894270BDEC4206D5AC42F9D58B42F4
:1075E00000D070BD824270BD6D004C00EC4204D2F0
:1075F0005C00EC4201D28B4270BD034C30B4FBF70F
:10760000EBFA30BC70BD00BF1900160470B501253F
:107610001C002D050C4310D4EC4206D4AC420AD415
:107620008B4200D070BD824270BDEB4217D4E9425C
:1076300015D48B4270BD9B4270BDEC4206D5AC4266
:10764000F9D5994200D070BD904270BD6D005C00CC
:10765000EC4204D24C00EC4201D2994270BD0FB40E
:10766000034C0CBC03BC30B4FBF7B6FA30BC70BDA5
:107670001900160470B501250400ED074C4020D414
:10768000441A01D2001B0919C60D4B00F2B2FF2AA1
:1076900029D01B0E2CD000020C02D31A2C43DC4044
:1076A0002843051910D2280A02D3401C6D0611D0B8
:1076B000761EF6058019FF2A00DA70BDC00DC005E0
:1076C00070BD694000F07AF801200543C541521CA5
:1076D000761CE8E764089C40C90161408900E7D155
:1076E0000124A043E4E71B0E440200D0034870BD10
:1076F000002AFCD1C00FC00770BD00BF0000C07FD2
:1077000070B5420064414B005C41120E39D01B0E33
:1077100038D0FF2A3CD0FF2B3AD040024902400A21
:10772000490A060045184E43000A090AD218484380
:10773000ED017F3A0104731A4019190C4318990F8F
:1077400004D001215B0849075B1A521CD80904D3F5
:10775000401CF50301D19D0607D0FF2A08D2D505AC
:1077600006D0E4072043401970BD0125A843F4E783
:10777000002A01DCE00770BD2402FF202043C00581
:1077800070BD1B0EFF2A03D0FF2B01D0E00770BD98
:10779000FF2645003606B54206D84D00B54203D84F
:1077A000D218FF2A00D0E7E7004870BD0000C07F74
:1077B00070B501250400ED074C4022D4441A02D2D2
:1077C0006C40001B0919C60D4B00F2B2FF2A4BD0CA
:1077D0001B0E50D000020C02D31A2C43DC40A843ED
:1077E000051B05D5AD0019D36D08761E521E37D086
:1077F000F605280A01D2801970BD70416D0603D0CC
:1078000070BD6940FFF73CFF9C40090261404900A0
:1078100001D0401E70BD0124A04370BD6D081DD075
:1078200001202B0C01D12D0410302B0E01D12D0283
:1078300008302B0F01D12D01001DAB0F01D1AD0080
:10784000801CEB0F01D16D00401C6D00361A121A1E
:10785000680AF5054019012A02DB70BD002070BDE1
:10786000C036300AC00770BD1B0E440201D1FF2B89
:1078700000D1024870BD002AF0D070BD0000C07F6A
:10788000FB177B1FB71FBF177F1BF71BFF170F1FB0
:10789000F71FFF177F1FF71FFF1FFF1FFF1FFF1F90
:1078A000FF1FFF1FFB177B1FB71FBF177F1BF71B98
:1078B000FF170F1FF71FFF177F1FF71FFF1FFF1F68
:1078C000FF1FFF1FFF1FFF1FC60FC30FC00FBD0FFE
:1078D000B90FB60FB20FAF0FAB0FA70FA30F9E0FCD
:1078E0009A0F950F900F8B0F860F810F7B0F760FDE
:1078F000700F6A0F630F5D0F560F4F0F480F400F49
:10790000380F300F280F200F170F0E0F050FFB0E2B
:10791000F10EE70EDD0ED20EC70EBB0EB00EA40E9A
:10792000980E8B0E7E0E710E640E560E480E390E9A
:107930002A0E1B0E0B0EFC0DEB0DDB0DCA0DB90D47
:10794000A70D950D800D710D5E0D4B0D370D230D9F
:107950000F0DFB0CE60CD10CBB0CA60C8F0C790C9C
:10796000630C4C0C350C1D0C050CEE0BD50BBD0B34
:10797000A40B8B0B720B590B400B260B0C0BF20A52
:10798000D80ABE0AA30A890A6E0A540A390A1E0ACC
:10799000030AE809CD09B20996097B09600945097E
:1079A0002A090F09F308D808BD08A20887086D083E
:1079B000520837081D080208E807CE07B4079A07DF
:1079C000800767074D0734071B070207E906D10642
:1079D000B906A106890671065A0642062B06140648
:1079E000FE05E805D205BC05A6059105000021109D
:1079F000422063308440A550C660E7700881299119
:107A00004AA16BB18CC1ADD1CEE1EFF131121002C0
:107A100073325222B5529442F772D6623993188368
:107A20007BB35AA3BDD39CC3FFF3DEE3622443348C
:107A300020040114E664C774A44485546AA54BB5B8
:107A400028850995EEE5CFF5ACC58DD55336722660
:107A500011163006D776F6669556B4465BB77AA708
:107A600019973887DFF7FEE79DD7BCC7C448E558AC
:107A70008668A7784008611802282338CCC9EDD958
:107A80008EE9AFF9488969990AA92BB9F55AD44A00
:107A9000B77A966A711A500A333A122AFDDBDCCBA8
:107AA000BFFB9EEB799B588B3BBB1AABA66C877CCC
:107AB000E44CC55C222C033C600C411CAEED8FFDF8
:107AC000ECCDCDDD2AAD0BBD688D499D977EB66EA0
:107AD000D55EF44E133E322E511E700E9FFFBEEF48
