:020000040800F2
:10200000B00B002059210008FD42000801400008E3
:1020100000000000000000000000000000000000C0
:1020200000000000000000000000000069480008F7
:102030000000000000000000A9440008AD490008AD
:10204000892100080000000089210008892100087A
:1020500089210008892100088921000889210008B8
:1020600000000000A5340008BD34000889210008E4
:1020700089210008454C0008892100080000000063
:10208000814C00080000000000000000094C00081E
:10209000892100080D4C00088921000889210008C9
:1020A000892100088921000889210008A55200081B
:1020B0008921000800F002F800F03EF80CA030C8BA
:1020C000083824182D18A246671EAB4654465D46B4
:1020D000AC4201D100F030F87E460F3E0FCCB64640
:1020E0000126334200D0FB1AA246AB4633431847C1
:1020F0006C5000008C500000103A02D378C878C1B0
:10210000FAD8520701D330C830C101D504680C6039
:10211000704700000023002400250026103A01D358
:1021200078C1FBD8520700D330C100D50B6070478F
:102130001FB51FBD10B510BD00F0CAFD1146FFF759
:10214000F7FF03F041FB00F0E2FD03B4FFF7F2FFFD
:1021500003BC00F017FE00000F4880F308880F480A
:102160000168090E0E4A914205D10E480E490160E0
:102170000E480F4901600F4880470F480047FEE7AF
:10218000FEE7FEE7FEE7FEE7FEE700000B480C492E
:102190000C4A0D4B70470000B00B002004000000FB
:1021A0001F00000018100240010000000000014064
:1021B00000000000D54A0008B5200008B005002046
:1021C000B00B0020B0070020B00700200FB41CB5F2
:1021D000074B06AA7B4469460090059800F0E3FC93
:1021E0000020694600F0F2FC1CBC08BC04B0184793
:1021F000F5090000002203098B422CD3030A8B420D
:1022000011D300239C464EE003460B433CD40022EE
:1022100043088B4231D303098B421CD3030A8B4200
:1022200001D394463FE0C3098B4201D3CB01C01ACE
:10223000524183098B4201D38B01C01A5241430999
:102240008B4201D34B01C01A524103098B4201D387
:102250000B01C01A5241C3088B4201D3CB00C01AF4
:10226000524183088B4201D38B00C01A524143086C
:102270008B4201D34B00C01A5241411A00D2014691
:102280005241104670475DE0CA0F00D0494203102A
:1022900000D34042534000229C4603098B422DD379
:1022A000030A8B4212D3FC22890112BA030A8B4221
:1022B0000CD3890192118B4208D3890192118B4270
:1022C00004D389013AD0921100E08909C3098B42F5
:1022D00001D3CB01C01A524183098B4201D38B0138
:1022E000C01A524143098B4201D34B01C01A5241DB
:1022F00003098B4201D30B01C01A5241C3088B4220
:1023000001D3CB00C01A524183088B4201D38B000A
:10231000C01A5241D9D243088B4201D34B00C01A94
:102320005241411A00D20146634652415B101046A9
:1023300001D34042002B00D54942704763465B10F1
:1023400000D3404201B50020C046C04602BD7047E0
:1023500070477047F0B5F94D0C091E092C402E400E
:102360002F468BB0A7437DD0B543FCD0002E7AD04A
:10237000002CFCD00D465D40ED0F2543AC1BFF2526
:10238000AD0464190894C502440DC9022143500DDF
:10239000DC0204430120C00701430443D20201913F
:1023A000200C110C00958C46010423468B430A91A6
:1023B00061460904E24D8A430991010A7D444919A5
:1023C0008039097805464D4301266D18F605751BC1
:1023D0006943C90C640B891C4C436418B5012C1B60
:1023E000250C2E04B4434C434D43210C6918890934
:1023F0000591009DE90701D00121C90704912C46F0
:1024000001996708CD072F434C08059DE10B4D430B
:102410002D0C29466646754302950D4645432E46CA
:10242000029D7D1BB44100950D465D4301942C0C2B
:102430002F040D465543AE462D0C3D4302950394A3
:102440007546049C2D04641B049406D2029C039DD3
:10245000641C002675410395029401AC70CC009F6A
:102460007D1B01E03EE162E1B44109040095079162
:1024700001940599A4086143090C0C464443650B7B
:10248000E7040C4666467443A646640B3C4303953A
:1024900002947446049DE4042C1B049406D2029C0E
:1024A000039D641C002675410395029401AC70CC19
:1024B000009F7D1BB44101940C465C430095650F61
:1024C000E7000C465443A646640F3C430395029430
:1024D0007446049DE4002C1B049406D2029C039DC8
:1024E000641C002675410395029401AC70CC009FDA
:1024F0007D1BB441AE09AF06049DC900AD092F4351
:10250000049DA406AD060495079D34436918079100
:10251000059DE10B4D432D0C2946664675430295FA
:102520000D4645432E46029D7D1BB44100950D4648
:102530005D4301942C0C2F040D465543AE462D0CE3
:102540003D43029503947546049C2D04641B04943A
:1025500006D2029C039D641C0026754103950294DB
:1025600001AC70CC009F7D1BB44101948C05069496
:10257000079C890A611800950791019C0599A40898
:102580006143090C0D464543680BEF040D46644654
:1025900065436C0B3C43049FED047D1BAC4602D2AB
:1025A0000025641C6841009E019D371B854108463B
:1025B000584301950C46460FC5005443600F28430D
:1025C0006546E4002C1B02D20025401C6E41019D93
:1025D0003F1AB5412846BD09800628438446A00914
:1025E000BF064E020699A40676180743079D0020F1
:1025F00068410A99079019430020099B00906046A2
:10260000FF1913434041E20F64003A43A4460446D5
:10261000D71A8C41A04203D90120009020463A46A7
:10262000C70F941840416246D20F224364466400AB
:102630000494009CBE466400D71AA4460446029740
:102640008C417746002F01D1A04204D96046401C3E
:102650008446029A2046C40FA64694184041049A24
:102660000546D20F224364466400D31A8D41714659
:10267000002901D1A84202D928461A46641C1043F9
:102680000122002800D0164361020020079B89190F
:1026900004465C410223002C02DB491813466441C6
:1026A000089DCE0A2D145D194B056705E10A2C051E
:1026B0000D1908993E43C9076940002B08D0934083
:1026C00006D30022761C5141002B01D176087600FA
:1026D0001C4A002D43DB154241D0AA433FD030466F
:1026E0000BB0F0BD06180D464D41174C7642AC417B
:1026F0001AD395181C465C41134A6D42A24113D36C
:10270000012252054C00D4420AD15C00D4420BD0C5
:102710004B4002D592021143E2E749004908DFE746
:102720005940C90FC90718E000200849D8E70548F3
:1027300001420DD10342F7D0F2E700000000FF078D
:102740001C4D00000000F07F0000E0FF0000F87F5B
:10275000114859400143C01241400020C0E7012305
:10276000089A9B069A4205DC032252078918C90F72
:10277000C907B5E7052252078918074A1143D21243
:102780005140ADE770B515461C4602460B4628463B
:102790002146FFF7DFFD70BDFFFFFF7F30B5034629
:1027A000CA02400D1043164D164C0A1502D02043A4
:1027B000002A06DBAA1A002A12DDD040FF2A0BDC11
:1027C00030BD5205520D01D140004008AA1A07D46D
:1027D000D0404042FF2A01DD002030BD0028FCDD52
:1027E0004A00002B01D0012000E000201018012237
:1027F0005205D042F0D8C817C043604030BD000039
:102800001E040000000000800346CA02400D10B5FF
:1028100010430A1504D00124E4072043002A05DBF5
:102820000A4CA21A04D4D040FF2A00DD002010BDBB
:102830004A00002B01D0012000E0002010180122E6
:102840005205D042F2D8C817C04310BD1E04000084
:102850001F22030C02D10F22000402D0030E03D06A
:1028600004E00020014670470002083A030F01D13E
:102870000001121F830F01D18000921E002801DB8E
:102880004000521E120551184205C0124118104650
:102890007047C10FC90700D040420122920711437F
:1028A000D6E701218907D3E7F0B58B4C0F09254600
:1028B00089B0BD437BD01D092646AE43FAD00E46F3
:1028C0005E402740F60F3E43254071D0240121424F
:1028D000FBD0FF24AD19A4042D1B039501252D0564
:1028E000DB02DB0AC9022B43C90A29431E01090185
:1028F000040F130F050121431701880B8203914335
:102900002D098C46A90B1E438A039543B30B9A03EA
:1029100096433F09BA0B9403A74302962E467E4383
:102920000497B6464E19D7190C460196544305979D
:102930007E43371B7646BF1B3601B646BE0B3619A3
:1029400000967646BC043719009C01D3641C0094A1
:102950006400002F01D001263443029E049F75437A
:1029600066467E430496760034196E00341900944E
:10297000029C019E1C196643751BAE460694654673
:102980004519059C05956C43594375460891691A8C
:102990000191049E01465143A41B0491611A009CBD
:1029A0000791E10605D061090122114302E072E0BE
:1029B0006EE06109089D00272C0A2D066918049D08
:1029C0007C412A0A2D066918019D6241AC0DAD02B9
:1029D0006D185441079A910D920255196141029A5E
:1029E000644658435443069B059A5A43121A131BD4
:1029F0009A0E9B015B187A41010B0005C3185141E7
:102A0000220A200644195A419A4200D2491C012048
:102A10004002814203D315230226F64302E0142329
:102A20000326F6432020C51AA9401746AF40DA40D6
:102A30000A4320460399D840091473181905511800
:102A4000039A3843D2075140AC4009D00122944048
:102A500006D30022401C5141002C01D14008400007
:102A60001E4A934212D3012203989206904207DB3A
:102A70000520400709181A480143C012414004E0EC
:102A8000032040070818C10FC907002009B0F0BD96
:102A90000020F107FAE705180C464C4111486D4239
:102AA000A04115D394181A465A410E4864429041E9
:102AB0000ED301204A004005824209D35A008242C7
:102AC00006D35940C90F084AC90700201143DDE762
:102AD00000200649DAE700000000FF07FE070000BB
:102AE000FFFFFF7F0000E0FF0000F07F0000F87FA5
:102AF00010B501469E240002CA15A307002A02D081
:102B00001843002A04DBA21A002A0CDDD04010BDB5
:102B10001206120E01D140004008A21A03D4D04080
:102B200040420028F3DDFF2248001206904201D9FE
:102B3000002010BDC817C043584010BD1F22030C11
:102B400002D10F2200041CD0030E01D10002083A6A
:102B5000030F01D10001121F830F01D18000921ECB
:102B6000002801DB4000521ED205511802125118F4
:102B70001922904004D3491C002801D1490849007A
:102B800008467047C10FC90700D040420122920792
:102B90001143D3E701218907D0E7000001694A1CEE
:102BA00002610878704700B58FB00291002105914D
:102BB000054901937944039111460490684600F059
:102BC00053F80FB000BD0000E5FFFFFF0A6810706A
:102BD000521C0A6070470000F8B5224C4E00069D5A
:102BE000A6420AD8A64201D1002806D15E00A6421C
:102BF00003D8A6420AD1002A08D00D242404254275
:102C00002CD02946002000F041F8F8BD0C461C43AA
:102C10000CD4994202D0EFF30080F8BD904202D06C
:102C2000EFF30080F8BDEFF30080F8BD092424071E
:102C3000E5008B4206D0EFF30080A043591A06D27C
:102C4000284304E0101A05D3EFF30080A04380F37B
:102C50000088F8BDEFF30080A043F1E7009500F095
:102C60002DF8F8BD0000E0FFF8B5064600244768DF
:102C7000806800903046F56803E00099B847641C0E
:102C80003046A8470028F8D12046F8BDC80212D522
:102C90004803400F002804D0C803C04301218840E6
:102CA0007047EFF300800001000903210907084382
:102CB00080F30088704700207047000010B50020A6
:102CC0000249029A00F02BF810BD00000000F87FC6
:102CD000754600F053F8AE46050069465346C008F5
:102CE000C000854618B020B5FFF750FA60BC002739
:102CF0004908B6460026C0C5C0C5C0C5C0C5C0C5C8
:102D0000C0C5C0C5C0C5403D49008D46704710B51F
:102D10000446C046C0462046FFF717FA10BD10B55E
:102D20000C461107090F092904D00A290AD00829DD
:102D30000CD104E011460820FFF7A8FF06E0510679
:102D400006D501E0510601D50120C007214610BD7E
:102D5000D10607D501010909CC084907000E000674
:102D6000044309E0410F20024907000A0143200EF5
:102D700000061D22D14101430846E7E7004870479D
:102D80004C05002001491820ABBEFEE726000200DA
:102D90007047002904D0C26801231A43C26003E0CF
:102DA000C26852085200C2607047C26802239A4348
:102DB000C260C2680A43C2607047000010B5044692
:102DC0000548844207D10121401501F0D1FB0021C3
:102DD000601501F0CDFB10BD0024014030B5014667
:102DE0000020002200238C680125ED072C438C6015
:102DF00000BF8C68E30FDB07521C0F242403A242A0
:102E000001D0002BF5D18C68E40FE407002C01D130
:102E1000086C00E0002030BD30B5024600200023E1
:102E2000012424060C40002C05D0946801252D06B1
:102E3000AC43234600E013681C460C40002C01D034
:102E4000012000E0002030BD10B50022C268084B10
:102E50001A400C7964030B6823438C682343CC68C5
:102E600023430C6923434C6923431A43C26010BDBA
:102E700003D2FFFF00B595B00121480401F048FBE3
:102E80003F201390032110A801740021C17413A9DD
:102E90000920C00600F0CAFE2D20800101F0F4FCDC
:102EA0000121480201F054FB3B48FFF787FF002057
:102EB0000D90002108A801760120C0020F9040204B
:102EC00010900020119012900DA93348FFF7BCFF1D
:102ED0000120314948613F2088620846FFF77EFFA4
:102EE00002212D48FFF761FF01212B48FFF751FF19
:102EF00029488068012108432749886000BF0121D3
:102F00002548FFF789FF0028F9D02348806804216D
:102F10000843214988600121084601F0F9FA1F4859
:102F200000F0F6FA1C4840300290002004901C4843
:102F30000390062005900020069080200790400016
:102F400008908000099020200A9000020B90002039
:102F50000C9002A9114800F0B1FB002202210F4899
:102F600000F0A2FB01210D4800F0C4FA00F01AF8AD
:102F7000022000F0AFFA01220221084800F094FB81
:102F8000092168460171022141710121817101A865
:102F900001F0B6F915B000BD002401400800024060
:102FA000E00000203EB500200090019002904C49C6
:102FB0004880088000242EE000BF022000F05AFB69
:102FC0000028FAD0022000F085FA684600884449BB
:102FD0008988401881B26846018041884048C0888D
:102FE000081881B26846418081883D4800890818E8
:102FF00081B268468180C18839484089081881B209
:103000006846C18001893648C089081881B268467F
:103010000181601CC4B2102CCEDB6846008801110F
:103020006846018000882E49088009880846FF38D4
:103030004338002801DB014600E04142512904DB0E
:103040000420284908700A20087368464088011146
:103050006846418040882249488049880846FF38B0
:103060004338002801DB014600E04142512904DBDE
:1030700004201C4908700A200873684680880111E2
:1030800068468180808801B21648403001806846D9
:10309000C08801116846C180C08801B21148C030A3
:1030A00001873821415E1048814204DA04200D492D
:1030B000087008200873684600890111684601817C
:1030C000008901B2094881821421415E064881428B
:1030D00004DA042003490870082008733EBD00008C
:1030E000DC000020EC030020030A0000EC040020B8
:1030F00000B589B001210320400401F009FA012242
:1031000007210920C00600F0D9FD0122062109206F
:10311000C00600F0D3FDC0200790022108A801706E
:103120000321417000218170C17007A90920C006E8
:1031300000F07CFD012200213E4800F0BFFD01208F
:103140000790022108A801700321417000218170BD
:10315000C17007A9374800F069FD0121022001F084
:10316000E7F92F216846018200214182324805900B
:1031700068460183817604A9304801F08DFF002163
:10318000684681800A21C18001210181002141819D
:103190000421818101A9294801F0BCFD0421684670
:1031A000818001A9254801F0B5FD0821684681808C
:1031B00001A9224801F0AEFD1021684601700021EE
:1031C00041700121817001F09BF801220F211B4801
:1031D00001F0D8FD0121194801F06AFD01214804E0
:1031E00001F0B6F92F216846018200214182124880
:1031F000059068460183817604A9114801F04CFFCF
:1032000000200F49088208468089022108430C49A2
:10321000888115216846017001214170817001F09B
:103220006FF807480088012108430549088009B064
:1032300000BD000000040048FFFF00000004004043
:103240000044014010B55248407A030002F072FA7F
:10325000069D040C3E5E819D4D48007F002802D1F2
:1032600001204B49087790E04948007F002818D199
:10327000012047490877022046490874E120800070
:103280004882434CA37F0C46628A618A608A00F0C0
:10329000E5FA3F49887F03F0CBFB0A2001F0FAFAF8
:1032A00013E000F045FD01280FD100203949488284
:1032B00001200003384908803848374920394863DD
:1032C0008863C8630320324948725EE001F084FAE3
:1032D000334908700846007848702D48C07AC0000D
:1032E000304940182E490978405C29498877487749
:1032F0002D49274880300161103041608160C160F4
:10330000016141610420224948723EE001F030F839
:10331000012020490874962048821D49887F03F0C7
:1033200087FB00201E4908818883194908771C49BA
:1033300048810021164880308186803001831448FE
:10334000C08C1349486105204872012001F0A2FA9F
:103350001BE000F0EDFC012816D101F09BFA104CA7
:10336000A36962690A4C6169606801F0ABFA2146A1
:103370004861084640690969884203DD20460069C2
:103380002146486101F0B4FA00BF00BF10BD000043
:10339000EC030020DC000020202C0140B80B0000D2
:1033A00008050020CC70000890D0030000200849D8
:1033B0004882012000030749088007480549203951
:1033C00048638863C863002004494872704700005E
:1033D000DC000020202C0140B80B0000EC03002092
:1033E00070B502460C4609480AE0011205062B0C8E
:1033F00015784D406D00064E755B5D402846521CA9
:103400002546661EB4B2002DEFD170BDFFFF00004F
:10341000CC6E000810B51E488089800004B21D489B
:103420000A21415E1C4A204600F08FFE194948815E
:103430000A20085EFF21C431884211DB15488089CB
:10344000142805DA13488089401C124988811DE040
:103450004021124800F060FC01200E49887315E0FD
:103460000C488089002805DD0A488089401E0949EA
:1034700088810BE04021094800F04CFC0020054900
:1034800088730420064908700B20087310BD0000E3
:10349000DC000020340500204C0F00000014004820
:1034A000EC03002010B5022000F0E4F8012804D15C
:1034B000022000F00FF800F0D1FE10BD10B5012081
:1034C000400200F0D7F8012802D1400200F002F8D3
:1034D00010BD0000012109070140002902D0034965
:1034E000486001E002494860704700000004024063
:1034F00000000240002904D0026801231A43026040
:1035000003E00268014B1A4002607047FEFF0000B2
:103510000168554A114001600021016041608160ED
:10352000C1605249884208D15049083949680F2280
:1035300011434E4A083A516094E04C491431884294
:1035400008D14A4908394968F0221143474A083AE4
:10355000516087E045492831884209D143490839FB
:1035600049680F2212021143404A083A516079E03B
:103570003E493C31884209D13C49083949680F220B
:1035800012031143394A083A51606BE03749503110
:10359000884209D13549083949680F22120411437C
:1035A000324A083A51605DE030496431884209D1BD
:1035B0002E49083949680F22120511432B4A083A4F
:1035C00051604FE029497831884209D127490839AB
:1035D00049680F2212061143244A083A516041E01B
:1035E0002349884208D12249083949680F221143EA
:1035F0001F4A083A516035E01D491431884208D10C
:103600001B4908394968F0221143194A083A5160A8
:1036100028E017492831884209D1154908394968F5
:103620000F2212021143124A083A51601AE010495F
:103630003C31884209D10E49083949680F221203EA
:1036400011430B4A083A51600CE009495031884255
:1036500008D10749083949680F2212041143044A66
:10366000083A516070470000FEFF00000800024069
:103670000804024001460020002201231B070B40E2
:10368000002B02D0064B1A6801E0064B1A6813465D
:103690000B40002B01D0012000E00020704700000B
:1036A0000004024000000240002A03D003680B43DC
:1036B000036002E003688B430360704710B500228B
:1036C00002680D4B1A400C6A8B6823430C69234334
:1036D0004C6923438C692343CC6923434C6A2343BD
:1036E0008C6A23431A430260CB6843600B68836093
:1036F0004B68C36010BD00000F80FFFF10B51D4870
:10370000807A012803D01B48807A022830D11948DA
:10371000407A05282CD11848008900281ADD16485F
:103720000089401E80B214490881002803DD134837
:103730001349486303E01048C088114948630020DA
:103740000F494862088208460088012108430C4955
:1037500008800DE00748C07A06214843094940180F
:103760000449897F405C03498877887F03F060F9CA
:1037700010BD0000EC03002008050020FFFF000042
:10378000004401402805002000B53148807A03003C
:1037900001F0D0FF050408090D1116000A202D497B
:1037A000C8700DE000BF01202A49C87008E00A2057
:1037B0002849C87004E02648007B2649C87000BF2D
:1037C00000BF2448C078002804D10120C00222494B
:1037D00088613BE01F48C0780A2805D10120C0025B
:1037E0001D492031088131E01A480088401C1949E0
:1037F000088008460088282805DA0120C0021649FA
:103800002031088122E013480088FF21B931884225
:1038100004DA0120C0021049886117E00D48817860
:10382000C078401E814207DA0A488078401C094966
:1038300088700020088009E0064800882D21490191
:10384000884203DB002003490880887000BD000027
:10385000EC030020340500200004004830B51C466D
:10386000224B1B7C002B03D0204B1B7C012B31D126
:10387000230001F05FFF06040B121920272E1C4BBA
:103880001C4DAB63EB631B1A6B6322E0184B194DA5
:10389000AB63EB631B1A6B631BE0154B154D6B633E
:1038A000EB635B1AAB6314E0114B124D6B63EB637C
:1038B0005B1AAB630DE00E4B0E4D6B63AB639B1A53
:1038C000EB6306E00A4B0B4D6B63AB639B1AEB6338
:1038D00000BF09E0064B1B1A064D6B63044B5B1AD5
:1038E000AB63034B9B1AEB6330BD0000DC00002090
:1038F000B80B0000002C01407FB504460D4616466B
:103900000094019502960D48C06B03900C4800F09E
:103910005BF80A483030009900F0A2F807483430CC
:10392000019900F09DF805483830029900F098F8A8
:1039300002483C30039900F093F87FBDC0FF0008B7
:1039400000FC00081FB504461048006B00900F48AB
:10395000406B01900D48806B029003940C4800F07E
:1039600033F80A483030009900F07AF807483430CC
:10397000019900F075F805483830029900F070F8A8
:1039800002483C30039900F06BF81FBDC0FF0008EF
:1039900000FC00080149C860704700000020024098
:1039A00070B505460E462C4609E0204600F00CF89E
:1039B000042802D10002241801E0012070BDB442A5
:1039C000F3D90020FAE7000030B5044604250B20A7
:1039D000000400F08DF80546042D17D10C4800694D
:1039E000022108430A4908610846446100694021F0
:1039F0000843074908610B20000400F079F80546E8
:103A0000034800690221884301490861284630BD06
:103A10000020024004200D49C968C907C90F0029C8
:103A200001D0012010E00949C96810221140002985
:103A300001D0022008E00549C9680422114000298C
:103A400001D0032000E00420704700000020024065
:103A500010B500F03BF83520FFF79CFF10BD0000CB
:103A600078B506460C460425002000900B20000483
:103A700000F03EF80546042D24D1134800690121C9
:103A800008431149086134800B20000400F030F82D
:103A90000546042D10D1B01C0090200C0099088020
:103AA0000B20000400F024F8054607480069400890
:103AB00040000549086105E00348006940084000EE
:103AC00001490861284678BD002002400548006988
:103AD00080210840002804D0034802494860034878
:103AE000486070470020024023016745AB89EFCD55
:103AF00010B503460424FFF78DFF044603E0FFF7EB
:103B000089FF04465B1E012C01D1002BF7D1002B4D
:103B100000D10524204610BDFFB583B00D461746E1
:103B200000244148406A401E0699884259D13E48C7
:103B3000006A8608002E20D01DE00698784303997D
:103B4000401800190290295D601C285C00020918C9
:103B5000A01C285C00040918E01C285C000608185A
:103B6000019001990298FFF77BFF042802D0012001
:103B700007B0F0BD241DB442DFD32B48006A061BFA
:103B8000002E4ED0069878430399401800190290F1
:103B9000012E04D1285DFF380138019019E0022E72
:103BA00008D1285DF103411A601C285C0002081846
:103BB00001900EE0032E0CD1285DFF21090641186B
:103BC000601C285C00020918A01C285C000408186E
:103BD000019001990298FFF743FF042821D00120AA
:103BE000C6E71CE006987843039940180019029034
:103BF000295D601C285C00020918A01C285C0004D8
:103C00000918E01C285C0006081801900199029828
:103C1000FFF726FF042801D00120A9E7241DBC429C
:103C2000E0D30020A4E70000F0020020F0B50A462F
:103C300000210023002400BF3DE001258D402B46DC
:103C400015681D402C469C4234D11579012D02D0B7
:103C50001579022D16D185684F000326BE40B54365
:103C6000856055794E00B540866835438560858806
:103C700001268E40B5438580858896798E40B6B200
:103C80003543858005684F000326BE40B543056077
:103C900015794E00B540066835430560C5684F008C
:103CA0000326BE40B543C560D5794E00B540C66811
:103CB0003543C560491C1029BFD3F0BDF0B50023C2
:103CC00000244D07EE0E1546B5402B46CD10AE0034
:103CD00005462035AD594E07F70E0F26BE40B543B9
:103CE000CE10B60007462037BD51CD10AE003D4680
:103CF000AD591D432C46CD10AD003E467451F0BD6C
:103D000002460020938A0B40002B01D0012000E0E6
:103D10000020704701857047816170470348008823
:103D2000002801D1012070470020FCE7D6000020C8
:103D300003480088002801D1012070470020FCE7DB
:103D4000D000002003480088002801D101207047DE
:103D50000020FCE7D800002003480088002801D19B
:103D6000012070470020FCE7D400002003480088B1
:103D7000002801D1012070470020FCE7D20000207C
:103D800070B59748008A0E21084000287DD000F0C9
:103D900023FD944908700846407809788842F5D098
:103DA000904800788F4948708D4800888E490840B7
:103DB0008B4908800846008A02210840002803D069
:103DC0008748406B874908828548008A042108405B
:103DD000002803D08248806B824908828048008A8C
:103DE00008210840002803D07D48C06B7D49088227
:103DF0007C48808900047B49098A4018C01C7B49A3
:103E0000886200207749C8608883754948620882C3
:103E10000846008801210843714908807348103022
:103E2000416810380161103081684160C16881606B
:103E30000169C160416901611038816A10304161D6
:103E40009038C07AC0006A49401866490978405CD9
:103E50006649803988770846807A012803D0084669
:103E6000807A022877D161488038407A0528F9D1D4
:103E70005E498039887F02F0DBFD5A494889FEF7A8
:103E800010FD044600225B4B00E096E002F00EFEBF
:103E900062D254484089401C524948815348803876
:103EA000407F052807D151488038807F002802D103
:103EB000012088703CE04D488038407F002808D1C0
:103EC0004A488038807F052803D1042045498870FE
:103ED0002EE046488038807F44498039497F8842B7
:103EE0000FDD42488038807F052803DB00203D49F4
:103EF00088701DE03D488038807F401C39498870BB
:103F000016E03A488038807F38498039497F8842B6
:103F10000EDA36488038807F002803DC05203149DE
:103F2000887005E031488038807F401E2D498870B8
:103F30002C4881782D488038C07A062250432E4A7A
:103F400080182A4A803A927F815428488038807F9E
:103F50002649803948772CE0244910318A68C9689D
:103F60005218224910310969521820491031496903
:103F700050188108382251438809010C194A1181CF
:103F8000D08011460989002904DD1749491C1B4AC4
:103F9000516303E01349C988184A51630021174A45
:103FA000516211821146098801221143134A11807E
:103FB00000BF00210D48803001830948008AC007F6
:103FC000C00F00280AD00120C043054908820548D7
:103FD000C068401C0349C86001F0F8FC70BD0000D7
:103FE0000004004008050020FEFF00006C040020D3
:103FF000CC70000800005E4028050020004401400D
:1040000000BFFEE710B51348C088124949888842AE
:1040100008DD1048C0880F494988401A01B20E488F
:10402000818502E000210C4881850B482C21415EEE
:104030002E22825E881841100748C18502462E2133
:10404000515E403A106F743200F048F80249403136
:10405000C86010BDDC0000202C04002010B51C48F6
:1040600080881B490988884208DD194880881849DA
:104070000988401A01B21748C18002E000211548A2
:10408000C18014480621415E0822825E88184110D2
:10409000104801810E48408A1E300F49884206DCD4
:1040A0000B48408A1E300B494039C86503E00A4975
:1040B00008484038C165074A0821515E403AD06C33
:1040C000503200F00BF803494039886610BD0000FB
:1040D000DC0000202C040020B80B0000F0B587B0F5
:1040E00006460F461446F51B2846FEF74BFD039087
:1040F000616802F087FD0590A168681AFEF742FD2D
:104100000190216802F07EFD03906069FEF73AFDA0
:104110000290039902F030FD0490059902F02CFD05
:104120000690FEF7E5FC6061A560E1686069884281
:1041300002DDE068606105E021696069884201DABA
:1041400020696061606907B0F0BD10B503465C1A74
:10415000204650438013401800B210BD10B53E48B1
:10416000807A030001F0E6FA05041F3957687600EB
:1041700039480078012804D002280BD0032810D138
:1041800009E03548007A3449C8720320487201209A
:10419000887206E005E0FFF709F903202E498872CE
:1041A00000BF00BF56E0FFF74DF82B48007801280C
:1041B00004D0032803D004280DD106E00BE0FFF75C
:1041C000F5F803202449887205E0FFF7EFF8042092
:1041D0002149887200BF00BF3CE01F4800780128D9
:1041E00004D002280AD0032813D108E0FFF796FD77
:1041F000012802D10020184988720AE009E0FFF77F
:104200008DFD012804D1FFF7D1F8032012498872EF
:1042100000BF00BF1EE010480078012804D002282B
:1042200006D0032806D104E000200B49887201E083
:1042300000E000BF00BF0DE007480078012804D06F
:10424000022803D0032803D101E001E000E000BF11
:1042500000BF00BF00BF10BDEC03002010B5244814
:10426000807A030001F066FA050405063F4041002C
:104270003BE000BFFFF7F2FEFFF7C4FE1C488030B2
:10428000C0681B49896E884203DA19488030C068CB
:1042900001E01748806E174948820846418A144851
:1042A0008030406D814202DA1248408A02E01048B4
:1042B0008030406D0F4948820846408A0E49884246
:1042C00002DD08460B4948820948807A012807D157
:1042D000074CA37F074C628A618A608AFFF7BEFAA7
:1042E00000F0E4F801E000E000BF00BF10BD0000F6
:1042F000EC030020DC000020220B000070470000CF
:1043000000218278002A27D0184A03231B02D218E2
:1043100003789B109B00D15802789207D30EFF229E
:104320009A400B469343194642789207120E03783F
:104330009B07DB0E9A4011430C4A03231B02D21841
:1043400003789B109B00D1500278D306DB0E01222C
:104350009A40064B1A6007E00278D306DB0E012272
:104360009A40024B80331A607047000000E100E081
:1043700000212348816023493C38C16322493C30F5
:1043800041602249C16028210161BC38C18CBC3028
:104390004161BC38C18C803041651D481849BC3929
:1043A000C86400211648BC3881651A481449BC39D4
:1043B000086515491248BC38416515494A31C1653F
:1043C0000021016612494A314166FF20E8300C495C
:1043D000BC39086700210A48BC38C1670D48084944
:1043E000BC39486708490648BC38816708494A31E2
:1043F0007430C1600021016105494A314161704753
:10440000A8040020CDCCCC3D8FC2F53C204E00004E
:104410006E0B00009A99993EFFB581B014461F4675
:104420005A211F484172A5201D4909314870019841
:1044300088700298C87008460471201248710025DF
:1044400007E03978A81D164A093211547F1C681CF0
:10445000C5B2A542F5DBA11D11480930FEF7C0FF2A
:1044600006460F4A0932A01D16543112E01D1154A0
:1044700000250EE000BF40210A4800F0B1FF0028EF
:10448000F9D007480930415D064801F07CF8681C06
:10449000C5B2204608308542ECDB05B0F0BD000017
:1044A0007003002000380140704700007FB51348BA
:1044B000446A134880890004041912484069A042E4
:1044C0001AD210484461062161430846FEF7E9F913
:1044D000054600220C4BFEF7E7F902460B46019118
:1044E000009000200949FDF735FF03910290FEF787
:1044F00055F904491039C8627FBD0000000400402E
:10450000080500207C04002000001040389C8C41ED
:10451000002905D0054A52690243044B5A6104E060
:10452000024A52698243014B5A61704700100240AF
:10453000002905D0054AD2690243044BDA6104E040
:10454000024AD2698243014BDA617047001002408F
:10455000002905D0054A92690243044B9A6104E0A0
:10456000024A92698243014B9A61704700100240EF
:10457000002905D0054AD2680243044BDA6004E002
:10458000024AD2688243014BDA6070470010024051
:10459000FEB5044600250026002002900190009000
:1045A0000027864840680C2108400546002D06D0AB
:1045B000042D07D0082D08D00C2D2CD128E08048E0
:1045C00020602BE07E48206028E07C4840680F2176
:1045D000890408400646794840680321C903084019
:1045E0000290B00C861C0298002803D1754837460B
:1045F00047430BE07148C06A0007000F401C019060
:104600006F480199FDF7F6FD70430746276005E006
:104610006D48206002E06A48206000BF00BF674824
:104620004068F021084005462D096848405D00902B
:1046300020680099C840606060484068072109020E
:10464000084005462D0A6148405D00906168009869
:10465000C140A1605948006BFF21013108408842E8
:1046600002D05B48E0600DE05448406801218903B6
:104670000840884203D0A0684008E06002E0A068DB
:104680008008E0604D48006B40210840402802D07F
:104690005048206102E00120C00320614748006BC0
:1046A00010210840102802D04548606101E02068D0
:1046B00060614248006B8007800F002802D1A0682B
:1046C000A06119E03D48006B8007800F012802D1EE
:1046D0002068A06110E03948006B8007800F022835
:1046E00002D18003A06107E03448006B8007800F8F
:1046F000032801D13248A0613048006B032109042E
:104700000840002802D1A068E06120E02B48006B3F
:1047100003210904084001210904884202D12068CC
:10472000E06114E02548006B0321090408400121E1
:104730004904884202D18010E06108E01F48006B04
:10474000032109040840884201D11D48E0611B484B
:10475000006B032189040840002802D1A068206270
:1047600020E01648006B03218904084001218904D8
:10477000884202D12068206214E01048006B0321B7
:10478000890408400121C904884202D10011206235
:1047900008E00A48006B032189040840884201D1DF
:1047A000074820620548006B80210840802802D01D
:1047B0000548606200E06762FEBD00000010024034
:1047C00000127A0000093D00006CDC02C0000020ED
:1047D000809FD5001280000000200921C906098AA7
:1047E00080221140002901D0042108430921C90673
:1047F000098A40221140002901D0022108430449BE
:10480000098AC907C90F002901D00121084370474F
:104810000004004810B51048046B601C00280ED13D
:104820000E480F49086107200E49486188610B4610
:104830009A6959690A4B1869FFF75EF80AE0064859
:10484000006B074908610448406B0649486102480B
:10485000806B886110BD0000C0FF0008DC0500000F
:10486000EC030020080500207047000001460020EE
:10487000044A10688008800002460A431046014A34
:104880001060704700000140014908607047000057
:10489000402C01400149088070470000D0000020F2
:1048A0000149088070470000D800002001490880B5
:1048B00070470000D40000200149088070470000C4
:1048C000D200002010B504468C4206DD8818A042B4
:1048D00001DB204610BD8818FCE78C4206DAC81AB6
:1048E000A04201DC2046F5E7C81AF3E72046F1E7CD
:1048F000FEB5224801691030406809181F48103081
:10490000806809181D481030C06809181B4810300D
:104910000069091819481030406908180290029877
:10492000FDF7BFFF04460022154BFDF7BDFF024611
:104930000B460191009000201249FDF70BFD064641
:10494000FDF72CFF0D49C8620846016BC06A0818C4
:1049500041100A480163808E401C81B2074881865D
:104960000A290ADB002181860246116B803A5069D0
:10497000BC32FFF7B3FB01494865FEBD6C04002063
:1049800000001040389C8C41042806D10649096972
:1049900004221143044A116105E003490969042214
:1049A0009143014A1161704700E000E010B500F04A
:1049B00059F82A484088002804DD28484088401ECD
:1049C000264948802648408D002804DD2448408D33
:1049D000401E234948852248C08D002804DD204818
:1049E000C08D401E1E49C8851D48008E002804DD6C
:1049F0001B48008E401E1A4908861948408E002820
:104A000004DD1748408E401E154948861448808EA4
:104A1000002805DD1248808E401E81B21048818634
:104A20000F48808D002805DD0D48808D401E81B225
:104A30000B4881850A48008F002804DD0848008F54
:104A4000401E074908870648C08E002804DD044838
:104A5000C08E401E0249C88610BD0000F000002034
:104A6000B003002016480088002804D014480088AD
:104A7000401E1349088013480088002804D01148BC
:104A80000088401E0F4908800F480088002804D085
:104A90000D480088401E0C4908800C4800880028FA
:104AA00004D00A480088401E084908800848008849
:104AB000002804D006480088401E05490880704739
:104AC000D0000020D2000020D4000020D60000201A
:104AD000D8000020704700000349088000BF024949
:104AE00009880029FBD17047D0000020F0B50C46A2
:104AF00000210025068C0A4F3E400684018B058C60
:104B0000074EF23E31401E05360C16433143044E2B
:104B1000093E354001262643354301830584F0BD17
:104B2000FEFF0000F8B50C46002100250026009687
:104B3000068C0D4F3E400684018B058C2605360CF5
:104B400000960A4E31401E07360C31431606360CCD
:104B50003143054E903E35401027009E3E4335437D
:104B600001830584F8BD0000EFFF0000FF0C00008A
:104B7000F8B50C460021002500260096068C0C4F47
:104B80003E400684818B058C2606360C0096084E26
:104B90000D3631401E05360C16433143054E354067
:104BA000FF270137009E3E43354381830584F8BDCE
:104BB000FFFE0000FFF50000F8B50C4600210025BF
:104BC00000260096068C0D4F3E400684818B058C96
:104BD0002607360C00960A4E31401606360C314335
:104BE0001E07360C3143074E354001273F03009E18
:104BF0003E43354381830584F8BD0000FFEF00008C
:104C0000FF0C0000FF5F00007047000010B50B486C
:104C1000008A0221084000280BD0481F074908825B
:104C2000084600880649084004490880FEF766FDEA
:104C300002E000200149088210BD0000004401404C
:104C4000FEFF000010B580210B4800F050F801284D
:104C500007D18021084800F027F804200749087090
:104C600008730121044800F042F8012803D1012112
:104C7000014800F019F810BD002C0140EC030020A1
:104C800010B5FFF77DF810BD0A884B881A438B8852
:104C90001A43CB881A430B891A434B891A438B89D1
:104CA0001A4344231A527047CA43028270470000D5
:104CB000002904D0028801231A43028003E00288FD
:104CC000014B1A4002807047FEFF0000002907D008
:104CD0004422125A0123DB031A4344231A5205E0EB
:104CE0004422125A53045B0C44221352704730B5CD
:104CF0000246002000230024158A0D402B4695898A
:104D00000D402C46002B03D0002C01D0012000E0E8
:104D1000002030BD70B505460C46208800280AD119
:104D20002389A28861882846FFF7E0FEE1882846AB
:104D300000F086F925E0208804280AD12389A2887A
:104D400061882846FFF7EEFEE188284600F082F9E8
:104D500017E0208808280AD12389A288618828467C
:104D6000FFF706FFE188284600F080F909E0238973
:104D7000A28861882846FFF71FFFE188284600F0D7
:104D80007FF970BD002A03D083890B43838102E041
:104D900083898B438381704770B5002400220023F0
:104DA000058C1C4E35400584028C8388048B194D7C
:104DB0006F3D2C40B51E2C400D882C43751E2A409B
:104DC0008D892A434D882A43134DA84208D0134D9C
:104DD000A84205D0124DA84202D0124DA84212D1CD
:104DE0000C4DED1F2A40CD892A430A4DED1E2A4065
:104DF0008D882A43074DFF3D2B400B4D2B400D8ADC
:104E00002B434D8A2B43838004838D684563028442
:104E100070BD0000FEFF0000002C0140004001407A
:104E20000044014000480140FFFD00000A46002107
:104E3000018B034B19400B461343194601837047FE
:104E4000F7FF000070B5002400220023058C214EDE
:104E500035400584028C8388048B1F4D2C401F4DE8
:104E60002C400D782D062D0C2C431A4D103D2A4058
:104E70008D892D052D0C2A434D882D052D0C2A4397
:104E8000174DA84202D0174DA8421CD1164D2B40F9
:104E90000D8AAD042D0C2B43114DA84213D10D4D9D
:104EA000703D2A40CD892D052D0C2A43094D303DFA
:104EB0002A408D882D052D0C2A430C4D2B404D8A00
:104EC000AD042D0C2B43838004838D68856302849D
:104ED00070BD0000EFFF0000FF8F0000FFFC00002E
:104EE000002C014000400140FFFB0000FFF70000E4
:104EF0000A460021018B034B194013061B0C194372
:104F000001837047FFF7000070B5002400220023E2
:104F1000058C1C4E35400584028C8388848B194D8A
:104F200090352C40174DFD352C400D882C43164DE7
:104F30002A400D7B2D062D0C2A438D782D062D0C35
:104F40002A43124DA84217D1114D2A408D7B2D06C0
:104F50002D0C2A430F4D2A400D792D062D0C2A4386
:104F60000D4D2B400D4D2B400D8A2D052D0C2B4347
:104F70004D8A2D052D0C2B43838084838D68C5635A
:104F8000028470BDFFFE0000FFFD0000002C014008
:104F9000FFF70000FFFB0000FFEF0000FFDF000055
:104FA0000A460021818B034B19400B4613431946D7
:104FB00081837047F7FF000070B5002200230024B2
:104FC000058C134E35400584038C8488828B114DEB
:104FD0002A40114D2A400D782D062D0C2A430F4DE5
:104FE0002B400D7B2D072D0C2B438D782D072D0C81
:104FF0002B430B4DA84205D10A4D2C400D8AAD051F
:105000002D0C2C43848082838D680564038470BDDD
:10501000FFEF0000FF8F0000FFFC0000FFDF00003B
:10502000002C0140FFBF00000A460021818B034B8A
:10503000194013061B0C194381837047FFF70000CA
:10504000028B034B1A400283028B0A430283704790
:10505000F3FF0000028B044B1A400283028B0B0605
:105060001B0C1A4302837047FFF30000828B034B33
:105070001A408283828B0A4382837047F3FF0000C9
:10508000828B044B1A408283828B0B061B0C1A43C3
:1050900082837047FFF3000000220288154B98427C
:1050A00006D001239B07984202D0134B984203D1AC
:1050B000124B1A404B881A43114B984203D0114BA4
:1050C0001A400B891A4302804B68C3620B88038520
:1050D000084B984208D00C4B984205D00B4B984295
:1050E00002D00B4B984201D18B7A03860123838235
:1050F00070470000002C0140000400408FFF0000BA
:1051000000100040FFFC000000400140004401404E
:105110000048014070B5FEF715FE012874D1052046
:10512000FFF7BEFB5A48808F09280FDA5948C0891B
:1051300001B25748808F420055483E3081523E3878
:10514000808F401C81B25248818714E00021504872
:1051500081870A213E3000F073FB4D49403148827F
:105160000A461421515E1220105E4B4AFEF7EDFFF5
:1051700047494031888246483821415EFD20C000C1
:1051800081421ADA42494031C88AFDF78AFB044657
:105190000022424B01F08AFC08D23D484030C08AD0
:1051A000401C81B23A484030C18219E0042038499D
:1051B000C03908700820087312E035484030C08AB2
:1051C000374988420CDB32484030C08A002807DD6E
:1051D0002F484030C08A401E81B22D484030C182E5
:1051E0002B48008C092810DA2A48408901B2284847
:1051F000008C42002648223081522238008C401C0C
:1052000081B22348018413E041E000212048018459
:105210000A21223000F014FB1D49C8860A463821B5
:10522000515E3620105E1C4AFEF78FFF1849088732
:1052300017483821415EFD20C000814217DA144929
:10524000488FFDF72EFB04460022144B01F02EFC84
:1052500006D20F48408F401C81B20D48418716E0AE
:1052600004200B49C0390870082008730FE0084873
:105270003821415E0A48814209DB0548408F0028F9
:1052800005DD0348408F401E81B20148418770BD53
:10529000AC040020DC000020DA0C000000407F405D
:1052A000030A000010B54349434800F0A3F8012861
:1052B00072D1414800F062F9C4B23E493E4800F064
:1052C00081F83E48807B002865D13C4881898089EF
:1052D000401C82B239488281FF38FD384454374837
:1052E000808902280CD1364800795A2803D13448E5
:1052F0004079A5284FD000213048818181734AE050
:105300002E488089062815D12D48417A2B480182E4
:10531000007C01022A48007A0818083081B2274828
:10532000018227488179254881742548C17923481D
:10533000C17430E021488189008A814205DB012166
:105340001E4881730021818125E01C488089022844
:1053500021DD1A488089801E1949091D085C5A28D8
:1053600019D116488089401E085CA52813D15A20FF
:10537000091F0871A5211248417100220F48808938
:10538000801E0F49091D0A540C488089401E0A548A
:1053900002210A48818100BF0821074800F020F857
:1053A000012806D1044800F0E9F80821024800F07D
:1053B00009F810BD0501050000380140F002002089
:1053C000F000002001627047002904D00268012328
:1053D0001A43026003E002685208520002607047FC
:1053E00002460020D3690B40002B01D0012000E0D1
:1053F0000020704770B502460B46002400210025AE
:1054000000201E04350ED9B201268E403146012DF2
:1054100002D11668314006E0022D02D156683140B3
:1054200001E0966831401C0C0126A6403446D6693E
:105430003440002903D0002C01D0012000E00020DE
:1054400070BDF8B503460024002600960025002014
:1054500018460E04340ECEB200960127009EB740C7
:105460003D46022C01D1001D02E0032C00D1083082
:10547000002A03D006682E43066002E00668AE43A9
:105480000660F8BDF0B58BB004460D46002700203D
:105490000A900026206840084000206066680321CA
:1054A0000903304688430646A868064366602668B6
:1054B0002D480640E968686808432969084306439F
:1054C0002660A668032109023046884306466869BB
:1054D0000643A6606846FFF75BF82448844202D181
:1054E00006980A900DE02248844202D107980A905B
:1054F00007E02048844202D108980A9001E002980F
:105500000A9020680121C903084000280CD02968AE
:105510000A9A5000FCF76EFE074629680A9A500066
:10552000FCF768FE0E4609E029680A98FCF762FE5F
:10553000074629680A98FCF75DFE0E462868400871
:10554000B04200D87F1C20680121C9030840002810
:1055500006D03807460F384607490840304307460B
:10556000A7810BB0F0BD0000F3E9FFFF0038014058
:105570000044004000480040F0FF00000146888CD5
:10558000C005C00D7047CA05D20D028570470000E6
:1055900010B5FEF7E1FB012827D1FFF787F9FEF7E9
:1055A000F3F8FDF737FF11488088002805DD0F4824
:1055B0008088401E0D49888017E080210C48FEF746
:1055C0009FFB002804D180210948FEF7A5FB0CE0D1
:1055D0000648C088002805DD0448C088401E0349ED
:1055E000C88002E001200149087210BD3405002086
:1055F000001400481CB5012111208004FEF788FF2B
:105600008020009001216846017141710021817163
:10561000C17169462648FEF709FB80212448FEF740
:1056200079FB02200090012168460171417100213F
:105630008171C17169461E48FEF7F8FA02211C48C3
:10564000FEF76AFB0120C00200900121684601714B
:105650000321417100218171C17169461548FEF72E
:10566000E5FA0120C0021349886140200090012121
:10567000684601710321417100218171C171694640
:105680000B48FEF7D3FA40210948FEF743FB002000
:105690000949488101208873C870002008808870FB
:1056A00006488880FF20F530C880002008721CBDA5
:1056B000001400480004004834050020B80B000026
:1056C00010B5FEF753FB01282CD10220FFF7F4F8A8
:1056D0001548008D09280EDA1448008901B21248D5
:1056E000008D420010482A3081522A38008D401C1B
:1056F0000D49088516E000200B4908850A210A4853
:105700002A3000F09DF80849C8870A464032002137
:10571000515E403A3E20105E054AFEF716FD0249F2
:105720004031088010BD0000EC030020DC000020A8
:10573000DA0C000030B47446641E2578641CAB4259
:1057400004D3635D5B00E31830BC18471D46F8E7DF
:1057500010B5002819DB1A4A03231B02D21883084C
:105760009B00D2588307DC0EFF23A3409A438B078C
:105770001B0E8407E40EA3401A43114B032424029A
:105780001B198408A4001A5118E00E4A03071B0FC6
:10579000083B9B089B00D2588307DC0EFF23A340E5
:1057A0009A438B071B0E8407E40EA3401A43054B54
:1057B0000407240F083CA408A4001A5110BD0000DF
:1057C00000E100E01CED00E0002007E08100184A45
:1057D000891809688200174B9950401C3028F5D36E
:1057E00001210846FEF7C4FE0320FFF73FF8FEF74D
:1057F0002FF900F0C1F800F065F8FDF779FC01F031
:105800001BF8FDF737FB00F079FFFFF7F3FEFFF71A
:1058100001F809480949486009E0FFF7B9FE00F0BE
:10582000F7F8FFF74DFFFFF775FCFEF797FCF4E77D
:105830000020000800000020DC050000EC03002030
:10584000FCB5024600241AE0002312E05800165E60
:10585000581C4000105E864209DD5800155E581C39
:105860004000105A5E009053581C40001552581CBE
:10587000C3B2081B401E9842E8DC601CC4B2481E3C
:10588000A042E1DCC807C00F002806DD481CC60F97
:10589000361876107600955F12E00846CE0F36185F
:1058A00076107600965FCF0F3F187F107F1C7F0029
:1058B0000091D75FF619F70F0196BE19761035B231
:1058C0002846FCBD032027490870002048600120BD
:1058D0000872002048728872C87201200873002084
:1058E000486108830877887708621F4888844820C1
:1058F000C8841E491B484030018000201949088592
:105900001A48C8870021174840304180818081852E
:10591000C185FF20E830134908670846818C803034
:10592000C1603221C16201630021818681634165CA
:105930000F4981620161103041608160C160016185
:1059400041610021303001840A49C186018700216C
:105950004187818707494030418281820021C1828D
:1059600070470000EC030020B80B00003C0700006B
:105970006A1800008B0E000010B58AB06846FEF76A
:1059800007FE0420FFF700F87D21C9000198FCF70D
:1059900031FC0446601E0B49884200D90CE0601EB1
:1059A000094948610321081FFFF7D2FE002006497C
:1059B00088610720086100BF0A20FFF78DF80AB050
:1059C00010BD0000FFFFFF0000E000E00E48808BEC
:1059D0001E2805DA0C48808B401C0B49888312E096
:1059E0000A48407A05280ED10848807A01280AD151
:1059F000064840300821415EC32904DD04200349E4
:105A0000087007200873704708050020EC03002089
:105A1000F0B589B0FE480078C007C00F00287DD1DE
:105A2000FC48807B002879D0FB48F9494880F94838
:105A3000008A801E81B2F648001DFDF7D1FCF549B1
:105A400088820846008A801EFF39FD390A5CF148C9
:105A5000008A401E085C0002101881B20791ED48D0
:105A6000818A079881427DD1EA48807C11287AD2C8
:105A700043007B449B885B009F4410001E0076001F
:105A80007700390162017F017500750075007500AE
:105A900030025C0218037F03B303B803DC480078CC
:105AA000DC4920314876DB48C17C0346393301228A
:105AB0000020FEF7B1FCC6E3D648C07CD5492031B2
:105AC000097D884209D1D348E030C07840084000C1
:105AD000401CD049E031C87043E0CE48C07CCD497D
:105AE00034314978884209D1CA48E030C07802216F
:105AF0008843801CC749E031C87032E0C548C07C8B
:105B0000C4493431897888420BD1C248E030C0782A
:105B100004218843001DBF49E03100E0B1E3C870B3
:105B20001FE0BC48C07CBB493431C978884209D1E8
:105B3000B848E030C078082188430830B549E031E2
:105B4000C8700EE0B348C17C34300079814208D17E
:105B5000B048E030C078102188431030AD49E031C2
:105B6000C87070E370E361E36DE3A948807A0728A9
:105B700006D0082821D009283BD00A2875D175E025
:105B8000A448C17C00231A460120FEF745FCA14829
:105B9000C030008DC1B29F4820304176A030008DCA
:105BA00000129C49393148709A48C17C0346393308
:105BB00002220720FEF730FC97E09648C17C0023C4
:105BC0001A460120FEF728FC9248C030C08C91494B
:105BD000203148760846A030C08C00121931487038
:105BE0008C48C17C0346393302220820FEF714FC9E
:105BF0007BE08848C17C00231A460120FEF70CFC9C
:105C000086492E20085EFCF744FE0646844A854BF2
:105C1000FCF74AFE0022844B01910090FCF744FE01
:105C2000824A834B03910290FCF794FB0591049008
:105C3000FCF7EAFD85B27748203045762812754991
:105C40003931487075484030808D887073484030D5
:105C5000808D0004000EC8706E48C17C0346393345
:105C600004220920FEF7D8FB3FE031E06948C17CFF
:105C700000231A460120FEF7CFFB68490020085E8A
:105C8000FCF707FE664A674B01910090FCF70CFE9B
:105C900006460022674BFCF707FE0022664B039185
:105CA0000290FCF757FB05910490FCF777FD04B2D6
:105CB000584920314C762004000E1931487055485F
:105CC000C17C0346393302220A20FEF7A5FB0CE013
:105CD00005205049203148764E48C17C034639336F
:105CE00001220220FEF798FB00BF00BFABE2534841
:105CF000807B002823D05148007A00281FD04748D5
:105D00004038807A04281AD04148807A8607B60F36
:105D10000120424940390872012E02D10320087047
:105D200005E0022E03D101213C484038017039487A
:105D3000C17C00231A460120FEF76EFB00BF82E201
:105D40003FA134483930FCF741FA3DA131484D308C
:105D5000FCF73CFA3FA12F486130FCF737FA42A12B
:105D60002C487530FCF732FA2A48C17C0346393397
:105D700050220520FEF750FB65E22548817AC07A63
:105D8000000209182248007B000409182048407BC3
:105D900000060E183948864206D8FF20F5308642A4
:105DA00002D31E48403806611948817BC07B00023F
:105DB00009181748007C000409181548407C0006A3
:105DC0000E181648403846601148817CC07C00029D
:105DD00009180F48007D000409180D48407D000691
:105DE0000E18642E01D2642607E00C484038006982
:105DF000B04202D20948403806690849403908696A
:105E00003146FCF7F7F91E4948610148817D39E0C8
:105E1000F0000020F0020020881300002C04002075
:105E20006666666666660A4000408F409031772D50
:105E3000211F7440002069400000B040340500205C
:105E400030302D30302D30302D30302D30302D3061
:105E50003030310065626C64635F68775F737A6CC1
:105E6000685F72656330310065626C64635F73778D
:105E70005F737A6C685F726563303300DC05000025
:105E800008050020C07D00020918FE48007E0004BD
:105E90000918FC48407E00060E18642E01D26426C4
:105EA00005E0F9480069B04201D2F7480669F649B1
:105EB00008693146FCF79EF9F44988610846826911
:105EC0004169F14803691846FDF716FDF048C17CA9
:105ED00000231A460120FEF79FFAB4E1E948807AD0
:105EE0000221084000280FD00820E7490873042049
:105EF00008708872FDF75AFAE24800780421884356
:105F0000001DE04908700DE00120DF4908730320FF
:105F100008700321DC488172DA4800780421884344
:105F2000D8490870DA48C17C00231A460120FEF7E0
:105F300073FA88E1D6482030007C01280CD10B2070
:105F4000D34920314876D248C17C034639330122F7
:105F50000220FEF761FAA8E0CA48817AC07A0002FE
:105F60000918C848007B00040918C648407B000691
:105F70000918C7484162C348817BC07B00020918E9
:105F8000C048007C00040918BE48407C000609187F
:105F9000BF48C1620246516AD06AFCF72BF9BC497E
:105FA000C8610846C069202807D30846C069402850
:105FB00003D22021B648C16129E0B548C069402814
:105FC00007D3B348C069802803D24021B048C161DB
:105FD0001DE0AF48C069802807D3AD48C069FF28DD
:105FE00003D88021AA48C16111E0A948C069FF28EF
:105FF00009D9A748C06901214902884203D2491042
:10600000A348C16103E001214902A148C161A04840
:10601000C0699F49496A48439D49C96A091A9C4811
:106020000162C06A1B218902884232D89848C0693F
:106030000121490288422CD89348807A012804D152
:10604000FDF7B4F9032190480170012090492031F7
:10605000087400218E488162FDF7FAFC8D498E4854
:10606000FDF79EFC002807D18948C17C00231A4611
:106070000120FEF7D1F918E0092085492031487642
:106080008348C17C0346393301220220FEF7C4F95C
:106090000BE008217E48203041762038C17C034641
:1060A000393301220220FEF7B7F9CCE078482030DE
:1060B000007C002854D07348817AC07A0002091805
:1060C0007048007B000409186E48407B00060E18DB
:1060D0006F48806AB04236D16D48018AC0698142FA
:1060E00024D1B3B26A48808B82B266490E316A48C5
:1060F000FDF712FD00280CD16548806A401C6449F8
:1061000088620846C17C00231A460120FEF784F904
:1061100025E009205E49203148765D48C17C034670
:10612000393301220220FEF777F918E00820584998
:10613000203148765648C17C03463933012202207B
:10614000FEF76AF90BE007205149203148765048A4
:10615000C17C0346393301220220FEF75DF90BE0D2
:1061600006204B49203148764948C17C03463933E3
:1061700001220220FEF750F965E045482030007CFE
:10618000002821D04248816A406A81420FD13D48AF
:10619000807A012806D13E49C86AFDF7D3FB002169
:1061A0003B48C16200203A492031087418E00720BA
:1061B0003749203148763648C17C034639330122BD
:1061C0000220FEF729F90BE00620314920314876FC
:1061D0002F48C17C0346393301220220FEF71CF907
:1061E00031E000202A49203108742CE0FDF7DEF868
:1061F0000320254908700020FEF738FB00BF00BFD0
:1062000000BF00BF00BFBFF34F8F00BF00BF00BF84
:1062100022492348C16000BF00BF00BFBFF34F8FBA
:1062200000BF00BF00BF00BF00BFFDE7032018494B
:10623000203148761648C17C0346393301220220BA
:10624000FEF7EAF800BF0BE002211148203041764A
:106250002038C17C0346393301220220FEF7DCF8E6
:1062600000200849087100210648417181714121CF
:10627000C90007480182FF2181740021C174817324
:1062800000BF0FE0F0000020EC0300200805002014
:10629000F0020020FFF70008009000080400FA0553
:1062A00000ED00E0FE48007C00287DD1FD4800782C
:1062B000C007C00F0028F8D1FB48807A012807D119
:1062C000F848007802218843801CF649087005E0F0
:1062D000F448007802218843F2490870F248007BB4
:1062E000082807D1EF480078102188431030ED4985
:1062F000087005E0EB48007810218843E9490870F0
:10630000E8480078E7494978884210D0E5480078A5
:10631000E4494870E248C030407840084000401CE2
:10632000DF49C03148707D20C00020394885DC48F5
:10633000C0304078C007C00F002804D1D848A03032
:10634000408D002829D1D7480078D549487608469D
:10635000C030C07840084000C031C870D048C07C10
:10636000401CC039C8740846C07C08750846C17C0A
:106370000346193301220020FEF74EF8C848C0300A
:10638000407840084000C649C0314870FF20C33003
:106390002039C8857D20C0004885C148A030808D47
:1063A00000284DD1C04800E0A3E1807A012847D100
:1063B000BD4940312E20085EFCF76BFA0646BB4A09
:1063C000BB4BFCF771FA0022BA4B03910290FCF729
:1063D0006BFAB94AB94B05910490FBF7BBFF0791E3
:1063E0000690FCF711FA85B2AD494D7628121931A5
:1063F0004870AD488030808D8870AB488030808D8B
:106400000004000EC8700846A730C07808218843F1
:10641000A349C031C870A248C07C401CC039C874B0
:106420000846C07C1431C8709D48C17C03461933AE
:1064300004220920FDF7F0FF64209949A0318885E6
:106440009748A030008F00287ED1002601E0701C04
:1064500086B270009A49095A9348C0303822825E49
:10646000914201DC922EF2DB8D48A030018D304646
:106470001E3081422ED0922E04DBFF208849A031AD
:10648000088504E030461E308549A03108858448DF
:10649000A030008DC1B282484176C030C078022160
:1064A00088437F49C031C8707D48C07C401CC039DA
:1064B000C8740846C07C143148707948C17C0346D2
:1064C000193301220720FDF7A7FFFF20C3307449CD
:1064D000A0310886002601E0701C86B27000784961
:1064E000095A78481422825E914201DC922EF3DB35
:1064F0006B48A030C18C30461E30814230D0922E85
:1065000004DBFF206649A031C88404E030461E3019
:106510006349A031C8846248A030C08C6049487685
:106520000846C030C078042188435D49C031C87036
:106530005B48C07C401CC039C8740846C07C14311C
:1065400088705748C17C00E059E0034619330122A6
:106550000820FDF761FFFF20C3305149A031488674
:10656000514940310020085EFCF793F94F4A504BE7
:1065700001910090FCF798F90022534B039102908F
:10658000FCF792F90022514B05910490FBF7E2FED3
:1065900007910690FCF702F904B24149A03124208A
:1065A000085EA04226D008468484A03844762004A1
:1065B000000E873948700846A730C07810218843FC
:1065C0003749C031C8703648C07C401CC1B234481D
:1065D000C174C07C3249143108713148C17C034612
:1065E000193302220A20FDF717FFFF20C3302C4980
:1065F000A031888636482A49A031088700BF28483C
:10660000A030008E002818D12548C030C0788007FF
:10661000C00F002811D12248A030008D20494876B3
:10662000084614304178431D01220720FDF7F4FE8F
:10663000FF20C3301A49A03108861948A030408E87
:10664000002818D11648C030C0784007C00F002875
:1066500011D11348A030C08CC1B21148417614301A
:106660008178431D01220820FDF7D6FEFF20C330AC
:106670000B49A03148860A48A030808E002838D1C6
:106680000748C030C078C006C00F002831D1044888
:10669000A030808C024948760846A030808C19E0F2
:1066A00010030020F0000020EC0300206666666600
:1066B00066660A4000408F409031772D211F74405C
:1066C000A86D0008EC040020002069400000B040E4
:1066D000DC0500000004000E19314870481F0179E4
:1066E000431D02220A20FDF797FEFF20C330024916
:1066F000888609B0F0BD0000B003002000B589B065
:1067000001218804FDF704FF002206214348FDF71C
:10671000D5FA002207214148FDF7D0FAC0200790A2
:10672000022108A80170032141700021817001211C
:10673000C17007A93948FDF779FA01218803FDF7EF
:1067400007FFE12040020190002002900390049096
:1067500006900C20059001A93148FEF793FE1B21FD
:10676000684601700321417001218170FDF7C8FD69
:1067700000202B49086201222A492948FEF761FEC0
:1067800001212748FEF720FE0020274908704870A5
:10679000002126488181264823494880FF2023493B
:1067A000E031C8704121C90020480182FF21817475
:1067B0000021C174C182FF210176002141768176DA
:1067C00000201A4920314874C874C031487088705C
:1067D0007D20C00020394885FF20C330C885014690
:1067E0001248C030018608461049C031488601462B
:1067F0000E48C030818664200C49C031C8860D48DF
:10680000088780210948C16100214162C1620020DE
:1068100006492031087409B000BD0000000400489A
:106820000038014005010500F0000020F0020020C2
:1068300088130000DC05000010B590B00121C802EB
:10684000FDF786FE002168468185C18573480C905E
:106850006846818608A881750BA97148FEF71CFC63
:1068600070216846018301214183002181836B48A7
:10687000401C08900221684681840821C184490196
:106880000185418506A96648FEF786FA06A964488F
:10689000FEF7D8FA06A96248FEF736FB6021684683
:1068A00001832D208001089006A95D48FEF784FB36
:1068B00000215B48FEF7BAFA00215948FEF718FBA1
:1068C00000215748FEF76CFB00215548FEF7ACFB52
:1068D0000121C902684601814910418189108181E5
:1068E0003E21C1810121090301820021418281826F
:1068F00002A94B48FEF7C8F9012103204004FDF727
:1069000007FE02220C214748FDF7D8F901200003B9
:106910000E90022108A80177032141770021817799
:10692000C1770EA93F48FDF781F90222082109200D
:10693000C006FDF7C3F902220921C806FDF7BEF91A
:1069400002220A210920C006FDF7B8F902220B2114
:106950000920C006FDF7B2F90F2000020E900221B7
:1069600008A8017703214177002181770121C177B0
:106970000EA90920C006FDF759F902220D21294868
:10698000FDF79CF902220E212648FDF797F9022215
:106990000F212448FDF792F9072040030E900221B1
:1069A00008A8017703214177002181770121C17770
:1069B0000EA91C48FDF73AF981211948FEF774F930
:1069C000012280211648FEF7DDF901211448FEF767
:1069D0007DF901211248FEF76BF90D21684601711E
:1069E000002141710121817101A8FDF789FC00207E
:1069F0000D4988770D4908740848401C48820A4CA4
:106A0000A37F0C46628A618A608AFCF727FF0649E9
:106A1000887F00F00DF810B010BD0000B70B00002B
:106A2000002C014000040048EC030020DC000020A2
:106A300070B5044617480821415EC32911DA16498A
:106A40004889FBF72EFF05460022144B00F060F842
:106A50000ED81348007C01280AD100201049087480
:106A600006E00F48007C002802D101200C49087480
:106A70000B4B5A8A598A588A2346FCF7EFFE08487E
:106A8000007C0C214843074940186100405A0649E0
:106A9000088070BD2C04002008050020000038404C
:106AA000DC000020846D0008202C014070B5012519
:106AB0000C002D051C4310D4EC4206D4AC420AD481
:106AC000994200D070BD904270BDE94217D4EB42AC
:106AD00015D4994270BD894270BDEC4206D5AC42D6
:106AE000F9D58B4200D070BD824270BD6D004C0064
:106AF000EC4204D25C00EC4201D28B4270BD034CEC
:106B000030B4FCF769F830BC70BD00BF1900160442
:106B100070B501251C002D050C4310D4EC4206D4A1
:106B2000AC420AD48B4200D070BD824270BDEB42B1
:106B300017D4E94215D48B4270BD9B4270BDEC4224
:106B400006D5AC42F9D5994200D070BD904270BDD7
:106B50006D005C00EC4204D24C00EC4201D2994240
:106B600070BD0FB4034C0CBC03BC30B4FCF734F85C
:106B700030BC70BD1900160470B501250400ED0786
:106B80004C4020D4441A01D2001B0919C60D4B00F9
:106B9000F2B2FF2A29D01B0E2CD000020C02D31A0D
:106BA0002C43DC402843051910D2280A02D3401C8C
:106BB0006D0611D0761EF6058019FF2A00DA70BD29
:106BC000C00DC00570BD694000F07AF80120054392
:106BD000C541521C761CE8E764089C40C90161402D
:106BE0008900E7D10124A043E4E71B0E440200D052
:106BF000034870BD002AFCD1C00FC00770BD00BFA4
:106C00000000C07F70B5420064414B005C41120E31
:106C100039D01B0E38D0FF2A3CD0FF2B3AD040028F
:106C20004902400A490A060045184E43000A090A6B
:106C3000D2184843ED017F3A0104731A4019190C28
:106C40004318990F04D001215B0849075B1A521CB5
:106C5000D80904D3401CF50301D19D0607D0FF2AB3
:106C600008D2D50506D0E4072043401970BD0125A0
:106C7000A843F4E7002A01DCE00770BD2402FF20EE
:106C80002043C00570BD1B0EFF2A03D0FF2B01D08F
:106C9000E00770BDFF2645003606B54206D84D0018
:106CA000B54203D8D218FF2A00D0E7E7004870BDEC
:106CB0000000C07F70B501250400ED074C4022D4D0
:106CC000441A02D26C40001B0919C60D4B00F2B2E7
:106CD000FF2A4BD01B0E50D000020C02D31A2C43BB
:106CE000DC40A843051B05D5AD0019D36D08761E01
:106CF000521E37D0F605280A01D2801970BD7041A6
:106D00006D0603D070BD6940FFF73CFF9C4009024F
:106D10006140490001D0401E70BD0124A04370BDF8
:106D20006D081DD001202B0C01D12D0410302B0E2D
:106D300001D12D0208302B0F01D12D01001DAB0F09
:106D400001D1AD00801CEB0F01D16D00401C6D0026
:106D5000361A121A680AF5054019012A02DB70BDBD
:106D6000002070BDC036300AC00770BD1B0E440243
:106D700001D1FF2B00D1024870BD002AF0D070BDB8
:106D80000000C07FFB177B1FB71FBF177F1BF71BC0
:106D9000FF170F1FF71FFF177F1FF71FFF1FFF1F93
:106DA000FF1FFF1FFF1FFF1FC60FC30FC00FBD0F29
:106DB000B90FB60FB20FAF0FAB0FA70FA30F9E0FF8
:106DC0009A0F950F900F8B0F860F810F7B0F760F09
:106DD000700F6A0F630F5D0F560F4F0F480F400F74
:106DE000380F300F280F200F170F0E0F050FFB0E57
:106DF000F10EE70EDD0ED20EC70EBB0EB00EA40EC6
:106E0000980E8B0E7E0E710E640E560E480E390EC5
:106E10002A0E1B0E0B0EFC0DEB0DDB0DCA0DB90D72
:106E2000A70D950D800D710D5E0D4B0D370D230DCA
:106E30000F0DFB0CE60CD10CBB0CA60C8F0C790CC7
:106E4000630C4C0C350C1D0C050CEE0BD50BBD0B5F
:106E5000A40B8B0B720B590B400B260B0C0BF20A7D
:106E6000D80ABE0AA30A890A6E0A540A390A1E0AF7
:106E7000030AE809CD09B20996097B0960094509A9
:106E80002A090F09F308D808BD08A20887086D0869
:106E9000520837081D080208E807CE07B4079A070A
:106EA000800767074D0734071B070207E906D1066D
:106EB000B906A106890671065A0642062B06140673
:106EC000FE05E805D205BC05A605910500002110C8
:106ED000422063308440A550C660E7700881299144
:106EE0004AA16BB18CC1ADD1CEE1EFF131121002EC
:106EF00073325222B5529442F772D6623993188394
:106F00007BB35AA3BDD39CC3FFF3DEE362244334B7
:106F100020040114E664C774A44485546AA54BB5E3
:106F200028850995EEE5CFF5ACC58DD5533672268B
:106F300011163006D776F6669556B4465BB77AA733
:106F400019973887DFF7FEE79DD7BCC7C448E558D7
:106F50008668A7784008611802282338CCC9EDD983
:106F60008EE9AFF9488969990AA92BB9F55AD44A2B
:106F7000B77A966A711A500A333A122AFDDBDCCBD3
:106F8000BFFB9EEB799B588B3BBB1AABA66C877CF7
:106F9000E44CC55C222C033C600C411CAEED8FFD23
:106FA000ECCDCDDD2AAD0BBD688D499D977EB66ECB
:106FB000D55EF44E133E322E511E700E9FFFBEEF73
:106FC000DDDFFCCF1BBF3AAF599F788F8891A98135
:106FD000CAB1EBA10CD12DC14EF16FE18010A1001F
:106FE000C230E3200450254046706760B98398930F
:106FF000FBA3DAB33DC31CD37FE35EF3B10290126F
:10700000F322D2323542145277625672EAB5CBA5DA
:10701000A89589856EF54FE52CD50DC5E234C324BE
:10702000A01481046674476424540544DBA7FAB7AE
:107030009987B8975FE77EF71DC73CD7D326F2360E
:107040009106B01657667676154634564CD96DC9FA
:107050000EF92FE9C899E9898AB9ABA9445865485E
:1070600006782768C018E1088238A3287DCB5CDB4E
:107070003FEB1EFBF98BD89BBBAB9ABB754A545AAE
:10708000376A167AF10AD01AB32A923A2EFD0FED1A
:107090006CDD4DCDAABD8BADE89DC98D267C076CFE
:1070A000645C454CA23C832CE01CC10C1FEF3EFFEE
:1070B0005DCF7CDF9BAFBABFD98FF89F176E367E4E
:1070C000554E745E932EB23ED10EF01E07010302A0
:1070D00005000407070400050203010780807F7E86
:1070E0007D7C7B7A7978777676757473727171703E
:1070F0006F6E6E6D6C6C6B6A6A69686867666665F0
:107100006464636362616160605F5F5E5E5D5D5C7D
:107110005C5B5B5A5A5959585857575656555555EE
:107120005454535352525251515050504F4F4F4E4E
:107130004E4D4D4D4C4C4C4B4B4B4A4A4A4949499C
:1071400048484847474747464646454545444444DE
:107150004443434343424242424141417C7100081F
:10716000C00000201C000000F820000898710008F2
:10717000DC000020D40A00001421000800000000F8
:1071800001020304010203040607080900000000CD
:087190000000000000000000F7
:04000005080020B51A
:00000001FF
