:020000040800F2
:10200000F80B00205921000801490008414600084A
:1020100000000000000000000000000000000000C0
:102020000000000000000000000000002152000835
:102030000000000000000000C14A000871530008C1
:10204000892100080000000089210008892100087A
:1020500089210008892100088921000889210008B8
:102060000000000025370008D53700088921000846
:102070008921000825560008892100080000000079
:10208000B15600080000000000000000F1550008F3
:1020900089210008F55500088921000889210008D8
:1020A000892100088921000889210008615D000854
:1020B0008921000800F002F800F03EF80CA030C8BA
:1020C000083824182D18A246671EAB4654465D46B4
:1020D000AC4201D100F030F87E460F3E0FCCB64640
:1020E0000126334200D0FB1AA246AB4633431847C1
:1020F0004863000068630000103A02D378C878C1D2
:10210000FAD8520701D330C830C101D504680C6039
:10211000704700000023002400250026103A01D358
:1021200078C1FBD8520700D330C100D50B6070478F
:102130001FB51FBD10B510BD00F0CAFD1146FFF759
:10214000F7FF04F0B9F900F0E2FD03B4FFF7F2FF86
:1021500003BC00F017FE00000F4880F308880F480A
:102160000168090E0E4A914205D10E480E490160E0
:102170000E480F4901600F4880470F480047FEE7AF
:10218000FEE7FEE7FEE7FEE7FEE700000B480C492E
:102190000C4A0D4B70470000F80B002004000000B3
:1021A0001F00000018100240010000000000014064
:1021B00000000000BD540008B5200008F80500200C
:1021C000F80B0020F8070020F80700200FB41CB51A
:1021D000074B06AA7B4469460090059800F0E3FC93
:1021E0000020694600F0F2FC1CBC08BC04B0184793
:1021F000F5090000002203098B422CD3030A8B420D
:1022000011D300239C464EE003460B433CD40022EE
:1022100043088B4231D303098B421CD3030A8B4200
:1022200001D394463FE0C3098B4201D3CB01C01ACE
:10223000524183098B4201D38B01C01A5241430999
:102240008B4201D34B01C01A524103098B4201D387
:102250000B01C01A5241C3088B4201D3CB00C01AF4
:10226000524183088B4201D38B00C01A524143086C
:102270008B4201D34B00C01A5241411A00D2014691
:102280005241104670475DE0CA0F00D0494203102A
:1022900000D34042534000229C4603098B422DD379
:1022A000030A8B4212D3FC22890112BA030A8B4221
:1022B0000CD3890192118B4208D3890192118B4270
:1022C00004D389013AD0921100E08909C3098B42F5
:1022D00001D3CB01C01A524183098B4201D38B0138
:1022E000C01A524143098B4201D34B01C01A5241DB
:1022F00003098B4201D30B01C01A5241C3088B4220
:1023000001D3CB00C01A524183088B4201D38B000A
:10231000C01A5241D9D243088B4201D34B00C01A94
:102320005241411A00D20146634652415B101046A9
:1023300001D34042002B00D54942704763465B10F1
:1023400000D3404201B50020C046C04602BD7047E0
:1023500070477047F0B5F94D0C091E092C402E400E
:102360002F468BB0A7437DD0B543FCD0002E7AD04A
:10237000002CFCD00D465D40ED0F2543AC1BFF2526
:10238000AD0464190894C502440DC9022143500DDF
:10239000DC0204430120C00701430443D20201913F
:1023A000200C110C00958C46010423468B430A91A6
:1023B00061460904E24D8A430991010A7D444919A5
:1023C0008039097805464D4301266D18F605751BC1
:1023D0006943C90C640B891C4C436418B5012C1B60
:1023E000250C2E04B4434C434D43210C6918890934
:1023F0000591009DE90701D00121C90704912C46F0
:1024000001996708CD072F434C08059DE10B4D430B
:102410002D0C29466646754302950D4645432E46CA
:10242000029D7D1BB44100950D465D4301942C0C2B
:102430002F040D465543AE462D0C3D4302950394A3
:102440007546049C2D04641B049406D2029C039DD3
:10245000641C002675410395029401AC70CC009F6A
:102460007D1B01E03EE162E1B44109040095079162
:1024700001940599A4086143090C0C464443650B7B
:10248000E7040C4666467443A646640B3C4303953A
:1024900002947446049DE4042C1B049406D2029C0E
:1024A000039D641C002675410395029401AC70CC19
:1024B000009F7D1BB44101940C465C430095650F61
:1024C000E7000C465443A646640F3C430395029430
:1024D0007446049DE4002C1B049406D2029C039DC8
:1024E000641C002675410395029401AC70CC009FDA
:1024F0007D1BB441AE09AF06049DC900AD092F4351
:10250000049DA406AD060495079D34436918079100
:10251000059DE10B4D432D0C2946664675430295FA
:102520000D4645432E46029D7D1BB44100950D4648
:102530005D4301942C0C2F040D465543AE462D0CE3
:102540003D43029503947546049C2D04641B04943A
:1025500006D2029C039D641C0026754103950294DB
:1025600001AC70CC009F7D1BB44101948C05069496
:10257000079C890A611800950791019C0599A40898
:102580006143090C0D464543680BEF040D46644654
:1025900065436C0B3C43049FED047D1BAC4602D2AB
:1025A0000025641C6841009E019D371B854108463B
:1025B000584301950C46460FC5005443600F28430D
:1025C0006546E4002C1B02D20025401C6E41019D93
:1025D0003F1AB5412846BD09800628438446A00914
:1025E000BF064E020699A40676180743079D0020F1
:1025F00068410A99079019430020099B00906046A2
:10260000FF1913434041E20F64003A43A4460446D5
:10261000D71A8C41A04203D90120009020463A46A7
:10262000C70F941840416246D20F224364466400AB
:102630000494009CBE466400D71AA4460446029740
:102640008C417746002F01D1A04204D96046401C3E
:102650008446029A2046C40FA64694184041049A24
:102660000546D20F224364466400D31A8D41714659
:10267000002901D1A84202D928461A46641C1043F9
:102680000122002800D0164361020020079B89190F
:1026900004465C410223002C02DB491813466441C6
:1026A000089DCE0A2D145D194B056705E10A2C051E
:1026B0000D1908993E43C9076940002B08D0934083
:1026C00006D30022761C5141002B01D176087600FA
:1026D0001C4A002D43DB154241D0AA433FD030466F
:1026E0000BB0F0BD06180D464D41174C7642AC417B
:1026F0001AD395181C465C41134A6D42A24113D36C
:10270000012252054C00D4420AD15C00D4420BD0C5
:102710004B4002D592021143E2E749004908DFE746
:102720005940C90FC90718E000200849D8E70548F3
:1027300001420DD10342F7D0F2E700000000FF078D
:10274000F85F00000000F07F0000E0FF0000F87F6D
:10275000114859400143C01241400020C0E7012305
:10276000089A9B069A4205DC032252078918C90F72
:10277000C907B5E7052252078918074A1143D21243
:102780005140ADE770B515461C4602460B4628463B
:102790002146FFF7DFFD70BDFFFFFF7F30B5034629
:1027A000CA02400D1043164D164C0A1502D02043A4
:1027B000002A06DBAA1A002A12DDD040FF2A0BDC11
:1027C00030BD5205520D01D140004008AA1A07D46D
:1027D000D0404042FF2A01DD002030BD0028FCDD52
:1027E0004A00002B01D0012000E000201018012237
:1027F0005205D042F0D8C817C043604030BD000039
:102800001E040000000000800346CA02400D10B5FF
:1028100010430A1504D00124E4072043002A05DBF5
:102820000A4CA21A04D4D040FF2A00DD002010BDBB
:102830004A00002B01D0012000E0002010180122E6
:102840005205D042F2D8C817C04310BD1E04000084
:102850001F22030C02D10F22000402D0030E03D06A
:1028600004E00020014670470002083A030F01D13E
:102870000001121F830F01D18000921E002801DB8E
:102880004000521E120551184205C0124118104650
:102890007047C10FC90700D040420122920711437F
:1028A000D6E701218907D3E7F0B58B4C0F09254600
:1028B00089B0BD437BD01D092646AE43FAD00E46F3
:1028C0005E402740F60F3E43254071D0240121424F
:1028D000FBD0FF24AD19A4042D1B039501252D0564
:1028E000DB02DB0AC9022B43C90A29431E01090185
:1028F000040F130F050121431701880B8203914335
:102900002D098C46A90B1E438A039543B30B9A03EA
:1029100096433F09BA0B9403A74302962E467E4383
:102920000497B6464E19D7190C460196544305979D
:102930007E43371B7646BF1B3601B646BE0B3619A3
:1029400000967646BC043719009C01D3641C0094A1
:102950006400002F01D001263443029E049F75437A
:1029600066467E430496760034196E00341900944E
:10297000029C019E1C196643751BAE460694654673
:102980004519059C05956C43594375460891691A8C
:102990000191049E01465143A41B0491611A009CBD
:1029A0000791E10605D061090122114302E072E0BE
:1029B0006EE06109089D00272C0A2D066918049D08
:1029C0007C412A0A2D066918019D6241AC0DAD02B9
:1029D0006D185441079A910D920255196141029A5E
:1029E000644658435443069B059A5A43121A131BD4
:1029F0009A0E9B015B187A41010B0005C3185141E7
:102A0000220A200644195A419A4200D2491C012048
:102A10004002814203D315230226F64302E0142329
:102A20000326F6432020C51AA9401746AF40DA40D6
:102A30000A4320460399D840091473181905511800
:102A4000039A3843D2075140AC4009D00122944048
:102A500006D30022401C5141002C01D14008400007
:102A60001E4A934212D3012203989206904207DB3A
:102A70000520400709181A480143C012414004E0EC
:102A8000032040070818C10FC907002009B0F0BD96
:102A90000020F107FAE705180C464C4111486D4239
:102AA000A04115D394181A465A410E4864429041E9
:102AB0000ED301204A004005824209D35A008242C7
:102AC00006D35940C90F084AC90700201143DDE762
:102AD00000200649DAE700000000FF07FE070000BB
:102AE000FFFFFF7F0000E0FF0000F07F0000F87FA5
:102AF00010B501469E240002CA15A307002A02D081
:102B00001843002A04DBA21A002A0CDDD04010BDB5
:102B10001206120E01D140004008A21A03D4D04080
:102B200040420028F3DDFF2248001206904201D9FE
:102B3000002010BDC817C043584010BD1F22030C11
:102B400002D10F2200041CD0030E01D10002083A6A
:102B5000030F01D10001121F830F01D18000921ECB
:102B6000002801DB4000521ED205511802125118F4
:102B70001922904004D3491C002801D1490849007A
:102B800008467047C10FC90700D040420122920792
:102B90001143D3E701218907D0E7000001694A1CEE
:102BA00002610878704700B58FB00291002105914D
:102BB000054901937944039111460490684600F059
:102BC00053F80FB000BD0000E5FFFFFF0A6810706A
:102BD000521C0A6070470000F8B5224C4E00069D5A
:102BE000A6420AD8A64201D1002806D15E00A6421C
:102BF00003D8A6420AD1002A08D00D242404254275
:102C00002CD02946002000F041F8F8BD0C461C43AA
:102C10000CD4994202D0EFF30080F8BD904202D06C
:102C2000EFF30080F8BDEFF30080F8BD092424071E
:102C3000E5008B4206D0EFF30080A043591A06D27C
:102C4000284304E0101A05D3EFF30080A04380F37B
:102C50000088F8BDEFF30080A043F1E7009500F095
:102C60002DF8F8BD0000E0FFF8B5064600244768DF
:102C7000806800903046F56803E00099B847641C0E
:102C80003046A8470028F8D12046F8BDC80212D522
:102C90004803400F002804D0C803C04301218840E6
:102CA0007047EFF300800001000903210907084382
:102CB00080F30088704700207047000010B50020A6
:102CC0000249029A00F02BF810BD00000000F87FC6
:102CD000754600F053F8AE46050069465346C008F5
:102CE000C000854618B020B5FFF750FA60BC002739
:102CF0004908B6460026C0C5C0C5C0C5C0C5C0C5C8
:102D0000C0C5C0C5C0C5403D49008D46704710B51F
:102D10000446C046C0462046FFF717FA10BD10B55E
:102D20000C461107090F092904D00A290AD00829DD
:102D30000CD104E011460820FFF7A8FF06E0510679
:102D400006D501E0510601D50120C007214610BD7E
:102D5000D10607D501010909CC084907000E000674
:102D6000044309E0410F20024907000A0143200EF5
:102D700000061D22D14101430846E7E7004870479D
:102D80009805002001491820ABBEFEE7260002008E
:102D90007047002904D0C26801231A43C26003E0CF
:102DA000C26852085200C2607047C26802239A4348
:102DB000C260C2680A43C2607047000010B5044692
:102DC0000548844207D10121401501F0DDFE0021B4
:102DD000601501F0D9FE10BD0024014030B5014658
:102DE0000020002200238C680125ED072C438C6015
:102DF00000BF8C68E30FDB07521C0F242403A242A0
:102E000001D0002BF5D18C68E40FE407002C01D130
:102E1000086C00E0002030BD30B5024600200023E1
:102E2000012424060C40002C05D0946801252D06B1
:102E3000AC43234600E013681C460C40002C01D034
:102E4000012000E0002030BD10B50022C268084B10
:102E50001A400C7964030B6823438C682343CC68C5
:102E600023430C6923434C6923431A43C26010BDBA
:102E700003D2FFFF00B595B00121480401F054FED4
:102E80003F201390032110A801740021C17413A9DD
:102E90000920C00601F074F80121880401F044FE05
:102EA00002201390032110A801740021C17413A9FA
:102EB000414801F065F8F320000102F0C1F9012159
:102EC000480201F051FE3D48FFF778FF00200D90C9
:102ED000002108A801760120C0020F904020109028
:102EE0000020119012900DA93448FFF7ADFF01208A
:102EF00032494861324888620846FFF76FFF022175
:102F00002E48FFF752FF01212C48FFF742FF2B48C4
:102F10008068012108432949886000BF01212748B2
:102F2000FFF77AFF0028F9D024488068042108437D
:102F3000224988600121084601F0F6FD214800F091
:102F400073FC1E4840300290002004901E480390FD
:102F500007200590002006908020079040000890F0
:102F60008000099020200A9000020B9000200C9015
:102F700002A9144800F02EFD00220221114800F0A1
:102F80001FFD01210F4800F041FC00F01FF8022056
:102F900000F02CFC012202210A4800F011FD092159
:102FA00068460171022141710121817101A801F07E
:102FB000A9FC15B000BD0000000400480024014039
:102FC0003F02000008000240040100203EB500203E
:102FD0000090019002905E494880088000242EE015
:102FE00000BF022000F0D2FC0028FAD0022000F03E
:102FF000FDFB6846008856498988401881B26846BA
:10300000018041885248C088081881B268464180D2
:1030100081884F480089081881B268468180C1883C
:103020004B484089081881B26846C18001894848E8
:10303000C089081881B268460181601CC4B2102C96
:10304000CEDB68460088011168460180008840494F
:10305000088009880846EB38002801DB014600E0BB
:1030600041423C4A914211DB04203B49087008462A
:10307000C08901214902884340183749C88137482F
:103080008078202188432030344988706846408801
:1030900001116846418040882D494880498808468A
:1030A000EB38002801DB014600E041423C2911DBFE
:1030B0000420294908700846C08901214902884333
:1030C00040182549C8812548807820218843203030
:1030D000224988706846808801116846818080880E
:1030E00001B21D48403001806846C0880111684621
:1030F000C180C08801B21848C03081873C21415E40
:10310000FD20C000814209DA0420134908700846F6
:10311000C0898021884380300F49C8816846008972
:10312000011168460181008901B20D48018318210F
:10313000415EFD20C000814209DA04200649087082
:103140000846C0898021884380300349C8813EBD3C
:103150000001002082080000280400201C0100203B
:103160002805002000B589B001210320400401F0AA
:10317000DBFC012207210920C00600F049FF0122E3
:1031800006210920C00600F043FFC020079002215D
:1031900008A801700321417000218170C17007A946
:1031A0000920C00600F0ECFE012200213E4800F09C
:1031B0002FFF01200790022108A801700321417010
:1031C00000218170C17007A9374800F0D9FE0121A4
:1031D000022001F0B9FC2F216846018200214182C2
:1031E0003248059068460183817604A9304802F090
:1031F0006BFC0021684681800A21C1800121018188
:10320000002141810421818101A9294802F09AFA13
:1032100004216846818001A9254802F093FA08211B
:103220006846818001A9224802F08CFA1021684684
:103230000170002141700121817001F063FB0122C6
:103240000F211B4802F0B6FA0121194802F048FA92
:103250000121480401F088FC2F21684601820021E9
:1032600041821248059068460183817604A911487D
:1032700002F02AFC00200F490882084680890221BA
:1032800008430C498881152168460170012141706D
:10329000817001F037FB0748008801210843054988
:1032A000088009B000BD000000040048FFFF0000D6
:1032B000000400400044014010B55048807A0300EB
:1032C00003F0B0F8069A040C3D5D809A4B48007FED
:1032D000002802D10120494908778DE04748007F46
:1032E000002817D1012045490877022044498874F5
:1032F0004448C882414CA37F0C46E28AE18AE08AB6
:1033000000F050FC3D49887F04F0DAFC0A2001F00F
:103310009DFF13E000F0C0FE01280FD100203849C6
:10332000C8820120000338490880384836492039CE
:1033300048638863C8630320304988725CE001F009
:1033400057FD334908700846007848702B48007BC9
:10335000C000304940182E490978405C27498877D9
:1033600048772D49254880304161143041608160A3
:10337000C160016141610420204988723CE001F094
:10338000F9FA01201E498874C720C8821B49887F2A
:1033900004F096FC00201E490881888317490877AD
:1033A0001B49488100211548803001878030818386
:1033B0001248C08C1149486105208872012001F033
:1033C00045FF19E000F068FE012814D101F03EFF2E
:1033D0000F4CA3696269094C6169606801F054FF90
:1033E00021464861084640690969884203DD204654
:1033F00000692146486100BF00BF10BD28040020BD
:1034000000010020AF040000202C01409F0F0000AD
:103410004C050020A883000890D003000120000381
:103420000749088000200749C88288820648044965
:10343000203948638863C863002004498872704754
:10344000202C0140000100209F0F000028040020D4
:1034500070B502460C4609480AE0011205062B0C1D
:1034600015784D406D00064E755B5D402846521C38
:103470002546661EB4B2002DEFD170BDFFFF0000DF
:10348000A88100081CB59D488089800004B29C4832
:103490000A21415E9B4A204601F037F9984948814C
:1034A000994800887D21C900884205DC964800883B
:1034B000401C954908801AE00020934908809049F3
:1034C00088820121880401F02FFB02200090012155
:1034D00068460171417100218171C17169468B4853
:1034E00000F04EFD0221894800F0C8FD00BF84486D
:1034F000808A002833D182490A20085EFF21C43126
:1035000088422DDB7E488089022805DA7C48808944
:10351000401C7B49888115E002207949888140213F
:103520007B4800F0ADFD012075498873794800782B
:10353000082188437749087008460078202188438D
:103540007449087003206E4988827348C08901213C
:10355000890288437049C88100207049088068E06A
:1035600067488089002805DD65488089401E6449D8
:1035700088815EE00020624988814021644800F033
:103580007DFD00205E4988730121880401F0CCFA9A
:10359000022000900321684601710021C171694633
:1035A0005A4800F0EDFC5548008A800000B25449AA
:1035B00008821020085EFF21C431884228DB504871
:1035C000408A142805DA4E48408A401C4C494882FB
:1035D0002EE050480078082188434E49087008467C
:1035E00000782021884320304A49087004204A4945
:1035F00008700846C089012189028843401846495D
:10360000C88103203E4988820020444908800FE099
:1036100000203B4948820120888204203E490870EE
:103620000846C08901218902884340183A49C88167
:1036300000BF3348808A01281AD10121800401F09B
:1036400073FA022000900121684601714171002146
:103650008171C17169462D4800F092FC02212B480E
:1036600000F00EFD2D480088401C2C49088000BF4A
:103670002A4800882A49884217DB2148808A012885
:1036800013D108462549088003201D498882214816
:1036900000780821884308301E49087008460078E1
:1036A0002021884320301B4908701548808A022851
:1036B00012D1002019490880032011498882154839
:1036C00000780821884308301249087008460078BD
:1036D000202188430F4908700E4800784007C00F2A
:1036E000002803D10B480079002806D00A48C07A88
:1036F000012802D10320084908701CBD00010020E8
:10370000780500204C0F0000EA000020000400486B
:10371000001400481C01002028040020EC000020B8
:10372000DE03000010B5022000F030F9012848D176
:10373000022000F05BF823488088224909888842EB
:1037400008DD204880881F490988401A01B21E48B8
:10375000C18002E000211C48C1801B48C188018152
:103760000821415E4F204001814218DB1748008844
:10377000401C1649088008460088052821DBFFF711
:103780004DFE04201049403908700846C0890121C7
:10379000C902884340180C494039C88111E0002013
:1037A0000A49088008480821415E0948814203DB34
:1037B00000200449088302E000200249088301F048
:1037C0002DF810BD0001002068040020E800002052
:1037D000A405000010B50120400200F0D7F8012830
:1037E00002D1400200F002F810BD000001210907DB
:1037F0000140002902D00349486001E002494860C5
:10380000704700000004024000000240002904D07C
:10381000026801231A43026003E00268014B1A4068
:1038200002607047FEFF00000168554A11400160C8
:103830000021016041608160C1605249884208D125
:103840005049083949680F2211434E4A083A5160DD
:1038500094E04C491431884208D14A4908394968F2
:10386000F0221143474A083A516087E04549283120
:10387000884209D14349083949680F22120211438D
:10388000404A083A516079E03E493C31884209D1CA
:103890003C49083949680F2212031143394A083A52
:1038A00051606BE037495031884209D135490839B8
:1038B00049680F2212041143324A083A51605DE010
:1038C00030496431884209D12E49083949680F22AC
:1038D000120511432B4A083A51604FE029497831CB
:1038E000884209D12749083949680F221206114335
:1038F000244A083A516041E02349884208D12249CC
:10390000083949680F2211431F4A083A516035E0CF
:103910001D491431884208D11B4908394968F022F1
:103920001143194A083A516028E017492831884262
:1039300009D11549083949680F2212021143124A68
:10394000083A51601AE010493C31884209D10E49C9
:10395000083949680F22120311430B4A083A516093
:103960000CE009495031884208D1074908394968B3
:103970000F2212041143044A083A516070470000B4
:10398000FEFF00000800024008040240014600203B
:10399000002201231B070B40002B02D0064B1A68A4
:1039A00001E0064B1A6813460B40002B01D00120A2
:1039B00000E00020704700000004024000000240C8
:1039C000002A03D003680B43036002E003688B43C3
:1039D0000360704710B5002202680D4B1A400C6A54
:1039E0008B6823430C6923434C6923438C6923432D
:1039F000CC6923434C6A23438C6A23431A430260F5
:103A0000CB6843600B6883604B68C36010BD0000E7
:103A10000F80FFFF00B56048C07A030002F002FD8E
:103A2000050408090D1175000D205C49C8706CE093
:103A300000BF01205949C87067E00D205749C87080
:103A400063E05548C089022803D101205349C8705A
:103A50005AE05148C089042803D102204F49C87058
:103A600052E04D48C089082803D103204B49C87053
:103A70004AE04948C089102803D104204749C8704A
:103A800042E04548C089202803D105204349C87039
:103A90003AE04148C089402803D106203F49C87018
:103AA00032E03D48C089802803D107203B49C870D7
:103AB0002AE03948C089FF210131884203D108201A
:103AC0003649C87020E03448C08901214902884243
:103AD00003D109203149C87016E02F48C08901215F
:103AE0008902884203D10A202C49C8700CE02A4878
:103AF000C0890121C902884203D10B202749C8701F
:103B000002E00C202549C87000BF00BF2348C078E0
:103B1000002804D10120C002214988613BE01F48F0
:103B2000C0780D2805D10120C0021D49203108812F
:103B300031E01A480088401C18490880084600886F
:103B4000282805DA0120C00215492031088122E029
:103B500012480088FF21B931884204DA0120C002EE
:103B60000F49886117E00D488178C078401E814276
:103B700007DA0A488078401C0849887000200880CD
:103B800009E0064800882D214901884203DB002016
:103B900002490880887000BD2804002078050020B4
:103BA0000004004830B51C46224B9B7C002B03D000
:103BB000204B9B7C012B31D1230002F033FC060407
:103BC0000B121920272E1C4B1C4DAB63EB631B1AE9
:103BD0006B6322E0184B194DAB63EB631B1A6B63ED
:103BE0001BE0154B154D6B63EB635B1AAB6314E085
:103BF000114B124D6B63EB635B1AAB630DE00E4B25
:103C00000E4D6B63AB639B1AEB6306E00A4B0B4DE7
:103C10006B63AB639B1AEB6300BF09E0064B1B1A97
:103C2000064D6B63044B5B1AAB63034B9B1AEB6350
:103C300030BD0000000100209F0F0000002C01405B
:103C40007FB504460D4616460094019502960D4830
:103C5000C06B03900C4800F05BF80A4830300099C4
:103C600000F0A2F807483430019900F09DF80548AB
:103C70003830029900F098F802483C30039900F07F
:103C800093F87FBDC0FF000800FC00081FB5044684
:103C90001048006B00900F48406B01900D48806BFE
:103CA000029003940C4800F033F80A483030009931
:103CB00000F07AF807483430019900F075F80548AB
:103CC0003830029900F070F802483C30039900F057
:103CD0006BF81FBDC0FF000800FC00080149C86068
:103CE000704700000020024070B505460E462C4685
:103CF00009E0204600F00CF8042802D10002241844
:103D000001E0012070BDB442F3D90020FAE70000C1
:103D100030B5044604250B20000400F08DF805465C
:103D2000042D17D10C480069022108430A49086193
:103D300008464461006940210843074908610B2097
:103D4000000400F079F80546034800690221884321
:103D500001490861284630BD0020024004200D4979
:103D6000C968C907C90F002901D0012010E009491D
:103D7000C96810221140002901D0022008E005493D
:103D8000C96804221140002901D0032000E004206A
:103D9000704700000020024010B500F03BF83520CD
:103DA000FFF79CFF10BD000078B506460C460425C1
:103DB000002000900B20000400F03EF80546042D82
:103DC00024D1134800690121084311490861348056
:103DD0000B20000400F030F80546042D10D1B01C73
:103DE0000090200C009908800B20000400F024F8BB
:103DF000054607480069400840000549086105E09C
:103E0000034800694008400001490861284678BD20
:103E1000002002400548006980210840002804D0A5
:103E20000348024948600348486070470020024048
:103E300023016745AB89EFCD10B503460424FFF796
:103E40008DFF044603E0FFF789FF04465B1E012C4B
:103E500001D1002BF7D1002B00D10524204610BD45
:103E6000FFB583B00D46174600240020029043485A
:103E7000806A401E069988425DD14048406A8608A3
:103E8000002E24D020E006987843039940180019AA
:103E90000190295D601C285C00020918A01C285CA8
:103EA00000040918E01C285C00060818009000991E
:103EB0000198FFF779FF042802D0012007B0F0BD78
:103EC000241D0298401C02900298B042DBD32B487C
:103ED000406A061B002E4ED006987843039940187E
:103EE00000190190012E04D1285DFF38013800909F
:103EF00019E0022E08D1285DF103411A601C285CEC
:103F00000002081800900EE0032E0CD1285DFF215E
:103F100009064118601C285C00020918A01C285CD6
:103F200000040818009000990198FFF73DFF04284D
:103F300021D00120C2E71CE006987843039940187D
:103F400000190190295D601C285C00020918A01C62
:103F5000285C00040918E01C285C00060818009082
:103F600000990198FFF720FF042801D00120A5E760
:103F7000241DBC42E0D30020A0E700001C03002069
:103F8000F0B50A4600210023002400BF3DE00125D2
:103F90008D402B4615681D402C469C4234D1157926
:103FA000012D02D01579022D16D185684F00032608
:103FB000BE40B543856055794E00B54086683543AF
:103FC0008560858801268E40B543858085889679F1
:103FD0008E40B6B23543858005684F000326BE404B
:103FE000B543056015794E00B54006683543056058
:103FF000C5684F000326BE40B543C560D5794E0065
:10400000B540C6683543C560491C1029BFD3F0BD13
:10401000F0B5002300244D07EE0E1546B5402B46A3
:10402000CD10AE0005462035AD594E07F70E0F26D0
:10403000BE40B543CE10B60007462037BD51CD1067
:10404000AE003D46AD591D432C46CD10AD003E4659
:104050007451F0BD02460020138A0B40002B01D0A2
:10406000012000E00020704702460020938A0B40A8
:10407000002B01D0012000E000207047018570472F
:104080008161704703480088002801D101207047F2
:104090000020FCE7DC00002003480088002801D154
:1040A000012070470020FCE7D6000020034800886C
:1040B000002801D1012070470020FCE7E00000202B
:1040C00003480088002801D1012070470020FCE748
:1040D000DE00002003480088002801D1012070473D
:1040E0000020FCE7DA00002003480088002801D106
:1040F000012070470020FCE7D800002010B500F038
:1041000077FE0446072C01D0002C05D11848008802
:10411000401C1749088002E0002015490880144817
:104120000088642815DB64201149088004201149A7
:1041300008700846C089FF210131884340180D49A5
:10414000C8810D4880781021884310300A49887052
:104150000CE00848C089FF21013188430549C88126
:1041600005488078102188430349887010BD0000FD
:10417000E6000020280400201C01002010B5FE48A5
:10418000008A0E21084000287ED0FB480088FB49A9
:104190000840F94908800846008A022108400028A2
:1041A00003D0F548406BF6490882F348008A0421A1
:1041B0000840002803D0F048806BF1490882EE489F
:1041C000008A08210840002803D0EB48C06BEC4966
:1041D0000882EB4880890004E949098A4018C01C1C
:1041E000E849C86208461430416814384161143007
:1041F00081684160C16881600169C1604169016194
:104200001438C16A143041610020DB494862084615
:10421000008801210843D849088000F0E9FDD84909
:104220000870D8488030C07F012812D1D548803826
:10423000007A012803D10020D24980390873D1487F
:104240008038007A002814D10120CE4980390873C3
:104250000FE0CC488038007A002802D1C949803963
:104260000873C8488038007A012802D1C5498039CE
:104270000873C4488038007B01287DD1C04840784D
:10428000062805D1BE4800E05CE10078042827D06C
:10429000BB484078042803D1B948007805281FD0CE
:1042A000B7484078052803D1B5480078012817D0D1
:1042B000B3484078012803D1B148007803280FD0D3
:1042C000AF484078032803D1AD480078022807D0D2
:1042D000AB48407802287DD1A94800780628FAD159
:1042E000A7480078A64948700020C8608883A24982
:1042F0000882A348407800287AD0A1480078002896
:1043000076D09F48407806280ED19D480078042832
:104310000AD09B480078052806D0994800780628DE
:1043200002D00020964908709548407804280ED1A4
:104330009348007805280AD091480078062806D0CE
:104340008F480078042802D000208D4908708C48DE
:10435000407805280ED18A48007804280AD0884879
:104360000078012806D086480078052802D0002071
:1043700083490870824800E060E0407801280ED14F
:104380007F48007805280AD07D480078032806D0A9
:104390007B480078012802D00020794908707848CD
:1043A000407803280ED17648007801280AD0744856
:1043B0000078022806D072480078032802D0002036
:1043C0006F4908706E484078022811D16C48007817
:1043D000032801E02FE00BE00AD0694800780628A6
:1043E00006D067480078022802D00020644908708F
:1043F00064488038007BC0006349401860490978F0
:10440000405C6049803988770846C07A012803D02B
:104410000846C07A022809D15A488038807A05288F
:1044200004D158498039887F03F088FC0021554821
:104430008030818302E000204F4908825148803853
:10444000007B00287ED14E484078022803D14C489A
:104450000078032827D04A484078032803D14848E9
:10446000007801281FD046484078012803D14448ED
:104470000078052817D042484078052803D14048E5
:10448000007804280FD03E484078042803D13C48E7
:104490000078062807D03A484078062876D1384870
:1044A0000078022872D136480078354948700020DB
:1044B000C86088833049088231484078002866D037
:1044C0002F480078002862D02D48407806280ED169
:1044D0002B48007804280AD029480078052806D0FF
:1044E00027480078062802D0002025490870244873
:1044F000407804280ED12248007805280AD02048A8
:104500000078062806D01E480078042802D0002033
:104510001B4908701A48407805280ED118480078C1
:1045200004280AD016480078012806D014480078DC
:10453000052802D00020124908701148407801284F
:1045400010D100E062E00E48007805280AD00C483F
:104550000078032806D00A480078012802D00020FD
:10456000074908700648407803281BD104480078A2
:10457000012817D002480BE000040040FEFF0000B5
:104580004C050020A8040020A88300083BE01CE0A4
:104590000078022806D025480078032802D00020A1
:1045A000224908702148407802280ED11F4800781F
:1045B00003280AD01D480078062806D01B4800783A
:1045C000022802D00020194908701948007BC00059
:1045D0001849401815490978405C154988770846FC
:1045E000C07A012803D00846C07A022807D11048B3
:1045F000807A052803D10E49887F03F09FFB0021B4
:104600000D48818302E000200C4908820B48008A93
:10461000C007C00F002808D00120C0430749088206
:104620000248C068401C0149C86010BD4C0500200C
:1046300028040020A883000828050020000400406A
:1046400000BFFEE710B51348C08812494988884268
:1046500008DD1048C0880F494988401A01B20E4849
:10466000C18502E000210C48C1850B482E21415E26
:104670003022825E881841100748018602463021A8
:10468000515E403A506F783200F008F802494031EC
:10469000086110BD0001002068040020F0B587B05B
:1046A00006460F461446F51B2846FEF76BFA0390A4
:1046B000616803F003FC0590A168681AFEF762FACE
:1046C0000190216803F0FAFB03906069FEF75AFA43
:1046D0000290039903F0ACFB0490059903F0A8FB4A
:1046E0000690FEF705FA6061A560E168606988429E
:1046F00002DDE068606105E021696069884201DAF5
:1047000020696061606907B0F0BD10B503465C1AAE
:10471000204650438013401800B210BD10B53E48EB
:10472000C07A030001F07EFE05041F395768760049
:1047300039480078012804D002280BD0032810D172
:1047400009E03548007A3449087303208872012053
:10475000C87206E005E0FEF761FE03202E49C8722C
:1047600000BF00BF56E0FEF7A7FD2B4800780128E8
:1047700004D0032803D004280DD106E00BE0FEF797
:104780004DFE03202449C87205E0FEF747FE0420D1
:104790002149C87200BF00BF3CE01F4800780128D3
:1047A00004D002280AD0032813D108E0FFF76AFCDE
:1047B000012802D100201849C8720AE009E0FFF779
:1047C00061FC012804D1FEF729FE03201249C872BA
:1047D00000BF00BF1EE010480078012804D0022866
:1047E00006D0032806D104E000200B49C87201E07E
:1047F00000E000BF00BF0DE007480078012804D0AA
:10480000022803D0032803D101E001E000E000BF4B
:1048100000BF00BF00BF10BD2804002010B5344801
:10482000C07A030001F0FEFD050405066061620028
:104830005CE000BF2F48008B012813D12D48C08AAF
:104840002C49898A884231DB2A48808A012805DD83
:104850002848808A401E2749C88227E00020254931
:10486000C88223E000F026FDFFF7ECFE20488030F0
:104870000169806D81420CDC1D488030008A1D4931
:10488000C8821B48803001698165016940304161FF
:104890000CE017488030806D1649C882144880307B
:1048A000816D083841610830816D01611148C08A0D
:1048B0001149884202DD08460E49C8820F480D4959
:1048C000C8820B48C07A012807D1094CA37F0C4647
:1048D000E28AE18AE08AFFF765F90648C08A05495D
:1048E000888200F0EFF801E000E000BF00BF10BDDB
:1048F00028040020000100200F0E00003F060000E9
:104900007047000000218278002A27D0184A03232C
:104910001B02D21803789B109B00D1580278920793
:10492000D30EFF229A400B469343194642789207D2
:10493000120E03789B07DB0E9A4011430C4A0323A7
:104940001B02D21803789B109B00D1500278D3062B
:10495000DB0E01229A40064B1A6007E00278D3066C
:10496000DB0E01229A40024B80331A607047000030
:1049700000E100E010B5002124488160244940385E
:1049800001642449403041602349C160282101610C
:10499000C038C18CC0304161C038C18C8030816565
:1049A0001E481F49FDF7FAFE00B21849C039C86415
:1049B00000211648C03881651A481449C039086575
:1049C00014491248C03841651349C1650021016688
:1049D00011494166FF20B2300C49C03948670021B7
:1049E0000A484838816010480849C0398867094931
:1049F0000648C038C16708497830C16000210161AC
:104A00000549416100200949088310BDE8040020E0
:104A1000CDCCCC3D8FC2F53C9F0F0000DFA8AB5A38
:104A20008777F9409A99993ECDCC4C3D0001002002
:104A3000FFB581B014461F465A211F484173A52077
:104A40001D490D314870019888700298C870084659
:104A5000047120124871002507E03978A81D164A14
:104A60000D3211547F1C681CC5B2A542F5DBA11D97
:104A700011480D30FEF7ECFC06460F4A0D32A01D22
:104A800016543112E01D115400250EE000BF4021E4
:104A90000A4801F003FA0028F9D007480D30415DBB
:104AA000064801F0CEFA681CC5B22046083085429F
:104AB000ECDB05B0F0BD00009C0300200038014095
:104AC000704700007FB51348446A1348808900048A
:104AD000041912484069A0421AD2104844610621C4
:104AE00061430846FDF7DDFE054600220C4BFDF74D
:104AF000DBFE02460B460191009000200949FDF7BC
:104B000029FC03910290FDF749FE0449143908631A
:104B10007FBD0000000400404C050020BC040020C4
:104B200000001040389C8C41002905D0054A52698C
:104B30000243044B5A6104E0024A52698243014B2A
:104B40005A61704700100240002905D0054AD26919
:104B50000243044BDA6104E0024AD2698243014B0A
:104B6000DA61704700100240002905D0054A9269B9
:104B70000243044B9A6104E0024A92698243014B6A
:104B80009A61704700100240002905D0054AD2689A
:104B90000243044BDA6004E0024AD2688243014BCC
:104BA000DA60704700100240FEB50446002500267A
:104BB00000200290019000900027864840680C2158
:104BC00008400546002D06D0042D07D0082D08D03A
:104BD0000C2D2CD128E0804820602BE07E482060FE
:104BE00028E07C4840680F2189040840064679483F
:104BF00040680321C90308400290B00C861C02984B
:104C0000002803D17548374647430BE07148C06A16
:104C10000007000F401C01906F480199FDF7EAFA68
:104C200070430746276005E06D48206002E06A484F
:104C3000206000BF00BF67484068F021084005467B
:104C40002D096848405D009020680099C840606068
:104C50006048406807210902084005462D0A61485E
:104C6000405D009061680098C140A1605948006BA8
:104C7000FF2101310840884202D05B48E0600DE02E
:104C800054484068012189030840884203D0A06845
:104C90004008E06002E0A0688008E0604D48006BDA
:104CA00040210840402802D05048206102E0012005
:104CB000C00320614748006B10210840102802D033
:104CC0004548606101E0206860614248006B8007F0
:104CD000800F002802D1A068A06119E03D48006B58
:104CE0008007800F012802D12068A06110E03948B8
:104CF000006B8007800F022802D18003A06107E0CB
:104D00003448006B8007800F032801D13248A0612E
:104D10003048006B032109040840002802D1A06834
:104D2000E06120E02B48006B0321090408400121C9
:104D30000904884202D12068E06114E02548006B34
:104D400003210904084001214904884202D180104E
:104D5000E06108E01F48006B032109040840884215
:104D600001D11D48E0611B48006B03218904084004
:104D7000002802D1A068206220E01648006B0321C1
:104D80008904084001218904884202D120682062F8
:104D900014E01048006B0321890408400121C90474
:104DA000884202D10011206208E00A48006B03210A
:104DB00089040840884201D1074820620548006BF9
:104DC00080210840802802D00548606200E06762C8
:104DD000FEBD00000010024000127A0000093D00F4
:104DE000006CDC02C0000020809FD5001280000013
:104DF000F8B5002100220023002400250026002011
:104E00000090B3E00098002819D10920C006008A5C
:104E100080273840002801D0042001430920C00623
:104E2000008A40273840002801D0022001438F48E3
:104E3000008AC007C00F002801D00120014300985C
:104E40003C2819D10920C006008A80273840002854
:104E500001D0042002430920C006008A40273840C0
:104E6000002801D0022002438048008AC007C00FFA
:104E7000002801D0012002430098782819D1092088
:104E8000C006008A80273840002801D00420034350
:104E90000920C006008A40273840002801D002209F
:104EA00003437248008AC007C00F002801D00120C8
:104EB00003430098B42819D10920C006008A80272E
:104EC0003840002801D0042004430920C006008A8D
:104ED00040273840002801D0022004436348008A5C
:104EE000C007C00F002801D0012004430098F0281B
:104EF00019D10920C006008A80273840002801D037
:104F0000042005430920C006008A402738400028B5
:104F100001D0022005435548008AC007C00F002871
:104F200001D001200543FF272D370098B84219D141
:104F30000920C006008A80273840002801D00420BC
:104F400006430920C006008A40273840002801D0C7
:104F5000022006434548008AC007C00F002801D040
:104F6000012006430098401C80B20090FF272D3797
:104F70000098B84200DC45E7A34205D1AB4203D11B
:104F8000B34201D11846F8BDA24205D1AA4203D1CD
:104F9000B24201D11046F6E79A4205D1AA4203D1A6
:104FA000B24201D11046EEE79A4205D1A24203D1A6
:104FB000B24201D11046E6E79A4205D1A24203D19E
:104FC000AA4201D11046DEE7B14205D1A14203D188
:104FD000A94201D10846D6E7B14205D1994203D191
:104FE000A94201D10846CEE7B14205D1994203D189
:104FF000A14201D10846C6E7A94205D1994203D191
:10500000A14201D10846BEE7A94205D1914203D190
:10501000B14201D10846B6E7A14205D1914203D180
:10502000B14201D10846AEE7A14205D1914203D178
:10503000A94201D10846A6E7994205D1914203D180
:10504000B14201D108469EE7994205D1914203D170
:10505000A94201D1084696E7994205D1914203D170
:10506000A14201D108468EE700208CE700040048E9
:1050700010B51048046B601C00280ED10E480F4973
:10508000086107200E49486188610B469A69596991
:105090000A4B1869FEF7D4FD0AE00648006B074981
:1050A00008610448406B064948610248806B88618A
:1050B00010BD0000C0FF0008DC050000280400202F
:1050C0004C05002070B5FEF7F1FF012874D100F007
:1050D000C3F84C48807A052847D14A48C07A01284D
:1050E00043D1484841698030406B081A7D21C9008E
:1050F00088423ADD434840303021415E482934DD62
:105100000146C031888BFDF7CCFB044600223E4BA4
:1051100002F028FE06D23D48808B401C81B23B48FD
:1051200081832CE03A480078401C394908707D2181
:10513000C9003648818336480078022811DB0420F4
:10514000304908700846C0894021884340302D49C5
:10515000C881304880784021884340302D4988708C
:105160000DE001202749487209E02848808B00287B
:1051700005DD2648808B401E81B22448818321486A
:10518000407A012828D124480088401C2249088000
:1051900008460088642803DA03201A4908701EE0D4
:1051A0001D4800887D21C900884206DA0120154982
:1051B00008700020087212E023E0174800881749A1
:1051C000884205DA03200F4908700120087206E0C2
:1051D00000200C49487202E000200F49088009486D
:1051E00041698030406B081AFF212D31884208DA6E
:1051F000044840697D21C900884202DD002004493D
:10520000087070BD2804002000408F402805002051
:10521000E40000201C010020E20000204C040000FB
:105220007047000001460020044A10688008800092
:1052300002460A431046014A1060704700000140D0
:105240000149086070470000402C01400149088076
:1052500070470000D6000020014908807047000018
:10526000E00000200149088070470000DE000020B7
:105270000149088070470000DA00002001490880D9
:1052800070470000D800002010B504468C4206DDAF
:105290008818A04201DB204610BD8818FCE78C422C
:1052A00006DAC81AA04201DC2046F5E7C81AF3E77F
:1052B0002046F1E7FEB522484169143040680918DC
:1052C0001F481430806809181D481430C068091838
:1052D0001B4814300069091819481430406908182F
:1052E00002900298FDF7DDFA04460022154BFDF707
:1052F000DBFA02460B460191009000201249FDF7AF
:1053000029F80646FDF74AFA0D4908630846416B3D
:10531000006B081841100A484163008F401C81B29D
:10532000074801870A290ADB002101870246516BE1
:10533000803A5069C032FFF7B1F901498865FEBD76
:10534000A804002000001040389C8C41042806D19D
:105350000649096904221143044A116105E0034921
:10536000096904229143014A1161704700E000E09D
:1053700010B500F05FF82D48C088002804DD2B48E8
:10538000C088401E2949C8802948408E002804DD75
:105390002748408E401E264948862548C08E002852
:1053A00004DD2348C08E401E2149C8862048008F56
:1053B000002804DD1E48008F401E1D4908871C4838
:1053C000408F002804DD1A48408F401E1849488746
:1053D0001748808F002805DD1548808F401E81B258
:1053E000134881871248808E002805DD1048808E82
:1053F000401E81B20E4881860D4840304089002809
:1054000006DD0B4840304089401E09494031488143
:10541000074840300089002806DD054840300089F3
:10542000401E03494031088110BD00001C010020CE
:10543000DC0300201B480088002804D0194800889D
:10544000401E1849088018480088002804D01648D3
:105450000088401E1449088014480088002804D0A1
:1054600012480088401E1149088011480088002811
:1054700004D00F480088401E0D4908800D48008860
:10548000002804D00B480088401E0A4908800A48BA
:105490000088002804D008480088401E064908807B
:1054A00070470000D6000020D8000020DA0000205D
:1054B000DC000020DE000020E0000020704700003B
:1054C0000349088000BF024909880029FBD17047C1
:1054D000D6000020F0B50C4600210025068C0A4FAE
:1054E0003E400684018B058C074EF23E31401E057E
:1054F000360C16433143044E093E354001262643FF
:10550000354301830584F0BDFEFF0000F8B50C466D
:105510000021002500260096068C0D4F3E40068493
:10552000018B058C2605360C00960A4E31401E076D
:10553000360C31431606360C3143054E903E35404D
:105540001027009E3E43354301830584F8BD0000CB
:10555000EFFF0000FF0C0000F8B50C46002100250D
:1055600000260096068C0C4F3E400684818B058CED
:105570002606360C0096084E0D3631401E05360CB8
:1055800016433143054E3540FF270137009E3E4309
:10559000354381830584F8BDFFFE0000FFF5000060
:1055A000F8B50C460021002500260096068C0D4F0C
:1055B0003E400684818B058C2607360C00960A4EE9
:1055C00031401606360C31431E07360C3143074E68
:1055D000354001273F03009E3E43354381830584C8
:1055E000F8BD0000FFEF0000FF0C0000FF5F0000AF
:1055F000704700000948008A02210840002809D0AD
:10560000481F0649088208460088054908400349A2
:10561000088002E0002001490882704700440140F0
:10562000FEFF00001CB580211D4800F078F801281D
:105630002AD180211A4800F04FF804201949087037
:105640000846C0890821884308301649C881164891
:10565000808A012818D10220134988820121400440
:10566000FFF762FA02200090012168460171417142
:1056700000218171C17169460C48FEF781FC02214D
:105680000A48FEF7FBFC00BF0121054800F047F87F
:10569000012803D10121024800F01EF81CBD0000C2
:1056A000002C014028040020780500200004004858
:1056B00010B5FEF763FD10BD0A884B881A438B882E
:1056C0001A43CB881A430B891A434B891A438B8997
:1056D0001A4344231A527047CA430282704700009B
:1056E000002904D0028801231A43028003E00288C3
:1056F000014B1A4002807047FEFF0000002907D0CE
:105700004422125A0123DB031A4344231A5205E0B0
:105710004422125A53045B0C44221352704730B592
:105720000246002000230024158A0D402B4695894F
:105730000D402C46002B03D0002C01D0012000E0AE
:10574000002030BD70B505460C46208800280AD1DF
:105750002389A28861882846FFF7BCFEE188284695
:1057600000F086F925E0208804280AD12389A28840
:1057700061882846FFF7CAFEE188284600F082F9D2
:1057800017E0208808280AD12389A2886188284642
:10579000FFF7E2FEE188284600F080F909E023895E
:1057A000A28861882846FFF7FBFEE188284600F0C2
:1057B0007FF970BD002A03D083890B43838102E007
:1057C00083898B438381704770B5002400220023B6
:1057D000058C1C4E35400584028C8388048B194D42
:1057E0006F3D2C40B51E2C400D882C43751E2A4061
:1057F0008D892A434D882A43134DA84208D0134D62
:10580000A84205D0124DA84202D0124DA84212D192
:105810000C4DED1F2A40CD892A430A4DED1E2A402A
:105820008D882A43074DFF3D2B400B4D2B400D8AA1
:105830002B434D8A2B43838004838D684563028408
:1058400070BD0000FEFF0000002C01400040014040
:105850000044014000480140FFFD00000A460021CD
:10586000018B034B19400B461343194601837047C4
:10587000F7FF000070B5002400220023058C214EA4
:1058800035400584028C8388048B1F4D2C401F4DAE
:105890002C400D782D062D0C2C431A4D103D2A401E
:1058A0008D892D052D0C2A434D882D052D0C2A435D
:1058B000174DA84202D0174DA8421CD1164D2B40BF
:1058C0000D8AAD042D0C2B43114DA84213D10D4D63
:1058D000703D2A40CD892D052D0C2A43094D303DC0
:1058E0002A408D882D052D0C2A430C4D2B404D8AC6
:1058F000AD042D0C2B43838004838D688563028463
:1059000070BD0000EFFF0000FF8F0000FFFC0000F3
:10591000002C014000400140FFFB0000FFF70000A9
:105920000A460021018B034B194013061B0C194337
:1059300001837047FFF7000070B5002400220023A8
:10594000058C1C4E35400584028C8388848B194D50
:1059500090352C40174DFD352C400D882C43164DAD
:105960002A400D7B2D062D0C2A438D782D062D0CFB
:105970002A43124DA84217D1114D2A408D7B2D0686
:105980002D0C2A430F4D2A400D792D062D0C2A434C
:105990000D4D2B400D4D2B400D8A2D052D0C2B430D
:1059A0004D8A2D052D0C2B43838084838D68C56320
:1059B000028470BDFFFE0000FFFD0000002C0140CE
:1059C000FFF70000FFFB0000FFEF0000FFDF00001B
:1059D0000A460021818B034B19400B46134319469D
:1059E00081837047F7FF000070B500220023002478
:1059F000058C134E35400584038C8488828B114DB1
:105A00002A40114D2A400D782D062D0C2A430F4DAA
:105A10002B400D7B2D072D0C2B438D782D072D0C46
:105A20002B430B4DA84205D10A4D2C400D8AAD05E4
:105A30002D0C2C43848082838D680564038470BDA3
:105A4000FFEF0000FF8F0000FFFC0000FFDF000001
:105A5000002C0140FFBF00000A460021818B034B50
:105A6000194013061B0C194381837047FFF7000090
:105A7000028B034B1A400283028B0A430283704756
:105A8000F3FF0000028B044B1A400283028B0B06CB
:105A90001B0C1A4302837047FFF30000828B034BF9
:105AA0001A408283828B0A4382837047F3FF00008F
:105AB000828B044B1A408283828B0B061B0C1A4389
:105AC00082837047FFF3000000220288154B984242
:105AD00006D001239B07984202D0134B984203D172
:105AE000124B1A404B881A43114B984203D0114B6A
:105AF0001A400B891A4302804B68C3620B880385E6
:105B0000084B984208D00C4B984205D00B4B98425A
:105B100002D00B4B984201D18B7A038601238382FA
:105B200070470000002C0140000400408FFF00007F
:105B300000100040FFFC0000004001400044014014
:105B40000048014070B5FEF7BBFA01287ED1052060
:105B5000FFF788FB7B48008809280FDA7A48C0895C
:105B600001B27848008842007648801C8152801E2D
:105B70000088401C81B27348018012E00021714806
:105B800001800A21801C00F0DBFC6E49C8820A46B5
:105B90001821515E1620105E6C4AFEF7B6FD694969
:105BA000088368481821415EFD20C000814226DA42
:105BB0006449488BFCF775FE04460022644B02F0F2
:105BC000D1F806D25F48408B401C81B25D484183CA
:105BD00034E0FF21F5315B48418304205D490870C2
:105BE0000846C0898021884380305A49C8815A4874
:105BF000807840084000401C574988701EE051489A
:105C0000408B5649884219DB4E48408B002806DD00
:105C10004C48408B401E81B24A4841830EE000212F
:105C2000484841834C488078400840004A49887081
:105C30004848C089802188434649C8814148403846
:105C4000808C092813DA4048408900E06CE001B2FA
:105C50003C484038808C42003A481A3881522638F5
:105C6000808C401C81B237484038818415E0002187
:105C70003448403881840A21263000F061FC3149E3
:105C8000403948870A463C21515E3A20105E2F4A2F
:105C9000FEF73BFD2B49403988872A4840383C2194
:105CA000415EFD20C00081422ADA26494039C88F72
:105CB000FCF7F7FD04460022254B02F053F808D20A
:105CC00020484038C08F401C81B21E484038C187F0
:105CD00037E0FF21F5311B484038C18704201D49BA
:105CE00008700846C0898021884380301949C881DE
:105CF0001948807840084000401C1749887020E00F
:105D0000104840383C21415E1448814219DB0D485F
:105D10004038C08F002808DD0A484038C08F401E38
:105D200081B208484038C1870BE00A48C089802109
:105D300088430849C88108488078400840000649DF
:105D4000887070BD2805002000010020DA0C0000DA
:105D500000407F40280400201C010020030A0000AE
:105D600010B54349434800F0A3F8012872D14148D7
:105D700000F062F9C4B23E493E4800F081F83E4866
:105D8000807C002865D13C48018A008A401C82B290
:105D900039480282FF38F93844543748008A0228CB
:105DA0000CD13648007A5A2803D13448407AA528C5
:105DB0004FD000213048018281744AE02E48008A89
:105DC000062815D12D48417B2B488182007D010298
:105DD0002A48007B0818083081B22748818227486A
:105DE000817A254881752548C17A2348C17530E0FC
:105DF0002148018A808A814205DB01211E48817485
:105E00000021018225E01C48008A022821DD1A4871
:105E1000008A801E19490831085C5A2819D1164891
:105E2000008A401E085CA52813D15A200839087240
:105E3000A5211248417200220F48008A801E0F4996
:105E400008310A540C48008A401E0A5402210A48AC
:105E5000018200BF0821074800F020F8012806D180
:105E6000044800F0E9F80821024800F009F810BDE4
:105E700005010500003801401C0300201C01002022
:105E800001627047002904D0026801231A430260AE
:105E900003E0026852085200026070470246002088
:105EA000D3690B40002B01D0012000E00020704797
:105EB00070B502460B4600240021002500201E0478
:105EC000350ED9B201268E403146012D02D1166819
:105ED000314006E0022D02D15668314001E096685B
:105EE00031401C0C0126A6403446D66934400029B6
:105EF00003D0002C01D0012000E0002070BDF8B5D7
:105F000003460024002600960025002018460E04B3
:105F1000340ECEB200960127009EB7403D46022CBB
:105F200001D1001D02E0032C00D10830002A03D06B
:105F300006682E43066002E00668AE430660F8BDC0
:105F4000F0B58BB004460D46002700200A900026CD
:105F5000206840084000206066680321090330463D
:105F600088430646A8680643666026682D480640B2
:105F7000E968686808432969084306432660A668FB
:105F80000321090230468843064668690643A66035
:105F90006846FEF709FE2448844202D106980A901A
:105FA0000DE02248844202D107980A9007E0204879
:105FB000844202D108980A9001E002980A90206871
:105FC0000121C903084000280CD029680A9A500012
:105FD000FCF710F9074629680A9A5000FCF70AF9FD
:105FE0000E4609E029680A98FCF704F90746296873
:105FF0000A98FCF7FFF80E4628684008B04200D81F
:106000007F1C20680121C9030840002806D03807FA
:10601000460F38460749084030430746A7810BB072
:10602000F0BD0000F3E9FFFF0038014000440040EC
:1060300000480040F0FF00000146888CC005C00DFC
:106040007047CA05D20D02857047000010B50121C6
:106050005348FDF7FFFF002807D152480088401C35
:10606000504908800020504908804E480088032885
:1060700005DB03204B49088001204C4908800121A1
:106080004748FDF7E7FF012807D100204549088070
:1060900045480088401C444908804348008832280D
:1060A00005DB3220404908800020404908803F48F5
:1060B0000088002805D13E480088012801D13D49CB
:1060C00088833A480088012802D100203949888312
:1060D00036480088364908803648808B012859D1D7
:1060E00035480088002803D13448008934490880A5
:1060F00031480088401C3049088008460088FF214C
:10610000F531884204DA08212E48FDF7B9FF46E050
:1061100029480088FF21F531884216D12748008997
:1061200027490988401A1E2806DD012026490880D3
:1061300000202649088032E00020234908802348B7
:106140000088401C2149088029E01B48008819214B
:10615000490188420DDA1C480088002804D1082132
:106160001848FDF78BFF1AE008211648FDF788FF55
:1061700015E016480088032808DD4B20C0000E49B2
:10618000088008210F48FDF779FF08E000200A4940
:10619000088004E00020084908800C49088010BDF0
:1061A00000140048EE000020FC000020F800002051
:1061B000FA00002078050020F000002000010020F7
:1061C000F200002000040048F4000020F600002047
:1061D00010B5FDF77FFF012829D1FFF749F8FDF73A
:1061E00019FCFDF74FF9FFF731FF114880880028AF
:1061F00005DD0F488088401E0D49888017E080210A
:106200000C48FDF731FF002804D180210948FDF733
:1062100037FF0CE00648C088002805DD0448C08828
:10622000401E0349C88002E001200149087210BDE8
:1062300078050020001400481CB5012111208004BD
:10624000FEF772FC802000900121684601714171C7
:1062500000218171C17169463548FDF791FE8021A9
:106260003348FDF70BFF02200090012168460171C1
:10627000417100218171C17169462D48FDF780FE91
:1062800002212B48FDF7FCFE0120C00200900121F5
:10629000684601710321417100218171C171694614
:1062A0002448FDF76DFE0120C0022249886140208C
:1062B0000090012168460171032141710021817123
:1062C000C17169461A48FDF75BFE40211848FDF789
:1062D000D5FE0020184948810120887300900021D4
:1062E000684601710121417169461148FDF748FE78
:1062F00008200090012168460171417100218171DF
:10630000C17169460B48FDF73BFE08210948FDF7BE
:10631000B5FE01200849C870002008808870074831
:106320008880FF20F530C8800020087288831CBD5B
:10633000001400480004004878050020B80B000055
:1063400010B5FDF7D1FE012860D10220FEF796FFBF
:106350002F48008D09280EDA2E48008901B22C48FA
:10636000008D42002A482A3081522A38008D401C74
:106370002749088516E00020254908850A21244878
:106380002A3000F0DDF82249C8870A464032002151
:10639000515E403A3E20105E1F4AFEF7B6F91C4996
:1063A000403108801D4C1A4840303021415EA142E6
:1063B0001FD9808DFF21F531884208DA144840301A
:1063C000808D401C81B21248403081851EE004203F
:1063D0000F4908700846C0890821884308300C49D5
:1063E000C8810F48807802218843801C0C4988703E
:1063F0000CE007484030808D002807DD044840301D
:10640000808D401E81B202484030818510BD000061
:106410002804002000010020DA0C0000D202000055
:106420001C01002030B47446641E2578641CAB4205
:1064300004D3635D5B00E31830BC18471D46F8E7E2
:1064400010B5002819DB1A4A03231B02D21883084F
:106450009B00D2588307DC0EFF23A3409A438B078F
:106460001B0E8407E40EA3401A43114B032424029D
:106470001B198408A4001A5118E00E4A03071B0FC9
:10648000083B9B089B00D2588307DC0EFF23A340E8
:106490009A438B071B0E8407E40EA3401A43054B57
:1064A0000407240F083CA408A4001A5110BD0000E2
:1064B00000E100E01CED00E0002007E081001C4A44
:1064C0008918096882001B4B9950401C3028F5D36D
:1064D00001210846FEF758FB0320FEF7A3FEFDF757
:1064E0005BFC00F0D1F801F041FAFFF7A5FE00F0E7
:1064F00069F8FCF737FE01F0E5FAFCF7BBFCFEF7A4
:10650000B7FD0D480D49486003200870012008724E
:106510000DE0FFF75DFE00F0E1F8FEF7D3FDFFF7B9
:106520000FFFFFF70FFBFDF7E9FDFEF7F7F8F0E7C8
:106530000020000800000020DC05000028040020E6
:10654000FCB5024600241AE0002312E05800165E53
:10655000581C4000105E864209DD5800155E581C2C
:106560004000105A5E009053581C40001552581CB1
:10657000C3B2081B401E9842E8DC601CC4B2481E2F
:10658000A042E1DCC807C00F002806DD481CC60F8A
:10659000361876107600955F12E00846CE0F361852
:1065A00076107600965FCF0F3F187F107F1C7F001C
:1065B0000091D75FF619F70F0196BE19761035B224
:1065C0002846FCBD03202B490870002048600120AC
:1065D000087200208872C87208730846C089400893
:1065E0004000401CC88100204861088308778877F4
:1065F0000862214888844820C88420491D484030CA
:10660000018000201B4908851C48C88700211948C3
:10661000403041808180C03081830184C0388185D1
:10662000C1850186FF20B230124948670846818C37
:106630008030016132210163416300210187C16320
:1066400081650F49C1624161143041608160C16060
:106650000161416100212C3081840A494187818791
:106660000021C187403001800649C1820183002199
:1066700041837047280400209F0F00003C07000062
:106680006A1800008B0E000010B58AB06846FEF74D
:106690008BFA0420FEF75AFE7D21C9000198FBF712
:1066A000A9FD0446601E0B49884200D90CE0601E1B
:1066B000094948610321081FFFF7C2FE002006496F
:1066C00088610720086100BF0A20FEF7F9FE0AB0C2
:1066D00010BD0000FFFFFF0000E000E0F0B58BB050
:1066E00000240025FE48008800285ED10120FC49D6
:1066F000088001E0601C84B2FA483C21415E6000E1
:10670000F94A105A814201DC922CF3DB002C01D0B3
:10671000922C03DBFF21F548018604E020461E3061
:1067200081B2F2480186F148008EF049888501E087
:10673000681C85B2EB4840301821415E6800EA4A87
:10674000105A814201DC922DF2DB002D01D0922DF6
:1067500003DBFF20E549C88504E028461E3081B2EE
:10676000E248C185E148C08DE0494885DD4980396E
:106770000020085EFCF78DF8DD4ADE4B01910090A9
:10678000FCF792F80022DC4B03910290FCF78CF8A6
:106790000022DA4B05910490FBF7DCFD079106908F
:1067A000FBF7FCFF06B2D1480685D548C088002813
:1067B00005D1D348007840084000D1490870CB4843
:1067C000C038807C002801D100F05EFEC748C03888
:1067D000808A801E81B2CA480830FCF739FEC3495E
:1067E000C03908830846808A801EFF39F9390A5C5F
:1067F000BE48C038808A401E085C0002101881B272
:106800000891BA48C038018B0898814275D1BD48BB
:10681000BB49C880B548C038807D11286ED243007E
:106820007B449B885B009F441000250091009200F0
:106830007602BD02E8026900690069006900D903B7
:106840002004B0047105CF05D005AD480078402183
:106850008843AB49897B8901402211400843A849FC
:106860000870A248C038C17D00231A460120FEF7F7
:10687000DFF896E29D48C038C17D2030007E81421D
:1068800010D19A482030C07940084000401C9749F8
:106890002031C8719A48007840084000401C98494F
:1068A000087052E09148C038C07D904988394978D5
:1068B00088420CD18D482030C07902218843801C49
:1068C0008A492031C8710220203108803DE0874884
:1068D000C038C07D85498839897888420FD183487E
:1068E0002030C07904218843001D80492031C871BF
:1068F00002217E484030418027E0FDE3FDE37B48F4
:10690000C038C17D3830C078814209D17748203005
:10691000C07908218843083074492031C87114E0D7
:106920007248C038C07D71498839097988420CD1D4
:106930006E482030C0791021884310306B492031D7
:10694000C871022169484030818092E791E76C4824
:106950000078C007C00F00287ED069480078400644
:10696000C00F0028F8D06148C038C17D00231A4606
:106970000120FEF75DF86248807B0300FFF752FDBF
:106980000B07F4F4F4F4F35B47F2F1F0F40055492B
:1069900080393020085EFBF77CFF554A554B01914A
:1069A0000090FBF781FF0022574B03910290FBF709
:1069B0007BFF564A564B05910490FBF7CBFC0791A1
:1069C0000690FBF721FF80B209904849A039099849
:1069D0004877099800121D31487042484038008EAF
:1069E000887040484038008E0004000EC870084689
:1069F0001D38C07D401CC1B23C48A038C175C17D66
:106A000003461D3304220920FEF712F881E13748BE
:106A1000808DC1B23548A0384177C07D401C3349D4
:106A2000A039C8750846C17D03461D3301220720E1
:106A3000FDF7FEFF6DE132480078C007C00F002867
:106A400018D02F4800784006C00F0028F8D02748FB
:106A5000A038007D012800E05CE10CD10B21234827
:106A6000A03841772038C17D03463D330122022002
:106A7000FDF7DEFF92E02248817BC07B000209180F
:106A80001F48007C000409181D48407C00060918B6
:106A90001648C03881621A48817CC07C00020918FF
:106AA0001748007D000409181548407D00060918A4
:106AB0000E48C038016380210162006A0B49C03969
:106AC000896A491E48430949C039096B091A0748B0
:106AD000C0384162016B1B208002814252D819E00C
:106AE000D4000020E804002084800008DC0300209B
:106AF0006666666666660A40002069400000B0402F
:106B00001C0100208813000000408F405B2041F1F1
:106B100063CC6D40FC48006A01214902884231D8AB
:106B2000FA48C07A012804D1FCF778FC0320F74921
:106B300008700120F449203108750021F248C16233
:106B4000FDF72AF9F249F348FDF7CEF800280CD1F9
:106B5000ED48C17D00231A460120FDF769FF1DE0C5
:106B600073E031E01BE0A3E0C6E00920E6492031F4
:106B70004877E548C17D03463D3301220220FDF7F9
:106B800057FF0BE00821E048203041772038C17DD5
:106B900003463D3301220220FDF74AFFB9E0DA48FF
:106BA000C030408DC1B2D84820304177C07D401CF4
:106BB000D5492031C8750846C17D03461D330122E1
:106BC0000820FDF735FFA4E0D04940313020085EB1
:106BD000FBF75FFED04AD14B01910090FBF764FEBA
:106BE0000022CF4B03910290FBF75EFECD4ACE4BC5
:106BF00005910490FBF7AEFB07910690FBF704FEAE
:106C000080B209900998C1B2BF48203041770998F5
:106C10000012BD493D314870BC488030008E8870FC
:106C2000BA488030008E0004000EC87008461D3837
:106C3000C07D401C1D39C8750846C17D03461D3303
:106C400004220920FDF7F4FE63E0B0494031002042
:106C5000085EFBF71EFEB04AB04B01910090FBF7B7
:106C600023FE0022B14B03910290FBF71DFE002290
:106C7000AF4B05910490FBF76DFB07910690FBF776
:106C80008DFD06B2A04920314E773004000E1D3133
:106C9000487008461D38C07D401C1D39C87508461F
:106CA000C17D03461D3302220A20FDF7C1FE30E0FC
:106CB000A0A195483D30FBF789FAA3A19248513035
:106CC000FBF784FAA5A190486530FBF77FFAA8A1ED
:106CD0008D487930FBF77AFA8B482030C07D401C14
:106CE00089492031C8750846C17D03461D335022AD
:106CF0000520FDF79DFE0CE00521834820304177FB
:106D00002038C17D03463D3301220220FDF790FE6D
:106D100000BF00BF9AE39B480078C007C00F00285F
:106D20003FD0984800784006C00F002839D09648D8
:106D3000807B002835D09448007A002831D07348F1
:106D4000C07A04282DD08F4800784007C00F002853
:106D500027D18C480079002823D18A48877B0120DD
:106D60006A490872002F08D103200870854800780E
:106D700002218843834908700BE0012F09D10120CB
:106D8000624908707F48007802218843801C7D4951
:106D900008705D48C17D00231A460120FDF748FEBA
:106DA00000BF53E35848C17D00231A460120FDF778
:106DB0003FFE60A154483D30FBF708FA62A15248FB
:106DC0005130FBF703FA65A14F486530FBF7FEF938
:106DD00067A14D487930FBF7F9F94B482030C07D69
:106DE000401C49492031C8750846C17D03461D3302
:106DF00050220520FDF71CFE28E362480078C007FA
:106E0000C00F00287ED05F4800784006C00F0028E1
:106E1000F8D0002107915B48817BC07B00020918F4
:106E20005848007C000409185648407C00060F189A
:106E30005648874206D8FF20F530874202D33348B0
:106E4000076101E0012007904E48817CC07C000270
:106E500009184C48007D000409184A48407D000686
:106E60000F182A480069B84202D200270121079171
:106E7000264847604348817DC07D0002091841488B
:106E8000007E000409183F48407E00060F18642F5A
:106E900003D264270121079107E01C480069B8422A
:106EA00003D2012107911948076918490869394631
:106EB000FBF7A0F9364948613248817EC07E000266
:106EC00009183048007F000409182E48407F00064A
:106ED0000F18642F03D201210791642707E00B48A4
:106EE0000069B84203D201210791084807690749A0
:106EF00008693946FBF77EF925498861079800281B
:106F00005AD147E069E000001C030020280400205B
:106F1000FFF70008009000086666666666660A402D
:106F200000408F405B2041F163CC6D400020694000
:106F30000000B040202020535A2D4C482D4D435581
:106F40002D424C444332310020202020202020209C
:106F500020202032332E30362E30370020202020C3
:106F600020202020202020202030302E53303400BC
:106F70002020202020202020202020202030302EE3
:106F8000533231001C01002078050020DC05000090
:106F90004C050020084682694169F9480369184692
:106FA0000693FCF74DFEF748C17D00231A460120E9
:106FB0000691FDF73DFD0FE0079801280CD10D214A
:106FC000F048203041772038C17D03463D3301220F
:106FD00002200691FDF72CFD00BF37E2EA48007859
:106FE000C007C00F00283FD0E74800784006C00F18
:106FF000002839D0E448807B08210840002816D0BA
:10700000DF48C089802188438030DD49C881042160
:10701000DB4801700420DA49C872FCF7FFF9DA484E
:10702000007804218843001DD749087012E0D44835
:10703000C08940084000401CD149C8810321D04884
:1070400001700320CE49C872CF48007804218843DC
:10705000CD490870CC48C17B0171CA48C17D00236D
:107060001A460120FDF7E4FCF0E1C7480078C007AC
:10707000C00F002816D0C44800784006C00F002872
:1070800010D0C0482030007D01280CD10B21BD4814
:10709000203041772038C17D03463D330122022054
:1070A000FDF7C6FC70E0B848817BC07B0002091880
:1070B000B548007C00040918B348407C0006091854
:1070C000B0488162B048817CC07C00020918AE489B
:1070D000007D00040918AC48407D00060918A94845
:1070E000016380210162006AA649896A491E4843FA
:1070F000A449096B091A01E0A9E19BE1A148416299
:10710000016B1B208002814232D89E48016A012017
:10711000400281422CD89A48C07A012804D1FCF759
:107120007DF90320964908700121964820300175A9
:1071300000212038C162FCF72FFE94499448FCF7E7
:10714000D3FD002807D18F48C17D00231A460120B6
:10715000FDF76EFC18E009218A482030417720387D
:10716000C17D03463D3301220220FDF761FC0BE0A7
:1071700008208449203148778248C17D03463D3349
:1071800001220220FDF754FC60E17F480078C0072F
:10719000C00F00287ED07C4800784006C00F002831
:1071A00078D078482030007D002874D07648817BE4
:1071B000C07B000209187448007C0004091872485A
:1071C000407C00060818734908606E48C16A71481F
:1071D0000068801C814206D36A48C06A801C6D49E1
:1071E000096888426BD96748806A401E6949096806
:1071F00088423AD96348808A0C386249096A8842D1
:1072000026D16448008883B25E48008C82B25E4911
:1072100012315F48FCF724FE00280CD15948C06A9F
:10722000401C5849C8620846C17D00231A46012007
:10723000FDF7FEFB69E009215248203041772038F4
:10724000C17D03463D3301220220FDF7F1FB5CE0E6
:1072500008214C48203041772038C17D03463D331A
:1072600001220220FDF7E4FB4FE04A48008883B288
:107270004448008C82B2444912314548FCF7F0FD85
:1072800000280FD13F48C06A401C3E49C8620846EA
:10729000C17D01E02DE01FE000231A460120FDF72B
:1072A000C7FB32E009213748203041772038C17DC3
:1072B00003463D3301220220FDF7BAFB25E00721FA
:1072C0003048203041772038C17D03463D330122CC
:1072D0000220FDF7ADFB18E006202A49203148774F
:1072E0002848C17D03463D3301220220FDF7A0FB63
:1072F0000BE000212348203041772038C17D034630
:107300003D3301220220FDF793FB9FE01E480078E9
:10731000C007C00F002856D01B4800784006C00F99
:10732000002850D017482030007D002840D0154854
:10733000C16A806A81422FD11348807B012811D114
:107340001049086BFCF7A2FC00210E480163C17DC7
:1073500000231A460120FDF76BFB0020094920316C
:10736000087530E007200749203148770548C17D7E
:1073700003463D3301220220FDF75AFB23E00000C3
:10738000280400201C0300201C010020FFF7000837
:1073900000900008D00000200721FE4841772038E7
:1073A000C17D03463D3301220220FDF741FB0AE087
:1073B0000621F84841772038C17D03463D3301223C
:1073C0000220FDF735FB41E040E0F3480078C007BC
:1073D000C00F00282DD0F04800784006C00F0028CC
:1073E00027D0FCF71BF80320EC490870E948203847
:1073F000C17D00231A460120FDF71AFB0020FDF78E
:1074000011FF00BF00BF00BF00BF00BFBFF34F8F21
:1074100000BF00BF00BFE248E249C86000BF00BF34
:1074200000BFBFF34F8F00BF00BF00BF00BF00BF52
:10743000FDE70BE00321D74841772038C17D0346A3
:107440003D3301220220FDF7F3FA00BF0AE00221DA
:10745000D04841772038C17D03463D3301220220C8
:10746000FDF7E6FA0020CC4908720021CA484172B3
:1074700081724121C900C74820388182FF2181756E
:107480000021C175817400BFC34800788006800E5A
:10749000C149497888420AD1BF48C078BE49897835
:1074A000884204D1BB48A030408E00282FD1BA4872
:1074B00000788006800EB849487008468078C87009
:1074C000B448C030C07940084000B249C031C871EA
:1074D000B14800788006800EC0394877AE48807881
:1074E0001D314870AB48C07D401C1D39C875084629
:1074F000C07D08760846C17D03461D330222002068
:10750000FDF796FA7D20C000A249A0314886A14827
:10751000007D00287CD1A0480078C007C00F00285B
:1075200076D09D4800784006C00F0028F8D09948D2
:10753000A030808E00284FD19848C07A01284BD1C6
:10754000964940313020085EFBF7A3F9964A974BE5
:1075500001910090FBF7A8F90022954B039102904E
:10756000FBF7A2F9934A944B05910490FAF7F2FEC7
:1075700007910690FBF748F980B209908549099870
:107580004877099800121D31487084488030008E79
:10759000887082488030008E0004000EC870084653
:1075A000A330C079082188437A49C031C87179482D
:1075B000C07D401CC039C8750846C07D1831C870F0
:1075C0007448C17D03461D3304220920FDF730FABB
:1075D00064207049A03188866E48E03040890028D8
:1075E0007ED101E0601C84B26C48C0303C21415E19
:1075F0006000724A105A814201DC922CF2DB002CAE
:1076000001D0922C05DBFF206249A031088605E0FD
:10761000A8E120461E305F49A03108865D48A030B1
:10762000018E808D81421BD05A48A030008E59496E
:1076300048770846C07D183148705648C17D0346DA
:107640001D3301220720FDF7F3F95248C030C079FD
:10765000022188434F49C031C871C82020390887AA
:1076600001E0681C85B256481821415E6800534A03
:10767000105A814201DC922DF3DB002D01D0922DB6
:1076800004DBFF204349A031C88504E028461E30B2
:107690004049A031C8853F48A030C18D408D81420E
:1076A0001BD03C48A030C08D3A4948770846C07D81
:1076B000183188703748C17D03461D3301220820E8
:1076C000FDF7B6F93348C030C07904218843314909
:1076D000C031C871C820203948872E48A03000E04A
:1076E00057E0008E2B49A03188850846C08D48851B
:1076F0002A4940310020085EFBF7CBF82A4A2B4B81
:1077000001910090FBF7D0F800222E4B03910290DC
:10771000FBF7CAF800222C4B05910490FAF71AFEE9
:1077200007910690FBF73AF806B21A49A0312820D3
:10773000085EB04229D0084606850A2E03DB4B209E
:10774000C000864201DD0026F64312494E77300420
:10775000000E1D3148700220C33188800D48C07D65
:10776000C83908710B48C17D03461D3302220A2027
:10777000FDF75EF90748C030C079102188430549FC
:10778000C031C871C8202039888710480149E031CC
:1077900048811DE03C0300201C010020280400203B
:1077A0000400FA0500ED00E06666666666660A405B
:1077B00000408F405B2041F163CC6D408480000825
:1077C00028050020002069400000B040DC050000D2
:1077D0006548008F00282FD163482030C07980078A
:1077E000C00F002828D1604840300088002823DDE1
:1077F0005D4840300088012807DB5B484030008846
:10780000401E59494031088003E00021564840306D
:1078100001805548808D5449A03948770220E031D5
:1078200008800846C8384178431D01220720FDF72B
:10783000FFF8C8204C4908874B48408F00282FD1BB
:1078400049482030C0794007C00F002828D1464859
:1078500040304088002823DD4348403040880128DC
:1078600007DB414840304088401E3F494031488056
:1078700003E000203C49403148803B48408D3A4974
:10788000A03948770221384840304180C838817893
:10789000431D01220820FDF7CBF8C8203249488754
:1078A0003148808F002831D12F482030C079C00660
:1078B000C00F00282AD12C4840308088002825DDC0
:1078C000294840308088012807DB274840308088DD
:1078D000401E25494031888003E000202249403184
:1078E00088802148008D2049A03948771E48008DA6
:1078F0000004000E1D314870481F0179431D02220B
:107900000A20FDF795F8C820174988871648008F88
:10791000002827D114482030C0798007C00F0028E4
:1079200020D111484030008800281BDD0E4840302F
:107930000088012807DB0C4840300088401E0A49B7
:107940004031088003E000210748403001800648AC
:1079500088384178431D01220720FDF769F8C820C7
:10796000014908870BB0F0BDDC03002000B589B0E9
:1079700001218804FDF7D8F8002206214948FCF7C8
:1079800047FB002207214748FCF742FBC020079035
:10799000022108A80170032141700021817001219A
:1079A000C17007A93F48FCF7EBFA01218803FDF7F6
:1079B000DBF8E12040020190002002900390049047
:1079C00006900C20059001A93748FEF7B9FA1B2153
:1079D000684601700321417001218170FCF792FF1C
:1079E000002031490862012230492F48FEF787FA0A
:1079F00001212D48FEF746FA00202D490870FF208E
:107A0000487000208870C8700871002129480182E0
:107A100029482749C880FF202649E031C871412103
:107A2000C90024488182FF2181750021C1754183ED
:107A3000FF21017700214177817700201D49203106
:107A40004875C87500211B48E03041718171C8201C
:107A50001849C0314886C886C8211648C0300187F9
:107A60004187818702201349C031C887403108808F
:107A700002211248418002201049888002210F48CB
:107A8000C18064200D4908810D4848818021094842
:107A900001620021816201630020064920310875DE
:107AA00009B000BD00040048003801400501050090
:107AB0001C0100201C030020881300001C0400206F
:107AC000DC05000010B590B00121C802FDF74CF8AC
:107AD000002168468185C18574480C90684681867E
