:020000040800F2
:1000000010040020C9000008550300084D03000833
:1000100000000000000000000000000000000000E0
:10002000000000000000000000000000790300084C
:100030000000000000000000570300084104000811
:10004000F900000800000000F9000008F9000008AD
:10005000F9000008F9000008F9000008F90000089C
:100060000000000045010008F9000008F900000840
:10007000F9000008C3040008F900000800000000AF
:10008000C50400080000000000000000F90000089E
:10009000F9000008F9000008C1040008F900000890
:1000A000F9000008F9000008F9000008C70400087A
:1000B000F90000080348854600F032F80048004780
:1000C000CD050008100400200C4880F308880C4877
:1000D0000168090E0B4A914205D10B480B4901609A
:1000E0000B480C4901600C4880470C480047FEE76C
:1000F000FEE7FEE7FEE7FEE7FEE700001004002053
:10010000040000001F000000181002400100000061
:10011000000001400000000045040008B500000890
:10012000064C0125064E05E0E36807CC2B430C3C4A
:1001300098471034B442F7D3FFF7C0FFE806000831
:1001400008070008704700000149C86070470000B8
:100150000020024030B5044604250B20000400F0C6
:1001600097F80546042D17D10C4800690221084371
:100170000A4908610846446100694021084307496B
:1001800008610B20000400F083F80546034800696D
:100190000221884301490861284630BD0020024001
:1001A00004200D49C968C907C90F002901D00120E1
:1001B00010E00949C96810221140002901D002202D
:1001C00008E00549C96804221140002901D0032034
:1001D00000E00420704700000020024010B500F04D
:1001E00045F83520FFF7B0FF10BD00000348006957
:1001F0008021084301490861704700000020024047
:1002000078B506460C460425002000900B2000041B
:1002100000F03EF80546042D24D113480069012161
:1002200008431149086134800B20000400F030F8C5
:100230000546042D10D1B01C0090200C00990880B8
:100240000B20000400F024F8054607480069400828
:1002500040000549086105E0034800694008400086
:1002600001490861284678BD002002400548006920
:1002700080210840002804D0034802494860034810
:10028000486070470020024023016745AB89EFCDED
:1002900010B503460424FFF783FF044603E0FFF78D
:1002A0007FFF04465B1E012C01D1002BF7D1002BF0
:1002B00000D10524204610BDF0B50A4600210023D8
:1002C000002400BF3DE001258D402B4615681D40F0
:1002D0002C469C4234D11579012D02D01579022D7E
:1002E00016D185684F000326BE40B5438560557919
:1002F0004E00B540866835438560858801268E406E
:10030000B5438580858896798E40B6B23543858021
:1003100005684F000326BE40B543056015794E00C1
:10032000B540066835430560C5684F000326BE40EA
:10033000B543C560D5794E00B540C6683543C56044
:10034000491C1029BFD3F0BD81617047FFF746FFFC
:1003500000BFFEE770477047002905D0054A526983
:100360000243044B5A6104E0024A52698243014B42
:100370005A61704700100240704700000CB5002021
:100380000190009000BF2C480068022108400090B6
:100390000198401C01900098002804D10521090310
:1003A00001988842EFD124480068022108400028C3
:1003B00002D00120009001E0002000900098012868
:1003C00039D111201D4908601B4840681A4948600E
:1003D000084640684860084640687F21C903884352
:1003E00015494860084640685121C903084312492D
:1003F0004860084600680121090608430E49086064
:1004000000BF0D4800680121490608400028F8D0C7
:1004100009484068800880000749486008464068ED
:10042000022108430449486000BF034840680C218A
:1004300008400828F9D10CBD0010024000200240FD
:100440007047000010B51B48006801210843194996
:100450000860084640681849084016494860084640
:1004600000681649084013490860084600680121E1
:10047000890488430F490860084640683F21090401
:1004800088430C4948600846C06A00090001C862F8
:100490000846006BFF21543188430649086308462B
:1004A000406B40084000486300208860FFF766FF0B
:1004B00010BD0000001002400CB8FF08FFFFF6FE60
:1004C000704770477047704702E008C8121F08C1A4
:1004D000002AFAD170477047002001E001C1121FC5
:1004E000002AFBD170470000002106E0064900BF4A
:1004F0000A464B1E99B2002AFAD10246431E98B210
:10050000002AF3D170470000E02E00001CB5012145
:1005100003204004FFF720FF012000030090012189
:10052000684601710321417100218171C1716946E1
:100530002548FFF7C1FE0F20000200900121684608
:10054000017103214171002181710121C17169464D
:100550000920C006FFF7B0FEFF2101310920C006C7
:10056000FFF7F2FE012149020920C006FFF7ECFE69
:10057000012189020920C006FFF7E6FE0121C90218
:100580000920C006FFF7E0FE07204003009001218C
:100590006846017103214171002181710121C171FE
:1005A00069460948FFF788FE012149030648FFF71D
:1005B000CBFE012189030448FFF7C6FE0121C903D0
:1005C0000148FFF7C1FE1CBD000400487CB50024B3
:1005D0000026FFF79BFF1420FFF786FF3A48C46B05
:1005E000601C00282CD0FFF7F9FD0720000384428F
:1005F00021D83648FFF7AEFD002509E0A80AB04231
:1006000005D0AE0AB102314A8818FFF7A3FD6D1C70
:10061000A542F3D300250CE0A008A84208D3AA0005
:100620002B4BD2181168AA00284BD018FFF7E8FD11
:100630006D1CA542F0D32748FFF78CFDFFF7D6FDD0
:10064000224800682449084001214907884210D106
:100650001E48406821490860084600682049086033
:100660001A49086880F3088800BF1D480068804761
:1006700027E001218804FFF76FFE0120C0020090EF
:100680000121684601710321417100218171C1710D
:1006900069461448FFF710FE12E03220FFF724FFEE
:1006A0001048808A0121C9020840002804D0084669
:1006B0000C492031088103E00120C002094988610A
:1006C000EBE700207CBD0000C0FF00080020000810
:1006D0000090000800FC00080000FE2F040000202D
:1006E000080000200004004808070008000000205F
:1006F0000C000000C8040008140700080C000020CB
:1007000004040000D80400080000000000000000FD
:0407100000000000E5
:04000005080000B53A
:00000001FF
