:020000040800F2
:10200000900B00205921000889420008C93F0008B0
:1020100000000000000000000000000000000000C0
:10202000000000000000000000000000F54700086C
:102030000000000000000000354400083949000895
:10204000892100080000000089210008892100087A
:1020500089210008892100088921000889210008B8
:1020600000000000653400087D3400088921000864
:10207000892100085D4B000889210008000000004C
:10208000994B00080000000000000000214B0008F0
:1020900089210008254B00088921000889210008B2
:1020A000892100088921000889210008BD51000804
:1020B0008921000800F002F800F03EF80CA030C8BA
:1020C000083824182D18A246671EAB4654465D46B4
:1020D000AC4201D100F030F87E460F3E0FCCB64640
:1020E0000126334200D0FB1AA246AB4633431847C1
:1020F000704B0000904B0000103A02D378C878C1B2
:10210000FAD8520701D330C830C101D504680C6039
:10211000704700000023002400250026103A01D358
:1021200078C1FBD8520700D330C100D50B6070478F
:102130001FB51FBD10B510BD00F0CAFD1146FFF759
:10214000F7FF03F0E5FA00F0E2FD03B4FFF7F2FF5A
:1021500003BC00F017FE00000F4880F308880F480A
:102160000168090E0E4A914205D10E480E490160E0
:102170000E480F4901600F4880470F480047FEE7AF
:10218000FEE7FEE7FEE7FEE7FEE700000B480C492E
:102190000C4A0D4B70470000900B0020040000001B
:1021A0001F00000018100240010000000000014064
:1021B00000000000ED490008B5200008900500204F
:1021C000900B002090070020900700200FB41CB552
:1021D000074B06AA7B4469460090059800F0E3FC93
:1021E0000020694600F0F2FC1CBC08BC04B0184793
:1021F000F5090000002203098B422CD3030A8B420D
:1022000011D300239C464EE003460B433CD40022EE
:1022100043088B4231D303098B421CD3030A8B4200
:1022200001D394463FE0C3098B4201D3CB01C01ACE
:10223000524183098B4201D38B01C01A5241430999
:102240008B4201D34B01C01A524103098B4201D387
:102250000B01C01A5241C3088B4201D3CB00C01AF4
:10226000524183088B4201D38B00C01A524143086C
:102270008B4201D34B00C01A5241411A00D2014691
:102280005241104670475DE0CA0F00D0494203102A
:1022900000D34042534000229C4603098B422DD379
:1022A000030A8B4212D3FC22890112BA030A8B4221
:1022B0000CD3890192118B4208D3890192118B4270
:1022C00004D389013AD0921100E08909C3098B42F5
:1022D00001D3CB01C01A524183098B4201D38B0138
:1022E000C01A524143098B4201D34B01C01A5241DB
:1022F00003098B4201D30B01C01A5241C3088B4220
:1023000001D3CB00C01A524183088B4201D38B000A
:10231000C01A5241D9D243088B4201D34B00C01A94
:102320005241411A00D20146634652415B101046A9
:1023300001D34042002B00D54942704763465B10F1
:1023400000D3404201B50020C046C04602BD7047E0
:1023500070477047F0B5F94D0C091E092C402E400E
:102360002F468BB0A7437DD0B543FCD0002E7AD04A
:10237000002CFCD00D465D40ED0F2543AC1BFF2526
:10238000AD0464190894C502440DC9022143500DDF
:10239000DC0204430120C00701430443D20201913F
:1023A000200C110C00958C46010423468B430A91A6
:1023B00061460904E24D8A430991010A7D444919A5
:1023C0008039097805464D4301266D18F605751BC1
:1023D0006943C90C640B891C4C436418B5012C1B60
:1023E000250C2E04B4434C434D43210C6918890934
:1023F0000591009DE90701D00121C90704912C46F0
:1024000001996708CD072F434C08059DE10B4D430B
:102410002D0C29466646754302950D4645432E46CA
:10242000029D7D1BB44100950D465D4301942C0C2B
:102430002F040D465543AE462D0C3D4302950394A3
:102440007546049C2D04641B049406D2029C039DD3
:10245000641C002675410395029401AC70CC009F6A
:102460007D1B01E03EE162E1B44109040095079162
:1024700001940599A4086143090C0C464443650B7B
:10248000E7040C4666467443A646640B3C4303953A
:1024900002947446049DE4042C1B049406D2029C0E
:1024A000039D641C002675410395029401AC70CC19
:1024B000009F7D1BB44101940C465C430095650F61
:1024C000E7000C465443A646640F3C430395029430
:1024D0007446049DE4002C1B049406D2029C039DC8
:1024E000641C002675410395029401AC70CC009FDA
:1024F0007D1BB441AE09AF06049DC900AD092F4351
:10250000049DA406AD060495079D34436918079100
:10251000059DE10B4D432D0C2946664675430295FA
:102520000D4645432E46029D7D1BB44100950D4648
:102530005D4301942C0C2F040D465543AE462D0CE3
:102540003D43029503947546049C2D04641B04943A
:1025500006D2029C039D641C0026754103950294DB
:1025600001AC70CC009F7D1BB44101948C05069496
:10257000079C890A611800950791019C0599A40898
:102580006143090C0D464543680BEF040D46644654
:1025900065436C0B3C43049FED047D1BAC4602D2AB
:1025A0000025641C6841009E019D371B854108463B
:1025B000584301950C46460FC5005443600F28430D
:1025C0006546E4002C1B02D20025401C6E41019D93
:1025D0003F1AB5412846BD09800628438446A00914
:1025E000BF064E020699A40676180743079D0020F1
:1025F00068410A99079019430020099B00906046A2
:10260000FF1913434041E20F64003A43A4460446D5
:10261000D71A8C41A04203D90120009020463A46A7
:10262000C70F941840416246D20F224364466400AB
:102630000494009CBE466400D71AA4460446029740
:102640008C417746002F01D1A04204D96046401C3E
:102650008446029A2046C40FA64694184041049A24
:102660000546D20F224364466400D31A8D41714659
:10267000002901D1A84202D928461A46641C1043F9
:102680000122002800D0164361020020079B89190F
:1026900004465C410223002C02DB491813466441C6
:1026A000089DCE0A2D145D194B056705E10A2C051E
:1026B0000D1908993E43C9076940002B08D0934083
:1026C00006D30022761C5141002B01D176087600FA
:1026D0001C4A002D43DB154241D0AA433FD030466F
:1026E0000BB0F0BD06180D464D41174C7642AC417B
:1026F0001AD395181C465C41134A6D42A24113D36C
:10270000012252054C00D4420AD15C00D4420BD0C5
:102710004B4002D592021143E2E749004908DFE746
:102720005940C90FC90718E000200849D8E70548F3
:1027300001420DD10342F7D0F2E700000000FF078D
:10274000204800000000F07F0000E0FF0000F87F5C
:10275000114859400143C01241400020C0E7012305
:10276000089A9B069A4205DC032252078918C90F72
:10277000C907B5E7052252078918074A1143D21243
:102780005140ADE770B515461C4602460B4628463B
:102790002146FFF7DFFD70BDFFFFFF7F30B5034629
:1027A000CA02400D1043164D164C0A1502D02043A4
:1027B000002A06DBAA1A002A12DDD040FF2A0BDC11
:1027C00030BD5205520D01D140004008AA1A07D46D
:1027D000D0404042FF2A01DD002030BD0028FCDD52
:1027E0004A00002B01D0012000E000201018012237
:1027F0005205D042F0D8C817C043604030BD000039
:102800001E040000000000800346CA02400D10B5FF
:1028100010430A1504D00124E4072043002A05DBF5
:102820000A4CA21A04D4D040FF2A00DD002010BDBB
:102830004A00002B01D0012000E0002010180122E6
:102840005205D042F2D8C817C04310BD1E04000084
:102850001F22030C02D10F22000402D0030E03D06A
:1028600004E00020014670470002083A030F01D13E
:102870000001121F830F01D18000921E002801DB8E
:102880004000521E120551184205C0124118104650
:102890007047C10FC90700D040420122920711437F
:1028A000D6E701218907D3E7F0B58B4C0F09254600
:1028B00089B0BD437BD01D092646AE43FAD00E46F3
:1028C0005E402740F60F3E43254071D0240121424F
:1028D000FBD0FF24AD19A4042D1B039501252D0564
:1028E000DB02DB0AC9022B43C90A29431E01090185
:1028F000040F130F050121431701880B8203914335
:102900002D098C46A90B1E438A039543B30B9A03EA
:1029100096433F09BA0B9403A74302962E467E4383
:102920000497B6464E19D7190C460196544305979D
:102930007E43371B7646BF1B3601B646BE0B3619A3
:1029400000967646BC043719009C01D3641C0094A1
:102950006400002F01D001263443029E049F75437A
:1029600066467E430496760034196E00341900944E
:10297000029C019E1C196643751BAE460694654673
:102980004519059C05956C43594375460891691A8C
:102990000191049E01465143A41B0491611A009CBD
:1029A0000791E10605D061090122114302E072E0BE
:1029B0006EE06109089D00272C0A2D066918049D08
:1029C0007C412A0A2D066918019D6241AC0DAD02B9
:1029D0006D185441079A910D920255196141029A5E
:1029E000644658435443069B059A5A43121A131BD4
:1029F0009A0E9B015B187A41010B0005C3185141E7
:102A0000220A200644195A419A4200D2491C012048
:102A10004002814203D315230226F64302E0142329
:102A20000326F6432020C51AA9401746AF40DA40D6
:102A30000A4320460399D840091473181905511800
:102A4000039A3843D2075140AC4009D00122944048
:102A500006D30022401C5141002C01D14008400007
:102A60001E4A934212D3012203989206904207DB3A
:102A70000520400709181A480143C012414004E0EC
:102A8000032040070818C10FC907002009B0F0BD96
:102A90000020F107FAE705180C464C4111486D4239
:102AA000A04115D394181A465A410E4864429041E9
:102AB0000ED301204A004005824209D35A008242C7
:102AC00006D35940C90F084AC90700201143DDE762
:102AD00000200649DAE700000000FF07FE070000BB
:102AE000FFFFFF7F0000E0FF0000F07F0000F87FA5
:102AF00010B501469E240002CA15A307002A02D081
:102B00001843002A04DBA21A002A0CDDD04010BDB5
:102B10001206120E01D140004008A21A03D4D04080
:102B200040420028F3DDFF2248001206904201D9FE
:102B3000002010BDC817C043584010BD1F22030C11
:102B400002D10F2200041CD0030E01D10002083A6A
:102B5000030F01D10001121F830F01D18000921ECB
:102B6000002801DB4000521ED205511802125118F4
:102B70001922904004D3491C002801D1490849007A
:102B800008467047C10FC90700D040420122920792
:102B90001143D3E701218907D0E7000001694A1CEE
:102BA00002610878704700B58FB00291002105914D
:102BB000054901937944039111460490684600F059
:102BC00053F80FB000BD0000E5FFFFFF0A6810706A
:102BD000521C0A6070470000F8B5224C4E00069D5A
:102BE000A6420AD8A64201D1002806D15E00A6421C
:102BF00003D8A6420AD1002A08D00D242404254275
:102C00002CD02946002000F041F8F8BD0C461C43AA
:102C10000CD4994202D0EFF30080F8BD904202D06C
:102C2000EFF30080F8BDEFF30080F8BD092424071E
:102C3000E5008B4206D0EFF30080A043591A06D27C
:102C4000284304E0101A05D3EFF30080A04380F37B
:102C50000088F8BDEFF30080A043F1E7009500F095
:102C60002DF8F8BD0000E0FFF8B5064600244768DF
:102C7000806800903046F56803E00099B847641C0E
:102C80003046A8470028F8D12046F8BDC80212D522
:102C90004803400F002804D0C803C04301218840E6
:102CA0007047EFF300800001000903210907084382
:102CB00080F30088704700207047000010B50020A6
:102CC0000249029A00F02BF810BD00000000F87FC6
:102CD000754600F053F8AE46050069465346C008F5
:102CE000C000854618B020B5FFF750FA60BC002739
:102CF0004908B6460026C0C5C0C5C0C5C0C5C0C5C8
:102D0000C0C5C0C5C0C5403D49008D46704710B51F
:102D10000446C046C0462046FFF717FA10BD10B55E
:102D20000C461107090F092904D00A290AD00829DD
:102D30000CD104E011460820FFF7A8FF06E0510679
:102D400006D501E0510601D50120C007214610BD7E
:102D5000D10607D501010909CC084907000E000674
:102D6000044309E0410F20024907000A0143200EF5
:102D700000061D22D14101430846E7E7004870479D
:102D80003005002001491820ABBEFEE726000200F6
:102D90007047002904D0C26801231A43C26003E0CF
:102DA000C26852085200C2607047C26802239A4348
:102DB000C260C2680A43C2607047000010B5044692
:102DC0000548844207D10121401501F097FB0021FD
:102DD000601501F093FB10BD0024014030B50146A1
:102DE0000020002200238C680125ED072C438C6015
:102DF00000BF8C68E30FDB07521C0F242403A242A0
:102E000001D0002BF5D18C68E40FE407002C01D130
:102E1000086C00E0002030BD30B5024600200023E1
:102E2000012424060C40002C05D0946801252D06B1
:102E3000AC43234600E013681C460C40002C01D034
:102E4000012000E0002030BD10B50022C268084B10
:102E50001A400C7964030B6823438C682343CC68C5
:102E600023430C6923434C6923431A43C26010BDBA
:102E700003D2FFFF00B595B00121480401F00EFB1D
:102E80002F201390032110A801740021C17413A9ED
:102E90000920C00600F0B2FE2D20800101F0BAFC2E
:102EA0000121480201F01AFB3B48FFF787FF002091
:102EB0000D90002108A801760120C0020F9040204B
:102EC00010900020119012900DA93348FFF7BCFF1D
:102ED0000120314948612F2088620846FFF77EFFB4
:102EE00002212D48FFF761FF01212B48FFF751FF19
:102EF00029488068012108432749886000BF0121D3
:102F00002548FFF789FF0028F9D02348806804216D
:102F10000843214988600121084601F0BFFA1F4893
:102F200000F0D6FA1C4840300290002004901C4863
:102F30000390052005900020069080200790400017
:102F400008908000099020200A9000020B90002039
:102F50000C9002A9114800F091FB002202210F48B9
:102F600000F082FB01210D4800F0A4FA00F01AF8ED
:102F7000022000F08FFA01220221084800F074FBC1
:102F8000092168460171022141710121817101A865
:102F900001F07CF915B000BD00240140080002409A
:102FA000E00000203EB500200090019002905749BB
:102FB0004880088000242EE000BF022000F03AFB89
:102FC0000028FAD0022000F065FA684600884F49D0
:102FD0008988401881B26846018041884B48C08882
:102FE000081881B2684641808188484800890818DD
:102FF00081B268468180C18844484089081881B2FE
:103000006846C180018941488089081881B26846B4
:103010000181601CC4B2102CCEDB6846008801110F
:103020006846018000883949088009880846FF38C9
:103030004338002801DB014600E04142502904DB0F
:103040000420334908700A2008736846408801113B
:103050006846418040882D49488049880846FF38A5
:103060004338002801DB014600E04142502904DBDF
:103070000420274908700A200873684680880111D7
:1030800068468180808801B221484030018000215B
:10309000415E2048814205DD04201D49087005205D
:1030A00008730BE01A4840300021415E1A48814203
:1030B00004DA042016490870062008736846C088A0
:1030C00001116846C180C08801B21148C030018733
:1030D0003821415E1148814204DA04200C4908700D
:1030E000082008736846008901116846018100893B
:1030F00001B20B4881821421415E0848814204DA02
:10310000042003490870082008733EBDDC0000203D
:10311000D8030020F507000083060000030A000022
:10312000D804002000B589B001210320400401F03B
:10313000B5F9012207210920C00600F0A7FD0122F0
:1031400006210920C00600F0A1FDC0200790022141
:1031500008A801700321417000218170C17007A986
:103160000920C00600F04AFD012200213E4800F07F
:103170008DFD01200790022108A8017003214170F4
:1031800000218170C17007A9374800F037FD012187
:10319000022001F093F92F2168460182002141822B
:1031A0003248059068460183817604A9304801F0D1
:1031B000FFFE0021684681800A21C1800121018132
:1031C000002141810421818101A9294801F02EFDBE
:1031D00004216846818001A9254801F027FD0821C6
:1031E0006846818001A9224801F020FD102168462F
:1031F0000170002141700121817001F047F8012226
:103200000F211B4801F04AFD0121194801F0DCFCA7
:103210000121480401F062F92F2168460182002152
:1032200041821248059068460183817604A91148BD
:1032300001F0BEFE00200F49088208468089022165
:1032400008430C49888115216846017001214170AD
:10325000817001F01BF807480088012108430549E7
:10326000088009B000BD000000040048FFFF000016
:10327000000400400044014010B55848407A030063
:1032800002F0FCF906A9040C3E5E81A95348007FB8
:10329000002802D10120514908779CE04F48007F67
:1032A000002818D101204D49087702204C49887325
:1032B000E12080000882494CA37F0C46228A218AA3
:1032C000208A00F0ABFA4549887F03F031F90A20E3
:1032D00001F0A6FA13E000F013FD01280FD1002041
:1032E0003F490882012000033E4908803E483D498D
:1032F000203948638863C8630320384948726AE00C
:1033000001F030FA394908700846007848703348AF
:10331000C07AC0003649401834490978405C2F49CA
:103320008877487733492D488030016110304160FB
:103330008160C160016141610420284948724AE00E
:1033400000F0DCFF0120264988739620088223497B
:10335000887F03F0EDF800202449088188831F4905
:1033600008772249488100211C48803081868030BE
:1033700001831A48C08C1949486105204872012010
:1033800001F04EFA27E000F0BBFC012822D101F049
:1033900047FA1948008BFF21F531884205DA1648B3
:1033A000008B401C81B214480183104CA3696269F0
:1033B0000A4C6169606801F04BFA21464861084691
:1033C00040690969884203DD204600692146486159
:1033D00001F054FA00BF00BF10BD0000D803002068
:1033E000DC000020202C0140B80B0000F404002079
:1033F000D06B000890D00300D804002000200849BA
:103400000882012000030749088007480549203940
:1034100048638863C863002004494872704700000D
:10342000DC000020202C0140B80B0000D803002055
:1034300070B502460C4609480AE0011205062B0C3D
:1034400015784D406D00064E755B5D402846521C58
:103450002546661EB4B2002DEFD170BDFFFF0000FF
:10346000D069000810B5022000F0E4F8012804D16A
:10347000022000F00FF800F0C1FE10BD10B50120D1
:10348000400200F0D7F8012802D1400200F002F813
:1034900010BD0000012109070140002902D00349A5
:1034A000486001E0024948607047000000040240A3
:1034B00000000240002904D0026801231A43026080
:1034C00003E00268014B1A4002607047FEFF0000F3
:1034D0000168554A1140016000210160416081602E
:1034E000C1605249884208D15049083949680F22C1
:1034F00011434E4A083A516094E04C4914318842D5
:1035000008D14A4908394968F0221143474A083A24
:10351000516087E045492831884209D1434908393B
:1035200049680F2212021143404A083A516079E07B
:103530003E493C31884209D13C49083949680F224B
:1035400012031143394A083A51606BE03749503150
:10355000884209D13549083949680F2212041143BC
:10356000324A083A51605DE030496431884209D1FD
:103570002E49083949680F22120511432B4A083A8F
:1035800051604FE029497831884209D127490839EB
:1035900049680F2212061143244A083A516041E05B
:1035A0002349884208D12249083949680F2211432A
:1035B0001F4A083A516035E01D491431884208D14C
:1035C0001B4908394968F0221143194A083A5160E9
:1035D00028E017492831884209D115490839496836
:1035E0000F2212021143124A083A51601AE01049A0
:1035F0003C31884209D10E49083949680F2212032B
:1036000011430B4A083A51600CE009495031884295
:1036100008D10749083949680F2212041143044AA6
:10362000083A516070470000FEFF000008000240A9
:103630000804024001460020002201231B070B4022
:10364000002B02D0064B1A6801E0064B1A6813469D
:103650000B40002B01D0012000E00020704700004B
:103660000004024000000240002A03D003680B431C
:10367000036002E003688B430360704710B50022CB
:1036800002680D4B1A400C6A8B6823430C69234374
:103690004C6923438C692343CC6923434C6A2343FD
:1036A0008C6A23431A430260CB6843600B688360D3
:1036B0004B68C36010BD00000F80FFFF10B51D48B0
:1036C000807A012803D01B48807A022830D119481B
:1036D000407A05282CD11848008900281ADD1648A0
:1036E0000089401E80B214490881002803DD134878
:1036F0001349486303E01048C0881149486300201B
:103700000F494862088208460088012108430C4995
:1037100008800DE00748C07A06214843094940184F
:103720000449897F405C03498877887F02F000FF65
:1037300010BD0000D8030020F4040020FFFF0000AB
:10374000004401401405002000B53148807A030090
:1037500001F094FF050408090D1116000A202D49F7
:10376000C8700DE000BF01202A49C87008E00A2097
:103770002849C87004E02648007B2649C87000BF6D
:1037800000BF2448C078002804D10120C00222498B
:1037900088613BE01F48C0780A2805D10120C0029B
:1037A0001D492031088131E01A480088401C194920
:1037B000088008460088282805DA0120C00216493A
:1037C0002031088122E013480088FF21B931884266
:1037D00004DA0120C0021049886117E00D488178A1
:1037E000C078401E814207DA0A488078401C0949A7
:1037F00088700020088009E0064800882D214901D2
:10380000884203DB002003490880887000BD000067
:10381000D8030020200500200004004830B51C46D5
:10382000264B9B7B002B03D0244B9B7B012B3AD157
:10383000230001F023FF06040C151E262E3700235B
:103840001F4DAB631F4BEB631B1A6B632AE01D4BD1
:103850001B4DAB630023EB631A4B1B1A6B6321E018
:10386000184B174D6B630023EB63164B5B1AAB636E
:1038700018E00023124D6B63124BEB635B1AAB63D2
:1038800010E000230E4D6B630E4BAB639B1AEB6392
:1038900008E00C4B0A4D6B630023AB63094B9B1A8A
:1038A000EB6300BF09E0074B1B1A054D6B63054B2B
:1038B0005B1AAB63034B9B1AEB6330BDDC0000204B
:1038C000002C0140B80B00007FB504460D4616469B
:1038D0000094019502960D48C06B03900C4800F0CF
:1038E0005BF80A483030009900F0A2F807483430FD
:1038F000019900F09DF805483830029900F098F8D9
:1039000002483C30039900F093F87FBDC0FF0008E7
:1039100000FC00081FB504461048006B00900F48DB
:10392000406B01900D48806B029003940C4800F0AE
:1039300033F80A483030009900F07AF807483430FC
:10394000019900F075F805483830029900F070F8D8
:1039500002483C30039900F06BF81FBDC0FF00081F
:1039600000FC00080149C8607047000000200240C8
:1039700070B505460E462C4609E0204600F00CF8CE
:10398000042802D10002241801E0012070BDB442D5
:10399000F3D90020FAE7000030B5044604250B20D7
:1039A000000400F08DF80546042D17D10C4800697D
:1039B000022108430A490861084644610069402120
:1039C0000843074908610B20000400F079F8054618
:1039D000034800690221884301490861284630BD37
:1039E0000020024004200D49C968C907C90F0029F9
:1039F00001D0012010E00949C968102211400029B6
:103A000001D0022008E00549C968042211400029BC
:103A100001D0032000E00420704700000020024095
:103A200010B500F03BF83520FFF79CFF10BD0000FB
:103A300078B506460C460425002000900B200004B3
:103A400000F03EF80546042D24D1134800690121F9
:103A500008431149086134800B20000400F030F85D
:103A60000546042D10D1B01C0090200C0099088050
:103A70000B20000400F024F80546074800694008C0
:103A800040000549086105E003480069400840001E
:103A900001490861284678BD0020024005480069B8
:103AA00080210840002804D00348024948600348A8
:103AB000486070470020024023016745AB89EFCD85
:103AC00010B503460424FFF78DFF044603E0FFF71B
:103AD00089FF04465B1E012C01D1002BF7D1002B7E
:103AE00000D10524204610BDFFB583B00D46174612
:103AF00000244148806A401E0699884259D13E48B8
:103B0000406A8608002E20D01DE00698784303996D
:103B1000401800190290295D601C285C00020918F9
:103B2000A01C285C00040918E01C285C000608188A
:103B3000019001990298FFF77BFF042802D0012031
:103B400007B0F0BD241DB442DFD32B48406A061BEA
:103B5000002E4ED006987843039940180019029021
:103B6000012E04D1285DFF380138019019E0022EA2
:103B700008D1285DF103411A601C285C0002081876
:103B800001900EE0032E0CD1285DFF21090641189B
:103B9000601C285C00020918A01C285C000408189E
:103BA000019001990298FFF743FF042821D00120DA
:103BB000C6E71CE006987843039940180019029064
:103BC000295D601C285C00020918A01C285C000408
:103BD0000918E01C285C0006081801900199029859
:103BE000FFF726FF042801D00120A9E7241DBC42CD
:103BF000E0D30020A4E70000F0020020F0B50A4660
:103C000000210023002400BF3DE001258D402B460C
:103C100015681D402C469C4234D11579012D02D0E7
:103C20001579022D16D185684F000326BE40B54395
:103C3000856055794E00B540866835438560858836
:103C400001268E40B5438580858896798E40B6B230
:103C50003543858005684F000326BE40B5430560A7
:103C600015794E00B540066835430560C5684F00BC
:103C70000326BE40B543C560D5794E00B540C66841
:103C80003543C560491C1029BFD3F0BDF0B50023F2
:103C900000244D07EE0E1546B5402B46CD10AE0064
:103CA00005462035AD594E07F70E0F26BE40B543E9
:103CB000CE10B60007462037BD51CD10AE003D46B0
:103CC000AD591D432C46CD10AD003E467451F0BD9C
:103CD00002460020938A0B40002B01D0012000E017
:103CE0000020704701857047816170470348008854
:103CF000002801D1012070470020FCE7D6000020F9
:103D000003480088002801D1012070470020FCE70B
:103D1000D000002003480088002801D1012070470E
:103D20000020FCE7D800002003480088002801D1CB
:103D3000012070470020FCE7D400002003480088E1
:103D4000002801D1012070470020FCE7D2000020AC
:103D500070B59548008A0E21084000287DD000F0FB
:103D600001FD924908700846407809788842F5D0EC
:103D70008E4800788D4948708B4800888C490840EF
:103D8000894908800846008A02210840002803D09B
:103D90008548406B854908828348008A0421084091
:103DA000002803D08048806B804908827E48008AC2
:103DB00008210840002803D07B48C06B7B4908825B
:103DC0007A48808900047949098A4018C01C7949D9
:103DD000886200207549C8608883734948620882F8
:103DE00008460088012108436F4908807148103057
:103DF000416810380161103081684160C16881609C
:103E00000169C160416901611038816A1030416106
:103E10009038C07AC0006849401864490978405C0D
:103E20006449803988770846807A012803D008469B
:103E3000807A022811D15F488038407A0528F9D16C
:103E40005C498039887F02F073FB58494889FEF746
:103E500028FD04460022594B00E092E002F0A8FB46
:103E600062D252484089401C5049488151488038AC
:103E7000407F052807D14F488038807F002802D135
:103E8000012088703CE04B488038407F002808D1F2
:103E900048488038807F052803D104204349887032
:103EA0002EE044488038807F42498039497F8842EB
:103EB0000FDD40488038807F052803DB00203B4928
:103EC00088701DE03B488038807F401C37498870EF
:103ED00016E038488038807F36498039497F8842EB
:103EE0000EDA34488038807F002803DC05202F4913
:103EF000887005E02F488038807F401E2B498870ED
:103F00002A4881782B488038C07A062250432C4AB0
:103F10008018284A803A927F815426488038807FD2
:103F20002449803948772CE0224910318A68C968D1
:103F3000521820491031096952181E491031496937
:103F400050188108302251438809010C174A118109
:103F5000D08011460989002904DD1549491C194AF8
:103F6000516303E01149C988164A51630021154A7B
:103F7000516211821146098801221143114A1180B0
:103F800000BF0948008AC007C00F00280AD00120DE
:103F9000C043054908820548C068401C0349C86001
:103FA00001F0BCFC70BD000000040040F4040020DF
:103FB000FEFF000058040020D06B000800005E40A7
:103FC000140500200044014000BFFEE710B513486F
:103FD000C08812494988884208DD1048C0880F49C6
:103FE0004988401A01B20E48818502E000210C4840
:103FF00081850B482C21415E2E22825E881841105B
:104000000748C18502462E21515E403A106F743236
:1040100000F034F802494031C86010BDDC000020D7
:104020001804002010B51348808812490988884276
:1040300008DD104880880F490988401A01B20E48EF
:10404000C18002E000210C48C1800B480621415E7E
:104050000822825E88184110074801810246082123
:10406000515E403AD06C503200F008F802494039B5
:10407000886610BDDC00002018040020F0B587B071
:1040800006460F461446F51B2846FEF77BFD0390B7
:10409000616802F039FB0590A168681AFEF772FDAD
:1040A0000190216802F030FB03906069FEF76AFD21
:1040B0000290039902F0E2FA0490059902F0DEFA08
:1040C0000690FEF715FD6061A560E16860698842B1
:1040D00002DDE068606105E021696069884201DA1B
:1040E00020696061606907B0F0BD10B503465C1AD5
:1040F000204650438013401800B210BD10B53E4812
:10410000807A030001F0BAFA05041F395768760077
:1041100039480078012804D002280BD0032810D198
:1041200009E03548007A3449C872032048720120FA
:10413000887206E005E0FFF761F903202E498872D6
:1041400000BF00BF56E0FFF797F82B480078012822
:1041500004D0032803D004280DD106E00BE0FFF7BC
:104160004DF903202449887205E0FFF747F9042040
:104170002149887200BF00BF3CE01F480078012839
:1041800004D002280AD0032813D108E0FFF7AEFDBF
:10419000012802D10020184988720AE009E0FFF7DF
:1041A000A5FD012804D1FFF729F9032012498872DF
:1041B00000BF00BF1EE010480078012804D002288C
:1041C00006D0032806D104E000200B49887201E0E4
:1041D00000E000BF00BF0DE007480078012804D0D0
:1041E000022803D0032803D101E001E000E000BF72
:1041F00000BF00BF00BF10BDD803002010B520488D
:10420000807A030001F03AFA0504050637383900D0
:1042100033E000BFFFF706FFFFF7D8FE18488030F5
:10422000C0681749896E884203DA15488030C06833
:1042300001E01348806E134908820846018A10483D
:104240008030406D814202DA0E48008A02E00C485C
:104250008030406D0B4908820948807A012807D1D7
:10426000074CA37F0C46228A218A208AFFF7D6FAC0
:1042700000F0E2F801E000E000BF00BF10BD000068
:10428000D8030020DC000020704700000021827865
:10429000002A27D0184A03231B02D21803789B1048
:1042A0009B00D15802789207D30EFF229A400B460A
:1042B0009343194642789207120E03789B07DB0E50
:1042C0009A4011430C4A03231B02D21803789B1017
:1042D0009B00D1500278D306DB0E01229A40064B98
:1042E0001A6007E00278D306DB0E01229A40024BE7
:1042F00080331A607047000000E100E0002123488D
:10430000816023493C38C16322493C3041602249E5
:10431000C16028210161BC38C18CBC304161BC380E
:10432000C18C803041651D481849BC39C8640021E2
:104330001648BC3881651A481449BC3908651549C6
:104340001248BC38416515496031C16500210166DC
:104350001249603141667920C0000C49BC390867B8
:1043600000210A48BC38C1670D480849BC39486774
:1043700008490648BC388167084960317430C1601B
:1043800000210161054960314161704794040020BA
:10439000CDCCCC3D8FC2F53C204E0000580B000028
:1043A0009A99993EFFB581B014461F465A211F487D
:1043B0000172A5201D490831487001988870029843
:1043C000C8700846047120124871002507E039784A
:1043D000A81D164A083211547F1C681CC5B2A5429C
:1043E000F5DBA11D11480830FFF722F806460F4AF9
:1043F0000832A01D16543112E01D115400250EE0A4
:1044000000BF40210A4800F03DFF0028F9D00748CE
:104410000830415D064801F008F8681CC5B2204626
:1044200008308542ECDB05B0F0BD000070030020D1
:1044300000380140704700007FB51348446A1348B4
:1044400080890004041912484069A0421AD2104819
:104450004461062161430846FEF723FA054600221F
:104460000C4BFEF721FA02460B460191009000200A
:104470000949FDF76FFF03910290FEF78FF9044998
:104480001039C8627FBD000000040040F404002021
:104490006804002000001040389C8C41002905D0A1
:1044A000054A52690243044B5A6104E0024A5269C8
:1044B0008243014B5A61704700100240002905D029
:1044C000054AD2690243044BDA6104E0024AD26928
:1044D0008243014BDA61704700100240002905D089
:1044E000054A92690243044B9A6104E0024A9269C8
:1044F0008243014B9A61704700100240002905D0A9
:10450000054AD2680243044BDA6004E0024AD268EA
:104510008243014BDA60704700100240FEB504464A
:104520000025002600200290019000900027864878
:1045300040680C2108400546002D06D0042D07D008
:10454000082D08D00C2D2CD128E0804820602BE0CD
:104550007E48206028E07C4840680F21890408409C
:104560000646794840680321C90308400290B00C10
:10457000861C0298002803D17548374647430BE054
:104580007148C06A0007000F401C01906F480199F4
:10459000FDF730FE70430746276005E06D48206058
:1045A00002E06A48206000BF00BF67484068F02111
:1045B000084005462D096848405D00902068009934
:1045C000C84060606048406807210902084005460D
:1045D0002D0A6148405D009061680098C140A1606B
:1045E0005948006BFF2101310840884202D05B48E6
:1045F000E0600DE05448406801218903084088428A
:1046000003D0A0684008E06002E0A0688008E06095
:104610004D48006B40210840402802D0504820619E
:1046200002E00120C00320614748006B10210840D0
:10463000102802D04548606101E02068606142486E
:10464000006B8007800F002802D1A068A06119E0EC
:104650003D48006B8007800F012802D12068A061CF
:1046600010E03948006B8007800F022802D18003D8
:10467000A06107E03448006B8007800F032801D158
:104680003248A0613048006B03210904084000282B
:1046900002D1A068E06120E02B48006B03210904EF
:1046A000084001210904884202D12068E06114E039
:1046B0002548006B03210904084001214904884270
:1046C00002D18010E06108E01F48006B032109045B
:1046D0000840884201D11D48E0611B48006B03215E
:1046E00089040840002802D1A068206220E0164812
:1046F000006B03218904084001218904884202D10A
:104700002068206214E01048006B032189040840EF
:104710000121C904884202D10011206208E00A4840
:10472000006B032189040840884201D107482062B8
:104730000548006B80210840802802D0054860624F
:1047400000E06762FEBD00000010024000127A0027
:1047500000093D00006CDC02C0000020809FD500F5
:104760001280000000200921C906098A4022114058
:10477000002901D0042108430921C906098A8022A1
:104780001140002901D0022108430449098AC907C0
:10479000C90F002901D001210843704700040048D7
:1047A00010B51048046B601C00280ED10E480F494C
:1047B000086107200E49486188610B469A6959696A
:1047C0000A4B1869FFF780F80AE00648006B0749B2
:1047D00008610448406B064948610248806B886163
:1047E00010BD0000C0FF0008DC050000D803002059
:1047F000F40400207047000001460020044A1068BD
:104800008008800002460A431046014A1060704743
:10481000000001400149086070470000402C014041
:104820000149088070470000D0000020014908803D
:1048300070470000D8000020014908807047000040
:10484000D40000200149088070470000D2000020F9
:1048500010B504468C4206DD8818A04201DB2046D4
:1048600010BD8818FCE78C4206DAC81AA04201DCA9
:104870002046F5E7C81AF3E72046F1E7FEB52248DF
:1048800001691030406809181F4810308068091805
:104890001D481030C06809181B48103000690918FD
:1048A000194810304069081802900298FDF7F9FF86
:1048B00004460022154BFDF7F7FF02460B46019117
:1048C000009000201249FDF745FD0646FDF766FF02
:1048D0000D49C8620846016BC06A081841100A48B1
:1048E0000163808E401C81B2074881860A290ADB59
:1048F000002181860246116B803A5069BC32FFF775
:10490000BDFB01494865FEBD580400200000104071
:10491000389C8C41042806D10649096904221143B8
:10492000044A116105E00349096904229143014ADF
:104930001161704700E000E010B500F01FF80E486C
:10494000C088002804DD0C48C088401E0A49C88081
:1049500009488088002804DD07488088401E0649F1
:10496000888005484088002804DD03484088401EB0
:104970000149488010BD0000F00000201648008862
:10498000002804D014480088401E134908801348AA
:104990000088002804D011480088401E0F49088074
:1049A0000F480088002804D00D480088401E0C499C
:1049B00008800C480088002804D00A480088401E5F
:1049C0000849088008480088002804D00648008864
:1049D000401E054908807047D0000020D20000200A
:1049E000D4000020D6000020D8000020704700002E
:1049F0000349088000BF024909880029FBD170479C
:104A0000D0000020F0B50C4600210025068C0A4F8E
:104A10003E400684018B058C074EF23E31401E0558
:104A2000360C16433143044E093E354001262643D9
:104A3000354301830584F0BDFEFF0000F8B50C4648
:104A40000021002500260096068C0D4F3E4006846E
:104A5000018B058C2605360C00960A4E31401E0748
:104A6000360C31431606360C3143054E903E354028
:104A70001027009E3E43354301830584F8BD0000A6
:104A8000EFFF0000FF0C0000F8B50C4600210025E8
:104A900000260096068C0C4F3E400684818B058CC8
:104AA0002606360C0096084E0D3631401E05360C93
:104AB00016433143054E3540FF270137009E3E43E4
:104AC000354381830584F8BDFFFE0000FFF500003B
:104AD000F8B50C460021002500260096068C0D4FE7
:104AE0003E400684818B058C2607360C00960A4EC4
:104AF00031401606360C31431E07360C3143074E43
:104B0000354001273F03009E3E43354381830584A2
:104B1000F8BD0000FFEF0000FF0C0000FF5F000089
:104B20007047000010B50B48008A02210840002899
:104B30000BD0481F074908820846008806490840EC
:104B400004490880FEF7BAFD02E00020014908820E
:104B500010BD000000440140FEFF000010B58021A0
:104B60000B4800F050F8012807D18021084800F0D8
:104B700027F804200749087008730121044800F051
:104B800042F8012803D10121014800F019F810BDB5
:104B9000002C0140D803002010B5FFF7D9F810BD54
:104BA0000A884B881A438B881A43CB881A430B898F
:104BB0001A434B891A438B891A4344231A5270476C
:104BC000CA43028270470000002904D002880123F2
:104BD0001A43028003E00288014B1A4002807047AA
:104BE000FEFF0000002907D04422125A0123DB03F4
:104BF0001A4344231A5205E04422125A53045B0C10
:104C000044221352704730B502460020002300248E
:104C1000158A0D402B4695890D402C46002B03D05C
:104C2000002C01D0012000E0002030BD70B5054609
:104C30000C46208800280AD12389A288618828464A
:104C4000FFF7E0FEE188284600F086F925E020889D
:104C500004280AD12389A28861882846FFF7EEFE3E
:104C6000E188284600F082F917E0208808280AD158
:104C70002389A28861882846FFF706FFE188284635
:104C800000F080F909E02389A28861882846FFF7AF
:104C90001FFFE188284600F07FF970BD002A03D08D
:104CA00083890B43838102E083898B43838170472F
:104CB00070B5002400220023058C1C4E354005846D
:104CC000028C8388048B194D6F3D2C40B51E2C40FF
:104CD0000D882C43751E2A408D892A434D882A430E
:104CE000134DA84208D0134DA84205D0124DA8423A
:104CF00002D0124DA84212D10C4DED1F2A40CD8991
:104D00002A430A4DED1E2A408D882A43074DFF3D58
:104D10002B400B4D2B400D8A2B434D8A2B43838018
:104D200004838D684563028470BD0000FEFF0000AF
:104D3000002C014000400140004401400048014077
:104D4000FFFD00000A460021018B034B19400B4672
:104D50001343194601837047F7FF000070B5002424
:104D600000220023058C214E35400584028C838867
:104D7000048B1F4D2C401F4D2C400D782D062D0C03
:104D80002C431A4D103D2A408D892D052D0C2A43A8
:104D90004D882D052D0C2A43174DA84202D0174DE2
:104DA000A8421CD1164D2B400D8AAD042D0C2B436F
:104DB000114DA84213D10D4D703D2A40CD892D05CE
:104DC0002D0C2A43094D303D2A408D882D052D0C90
:104DD0002A430C4D2B404D8AAD042D0C2B43838070
:104DE00004838D688563028470BD0000EFFF0000BE
:104DF000FF8F0000FFFC0000002C0140004001403C
:104E0000FFFB0000FFF700000A460021018B034B67
:104E1000194013061B0C194301837047FFF700006C
:104E200070B5002400220023058C1C4E35400584FB
:104E3000028C8388848B194D90352C40174DFD359D
:104E40002C400D882C43164D2A400D7B2D062D0C31
:104E50002A438D782D062D0C2A43124DA84217D1D6
:104E6000114D2A408D7B2D062D0C2A430F4D2A40D3
:104E70000D792D062D0C2A430D4D2B400D4D2B4049
:104E80000D8A2D052D0C2B434D8A2D052D0C2B4302
:104E9000838084838D68C563028470BDFFFE00003B
:104EA000FFFD0000002C0140FFF70000FFFB0000A9
:104EB000FFEF0000FFDF00000A460021818B034B5B
:104EC00019400B461343194681837047F7FF0000D2
:104ED00070B5002200230024058C134E3540058454
:104EE000038C8488828B114D2A40114D2A400D7805
:104EF0002D062D0C2A430F4D2B400D7B2D072D0C1D
:104F00002B438D782D072D0C2B430B4DA84205D13B
:104F10000A4D2C400D8AAD052D0C2C4384808283D4
:104F20008D680564038470BDFFEF0000FF8F0000F3
:104F3000FFFC0000FFDF0000002C0140FFBF00006D
:104F40000A460021818B034B194013061B0C1943A1
:104F500081837047FFF70000028B034B1A400283E6
:104F6000028B0A4302837047F3FF0000028B044B5D
:104F70001A400283028B0B061B0C1A4302837047F4
:104F8000FFF30000828B034B1A408283828B0A431B
:104F900082837047F3FF0000828B044B1A408283A8
:104FA000828B0B061B0C1A4382837047FFF30000B1
:104FB00000220288154B984206D001239B07984295
:104FC00002D0134B984203D1124B1A404B881A431C
:104FD000114B984203D0114B1A400B891A4302809F
:104FE0004B68C3620B880385084B984208D00C4B72
:104FF000984205D00B4B984202D00B4B984201D1FE
:105000008B7A03860123838270470000002C0140C5
:10501000000400408FFF000000100040FFFC000073
:1050200000400140004401400048014070B5FEF7D7
:1050300071FE012874D10520FFF7F8FB5A48808FD4
:1050400009280FDA5948808901B25748808F4200F9
:1050500055483E3081523E38808F401C81B25248C4
:10506000818714E00021504881870A213E3000F0FA
:105070008FFB4D49403148820A461421515E12206F
:10508000105E4B4AFFF731F8474940318882464865
:105090003821415EFD20C00081421ADA4249403188
:1050A000C88AFDF7FEFB04460022424B01F080FA5D
:1050B00008D23D484030C08A401C81B23A48403056
:1050C000C18219E004203849C039087008200873EB
:1050D00012E035484030C08A374988420CDB3248FC
:1050E0004030C08A002807DD2F484030C08A401E6B
:1050F00081B22D484030C1822B48008C092810DA3B
:105100002A48408901B22848008C420026482230B3
:1051100081522238008C401C81B22348018413E064
:1051200041E00021204801840A21223000F030FBB8
:105130001D49C8860A463821515E3620105E1C4A39
:10514000FEF7D3FF1849088717483821415EFD2034
:10515000C000814217DA1449488FFDF7A2FB0446CC
:105160000022144B01F024FA06D20F48408F401C55
:1051700081B20D48418716E004200B49C039087000
:10518000082008730FE008483821415E0A48814230
:1051900009DB0548408F002805DD0348408F401E8D
:1051A00081B20148418770BD98040020DC000020D6
:1051B000DA0C000000407F40030A000010B52749C8
:1051C000274800F069F8012840D1254800F028F967
:1051D000C4B22448018A008A401C82B2214802825B
:1051E000FF38F93844541F48008A02280CD11E4861
:1051F000007A5A2803D11C48407AA52825D00021DE
:1052000018480182817420E01648008A062812D1CD
:105210001548407B000208301349097B401881B2D1
:10522000104881821048817A0E4881750E48C17AF3
:105230000C48C17509E00B48018A808A814204DB71
:105240000121084881740021018205E0044800F032
:10525000E7F800200249086210BD000005010500C2
:1052600000380140F0020020F0000020002904D0A6
:10527000026801231A43026003E0026852085200E8
:105280000260704702460020D3690B40002B01D01A
:10529000012000E00020704770B502460B46002454
:1052A0000021002500201E04350ED9B201268E40B3
:1052B0003146012D02D11668314006E0022D02D19F
:1052C0005668314001E0966831401C0C0126A6402A
:1052D0003446D6693440002903D0002C01D0012087
:1052E00000E0002070BDF8B50346002400260096BB
:1052F0000025002018460E04340ECEB20096012779
:10530000009EB7403D46022C01D1001D02E0032C57
:1053100000D10830002A03D006682E43066002E060
:105320000668AE430660F8BDF0B58BB004460D4686
:10533000002700200A9000262068400840002060D6
:10534000666803210903304688430646A868064379
:10535000666026682D480640E96868680843296940
:10536000084306432660A6680321090230468843A5
:10537000064668690643A6606846FFF7CFF82448EA
:10538000844202D106980A900DE02248844202D15C
:1053900007980A9007E02048844202D108980A90B2
:1053A00001E002980A9020680121C9030840002802
:1053B0000CD029680A9A5000FCF71CFF07462968A0
:1053C0000A9A5000FCF716FF0E4609E029680A9871
:1053D000FCF710FF074629680A98FCF70BFF0E46FA
:1053E00028684008B04200D87F1C20680121C9030A
:1053F0000840002806D03807460F384607490840BD
:1054000030430746A7810BB0F0BD0000F3E9FFFF72
:10541000003801400044004000480040F0FF000018
:105420000146888CC005C00D7047CA05D20D0285A3
:105430007047000010B5FEF777FC012828D1FFF770
:10544000FBF9FEF781F913488088002805DD114833
:105450008088401E0F4988801AE00121C903092075
:10546000C006FEF735FC002805D10121C90309203B
:10547000C006FEF739FC0748C088002805DD05484E
:10548000C088401E0349C88002E00120014908721B
:1054900010BD0000200500201CB5012103204004A0
:1054A000FEF7FCFF0120C003009001216846017156
:1054B000417100218171C17169460920C006FEF762
:1054C0009DFB0121C9030920C006FEF70BFC10203B
:1054D0000090012168460171417100218171C17103
:1054E00069460920C006FEF789FB10210920C00685
:1054F000FEF7FAFB0120C00200900121684601710D
:105500000321417100218171C17169460A48FEF78A
:1055100075FB0120C0020849886101200749C87055
:1055200000200880887006488880FF20F530C880F9
:10553000002008721CBD0000000400482005002067
:10554000B80B000070B5FEF7F9FB012874D10220FA
:10555000FFF778F94348008D09280EDA42480089A0
:1055600001B24048008D42003E482A3081522A381C
:10557000008D401C3B49088516E00020394908850C
:105580000A2138482A3000F003F93649C8870A460C
:1055900040320021515E403A3E20105E334AFEF711
:1055A000A4FD3049403108802E4840300021415E42
:1055B0002F48814219DD2B4940314888FDF771F9A8
:1055C000044600222B4B00F0F3FF08D22548403060
:1055D0004088401C81B223484030418012E00420C2
:1055E00020490870052008730CE01E4840304088B0
:1055F000002807DD1B4840304088401E81B2194812
:1056000040304180174840300021415E1A488142B5
:1056100019DA144940318888FDF743F9044600221D
:10562000144B00F0C5FF08D20E4840308088401C63
:1056300081B20C484030818012E004200949087092
:10564000062008730CE0074840308088002807DDFA
:10565000044840308088401E81B20248403081803A
:1056600070BD0000D8030020DC000020DA0C000030
:10567000F507000000407F408306000030B4744608
:10568000641E2578641CAB4204D3635D5B00E318A1
:1056900030BC18471D46F8E710B5002819DB1A4A38
:1056A00003231B02D21883089B00D2588307DC0E09
:1056B000FF23A3409A438B071B0E8407E40EA340ED
:1056C0001A43114B032424021B198408A4001A5105
:1056D00018E00E4A03071B0F083B9B089B00D2589B
:1056E0008307DC0EFF23A3409A438B071B0E84071E
:1056F000E40EA3401A43054B0407240F083CA408FA
:10570000A4001A5110BD000000E100E01CED00E013
:10571000002007E081001A4A891809688200194BA5
:105720009950401C3028F5D301210846FEF7E6FECB
:105730000320FFF761F8FEF773F900F0C5F800F0F9
:1057400069F8FDF7EFFC00F00FFEFDF793FB00F0AA
:1057500089FDFFF7A1FEFFF723F80B480B494860CE
:10576000032008700020087209E0FFF763FE00F0D4
:1057700013F9FFF7E7FEFFF759FCFEF7BFFCF4E76C
:105780000020000800000020DC050000D8030020F5
:10579000FCB5024600241AE0002312E05800165E11
:1057A000581C4000105E864209DD5800155E581CEA
:1057B0004000105A5E009053581C40001552581C6F
:1057C000C3B2081B401E9842E8DC601CC4B2481EED
:1057D000A042E1DCC807C00F002806DD481CC60F48
:1057E000361876107600955F12E00846CE0F361810
:1057F00076107600965FCF0F3F187F107F1C7F00DA
:105800000091D75FF619F70F0196BE19761035B2E1
:105810002846FCBD0320274908700020486001206D
:105820000872002048728872C87201200873002034
:10583000486108830877887708621F488884482071
:10584000C8841E491B484030018000201949088542
:105850001A48C887002117484030418081808185DF
:10586000C1857920C000134908670846818C8030C3
:10587000C1603221C162016300218186816341657B
:105880000F4981620161103041608160C160016136
:1058900041610021303001840A49C186018700211D
:1058A0004187818707494030418281820021C1823E
:1058B00070470000D8030020B80B00003C07000030
:1058C0006A1800008B0E000010B58AB06846FEF71B
:1058D00025FE0420FFF71EF87D21C9000198FCF782
:1058E00089FC0446601E0B49884200D90CE0601E0A
:1058F000094948610321081FFFF7CEFE0020064931
:1059000088610720086100BF0A20FFF771F80AB01C
:1059100010BD0000FFFFFF0000E000E010B51B48D5
:10592000808B072815DA1948808B401C174988831B
:105930001748807A012803D01548807A022823D19D
:105940001348407A05281FD11149887F00F0F0FDE7
:105950001AE01048008BFF21F531884214DB0C4817
:10596000407A052810D10A48807A01280CD10848CD
:1059700040300821415EFF204330814204DD042095
:10598000034908700720087310BD0000F4040020CC
:10599000D8030020D8040020F0B589B0F748C088AB
:1059A000002811D1F648407D0A2805DAF448407DE8
:1059B000401CF349487502E00020F0490870FF20C0
:1059C000F530EE49C88051E3ED482038807C00284E
:1059D000F9D0FF20F530E949C8800020E849487532
:1059E0000120E6490870E6482038808A801E81B28E
:1059F000E2480830FDF71CFDE149203908830846DC
:105A0000808A801EFF39F9390A5CDD482038808A97
:105A1000401E085C0002101885B2D9482038008B5F
:105A2000A84279D1D6482038807D0300FFF726FEB2
:105A3000110AFDFD3D537591FDFDFCFDFBFAF9F8E2
:105A4000F7F6FD000020CE490876CC480078002803
:105A500005D00846007E01210843C9490876C94897
:105A6000807A012805D1C648007E02210843C44936
:105A70000876C2484078002805D0C148007E04213D
:105A80000843BF490876BF48007B082805D1BC48B9
:105A9000007E10210843BA490876B94B1833012219
:105AA00000210846FEF77EFCCBE2B448807B10283C
:105AB00006DC00231A4619460120FEF773FC09E0B4
:105AC0000520AF4908760B46183301220021022039
:105AD000FEF768FCB5E2AB48807A04281BD0AA48E0
:105AE000007A002817D0A548807B8407A40F0020E7
:105AF000A4490872012C02D10320087004E0022C92
:105B000002D101209F49087000231A46194601203E
:105B1000FEF748FC00BF94E294E29CA1984818303C
:105B2000FCF754FB99A196482C30FCF74FFB9CA145
:105B300093484030FCF74AFB9EA191485430FCF753
:105B400045FB8F4B1833502200210520FEF72AFC1D
:105B500077E28A48817BC07B000209188748007C75
:105B6000000409188548407C00060C1896488442B9
:105B700005D8FF20F530844201D3824804617F4874
:105B8000817CC07C000209187C48007D0004091853
:105B90007A48407D00060C187A4844607748817D39
:105BA000C07D000209187548007E0004091873487A
:105BB000407E00060C18642C01D2642405E0714874
:105BC0000069A04201D26F4804696E490869214604
:105BD000FCF710FB7D4948616848817EC07E000269
:105BE00009186648007F000409186448407F0006D1
:105BF0000C18642C01D2642405E062480069A042BC
:105C000001D2604804695F4908692146FCF7F2FA4D
:105C10006E4988610B469A69596907E0E5E1DFE161
:105C2000ACE149E157E034E00BE0FEE1554B186987
:105C3000FDF74AFE00231A4619460120FEF7B2FB83
:105C4000FFE1504940312E20085EFCF722FE604AF9
:105C5000604B03910290FCF727FE064600225E4B44
:105C6000FCF722FE5D4A5E4B05910490FCF772FB47
:105C700007910690FCF7C8FD84B241490C762012CA
:105C8000183148700B46022200210920FEF78AFBDA
:105C9000D7E13A48807B0221084000280BD0082039
:105CA00038490873042008708872FDF7A7FB0120AB
:105CB0003249487008E00120324908730320087017
:105CC000887200202D49487000231A461946012089
:105CD000FEF768FBB5E12A48007D01280AD10B20B8
:105CE000274908760B461833012200210220FEF7CF
:105CF00059FBE0E02148817BC07B000209181F4866
:105D0000007C000409181D48407C000609181C4846
:105D1000203881621948817CC07C0002091817482C
:105D2000007D000409181548407D00060918144834
:105D3000203801630246916A106BFCF75BFA104948
:105D4000203908620846006A202808D30846006AFD
:105D5000402804D220210A482038016260E0084827
:105D60002038006A40283DD305482038006A802842
:105D700038D2402102482038016251E0F000002072
:105D800010030020D80300202005002030302D30E3
:105D9000302D30302D30302D30302D30303031003E
:105DA00065626C64635F68775F737A6C685F726565
:105DB0006330310065626C64635F73775F737A6C24
:105DC000685F726563303100DC050000F404002078
:105DD0006666666666660A4000408F40A4703D0AAB
:105DE000D7A38040FE48006A802807D3FC48006A99
:105DF000FF2803D88021FA48016211E0F848006AC0
:105E0000FF2809D9F648006A01214902884203D2D5
:105E10004910F348016203E001214902F0480162A0
:105E2000EF48006AEE49896A4843ED49096B091A4F
:105E3000EB484162006B1B218902884230D8E84858
:105E4000006A0121490288422AD8E648807A01285E
:105E500004D1FDF7D3FA0320E24908700120E0499C
:105E6000203108750021DE48C162FDF7D9FDDE4909
:105E7000DE48FDF77DFD002806D100231A461946AD
:105E80000120FEF78FFA16E00920D5492031087667
:105E90000B461833012200210220FEF783FA0AE0A4
:105EA0000820CF49203108760B4618330122002103
:105EB0000220FEF777FAC4E0C9482030007D0028B0
:105EC00050D0CB48817BC07B00020918C848007CB9
:105ED00000040918C648407C00060C18C048C06A77
:105EE000A04233D1BE48818A006A814222D1A3B246
:105EF000BB48008C82B2BE491231BC48FDF7F4FDAC
:105F000000280BD1B648C06A401CB549C8620023BE
:105F10001A4619460120FEF745FA22E00920B04949
:105F2000203108760B461833012200210220FEF7AB
:105F300039FA16E00820AA49203108760B461833B2
:105F4000012200210220FEF72DFA0AE00720A449D1
:105F5000203108760B461833012200210220FEF77B
:105F600021FA0AE006209E49203108760B461833B4
:105F7000012200210220FEF715FA62E09848203045
:105F8000007D002820D09648C16A806A81420FD1E6
:105F90009748807B012806D19149086BFDF7BAFC30
:105FA00000218F48016300208D492031087516E0DB
:105FB00007208B49203108760B4618330122002137
:105FC0000220FEF7EFF90AE0062085492031087625
:105FD0000B461833012200210220FEF7E3F930E0DE
:105FE00000207F49203108752BE0FDF707FA0320D8
:105FF0007C4908700020FEF7FFFB00BF00BF00BF18
:1060000000BF00BFBFF34F8F00BF00BF00BF794884
:106010007949C86000BF00BF00BFBFF34F8F00BF0A
:1060200000BF00BF00BF00BFFDE703206C49203167
:1060300008760B461833012200210220FEF7B2F940
:1060400000BF09E002206649203108760B4618336C
:1060500001220021FEF7A6F94121C9006048818292
:10606000FF2181750021C175817400BF5C4820301B
:10607000007D002878D15E48408800282FD15948FB
:10608000807A01282BD164205949488055494031F4
:106090002E20085EFCF7FDFB0546584A584BFCF7DE
:1060A00003FC0022574B03910290FCF7FDFB564A7C
:1060B000564B05910490FCF74DF907910690FCF7BB
:1060C000A3FB84B2464920310C7620121831487067
:1060D0000B46022200210920FEF764F900BF444864
:1060E00080880028C6D17D20C000414988803D4974
:1060F00040310020085EFCF7CCFB404A404B019148
:106100000090FCF7D1FB0022414B03910290FCF779
:10611000CBFB00223F4B05910490FCF71BF9079144
:106120000690FCF73BFB05B22D4AC0322021515EA0
:10613000681A002801DB014600E0414201290FDB1B
:106140002748C03005840146A0390D762804000E8A
:10615000183148700B46022200210A20FEF722F96E
:1061600001260127002475E077E0002E24D060008E
:106170002949095A1B48C0303822825E91421BDCF3
:1061800000261748C030818C20461E30814213D033
:1061900081B21348C0308184808C11492031087647
:1061A0000846A030808C0012183148700B4602223D
:1061B00000210720FEF7F6F8002F44D060001649B2
:1061C000095A16481422825E91423CDC002704489A
:1061D000C030418C20461E30814234D000491FE03F
:1061E000F0020020D8030020FFF70008009000080C
:1061F000F00000200400FA0500ED00E06666666627
:1062000066660A4000408F40A4703D0AD7A38040D4
:10621000002069400000B040AC680008D8040020AD
:10622000C03148840846408CC1B20D480176A03088
:10623000408C00120A49183148700B460222002196
:106240000820FEF7AFF8002E02D1002F00D19224D3
:10625000601C84B2922C88DB00BF09B0F0BD000046
:106260001003002000B589B001218804FEF716F95B
:10627000002206213748FDF709FD00220721354895
:10628000FDF704FDC0200790022108A8017003213A
:106290004170002181700121C17007A92D48FDF7CF
:1062A000ADFC01218803FEF719F9E12040020190BD
:1062B000002002900390049006900C20059001A904
:1062C0002548FFF731F81B21684601700321417012
:1062D00001218170FDF7DAFF00201F4908620122C9
:1062E0001E491D48FEF7FFFF01211B48FEF7BEFFB8
:1062F00001201B49087000204870C82048807D207C
:10630000C0008880002117480182FF20F530144921
:10631000C8800021134881744121C9008182FF2176
:1063200081750021C1754183FF21017700214177EB
:10633000817700200B49203148758021094801628E
:10634000002181620163002006492031087509B0EF
:1063500000BD0000000400480038014005010500B0
:10636000F0000020F002002000B58FB00121C8022B
:10637000FEF7B4F8002168460185418568480B9016
:106380006846018608A881740AA96648FEF710FECF
:106390007021684681820121C18200210183604809
:1063A000401C07906846018441848184C18405A90A
:1063B0005C48FEF77DFC05A95A48FEF7CFFC05A90D
:1063C0005848FEF72DFD6021684681822D2080010E
:1063D000079005A95348FEF77BFD00215148FEF7C1
:1063E000B1FC00214F48FEF70FFD00214D48FEF79C
:1063F00063FD00214B48FEF7A3FD0121C902684659
:1064000081800021C180FF21013101816021418112
:1064100000218181C181018201A94248FEF7C0FBB0
:10642000012103204004FEF739F802220C213E48E6
:10643000FDF72CFC012000030D90022108A8017635
:106440000321417600218176C1760DA93648FDF7FA
:10645000D5FB022208210920C006FDF717FC022205
:106460000921C806FDF712FC02220A210920C006F4
:10647000FDF70CFC02220B210920C006FDF706FCEB
:106480000F2000020D90022108A801760321417619
:1064900000218176C1760DA90920C006FDF7AEFB6B
:1064A00002220D212048FDF7F1FB02220E211E4899
:1064B000FDF7ECFB02220F211B48FDF7E7FB07204D
:1064C00040030D90022108A80176032141760021A6
:1064D00081760221C1760DA91348FDF78FFB81213A
:1064E0001048FEF76DFB012280210E48FEF7D6FB17
:1064F00001210C48FEF776FB01210A48FEF764FBF8
:106500000D21684601700021417001218170FDF765
:10651000BDFE00200549887308820FB000BD000051
:10652000B70B0000002C014000040048DC000020F4
:1065300070B5044618480821415EFF20433081426F
:1065400011DA16494889FCF7ACF905460022144BCC
:1065500000F060F80ED81348807B01280AD1002093
:106560001049887306E00F48807B002802D1012083
:106570000C4988730B4B1A8A198A188A2346FDF72F
:106580004DF90848807B0C214843074940186100B9
:10659000405A0649088070BD18040020F404002009
:1065A00000003840DC00002088680008202C0140F2
:1065B00070B501250C002D051C4310D4EC4206D407
:1065C000AC420AD4994200D070BD904270BDE942FD
:1065D00017D4EB4215D4994270BD894270BDEC428C
:1065E00006D5AC42F9D58B4200D070BD824270BD59
:1065F0006D004C00EC4204D25C00EC4201D28B42B4
:1066000070BD034C30B4FCF7E7FA30BC70BD00BF7E
:106610001900160470B501251C002D050C4310D47B
:10662000EC4206D4AC420AD48B4200D070BD824208
:1066300070BDEB4217D4E94215D48B4270BD9B422A
:1066400070BDEC4206D5AC42F9D5994200D070BD80
:10665000904270BD6D005C00EC4204D24C00EC42F4
:1066600001D2994270BD0FB4034C0CBC03BC30B4D2
:10667000FCF7B2FA30BC70BD1900160470B50125E4
:106680000400ED074C4020D4441A01D2001B091924
:10669000C60D4B00F2B2FF2A29D01B0E2CD00002EF
:1066A0000C02D31A2C43DC402843051910D2280AC7
:1066B00002D3401C6D0611D0761EF6058019FF2A04
:1066C00000DA70BDC00DC00570BD694000F07AF8F9
:1066D00001200543C541521C761CE8E764089C4034
:1066E000C90161408900E7D10124A043E4E71B0E02
:1066F000440200D0034870BD002AFCD1C00FC0077F
:1067000070BD00BF0000C07F70B5420064414B0007
:106710005C41120E39D01B0E38D0FF2A3CD0FF2B23
:106720003AD040024902400A490A060045184E4341
:10673000000A090AD2184843ED017F3A0104731A8E
:106740004019190C4318990F04D001215B0849071F
:106750005B1A521CD80904D3401CF50301D19D06D5
:1067600007D0FF2A08D2D50506D0E40720434019F8
:1067700070BD0125A843F4E7002A01DCE00770BDE5
:106780002402FF202043C00570BD1B0EFF2A03D04A
:10679000FF2B01D0E00770BDFF2645003606B5424D
:1067A00006D84D00B54203D8D218FF2A00D0E7E73B
:1067B000004870BD0000C07F70B501250400ED07E2
:1067C0004C4022D4441A02D26C40001B0919C60D59
:1067D0004B00F2B2FF2A4BD01B0E50D000020C022D
:1067E000D31A2C43DC40A843051B05D5AD0019D3B3
:1067F0006D08761E521E37D0F605280A01D2801980
:1068000070BD70416D0603D070BD6940FFF73CFF5D
:106810009C4009026140490001D0401E70BD012426
:10682000A04370BD6D081DD001202B0C01D12D049B
:1068300010302B0E01D12D0208302B0F01D12D016C
:10684000001DAB0F01D1AD00801CEB0F01D16D001D
:10685000401C6D00361A121A680AF5054019012A03
:1068600002DB70BD002070BDC036300AC00770BDAD
:106870001B0E440201D1FF2B00D1024870BD002A3B
:10688000F0D070BD0000C07F41100114101414102E
:1068900004114011451005145014541004154015EE
:1068A000441444144414441444144414C60FC30F31
:1068B000C00FBD0FB90FB60FB20FAF0FAB0FA70FC1
:1068C000A30F9E0F9A0F950F900F8B0F860F810FBE
:1068D0007B0F760F700F6A0F630F5D0F560F4F0F10
:1068E000480F400F380F300F280F200F170F0E0FD3
:1068F000050FFB0EF10EE70EDD0ED20EC70EBB0E1E
:10690000B00EA40E980E8B0E7E0E710E640E560EF7
:10691000480E390E2A0E1B0E0B0EFC0DEB0DDB0D77
:10692000CA0DB90DA70D950D800D710D5E0D4B0DA6
:10693000370D230D0F0DFB0CE60CD10CBB0CA60C78
:106940008F0C790C630C4C0C350C1D0C050CEE0BEC
:10695000D50BBD0BA40B8B0B720B590B400B260BED
:106960000C0BF20AD80ABE0AA30A890A6E0A540A54
:10697000390A1E0A030AE809CD09B20996097B09FA
:10698000600945092A090F09F308D808BD08A208BB
:1069900087086D08520837081D080208E807CE0767
:1069A000B4079A07800767074D0734071B070207DC
:1069B000E906D106B906A106890671065A064206FD
:1069C0002B061406FE05E805D205BC05A6059105B3
:1069D00000002110422063308440A550C660E7705B
:1069E000088129914AA16BB18CC1ADD1CEE1EFF103
:1069F0003112100273325222B5529442F772D662AB
:106A0000399318837BB35AA3BDD39CC3FFF3DEE352
:106A10006224433420040114E664C774A4448554FA
:106A20006AA54BB528850995EEE5CFF5ACC58DD5A2
:106A30005336722611163006D776F6669556B4464A
:106A40005BB77AA719973887DFF7FEE79DD7BCC7F2
:106A5000C448E5588668A77840086118022823389A
:106A6000CCC9EDD98EE9AFF9488969990AA92BB942
:106A7000F55AD44AB77A966A711A500A333A122AEA
:106A8000FDDBDCCBBFFB9EEB799B588B3BBB1AAB92
:106A9000A66C877CE44CC55C222C033C600C411C3A
:106AA000AEED8FFDECCDCDDD2AAD0BBD688D499DE2
:106AB000977EB66ED55EF44E133E322E511E700E8A
:106AC0009FFFBEEFDDDFFCCF1BBF3AAF599F788F32
:106AD0008891A981CAB1EBA10CD12DC14EF16FE112
:106AE0008010A100C230E32004502540467067604A
:106AF000B9839893FBA3DAB33DC31CD37FE35EF362
:106B0000B1029012F322D232354214527762567299
:106B1000EAB5CBA5A89589856EF54FE52CD50DC5B1
:106B2000E234C324A01481046674476424540544E9
:106B3000DBA7FAB79987B8975FE77EF71DC73CD701
:106B4000D326F2369106B016576676761546345639
:106B50004CD96DC90EF92FE9C899E9898AB9ABA951
:106B60004458654806782768C018E1088238A32889
:106B70007DCB5CDB3FEB1EFBF98BD89BBBAB9ABBA1
:106B8000754A545A376A167AF10AD01AB32A923AD9
:106B90002EFD0FED6CDD4DCDAABD8BADE89DC98DF1
:106BA000267C076C645C454CA23C832CE01CC10C29
:106BB0001FEF3EFF5DCF7CDF9BAFBABFD98FF89F41
:106BC000176E367E554E745E932EB23ED10EF01E79
:106BD000070103020500040707040005020301077B
:106BE00080807F7E7D7C7B7A79787776767574730A
:106BF000727171706F6E6E6D6C6C6B6A6A696868C9
:106C0000676666656464636362616160605F5F5E5E
:106C10005E5D5D5C5C5B5B5A5A59595858575756D4
:106C20005655555554545353525252515150505039
:106C30004F4F4F4E4E4D4D4D4C4C4C4B4B4B4A4A8B
:106C40004A494949484848474747474646464545CF
:106C50004544444444434343434242424241414108
:106C6000806C0008C00000201C000000F820000814
:106C70009C6C0008DC000020B40A0000142100080D
:106C800000000000010203040102030406070809D2
:0C6C9000000000000000000000000000F8
:04000005080020B51A
:00000001FF
