:020000040800F2
:10200000B80B0020592100087543000879400008EA
:1020100000000000000000000000000000000000C0
:10202000000000000000000000000000E14800087F
:10203000000000000000000021450008254A0008BB
:10204000892100080000000089210008892100087A
:1020500089210008892100088921000889210008B8
:10206000000000001D3500083535000889210008F2
:1020700089210008BD4C00088921000800000000EB
:10208000F94C00080000000000000000814C00082E
:1020900089210008854C0008892100088921000851
:1020A000892100088921000889210008655300085A
:1020B0008921000800F002F800F03EF80CA030C8BA
:1020C000083824182D18A246671EAB4654465D46B4
:1020D000AC4201D100F030F87E460F3E0FCCB64640
:1020E0000126334200D0FB1AA246AB4633431847C1
:1020F000A8540000C8540000103A02D378C878C130
:10210000FAD8520701D330C830C101D504680C6039
:10211000704700000023002400250026103A01D358
:1021200078C1FBD8520700D330C100D50B6070478F
:102130001FB51FBD10B510BD00F0CAFD1146FFF759
:10214000F7FF03F0D5FB00F0E2FD03B4FFF7F2FF69
:1021500003BC00F017FE00000F4880F308880F480A
:102160000168090E0E4A914205D10E480E490160E0
:102170000E480F4901600F4880470F480047FEE7AF
:10218000FEE7FEE7FEE7FEE7FEE700000B480C492E
:102190000C4A0D4B70470000B80B002004000000F3
:1021A0001F00000018100240010000000000014064
:1021B000000000004D4B0008B5200008B8050020C5
:1021C000B80B0020B8070020B80700200FB41CB5DA
:1021D000074B06AA7B4469460090059800F0E3FC93
:1021E0000020694600F0F2FC1CBC08BC04B0184793
:1021F000F5090000002203098B422CD3030A8B420D
:1022000011D300239C464EE003460B433CD40022EE
:1022100043088B4231D303098B421CD3030A8B4200
:1022200001D394463FE0C3098B4201D3CB01C01ACE
:10223000524183098B4201D38B01C01A5241430999
:102240008B4201D34B01C01A524103098B4201D387
:102250000B01C01A5241C3088B4201D3CB00C01AF4
:10226000524183088B4201D38B00C01A524143086C
:102270008B4201D34B00C01A5241411A00D2014691
:102280005241104670475DE0CA0F00D0494203102A
:1022900000D34042534000229C4603098B422DD379
:1022A000030A8B4212D3FC22890112BA030A8B4221
:1022B0000CD3890192118B4208D3890192118B4270
:1022C00004D389013AD0921100E08909C3098B42F5
:1022D00001D3CB01C01A524183098B4201D38B0138
:1022E000C01A524143098B4201D34B01C01A5241DB
:1022F00003098B4201D30B01C01A5241C3088B4220
:1023000001D3CB00C01A524183088B4201D38B000A
:10231000C01A5241D9D243088B4201D34B00C01A94
:102320005241411A00D20146634652415B101046A9
:1023300001D34042002B00D54942704763465B10F1
:1023400000D3404201B50020C046C04602BD7047E0
:1023500070477047F0B5F94D0C091E092C402E400E
:102360002F468BB0A7437DD0B543FCD0002E7AD04A
:10237000002CFCD00D465D40ED0F2543AC1BFF2526
:10238000AD0464190894C502440DC9022143500DDF
:10239000DC0204430120C00701430443D20201913F
:1023A000200C110C00958C46010423468B430A91A6
:1023B00061460904E24D8A430991010A7D444919A5
:1023C0008039097805464D4301266D18F605751BC1
:1023D0006943C90C640B891C4C436418B5012C1B60
:1023E000250C2E04B4434C434D43210C6918890934
:1023F0000591009DE90701D00121C90704912C46F0
:1024000001996708CD072F434C08059DE10B4D430B
:102410002D0C29466646754302950D4645432E46CA
:10242000029D7D1BB44100950D465D4301942C0C2B
:102430002F040D465543AE462D0C3D4302950394A3
:102440007546049C2D04641B049406D2029C039DD3
:10245000641C002675410395029401AC70CC009F6A
:102460007D1B01E03EE162E1B44109040095079162
:1024700001940599A4086143090C0C464443650B7B
:10248000E7040C4666467443A646640B3C4303953A
:1024900002947446049DE4042C1B049406D2029C0E
:1024A000039D641C002675410395029401AC70CC19
:1024B000009F7D1BB44101940C465C430095650F61
:1024C000E7000C465443A646640F3C430395029430
:1024D0007446049DE4002C1B049406D2029C039DC8
:1024E000641C002675410395029401AC70CC009FDA
:1024F0007D1BB441AE09AF06049DC900AD092F4351
:10250000049DA406AD060495079D34436918079100
:10251000059DE10B4D432D0C2946664675430295FA
:102520000D4645432E46029D7D1BB44100950D4648
:102530005D4301942C0C2F040D465543AE462D0CE3
:102540003D43029503947546049C2D04641B04943A
:1025500006D2029C039D641C0026754103950294DB
:1025600001AC70CC009F7D1BB44101948C05069496
:10257000079C890A611800950791019C0599A40898
:102580006143090C0D464543680BEF040D46644654
:1025900065436C0B3C43049FED047D1BAC4602D2AB
:1025A0000025641C6841009E019D371B854108463B
:1025B000584301950C46460FC5005443600F28430D
:1025C0006546E4002C1B02D20025401C6E41019D93
:1025D0003F1AB5412846BD09800628438446A00914
:1025E000BF064E020699A40676180743079D0020F1
:1025F00068410A99079019430020099B00906046A2
:10260000FF1913434041E20F64003A43A4460446D5
:10261000D71A8C41A04203D90120009020463A46A7
:10262000C70F941840416246D20F224364466400AB
:102630000494009CBE466400D71AA4460446029740
:102640008C417746002F01D1A04204D96046401C3E
:102650008446029A2046C40FA64694184041049A24
:102660000546D20F224364466400D31A8D41714659
:10267000002901D1A84202D928461A46641C1043F9
:102680000122002800D0164361020020079B89190F
:1026900004465C410223002C02DB491813466441C6
:1026A000089DCE0A2D145D194B056705E10A2C051E
:1026B0000D1908993E43C9076940002B08D0934083
:1026C00006D30022761C5141002B01D176087600FA
:1026D0001C4A002D43DB154241D0AA433FD030466F
:1026E0000BB0F0BD06180D464D41174C7642AC417B
:1026F0001AD395181C465C41134A6D42A24113D36C
:10270000012252054C00D4420AD15C00D4420BD0C5
:102710004B4002D592021143E2E749004908DFE746
:102720005940C90FC90718E000200849D8E70548F3
:1027300001420DD10342F7D0F2E700000000FF078D
:10274000585100000000F07F0000E0FF0000F87F1B
:10275000114859400143C01241400020C0E7012305
:10276000089A9B069A4205DC032252078918C90F72
:10277000C907B5E7052252078918074A1143D21243
:102780005140ADE770B515461C4602460B4628463B
:102790002146FFF7DFFD70BDFFFFFF7F30B5034629
:1027A000CA02400D1043164D164C0A1502D02043A4
:1027B000002A06DBAA1A002A12DDD040FF2A0BDC11
:1027C00030BD5205520D01D140004008AA1A07D46D
:1027D000D0404042FF2A01DD002030BD0028FCDD52
:1027E0004A00002B01D0012000E000201018012237
:1027F0005205D042F0D8C817C043604030BD000039
:102800001E040000000000800346CA02400D10B5FF
:1028100010430A1504D00124E4072043002A05DBF5
:102820000A4CA21A04D4D040FF2A00DD002010BDBB
:102830004A00002B01D0012000E0002010180122E6
:102840005205D042F2D8C817C04310BD1E04000084
:102850001F22030C02D10F22000402D0030E03D06A
:1028600004E00020014670470002083A030F01D13E
:102870000001121F830F01D18000921E002801DB8E
:102880004000521E120551184205C0124118104650
:102890007047C10FC90700D040420122920711437F
:1028A000D6E701218907D3E7F0B58B4C0F09254600
:1028B00089B0BD437BD01D092646AE43FAD00E46F3
:1028C0005E402740F60F3E43254071D0240121424F
:1028D000FBD0FF24AD19A4042D1B039501252D0564
:1028E000DB02DB0AC9022B43C90A29431E01090185
:1028F000040F130F050121431701880B8203914335
:102900002D098C46A90B1E438A039543B30B9A03EA
:1029100096433F09BA0B9403A74302962E467E4383
:102920000497B6464E19D7190C460196544305979D
:102930007E43371B7646BF1B3601B646BE0B3619A3
:1029400000967646BC043719009C01D3641C0094A1
:102950006400002F01D001263443029E049F75437A
:1029600066467E430496760034196E00341900944E
:10297000029C019E1C196643751BAE460694654673
:102980004519059C05956C43594375460891691A8C
:102990000191049E01465143A41B0491611A009CBD
:1029A0000791E10605D061090122114302E072E0BE
:1029B0006EE06109089D00272C0A2D066918049D08
:1029C0007C412A0A2D066918019D6241AC0DAD02B9
:1029D0006D185441079A910D920255196141029A5E
:1029E000644658435443069B059A5A43121A131BD4
:1029F0009A0E9B015B187A41010B0005C3185141E7
:102A0000220A200644195A419A4200D2491C012048
:102A10004002814203D315230226F64302E0142329
:102A20000326F6432020C51AA9401746AF40DA40D6
:102A30000A4320460399D840091473181905511800
:102A4000039A3843D2075140AC4009D00122944048
:102A500006D30022401C5141002C01D14008400007
:102A60001E4A934212D3012203989206904207DB3A
:102A70000520400709181A480143C012414004E0EC
:102A8000032040070818C10FC907002009B0F0BD96
:102A90000020F107FAE705180C464C4111486D4239
:102AA000A04115D394181A465A410E4864429041E9
:102AB0000ED301204A004005824209D35A008242C7
:102AC00006D35940C90F084AC90700201143DDE762
:102AD00000200649DAE700000000FF07FE070000BB
:102AE000FFFFFF7F0000E0FF0000F07F0000F87FA5
:102AF00010B501469E240002CA15A307002A02D081
:102B00001843002A04DBA21A002A0CDDD04010BDB5
:102B10001206120E01D140004008A21A03D4D04080
:102B200040420028F3DDFF2248001206904201D9FE
:102B3000002010BDC817C043584010BD1F22030C11
:102B400002D10F2200041CD0030E01D10002083A6A
:102B5000030F01D10001121F830F01D18000921ECB
:102B6000002801DB4000521ED205511802125118F4
:102B70001922904004D3491C002801D1490849007A
:102B800008467047C10FC90700D040420122920792
:102B90001143D3E701218907D0E7000001694A1CEE
:102BA00002610878704700B58FB00291002105914D
:102BB000054901937944039111460490684600F059
:102BC00053F80FB000BD0000E5FFFFFF0A6810706A
:102BD000521C0A6070470000F8B5224C4E00069D5A
:102BE000A6420AD8A64201D1002806D15E00A6421C
:102BF00003D8A6420AD1002A08D00D242404254275
:102C00002CD02946002000F041F8F8BD0C461C43AA
:102C10000CD4994202D0EFF30080F8BD904202D06C
:102C2000EFF30080F8BDEFF30080F8BD092424071E
:102C3000E5008B4206D0EFF30080A043591A06D27C
:102C4000284304E0101A05D3EFF30080A04380F37B
:102C50000088F8BDEFF30080A043F1E7009500F095
:102C60002DF8F8BD0000E0FFF8B5064600244768DF
:102C7000806800903046F56803E00099B847641C0E
:102C80003046A8470028F8D12046F8BDC80212D522
:102C90004803400F002804D0C803C04301218840E6
:102CA0007047EFF300800001000903210907084382
:102CB00080F30088704700207047000010B50020A6
:102CC0000249029A00F02BF810BD00000000F87FC6
:102CD000754600F053F8AE46050069465346C008F5
:102CE000C000854618B020B5FFF750FA60BC002739
:102CF0004908B6460026C0C5C0C5C0C5C0C5C0C5C8
:102D0000C0C5C0C5C0C5403D49008D46704710B51F
:102D10000446C046C0462046FFF717FA10BD10B55E
:102D20000C461107090F092904D00A290AD00829DD
:102D30000CD104E011460820FFF7A8FF06E0510679
:102D400006D501E0510601D50120C007214610BD7E
:102D5000D10607D501010909CC084907000E000674
:102D6000044309E0410F20024907000A0143200EF5
:102D700000061D22D14101430846E7E7004870479D
:102D80005405002001491820ABBEFEE726000200D2
:102D90007047002904D0C26801231A43C26003E0CF
:102DA000C26852085200C2607047C26802239A4348
:102DB000C260C2680A43C2607047000010B5044692
:102DC0000548844207D10121401501F00DFC002186
:102DD000601501F009FC10BD0024014030B501462A
:102DE0000020002200238C680125ED072C438C6015
:102DF00000BF8C68E30FDB07521C0F242403A242A0
:102E000001D0002BF5D18C68E40FE407002C01D130
:102E1000086C00E0002030BD30B5024600200023E1
:102E2000012424060C40002C05D0946801252D06B1
:102E3000AC43234600E013681C460C40002C01D034
:102E4000012000E0002030BD10B50022C268084B10
:102E50001A400C7964030B6823438C682343CC68C5
:102E600023430C6923434C6923431A43C26010BDBA
:102E700003D2FFFF00B595B00121480401F084FBA7
:102E80003F201390032110A801740021C17413A9DD
:102E90000920C00600F006FF2D20800101F030FD62
:102EA0000121480201F090FB3B48FFF787FF00201B
:102EB0000D90002108A801760120C0020F9040204B
:102EC00010900020119012900DA93348FFF7BCFF1D
:102ED0000120314948613F2088620846FFF77EFFA4
:102EE00002212D48FFF761FF01212B48FFF751FF19
:102EF00029488068012108432749886000BF0121D3
:102F00002548FFF789FF0028F9D02348806804216D
:102F10000843214988600121084601F035FB1F481C
:102F200000F032FB1C4840300290002004901C4806
:102F30000390062005900020069080200790400016
:102F400008908000099020200A9000020B90002039
:102F50000C9002A9114800F0EDFB002202210F485D
:102F600000F0DEFB01210D4800F000FB00F01AF834
:102F7000022000F0EBFA01220221084800F0D0FB09
:102F8000092168460171022141710121817101A865
:102F900001F0F2F915B000BD002401400800024024
:102FA000E00000203EB500200090019002905349BF
:102FB0004880088000242EE000BF022000F096FB2D
:102FC0000028FAD0022000F0C1FA684600884B4978
:102FD0008988401881B26846018041884748C08886
:102FE000081881B2684641808188444800890818E1
:102FF00081B268468180C18840484089081881B202
:103000006846C18001893D48C089081881B2684678
:103010000181601CC4B2102CCEDB6846008801110F
:103020006846018000883549088009880846FF38CD
:103030004338002801DB014600E0414251290BDB07
:1030400004202F4908700A2008732E488078202118
:10305000884320302B4988706846408801116846B3
:10306000418040882549488049880846FF384338D0
:10307000002801DB014600E0414251290BDB04201E
:103080001F4908700A2008731E4880782021884351
:1030900020301C498870684680880111684681800C
:1030A000808801B21648403001806846C08801110E
:1030B0006846C180C08801B21148C03081873C2178
:1030C000415E1148814204DA04200D49087008204D
:1030D000087368460089011168460181008901B2C0
:1030E0000A4801831821415E0748814204DA04201E
:1030F00003490870082008733EBD0000DC00002072
:10310000F0030020F0000020030A0000F00400207B
:1031100000B589B001210320400401F035FA0122F5
:1031200007210920C00600F005FE01220621092022
:10313000C00600F0FFFDC0200790022108A8017022
:103140000321417000218170C17007A90920C006C8
:1031500000F0A8FD012200213E4800F0EBFD012017
:103160000790022108A8017003214170002181709D
:10317000C17007A9374800F095FD0121022001F038
:1031800013FA2F21684601820021418232480590BE
:1031900068460183817604A9304801F0B9FF002117
:1031A000684681800A21C18001210181002141817D
:1031B0000421818101A9294801F0E8FD0421684624
:1031C000818001A9254801F0E1FD08216846818040
:1031D00001A9224801F0DAFD1021684601700021A2
:1031E00041700121817001F0C7F801220F211B48B5
:1031F00001F004FE0121194801F096FD0121480467
:1032000001F0E2F92F216846018200214182124833
:10321000059068460183817604A9114801F078FF82
:1032200000200F49088208468089022108430C4982
:10323000888115216846017001214170817001F07B
:103240009BF807480088012108430549088009B018
:1032500000BD000000040048FFFF00000004004023
:103260000044014010B55248407A030002F0F6FADB
:10327000069D040C3E5E819D4D48007F002802D1D2
:1032800001204B49087790E04948007F002818D179
:10329000012047490877022046490874E120800050
:1032A0004882434CA37F0C46628A618A608A00F0A0
:1032B00011FB3F49887F03F0D9FD0A2001F026FB6E
:1032C00013E000F071FD01280FD100203949488238
:1032D00001200003384908803848374920394863BD
:1032E0008863C8630320324948725EE001F0B0FA97
:1032F000334908700846007848702D48C07AC000ED
:10330000304940182E490978405C29498877487728
:103310002D49274880304161143041608160C1608F
:10332000016141610420224948723EE001F05CF8ED
:10333000012020490874962048821D49887F03F0A7
:1033400095FD00201E4908818883194908771C498A
:1033500048810021164880300187803081831448DD
:10336000C08C1349486105204872012001F0CEFA53
:103370001BE000F019FD012816D101F0C7FA104C2E
:10338000A36962690A4C6169606801F0D7FA214655
:103390004861084640690969884203DD20460069A2
:1033A0002146486101F0E0FA00BF00BF10BD0000F7
:1033B000F0030020DC000020202C0140B80B0000AE
:1033C000100500200875000890D00300002008496F
:1033D0004882012000030749088007480549203931
:1033E00048638863C863002004494872704700003E
:1033F000DC000020202C0140B80B0000F00300206E
:1034000070B502460C4609480AE0011205062B0C6D
:1034100015784D406D00064E755B5D402846521C88
:103420002546661EB4B2002DEFD170BDFFFF00002F
:103430000873000810B533488089800004B2324810
:103440000A21415E314A204600F0BBFE2E494881E8
:103450000A20085EFF21C431884217DB2A48808990
:10346000142805DA28488089401C274988812AE0E9
:103470004021274800F08CFC01202349887325480F
:10348000007810218843234908701CE01E48808979
:10349000002805DD1C488089401E1B49888112E0F8
:1034A00040211B4800F072FC00201749887319481E
:1034B00000781021884310301649087004201649FE
:1034C00008700B200873134800780007C00F00280D
:1034D0000FD11048C07800280BD10E480078C007E3
:1034E000C00F002805D00B4800788007C00F0028C7
:1034F00006D10948807A012802D1032006490870C4
:1035000010BD0000DC0000203C0500204C0F000036
:1035100000140048F0000020F003002010B5022045
:1035200000F0E4F8012804D1022000F00FF800F0C8
:10353000D1FE10BD10B50120400200F0D7F80128DF
:1035400002D1400200F002F810BD0000012109077D
:103550000140002902D00349486001E00249486067
:10356000704700000004024000000240002904D01F
:10357000026801231A43026003E00268014B1A400B
:1035800002607047FEFF00000168554A114001606B
:103590000021016041608160C1605249884208D1C8
:1035A0005049083949680F2211434E4A083A516080
:1035B00094E04C491431884208D14A490839496895
:1035C000F0221143474A083A516087E045492831C3
:1035D000884209D14349083949680F221202114330
:1035E000404A083A516079E03E493C31884209D16D
:1035F0003C49083949680F2212031143394A083AF5
:1036000051606BE037495031884209D1354908395A
:1036100049680F2212041143324A083A51605DE0B2
:1036200030496431884209D12E49083949680F224E
:10363000120511432B4A083A51604FE0294978316D
:10364000884209D12749083949680F2212061143D7
:10365000244A083A516041E02349884208D122496E
:10366000083949680F2211431F4A083A516035E072
:103670001D491431884208D11B4908394968F02294
:103680001143194A083A516028E017492831884205
:1036900009D11549083949680F2212021143124A0B
:1036A000083A51601AE010493C31884209D10E496C
:1036B000083949680F22120311430B4A083A516036
:1036C0000CE009495031884208D107490839496856
:1036D0000F2212041143044A083A51607047000057
:1036E000FEFF0000080002400804024001460020DE
:1036F000002201231B070B40002B02D0064B1A6847
:1037000001E0064B1A6813460B40002B01D0012044
:1037100000E000207047000000040240000002406A
:10372000002A03D003680B43036002E003688B4365
:103730000360704710B5002202680D4B1A400C6AF6
:103740008B6823430C6923434C6923438C692343CF
:10375000CC6923434C6A23438C6A23431A43026097
:10376000CB6843600B6883604B68C36010BD00008A
:103770000F80FFFF10B51D48807A012803D01B4839
:10378000807A022830D11948407A05282CD118486F
:10379000008900281ADD16480089401E80B21449AD
:1037A0000881002803DD13481349486303E01048EB
:1037B000C0881149486300200F49486208820846C2
:1037C0000088012108430C4908800DE00748C07AB1
:1037D00006214843094940180449897F405C034950
:1037E0008877887F03F042FB10BD0000F0030020C3
:1037F00010050020FFFF00000044014030050020BC
:1038000000B53148807A030002F028F80504080961
:103810000D1116000A202D49C8700DE000BF0120CF
:103820002A49C87008E00A202849C87004E02648E0
:10383000007B2649C87000BF00BF2448C07800281C
:1038400004D10120C002224988613BE01F48C078B2
:103850000A2805D10120C0021D492031088131E02C
:103860001A480088401C1949088008460088282802
:1038700005DA0120C00216492031088122E01348F0
:103880000088FF21B931884204DA0120C0021049C2
:10389000886117E00D488178C078401E814207DAC0
:1038A0000A488078401C094988700020088009E097
:1038B000064800882D214901884203DB0020034986
:1038C0000880887000BD0000F00300203C05002047
:1038D0000004004830B51C46224B1B7C002B03D053
:1038E000204B1B7C012B31D1230001F0B7FF0604D4
:1038F0000B121920272E1C4B1C4DAB63EB631B1ABC
:103900006B6322E0184B194DAB63EB631B1A6B63BF
:103910001BE0154B154D6B63EB635B1AAB6314E057
:10392000114B124D6B63EB635B1AAB630DE00E4BF7
:103930000E4D6B63AB639B1AEB6306E00A4B0B4DBA
:103940006B63AB639B1AEB6300BF09E0064B1B1A6A
:10395000064D6B63044B5B1AAB63034B9B1AEB6323
:1039600030BD0000DC000020B80B0000002C01403E
:103970007FB504460D4616460094019502960D4803
:10398000C06B03900C4800F05BF80A483030009997
:1039900000F0A2F807483430019900F09DF805487E
:1039A0003830029900F098F802483C30039900F052
:1039B00093F87FBDC0FF000800FC00081FB5044657
:1039C0001048006B00900F48406B01900D48806BD1
:1039D000029003940C4800F033F80A483030009904
:1039E00000F07AF807483430019900F075F805487E
:1039F0003830029900F070F802483C30039900F02A
:103A00006BF81FBDC0FF000800FC00080149C8603A
:103A1000704700000020024070B505460E462C4657
:103A200009E0204600F00CF8042802D10002241816
:103A300001E0012070BDB442F3D90020FAE7000094
:103A400030B5044604250B20000400F08DF805462F
:103A5000042D17D10C480069022108430A49086166
:103A600008464461006940210843074908610B206A
:103A7000000400F079F805460348006902218843F4
:103A800001490861284630BD0020024004200D494C
:103A9000C968C907C90F002901D0012010E00949F0
:103AA000C96810221140002901D0022008E0054910
:103AB000C96804221140002901D0032000E004203D
:103AC000704700000020024010B500F03BF83520A0
:103AD000FFF79CFF10BD000078B506460C46042594
:103AE000002000900B20000400F03EF80546042D55
:103AF00024D1134800690121084311490861348029
:103B00000B20000400F030F80546042D10D1B01C45
:103B10000090200C009908800B20000400F024F88D
:103B2000054607480069400840000549086105E06E
:103B3000034800694008400001490861284678BDF3
:103B4000002002400548006980210840002804D078
:103B5000034802494860034848607047002002401B
:103B600023016745AB89EFCD10B503460424FFF769
:103B70008DFF044603E0FFF789FF04465B1E012C1E
:103B800001D1002BF7D1002B00D10524204610BD18
:103B9000FFB583B00D46174600244148806A401E99
:103BA0000699884259D13E48406A8608002E20D0A6
:103BB0001DE0069878430399401800190290295D8A
:103BC000601C285C00020918A01C285C000409186D
:103BD000E01C285C00060818019001990298FFF784
:103BE0007BFF042802D0012007B0F0BD241DB442A1
:103BF000DFD32B48406A061B002E4ED00698784330
:103C00000399401800190290012E04D1285DFF3855
:103C10000138019019E0022E08D1285DF103411A04
:103C2000601C285C0002081801900EE0032E0CD1E5
:103C3000285DFF2109064118601C285C0002091854
:103C4000A01C285C00040818019001990298FFF755
:103C500043FF042821D00120C6E71CE006987843E2
:103C60000399401800190290295D601C285C00022D
:103C70000918A01C285C00040918E01C285C000638
:103C80000818019001990298FFF726FF042801D037
:103C90000120A9E7241DBC42E0D30020A4E70000D6
:103CA000F0020020F0B50A4600210023002400BFE6
:103CB0003DE001258D402B4615681D402C469C4259
:103CC00034D11579012D02D01579022D16D18568D0
:103CD0004F000326BE40B543856055794E00B54080
:103CE000866835438560858801268E40B54385808A
:103CF000858896798E40B6B23543858005684F0039
:103D00000326BE40B543056015794E00B5400668F0
:103D100035430560C5684F000326BE40B543C56006
:103D2000D5794E00B540C6683543C560491C102999
:103D3000BFD3F0BDF0B5002300244D07EE0E1546AD
:103D4000B5402B46CD10AE0005462035AD594E0787
:103D5000F70E0F26BE40B543CE10B60007462037FB
:103D6000BD51CD10AE003D46AD591D432C46CD1082
:103D7000AD003E467451F0BD02460020938A0B40D0
:103D8000002B01D0012000E0002070470185704722
:103D90008161704703480088002801D101207047E5
:103DA0000020FCE7D600002003480088002801D14D
:103DB000012070470020FCE7D00000200348008865
:103DC000002801D1012070470020FCE7D800002026
:103DD00003480088002801D1012070470020FCE73B
:103DE000D400002003480088002801D1012070473A
:103DF0000020FCE7D200002070B59748008A0E2111
:103E0000084000287DD000F023FD94490870084642
:103E1000407809788842F5D0904800788F494870FA
:103E20008D4800888E4908408B4908800846008AE2
:103E300002210840002803D08748406B8749088248
:103E40008548008A04210840002803D08248806BFE
:103E5000824908828048008A08210840002803D04F
:103E60007D48C06B7D4908827C48808900047B497D
:103E7000098A4018C01C7B49C86200207749C86085
:103E800088837549486208820846008801210843F2
:103E90007149088073481430416814384161143006
:103EA00081684160C16881600169C16041690161E7
:103EB0001438C16A143041619438C07AC0006A492C
:103EC000401866490978405C664980398877084619
:103ED000807A012803D00846807A022877D1614889
:103EE0008038407A0528F9D15E498039887F02F010
:103EF000BDFF5A494889FEF7D4FC044600225B4BBB
:103F000000E096E002F0F0FF62D254484089401C85
:103F10005249488153488038407F052807D151488D
:103F20008038807F002802D1012088703CE04D4815
:103F30008038407F002808D14A488038807F052893
:103F400003D10420454988702EE046488038807FA0
:103F500044498039497F88420FDD42488038807F5C
:103F6000052803DB00203D4988701DE03D4880386E
:103F7000807F401C3949887016E03A488038807F3D
:103F800038498039497F88420EDA36488038807F48
:103F9000002803DC05203149887005E0314880386D
:103FA000807F401E2D4988702C4881782D488038AC
:103FB000C07A062250432E4A80182A4A803A927FBD
:103FC000815428488038807F2649803948772CE002
:103FD000244914318A68C968521822491431096980
:103FE0005218204914314969501881083822514328
:103FF0008809010C194A1181D080114609890029CC
:1040000004DD1749491C1B4A516303E01349C98861
:10401000184A51630021174A5162118211460988DA
:1040200001221143134A118000BF00210D48803046
:1040300081830948008AC007C00F00280AD00120E8
:10404000C043054908820548C068401C0349C86050
:1040500001F054FD70BD0000000400401005002078
:10406000FEFF0000700400200875000800005E409C
:10407000300500200044014000BFFEE710B51348A2
:10408000C08812494988884208DD1048C0880F4915
:104090004988401A01B20E48C18502E000210C484F
:1040A000C1850B482E21415E3022825E8818411066
:1040B0000748018602463021515E403A506F7832FF
:1040C00000F048F802494031086110BDDC000020D2
:1040D0003004002010B51C4880881B49098888429C
:1040E00008DD1948808818490988401A01B2174824
:1040F000C18002E000211548C18014480621415EBC
:104100000822825E88184110104801810E48408ABA
:104110001E300F49884206DC0B48408A1E300B498E
:104120004039C86503E00A4908484038C165074A74
:104130000821515E403AD06C503200F00BF8034930
:104140004039886610BD0000DC00002030040020EB
:10415000B80B0000F0B587B006460F461446F51BB5
:104160002846FEF70FFD0390616802F069FF059095
:10417000A168681AFEF706FD0190216802F060FF51
:1041800003906069FEF7FEFC0290039902F012FFB3
:104190000490059902F00EFF0690FEF7A9FC6061FD
:1041A000A560E1686069884202DDE068606105E061
:1041B00021696069884201DA20696061606907B03D
:1041C000F0BD10B503465C1A2046504380134018DA
:1041D00000B210BD10B53E48807A030001F03EFBEE
:1041E00005041F395768760039480078012804D043
:1041F00002280BD0032810D109E03548007A344951
:10420000C872032048720120887206E005E0FFF7BB
:10421000DDF803202E49887200BF00BF56E0FFF78B
:1042200021F82B480078012804D0032803D0042863
:104230000DD106E00BE0FFF7C9F80320244988728E
:1042400005E0FFF7C3F804202149887200BF00BFD2
:104250003CE01F480078012804D002280AD0032837
:1042600013D108E0FFF796FD012802D1002018497C
:1042700088720AE009E0FFF78DFD012804D1FFF7FD
:10428000A5F803201249887200BF00BF1EE0104845
:104290000078012804D0022806D0032806D104E0C3
:1042A00000200B49887201E000E000BF00BF0DE074
:1042B00007480078012804D0022803D0032803D13E
:1042C00001E001E000E000BF00BF00BF00BF10BD83
:1042D000F003002010B52448807A030001F0BEFAF4
:1042E000050405063F4041003BE000BFFFF7F2FE3A
:1042F000FFF7C4FE1C48803000691B49896E884264
:1043000003DA19488030006901E01748806E1749C8
:1043100048820846418A14488030806D814202DA22
:104320001248408A02E010488030806D0F49488270
:104330000846408A0E49884202DD08460B494882F9
:104340000948807A012807D1074CA37F074C628A6D
:10435000618A608AFFF7BEFA00F0E4F801E000E04D
:1043600000BF00BF10BD0000F0030020DC000020F3
:10437000220B00007047000000218278002A27D01D
:10438000184A03231B02D21803789B109B00D158B4
:1043900002789207D30EFF229A400B4693431946A8
:1043A00042789207120E03789B07DB0E9A40114366
:1043B0000C4A03231B02D21803789B109B00D15098
:1043C0000278D306DB0E01229A40064B1A6007E002
:1043D0000278D306DB0E01229A40024B80331A602A
:1043E0007047000000E100E000212348816023497C
:1043F000403801642249403041602249C16028218F
:104400000161C038C18CC0304161C038C18C80307E
:1044100081651D481849C039C86400211648C03854
:1044200081651A481449C039086515491248C038D1
:10443000416515494A31C1650021016612494A3179
:104440004166FF20E8300C49C039486700210A481E
:10445000483881600D480849C039886708490648CE
:10446000C038C16708494A317830C1600021016114
:1044700005494A3141617047B0040020CDCCCC3DA4
:104480008FC2F53C204E00006E0B00009A99993EB9
:10449000FFB581B014461F465A211F484173A5201D
:1044A0001D490D314870019888700298C8700846FF
:1044B000047120124871002507E03978A81D164ABA
:1044C0000D3211547F1C681CC5B2A542F5DBA11D3D
:1044D00011480D30FEF794FF06460F4A0D32A01D1D
:1044E00016543112E01D115400250EE000BF40218A
:1044F0000A4800F0D5FF0028F9D007480D30415D8B
:10450000064801F0A0F8681CC5B220460830854274
:10451000ECDB05B0F0BD0000700300200038014066
:10452000704700007FB51348446A1348808900042F
:10453000041912484069A0421AD210484461062169
:1045400061430846FEF7ADF9054600220C4BFEF725
:10455000ABF902460B460191009000200949FDF796
:10456000F9FE03910290FEF719F904491439086322
:104570007FBD0000000400401005002084040020DE
:1045800000001040389C8C41002905D0054A526932
:104590000243044B5A6104E0024A52698243014BD0
:1045A0005A61704700100240002905D0054AD269BF
:1045B0000243044BDA6104E0024AD2698243014BB0
:1045C000DA61704700100240002905D0054A92695F
:1045D0000243044B9A6104E0024A92698243014B10
:1045E0009A61704700100240002905D0054AD26840
:1045F0000243044BDA6004E0024AD2688243014B72
:10460000DA60704700100240FEB50446002500261F
:1046100000200290019000900027864840680C21FD
:1046200008400546002D06D0042D07D0082D08D0DF
:104630000C2D2CD128E0804820602BE07E482060A3
:1046400028E07C4840680F218904084006467948E4
:1046500040680321C90308400290B00C861C0298F0
:10466000002803D17548374647430BE07148C06ABC
:104670000007000F401C01906F480199FDF7BAFD3B
:1046800070430746276005E06D48206002E06A48F5
:10469000206000BF00BF67484068F0210840054621
:1046A0002D096848405D009020680099C84060600E
:1046B0006048406807210902084005462D0A614804
:1046C000405D009061680098C140A1605948006B4E
:1046D000FF2101310840884202D05B48E0600DE0D4
:1046E00054484068012189030840884203D0A068EB
:1046F0004008E06002E0A0688008E0604D48006B80
:1047000040210840402802D05048206102E00120AA
:10471000C00320614748006B10210840102802D0D8
:104720004548606101E0206860614248006B800795
:10473000800F002802D1A068A06119E03D48006BFD
:104740008007800F012802D12068A06110E039485D
:10475000006B8007800F022802D18003A06107E070
:104760003448006B8007800F032801D13248A061D4
:104770003048006B032109040840002802D1A068DA
:10478000E06120E02B48006B03210904084001216F
:104790000904884202D12068E06114E02548006BDA
:1047A00003210904084001214904884202D18010F4
:1047B000E06108E01F48006B0321090408408842BB
:1047C00001D11D48E0611B48006B032189040840AA
:1047D000002802D1A068206220E01648006B032167
:1047E0008904084001218904884202D1206820629E
:1047F00014E01048006B0321890408400121C9041A
:10480000884202D10011206208E00A48006B0321AF
:1048100089040840884201D1074820620548006B9E
:1048200080210840802802D00548606200E067626D
:10483000FEBD00000010024000127A0000093D0099
:10484000006CDC02C0000020809FD50012800000B8
:1048500000200921C906098A80221140002901D0BF
:10486000042108430921C906098A40221140002970
:1048700001D0022108430449098AC907C90F002948
:1048800001D00121084370470004004810B51048CA
:10489000046B601C00280ED10E480F4908610720E8
:1048A0000E49486188610B469A6959690A4B186933
:1048B000FFF75EF80AE00648006B07490861044804
:1048C000406B064948610248806B886110BD00005A
:1048D000C0FF0008DC050000F003002010050020E8
:1048E0007047000001460020044A106880088000DC
:1048F00002460A431046014A10607047000001401A
:104900000149086070470000402C014001490880BF
:1049100070470000D0000020014908807047000067
:10492000D80000200149088070470000D400002012
:104930000149088070470000D200002010B50446ED
:104940008C4206DD8818A04201DB204610BD881885
:10495000FCE78C4206DAC81AA04201DC2046F5E7E3
:10496000C81AF3E72046F1E7FEB522484169143042
:10497000406809181F481430806809181D48143011
:10498000C06809181B481430006909181948143008
:104990004069081802900298FDF783FF0446002240
:1049A000154BFDF781FF02460B4601910090002058
:1049B0001249FDF7CFFC0646FDF7F0FE0D490863EE
:1049C0000846416B006B081841100A484163008F8C
:1049D000401C81B2074801870A290ADB00210187B0
:1049E0000246516B803A5069C032FFF7B3FB014970
:1049F0008865FEBD7004002000001040389C8C418A
:104A0000042806D10649096904221143044A1161A8
:104A100005E00349096904229143014A1161704785
:104A200000E000E010B500F059F82A48808800281E
:104A300004DD28488088401E264988802648C08D8D
:104A4000002804DD2448C08D401E2349C885224823
:104A5000408E002804DD2048408E401E1E494886B6
:104A60001D48808E002804DD1B48808E401E1A4998
:104A700088861948C08E002804DD1748C08E401E65
:104A80001549C8861448008F002805DD1248008F9C
:104A9000401E81B2104801870F48008E002805DDB6
:104AA0000D48008E401E81B20B4801860A48808F57
:104AB000002804DD0848808F401E07498887064883
:104AC000408F002804DD0448408F401E024948877B
:104AD00010BD0000F0000020B00300201648008840
:104AE000002804D014480088401E13490880134849
:104AF0000088002804D011480088401E0F49088013
:104B00000F480088002804D00D480088401E0C493A
:104B100008800C480088002804D00A480088401EFD
:104B20000849088008480088002804D00648008802
:104B3000401E054908807047D0000020D2000020A8
:104B4000D4000020D6000020D800002070470000CC
:104B50000349088000BF024909880029FBD170473A
:104B6000D0000020F0B50C4600210025068C0A4F2D
:104B70003E400684018B058C074EF23E31401E05F7
:104B8000360C16433143044E093E35400126264378
:104B9000354301830584F0BDFEFF0000F8B50C46E7
:104BA0000021002500260096068C0D4F3E4006840D
:104BB000018B058C2605360C00960A4E31401E07E7
:104BC000360C31431606360C3143054E903E3540C7
:104BD0001027009E3E43354301830584F8BD000045
:104BE000EFFF0000FF0C0000F8B50C460021002587
:104BF00000260096068C0C4F3E400684818B058C67
:104C00002606360C0096084E0D3631401E05360C31
:104C100016433143054E3540FF270137009E3E4382
:104C2000354381830584F8BDFFFE0000FFF50000D9
:104C3000F8B50C460021002500260096068C0D4F85
:104C40003E400684818B058C2607360C00960A4E62
:104C500031401606360C31431E07360C3143074EE1
:104C6000354001273F03009E3E4335438183058441
:104C7000F8BD0000FFEF0000FF0C0000FF5F000028
:104C80007047000010B50B48008A02210840002838
:104C90000BD0481F0749088208460088064908408B
:104CA00004490880FEF766FD02E000200149088201
:104CB00010BD000000440140FEFF000010B580213F
:104CC0000B4800F050F8012807D18021084800F077
:104CD00027F804200749087008730121044800F0F0
:104CE00042F8012803D10121014800F019F810BD54
:104CF000002C0140F003002010B5FFF77DF810BD37
:104D00000A884B881A438B881A43CB881A430B892D
:104D10001A434B891A438B891A4344231A5270470A
:104D2000CA43028270470000002904D00288012390
:104D30001A43028003E00288014B1A400280704748
:104D4000FEFF0000002907D04422125A0123DB0392
:104D50001A4344231A5205E04422125A53045B0CAE
:104D600044221352704730B502460020002300242D
:104D7000158A0D402B4695890D402C46002B03D0FB
:104D8000002C01D0012000E0002030BD70B50546A8
:104D90000C46208800280AD12389A28861882846E9
:104DA000FFF7E0FEE188284600F086F925E020883C
:104DB00004280AD12389A28861882846FFF7EEFEDD
:104DC000E188284600F082F917E0208808280AD1F7
:104DD0002389A28861882846FFF706FFE1882846D4
:104DE00000F080F909E02389A28861882846FFF74E
:104DF0001FFFE188284600F07FF970BD002A03D02C
:104E000083890B43838102E083898B4383817047CD
:104E100070B5002400220023058C1C4E354005840B
:104E2000028C8388048B194D6F3D2C40B51E2C409D
:104E30000D882C43751E2A408D892A434D882A43AC
:104E4000134DA84208D0134DA84205D0124DA842D8
:104E500002D0124DA84212D10C4DED1F2A40CD892F
:104E60002A430A4DED1E2A408D882A43074DFF3DF7
:104E70002B400B4D2B400D8A2B434D8A2B438380B7
:104E800004838D684563028470BD0000FEFF00004E
:104E9000002C014000400140004401400048014016
:104EA000FFFD00000A460021018B034B19400B4611
:104EB0001343194601837047F7FF000070B50024C3
:104EC00000220023058C214E35400584028C838806
:104ED000048B1F4D2C401F4D2C400D782D062D0CA2
:104EE0002C431A4D103D2A408D892D052D0C2A4347
:104EF0004D882D052D0C2A43174DA84202D0174D81
:104F0000A8421CD1164D2B400D8AAD042D0C2B430D
:104F1000114DA84213D10D4D703D2A40CD892D056C
:104F20002D0C2A43094D303D2A408D882D052D0C2E
:104F30002A430C4D2B404D8AAD042D0C2B4383800E
:104F400004838D688563028470BD0000EFFF00005C
:104F5000FF8F0000FFFC0000002C014000400140DA
:104F6000FFFB0000FFF700000A460021018B034B06
:104F7000194013061B0C194301837047FFF700000B
:104F800070B5002400220023058C1C4E354005849A
:104F9000028C8388848B194D90352C40174DFD353C
:104FA0002C400D882C43164D2A400D7B2D062D0CD0
:104FB0002A438D782D062D0C2A43124DA84217D175
:104FC000114D2A408D7B2D062D0C2A430F4D2A4072
:104FD0000D792D062D0C2A430D4D2B400D4D2B40E8
:104FE0000D8A2D052D0C2B434D8A2D052D0C2B43A1
:104FF000838084838D68C563028470BDFFFE0000DA
:10500000FFFD0000002C0140FFF70000FFFB000047
:10501000FFEF0000FFDF00000A460021818B034BF9
:1050200019400B461343194681837047F7FF000070
:1050300070B5002200230024058C134E35400584F2
:10504000038C8488828B114D2A40114D2A400D78A3
:105050002D062D0C2A430F4D2B400D7B2D072D0CBB
:105060002B438D782D072D0C2B430B4DA84205D1DA
:105070000A4D2C400D8AAD052D0C2C438480828373
:105080008D680564038470BDFFEF0000FF8F000092
:10509000FFFC0000FFDF0000002C0140FFBF00000C
:1050A0000A460021818B034B194013061B0C194340
:1050B00081837047FFF70000028B034B1A40028385
:1050C000028B0A4302837047F3FF0000028B044BFC
:1050D0001A400283028B0B061B0C1A430283704793
:1050E000FFF30000828B034B1A408283828B0A43BA
:1050F00082837047F3FF0000828B044B1A40828347
:10510000828B0B061B0C1A4382837047FFF300004F
:1051100000220288154B984206D001239B07984233
:1051200002D0134B984203D1124B1A404B881A43BA
:10513000114B984203D0114B1A400B891A4302803D
:105140004B68C3620B880385084B984208D00C4B10
:10515000984205D00B4B984202D00B4B984201D19C
:105160008B7A03860123838270470000002C014064
:10517000000400408FFF000000100040FFFC000012
:1051800000400140004401400048014070B5FEF776
:1051900015FE01287BD10520FFF7BEFB6A48008879
:1051A00009280FDA6948C08901B2674800884200BF
:1051B0006548801C8152801E0088401C81B2624874
:1051C000018012E00021604801800A21801C00F06B
:1051D000CFFB5D49C8820A461821515E1620105E39
:1051E0005B4AFEF7EEFF5849088357481821415E95
:1051F000FD20C00081421DDA5349488BFDF751FB69
:1052000004460022534B01F06FFE06D24E48408BFD
:10521000401C81B24C48418322E004204E49087072
:10522000082008734D48807840084000401C4B49D6
:10523000887015E04448408B4949884210DB424859
:10524000408B002806DD4048408B401E81B23E481E
:10525000418305E041488078400840003F4988701C
:1052600039484038808C092812DA3848408901B220
:1052700035484038808C420033481A3881522638ED
:10528000808C401C81B230484038818416E052E066
:1052900000212D48403881840A21263000F068FB27
:1052A0002949403948870A463C21515E3A20105E20
:1052B000274AFEF786FF244940398887224840382C
:1052C0003C21415EFD20C000814220DA1E49403968
:1052D000C88FFDF7E6FA044600221E4B01F004FEDB
:1052E00008D219484038C08F401C81B21648403857
:1052F000C18727E004201849087008200873174860
:10530000807840084000401C144988701AE00E481C
:1053100040383C21415E1248814213DB0A48403844
:10532000C08F002808DD08484038C08F401E81B279
:1053300005484038C18705E00848807840084000AB
:105340000649887070BD0000F0040020DC000020D9
:10535000DA0C000000407F40F0030020F000002045
:10536000030A000010B54349434800F0A3F80128A0
:1053700072D1414800F062F9C4B23E493E4800F0A3
:1053800081F83E48007C002865D13C48C189C0892D
:10539000401C82B23948C281FF38FB384454374838
:1053A000C08902280CD1364880795A2803D1344864
:1053B000C079A5284FD000213048C18101744AE04E
:1053C0002E48C089062815D12D48C17A2B48418224
:1053D000807C01022A48807A0818083081B2274868
:1053E00041822748017A254801752548417A23489A
:1053F000417530E02148C189408A814205DB0121A5
:105400001E4801740021C18125E01C48C089022882
:1054100021DD1A48C089801E1949891D085C5A2857
:1054200019D11648C089401E085CA52813D15A20FE
:10543000891F8871A5211248C17100220F48C089B7
:10544000801E0F49891D0A540C48C089401E0A5409
:1054500002210A48C18100BF0821074800F020F856
:10546000012806D1044800F0E9F80821024800F0BC
:1054700009F810BD0501050000380140F0020020C8
:10548000F000002001627047002904D00268012367
:105490001A43026003E0026852085200026070473B
:1054A00002460020D3690B40002B01D0012000E010
:1054B0000020704770B502460B46002400210025ED
:1054C00000201E04350ED9B201268E403146012D32
:1054D00002D11668314006E0022D02D156683140F3
:1054E00001E0966831401C0C0126A6403446D6697E
:1054F0003440002903D0002C01D0012000E000201E
:1055000070BDF8B503460024002600960025002053
:1055100018460E04340ECEB200960127009EB74006
:105520003D46022C01D1001D02E0032C00D10830C1
:10553000002A03D006682E43066002E00668AE43E8
:105540000660F8BDF0B58BB004460D46002700207C
:105550000A90002620684008400020606668032109
:105560000903304688430646A868064366602668F5
:105570002D480640E96868680843296908430643DE
:105580002660A668032109023046884306466869FA
:105590000643A6606846FFF737F82448844202D1E4
:1055A00006980A900DE02248844202D107980A909A
:1055B00007E02048844202D108980A9001E002984E
:1055C0000A9020680121C903084000280CD02968EE
:1055D0000A9A5000FCF70EFE074629680A9A500006
:1055E000FCF708FE0E4609E029680A98FCF702FE5F
:1055F000074629680A98FCF7FDFD0E462868400812
:10560000B04200D87F1C20680121C903084000284F
:1056100006D03807460F384607490840304307464A
:10562000A7810BB0F0BD0000F3E9FFFF0038014097
:105630000044004000480040F0FF00000146888C14
:10564000C005C00D7047CA05D20D02857047000025
:1056500010B5FEF7BDFB012827D1FFF763F9FEF770
:10566000CFF8FDF7E7FE11488088002805DD0F48D8
:105670008088401E0D49888017E080210C48FEF785
:105680007BFB002804D180210948FEF781FB0CE058
:105690000648C088002805DD0448C088401E03492C
:1056A000C88002E001200149087210BD3C050020BD
:1056B000001400481CB5012111208004FEF764FF8E
:1056C00080200090012168460171417100218171A3
:1056D000C17169462648FEF7E5FA80212448FEF7A5
:1056E00055FB0220009001216846017141710021A3
:1056F0008171C17169461E48FEF7D4FA02211C4827
:10570000FEF746FB0120C0020090012168460171AE
:105710000321417100218171C17169461548FEF76D
:10572000C1FA0120C0021349886140200090012184
:10573000684601710321417100218171C17169467F
:105740000B48FEF7AFFA40210948FEF71FFB002087
:105750000949488101208873C8700020088088703A
:1057600006488880FF20F530C880002008721CBDE4
:1057700000140048000400483C050020B80B00005D
:1057800010B5FEF72FFB01285CD10220FFF7D0F8FF
:105790002D48008D09280EDA2C48008901B22A48CC
:1057A000008D420028482A3081522A38008D401C42
:1057B0002549088516E00020234908850A2122484A
:1057C0002A3000F0D5F82049C8870A464032002127
:1057D000515E403A3E20105E1D4AFEF7F2FC1A4927
:1057E00040310880184840303021415E19488142DC
:1057F0001BDD15484030808DFF21F531884208DAE5
:1058000011484030808D401C81B20F484030818566
:1058100018E004200C49087008730F4880780221B2
:105820008843801C0C4988700CE007484030808D0C
:10583000002807DD04484030808D401E81B20248B8
:105840004030818510BD0000F0030020DC00002006
:10585000DA0C0000CF030000F000002030B47446E2
:10586000641E2578641CAB4204D3635D5B00E318BF
:1058700030BC18471D46F8E710B5002819DB1A4A56
:1058800003231B02D21883089B00D2588307DC0E27
:10589000FF23A3409A438B071B0E8407E40EA3400B
:1058A0001A43114B032424021B198408A4001A5123
:1058B00018E00E4A03071B0F083B9B089B00D258B9
:1058C0008307DC0EFF23A3409A438B071B0E84073C
:1058D000E40EA3401A43054B0407240F083CA40818
:1058E000A4001A5110BD000000E100E01CED00E032
:1058F000002007E081001A4A891809688200194BC4
:105900009950401C3028F5D301210846FEF76CFE63
:105910000320FEF7E7FFFEF7D7F800F0C5F801F027
:105920000FF9FFF7C7FE00F065F8FDF7F1FB01F096
:10593000A1F9FDF79FFAFEF7A9FF0B480B49486054
:10594000032008700120087209E0FFF781FE00F0D3
:1059500001F9FFF715FFFFF719FCFEF73BFCF4E731
:105960000020000800000020DC050000F0030020FB
:10597000FCB5024600241AE0002312E05800165E2F
:10598000581C4000105E864209DD5800155E581C08
:105990004000105A5E009053581C40001552581C8D
:1059A000C3B2081B401E9842E8DC601CC4B2481E0B
:1059B000A042E1DCC807C00F002806DD481CC60F66
:1059C000361876107600955F12E00846CE0F36182E
:1059D00076107600965FCF0F3F187F107F1C7F00F8
:1059E0000091D75FF619F70F0196BE19761035B200
:1059F0002846FCBD0320274908700020486001208C
:105A00000872002048728872C87201200873002052
:105A1000486108830877887708621F48888448208F
:105A2000C8841E491B484030018000201949088560
:105A30001A48C887002117484030418081808185FD
:105A4000C1850186FF20E830124948670846818CED
:105A50008030016132210163416300210187C1630C
:105A600081650F49C1624161143041608160C1604C
:105A70000161416100212C3081840A49418781877D
:105A80000021C187403001800649C1820183002185
:105A900041837047F0030020B80B00003C07000072
:105AA0006A1800008B0E000010B58AB06846FEF739
:105AB000ABFD0420FEF7A4FF7D21C9000198FCF78F
:105AC00099FB0446601E0B49884200D90CE0601E19
:105AD000094948610321081FFFF7CEFE002006494F
:105AE00088610720086100BF0A20FFF731F80AB07B
:105AF00010BD0000FFFFFF0000E000E01248808BB7
:105B00001E2805DA1048808B401C0F49888319E055
:105B10000E48407A052815D10C48807A012811D109
:105B20000A4840300821415EC3290BDD04200749A3
:105B30000870072008730648807840218843403069
:105B4000034988707047000010050020F003002012
:105B5000F0000020F0B589B0F7488088002805D112
:105B6000F548007840084000F3490870F348007C8D
:105B7000002877D0F148408A801E81B2EE48801D0F
:105B8000FDF73EFCED49C8820846408A801EFF3979
:105B9000FB390A5CE948418A491EFF38FB38405C02
:105BA0000002101881B20791E448C18A0798814227
:105BB0007BD1E248007D112878D243007B449B884A
:105BC0005B009F4410002400850086008802D302F9
:105BD000FD02730073007300730086031304AF04A7
:105BE00029056A056E05D448007802218843D24908
:105BF000097B4900022211400843CF490870CF4871
:105C0000417D00231A460120FEF742FC62E2CB48A8
:105C1000407DCA492031097E884212D1C748E03010
:105C2000C07940084000401CC449E031C871C248F6
:105C3000007840084000401CBF490870C048888078
:105C400045E0BE48407DBD493831497888420AD197
:105C5000BA48E030C07902218843801CB749E0315E
:105C6000C87134E0FEE3B548407DB44938318978E5
:105C7000884209D1B148E030C07904218843001D31
:105C8000AE49E031C87122E0AC48407DAB493831C3
:105C9000C97888420BD1A948E030C07908218843EF
:105CA0000830A649E031C87111E0FDE3FDE3A348E7
:105CB000407DA24938310979884208D19F48E030B7
:105CC000C0791021884310309C49E031C8719DE7AC
:105CD0009CE799480078C007C00F00287ED09648FE
:105CE00000788007C00F0028F8D09448417D002339
:105CF0001A460120FEF7CCFB8F48007B0300FFF71C
:105D0000ADFD0B07FDFDFDFDFC5641FBFAF9FD0065
:105D10008C493020085EFCF7BCFD06468A4A8B4B56
:105D2000FCF7C2FD00228A4B01910090FCF7BCFDFC
:105D3000884A894B03910290FCF70CFB0591049073
:105D4000FCF762FD84B27D4920314C7720121D3171
:105D500048707C484030008E88707A484030008E11
:105D60000004000EC87008461D38C07D401C1D3957
:105D7000C8750846C17D03461D3304220920FEF77D
:105D800087FBA6E16D48C030808D6C492031487793
:105D90000846C07D401CC1B268482030C175C17D35
:105DA00003461D3301220720FEF772FB91E1624892
:105DB0000078C007C00F002818D05F48007880071F
:105DC000C00F0028F8D05D482030007D01280ED19A
:105DD0000B205A4920314877584800E07AE1417D4C
:105DE00003463D3301220220FEF752FBC6E0524833
:105DF000017B407B000209184F48807B0004091892
:105E00004D48C07B000609184C4881624A48017C15
:105E1000407C000209184848807C00040918464864
:105E2000C07C00060918454801630246916A106B60
:105E3000FCF7E0F9414908620846006A202807D3C8
:105E40000846006A402803D220213C48016229E02C
:105E50003A48006A402807D33848006A802803D2AD
:105E60004021364801621DE03448006A802807D38B
:105E70003248006AFF2803D880213048016211E0CF
:105E80002E48006AFF2809D92C48016A01204002E7
:105E9000814203D241102948016203E001214902F5
:105EA000264801622548006A2449896A48432349F3
:105EB000096B091A21484162006B1B218902884243
:105EC00050D81E48016A0120400281424AD81D482C
:105ED0004038807A012805D1FDF778FA0320194966
:105EE0004039087001211548203001750021203803
:105EF000C16204E08FE055E041E0BBE0DCE0FDF78B
:105F0000E3FD16491648FDF787FD002807D10B4829
:105F1000417D00231A460120FEF7BAFA2EE009203F
:105F20000649203148770548417D03463D3301222B
:105F30000220FEF7ADFA21E0F0000020F002002080
:105F400088130000300400206666666666660A40B4
:105F500000408F409031772D211F7440FFF70008DB
:105F6000009000080820FB49487708462038417D0A
:105F700003463D3301220220FEF78AFAA9E0F548E4
:105F8000A030408DF34948770846C07D401CC1B21F
:105F9000F048C175C17D03461D3301220820FEF77C
:105FA00077FA96E0EC493020085EFCF772FC064672
:105FB000EA4AEB4BFCF778FC0022EA4B0191009097
:105FC000FCF772FCE84AE94B03910290FCF7C2F936
:105FD00005910490FCF718FC84B2DE484477201247
:105FE000DC491D314870DC484030008E8870DA484A
:105FF0004030008E0004000EC870D648C07D401CA2
:10600000C1B2D448C175C17D03461D3304220920A5
:10601000FEF73EFA5DE0D0490020085EFCF739FC4F
:106020000646CE4ACE4BFCF73FFC0022D04B0191F6
:106030000090FCF739FC0022CE4B03910290FCF754
:1060400089F905910490FCF7A9FB05B2C1494D7788
:106050002804000E1D314870BE48C07D401CC1B2EE
:10606000BC48C175C17D03461D3302220A20FEF7DC
:106070000FFA2EE0C0A1B7481D30FCF7A7F8C3A166
:10608000B4483130FCF7A2F8C5A1B2484530FCF75E
:106090009DF8C8A1AF485930FCF798F8AD48C07DCD
:1060A000401CAC49C8750846C17D03461D335022CB
:1060B0000520FEF7EDF90CE00520A64948770846D3
:1060C0002038417D03463D3301220220FEF7E0F9EE
:1060D00000BF00BF1FE3BC480078C007C00F002806
:1060E00043D0B94800788007C00F00283DD0B7489A
:1060F000807B002839D0B548007A002835D09648F2
:106100004038807A042830D0AF4800780007C00FAC
:1061100000282AD1AC48C078002826D1AA48067B9E
:1061200001208D4940390872002E08D103200870E3
:10613000A548007804218843A34908700CE0012E8B
:106140000AD101208449403908709F480078042111
:106150008843001D9C4908707E482038417D0023FB
:106160001A460120FEF794F900BFD4E2794820389E
:10617000417D00231A460120FEF78AF97EA1754869
:106180001D30FCF723F881A172483130FCF71EF86E
:1061900083A170484530FCF719F88DA16D4859303E
:1061A000FCF714F86B48C07D401CC1B26948C1754A
:1061B000C17D03461D3350220520FEF769F9AAE28E
:1061C00081480078C007C00F00287DD07E48007845
:1061D0008007C00F00287BD07B48017B407B0002FA
:1061E00009187948807B000409187748C07B0006AD
:1061F0000E187C48864206D8FF20F530864202D32E
:106200005548403806617048017C407C00020918FE
:106210006D48807C000409186B48C07C00060E188D
:106220004D48403846606848017D407D00020918AD
:106230006548807D000409186348C07D00060E187B
:10624000642E01D2642607E0434840380069B0421A
:1062500002D24148403806693F4940390869314611
:10626000FBF7C8FF604948615748017E407E000245
:1062700009185548807E000409185348C07E00065E
:106280000E18642E01D2642607E0334840380069B6
:10629000B04202D23048403806692F494039086977
:1062A0003146FBF7A7FF504988610B469A69596947
:1062B000294B403B1869FDF75BFB26482038417DA0
:1062C00000231A46012000E002E0FEF7E1F800BFDB
:1062D00021E23D480078C007C00F002838D03A4876
:1062E00000788007C00F002832D03748007B082193
:1062F0000840002813D008201749403908730420AB
:1063000008700421144840388172FDF75FF82E4868
:1063100000780821884308302B4908700CE00120E0
:106320000D494039087303200870887226480078A8
:1063300008218843244908702348407B2249C870BB
:1063400004482038417D00231A460120FEF7A0F8BA
:10635000E1E100001003002030040020666666665C
:1063600066660A4000408F409031772D211F7440AF
:10637000002069400000B040202020535A2D4C4896
:106380002D4D43552D424C444332310020202020D6
:106390002020202020202032312E30332E32340095
:1063A0002020202020202020202020202030302EBF
:1063B00053303200202020202020202020202020A8
:1063C0002030302E53303700F00000203C050020F4
:1063D0002020202020202020202020202030302E8F
:1063E00053303800DC05000010050020FE4800781E
:1063F000C007C00F002815D0FB4800788007C00FE9
:1064000000280FD0F948007D01280CD10B20F74956
:10641000487708462038417D03463D33012202205B
:10642000FEF736F87DE0F048017B407B000209185A
:10643000ED48807B00040918EB48C07B0006091872
:10644000EA4820388162E848017C407C0002091853
:10645000E548807C00040918E348C07C0006091860
:10646000E24800E076E1203801630246916A106B51
:10647000FBF7C0FEDD49203908620846006A896AD8
:106480004843DA492039096B091AD8482038416253
:10649000006B1B218902884237D8D4482038006A13
:1064A00001214902884201E036E127E12DD8D04898
:1064B000807A012804D1FCF789FF0320CC490870B9
:1064C0000120CA4908750021C8482038C162FDF77B
:1064D000FBFAC849C848FDF79FFA002808D1C3480D
:1064E0002038417D00231A460120FDF7D1FF18E036
:1064F0000920BE49487708462038417D03463D3390
:1065000001220220FDF7C4FF0BE00820B7494877BD
:1065100008462038417D03463D3301220220FDF725
:10652000B7FFF8E0B0480078C007C00F002872D06D
:10653000AD4800788007C00F00286CD0AB48007DC4
:1065400000285CD0A848017B407B00020918A648BF
:10655000807B00040918A448C07B00060E18A348DD
:106560002038C06AB0423DD1A0482038408A0D385A
:106570009E492039096A884228D1B3B29B48203805
:10658000008C401C82B2984910319B48FDF700FBFB
:1065900000280ED195482038C06A401C9349203904
:1065A000C8620846417D00231A460120FDF770FFAE
:1065B00024E009208D49487708462038417D03466C
:1065C0003D3301220220FDF763FF17E008218748D1
:1065D00041772038417D03463D3301220220FDF7FB
:1065E00057FF0BE007208149487708462038417D56
:1065F00003463D3301220220FDF74AFF0BE006204F
:106600007A49487708462038417D03463D330122C8
:106610000220FDF73DFF7EE073480078C007C00F01
:10662000002839D0704800788007C00F002833D088
:106630006E48007D002823D06C482038C16A806AEB
:10664000814210D16848007B012808D16749203970
:10665000086BFDF7B3F9002164482038016300207E
:106660006249087518E007206049487708462038D5
:10667000417D03463D3301220220FDF709FF0BE077
:1066800006205A49487708462038417D03463D3365
:1066900001220220FDF7FCFE3DE000205349087571
:1066A00039E051480078C007C00F002825D04E4877
:1066B00000788007C00F00281FD0FCF787FE03205A
:1066C0004B4908700020FEF70DF900BF00BF00BF66
:1066D00000BF00BFBFF34F8F00BF00BF00BF4748E0
:1066E0004749C86000BF00BF00BFBFF34F8F00BF66
:1066F00000BF00BF00BF00BFFDE70CE003203B4927
:10670000487708462038417D03463D330122022068
:10671000FDF7BEFE00BF0BE0022034494877084673
:106720002038417D03463D3301220220FDF7B0FEB3
:1067300000202D49887100212B48C171017241212F
:10674000C9002A4820384182FF2101750021417586
:10675000017400BF2448007823494978884204D155
:106760002248A030C08D002829D11F4800781E493A
:1067700048701E48C030C079400840001B49C031F5
:10678000C871194801781948417717488078174926
:106790001D3148701548C07D401C1D39C87508461C
:1067A000C07D08760846C17D03461D3302220020C5
:1067B000FDF76EFE7D20C0000C49A031C8850B4856
:1067C000007D002872D108480078C007C00F00285B
:1067D0006CD0054800788007C00F0028F8D0034827
:1067E000A030008E00280DE0F000002010030020F3
:1067F000F0030020FFF70008009000080400FA05ED
:1068000000ED00E04BD1C248807A012847D1C04951
:1068100040313020085EFCF73CF80646BD4ABE4BCE
:10682000FCF742F80022BD4B03910290FCF73CF8C4
:10683000BB4ABC4B05910490FBF78CFD0791069079
:10684000FBF7E2FF84B2B8494C7720121D31487043
:10685000AF488030008E8870AD488030008E0004D4
:10686000000EC8700846A330C07908218843AE499D
:10687000C031C871AC48C07D401CC039C8750846DD
:10688000C07D1831C870A848C17D03461D3304225D
:106890000920FDF7FDFD6420A349A0310886A24828
:1068A000A030808F00287DD1002602E02DE1701CF1
:1068B00086B270009D49095A9548C0303C22825EDC
:1068C000914201DC922EF2DB9748A030818D304658
:1068D0001E3081422BD0922E04DBFF209249A03142
:1068E000888504E030461E308F49A03188858E4867
:1068F000A030808D8C4948770846C07D401CC87503
:106900000846C07D183148708748C17D03461D3355
:1069100001220720FDF7BCFD8348C030C079022169
:1069200088438149C031C871C82020398886002633
:1069300001E0701C86B270007C49095A7C4818221C
:10694000825E914201DC922EF3DB7748A030418DCC
:1069500030461E3081422ED0922E04DBFF20724939
:10696000A031488504E030461E306F49A03148858B
:106970006D48A030408DC1B26B484177C07D401C4E
:106980006949C8750846C07D183188706648C17D60
:1069900003461D3301220820FDF77AFD6248C0300E
:1069A000C07900E054E0042188435F49C031C871D8
:1069B000C8202039C886564940310020085EFBF7C0
:1069C00068FF544A544B01910090FBF76DFF002281
:1069D000584B03910290FBF767FF0022564B05913D
:1069E0000490FBF7B7FC07910690FBF7D7FE05B2C2
:1069F0004D49A0312820085EA84224D008460585CC
:106A0000A0394D772804000E1D3148704648C07DDE
:106A1000401CC1B24448C175C07D4349183108715A
:106A20004148C17D03461D3302220A20FDF730FD97
:106A30003D48C030C079102188433B49C031C871FE
:106A4000C820203908873D483749A031888700BFD2
:106A50003548A030808E002817D13348C030C07927
:106A60008007C00F002810D12F48A030808D2E49FC
:106A70004877084618304178431D01220720FDF76A
:106A800007FDC8202849A03188862748A030C08E3D
:106A9000002817D12448C030C0794007C00F002813
:106AA00010D12148A030408D1F4948770846183042
:106AB0008178431D01220820FDF7EAFCC8201A490D
:106AC000A031C8861848A030008F00281DD1164874
:106AD000C030C079C006C00F002816D11248A030BF
:106AE000008D114948770846A030008D0004000E43
:106AF0001D314870481F0179431D02220A20FDF70D
:106B0000C7FCC8200849A031088709B0F0BD0000C3
:106B1000F00300206666666666660A4000408F40A5
:106B20009031772D211F744010030020E47100087C
:106B3000F0040020002069400000B040DC050000A7
:106B400000B589B001218804FDF71EFD0022062151
:106B50004148FDF7EFF8002207213F48FDF7EAF82A
:106B6000C0200790022108A8017003214170002174
:106B700081700121C17007A93748FDF793F8012101
:106B80008803FDF721FDE1204002019000200290E2
:106B90000390049006900C20059001A92F48FEF761
:106BA000D1FC1B21684601700321417001218170D5
:106BB000FDF7E2FB00202949086201222849274805
:106BC000FEF79FFC01212548FEF75EFC00202549C9
:106BD0000870FF20487000208870C870002122488B
:106BE000C18122481F498880FF211F48E030C171C0
:106BF0004121C900E0384182FF2101750021417522
:106C00000183FF2181760021C1760177002016499A
:106C100020314875C87500211348E03041710020CB
:106C20001149E0318871C8202039C8854886888696
:106C3000C886088764210C48C03041870C49818789
:106C40008021C03801620021816201630020064971
:106C50002031087509B000BD00040048003801402B
:106C600005010500F0000020F0020020881300005C
:106C7000DC05000010B590B00121C802FDF7A4FCAE
:106C8000002168468185C18573480C9068468186DD
:106C900008A881750BA97148FEF73AFA7021684679
:106CA000018301214183002181836B48401C0890AE
:106CB0000221684681840821C184490101854185FA
:106CC00006A96648FEF7A4F806A96448FEF7F6F898
:106CD00006A96248FEF754F96021684601832D2019
:106CE0008001089006A95D48FEF7A2F900215B48E3
:106CF000FEF7D8F800215948FEF736F90021574829
:106D0000FEF78AF900215548FEF7CAF90121C902A8
:106D10006846018149104181891081813E21C181EC
:106D200001210903018200214182818202A94B488D
:106D3000FDF7E6FF012103204004FDF725FC0222B8
:106D40000C214748FCF7F6FF012000030E900221BA
:106D500008A801770321417700218177C1770EA927
:106D60003F48FCF79FFF022208210920C006FCF7DC
:106D7000E1FF02220921C806FCF7DCFF02220A21FA
:106D80000920C006FCF7D6FF02220B210920C0060D
:106D9000FCF7D0FF0F2000020E90022108A8017717
:106DA00003214177002181770121C1770EA90920B4
:106DB000C006FCF777FF02220D212948FCF7BAFF35
:106DC00002220E212648FCF7B5FF02220F2124489B
:106DD000FCF7B0FF072040030E90022108A80177BE
:106DE00003214177002181770121C1770EA91C4839
:106DF000FCF758FF81211948FDF792FF01228021FD
:106E00001648FDF7FBFF01211448FDF79BFF012108
:106E10001248FDF789FF0D2168460171002141717B
:106E20000121817101A8FDF7A7FA00200D4988779B
:106E30000D4908740848401C48820A4CA37F0C4640
:106E4000628A618A608AFCF745FD0649887F00F006
:106E50000DF810B010BD0000B70B0000002C014071
:106E600000040048F0030020DC00002070B5044658
:106E700017480821415EC32911DA16494889FBF7F2
:106E800010FD05460022144B00F060F80ED81348A0
:106E9000007C01280AD100201049087406E00F4840
:106EA000007C002802D101200C4908740B4B5A8A3F
:106EB000598A588A2346FCF70DFD0848007C0C21AE
:106EC0004843074940186100405A0649088070BD90
:106ED000300400201005002000003840DC000020B5
:106EE000C0710008202C014070B501250C002D0553
:106EF0001C4310D4EC4206D4AC420AD4994200D0D0
:106F000070BD904270BDE94217D4EB4215D499424E
:106F100070BD894270BDEC4206D5AC42F9D58B42BA
:106F200000D070BD824270BD6D004C00EC4204D2B6
:106F30005C00EC4201D28B4270BD034C30B4FBF7D5
:106F40004BFE30BC70BD00BF1900160470B50125A2
:106F50001C002D050C4310D4EC4206D4AC420AD4DC
:106F60008B4200D070BD824270BDEB4217D4E94223
:106F700015D48B4270BD9B4270BDEC4206D5AC422D
:106F8000F9D5994200D070BD904270BD6D005C0093
:106F9000EC4204D24C00EC4201D2994270BD0FB4D5
:106FA000034C0CBC03BC30B4FBF716FE30BC70BD08
:106FB0001900160470B501250400ED074C4020D4DB
:106FC000441A01D2001B0919C60D4B00F2B2FF2A68
:106FD00029D01B0E2CD000020C02D31A2C43DC400B
:106FE0002843051910D2280A02D3401C6D0611D07F
:106FF000761EF6058019FF2A00DA70BDC00DC005A7
:1070000070BD694000F07AF801200543C541521C6B
:10701000761CE8E764089C40C90161408900E7D11B
:107020000124A043E4E71B0E440200D0034870BDD6
:10703000002AFCD1C00FC00770BD00BF0000C07F98
:1070400070B5420064414B005C41120E39D01B0EFA
:1070500038D0FF2A3CD0FF2B3AD040024902400AE8
:10706000490A060045184E43000A090AD218484347
:10707000ED017F3A0104731A4019190C4318990F56
:1070800004D001215B0849075B1A521CD80904D3BC
:10709000401CF50301D19D0607D0FF2A08D2D50573
:1070A00006D0E4072043401970BD0125A843F4E74A
:1070B000002A01DCE00770BD2402FF202043C00548
:1070C00070BD1B0EFF2A03D0FF2B01D0E00770BD5F
:1070D000FF2645003606B54206D84D00B54203D816
:1070E000D218FF2A00D0E7E7004870BD0000C07F3B
:1070F00070B501250400ED074C4022D4441A02D299
:107100006C40001B0919C60D4B00F2B2FF2A4BD090
:107110001B0E50D000020C02D31A2C43DC40A843B3
:10712000051B05D5AD0019D36D08761E521E37D04C
:10713000F605280A01D2801970BD70416D0603D092
:1071400070BD6940FFF73CFF9C4009026140490067
:1071500001D0401E70BD0124A04370BD6D081DD03C
:1071600001202B0C01D12D0410302B0E01D12D024A
:1071700008302B0F01D12D01001DAB0F01D1AD0047
:10718000801CEB0F01D16D00401C6D00361A121AE5
:10719000680AF5054019012A02DB70BD002070BDA8
:1071A000C036300AC00770BD1B0E440201D1FF2B50
:1071B00000D1024870BD002AF0D070BD0000C07F31
:1071C000FB177B1FB71FBF177F1BF71BFF170F1F77
:1071D000F71FFF177F1FF71FFF1FFF1FFF1FFF1F57
:1071E000FF1FFF1FC60FC30FC00FBD0FB90FB60F94
:1071F000B20FAF0FAB0FA70FA30F9E0F9A0F950FF4
:10720000900F8B0F860F810F7B0F760F700F6A0F19
:10721000630F5D0F560F4F0F480F400F380F300FA1
:10722000280F200F170F0E0F050FFB0EF10EE70EA4
:10723000DD0ED20EC70EBB0EB00EA40E980E8B0E36
:107240007E0E710E640E560E480E390E2A0E1B0E5F
:107250000B0EFC0DEB0DDB0DCA0DB90DA70D950D39
:10726000800D710D5E0D4B0D370D230D0F0DFB0CB9
:10727000E60CD10CBB0CA60C8F0C790C630C4C0CDF
:10728000350C1D0C050CEE0BD50BBD0BA40B8B0B9D
:10729000720B590B400B260B0C0BF20AD80ABE0AD4
:1072A000A30A890A6E0A540A390A1E0A030AE8095F
:1072B000CD09B20996097B09600945092A090F0918
:1072C000F308D808BD08A20887086D0852083708D7
:1072D0001D080208E807CE07B4079A07800767076A
:1072E0004D0734071B070207E906D106B906A106B8
:1072F000890671065A0642062B061406FE05E805A5
:10730000D205BC05A605910500002110422063307E
:107310008440A550C660E770088129914AA16BB1ED
:107320008CC1ADD1CEE1EFF1311210027332522295
:10733000B5529442F772D662399318837BB35AA33D
:10734000BDD39CC3FFF3DEE3622443342004011465
:10735000E664C774A44485546AA54BB5288509958D
:10736000EEE5CFF5ACC58DD5533672261116300635
:10737000D776F6669556B4465BB77AA719973887DD
:10738000DFF7FEE79DD7BCC7C448E5588668A778F5
:107390004008611802282338CCC9EDD98EE9AFF92D
:1073A000488969990AA92BB9F55AD44AB77A966AD5
:1073B000711A500A333A122AFDDBDCCBBFFB9EEB7D
:1073C000799B588B3BBB1AABA66C877CE44CC55CA5
:1073D000222C033C600C411CAEED8FFDECCDCDDDCD
:1073E0002AAD0BBD688D499D977EB66ED55EF44E75
:1073F000133E322E511E700E9FFFBEEFDDDFFCCF1D
:107400001BBF3AAF599F788F8891A981CAB1EBA170
:107410000CD12DC14EF16FE18010A100C230E320EC
:107420000450254046706760B9839893FBA3DAB394
:107430003DC31CD37FE35EF3B1029012F322D2323C
:107440003542145277625672EAB5CBA5A895898564
:107450006EF54FE52CD50DC5E234C324A01481048C
:107460006674476424540544DBA7FAB79987B89734
:107470005FE77EF71DC73CD7D326F2369106B016DC
:1074800057667676154634564CD96DC90EF92FE9F4
:10749000C899E9898AB9ABA944586548067827682C
:1074A000C018E1088238A3287DCB5CDB3FEB1EFBD4
:1074B000F98BD89BBBAB9ABB754A545A376A167A7C
:1074C000F10AD01AB32A923A2EFD0FED6CDD4DCDA4
:1074D000AABD8BADE89DC98D267C076C645C454CCC
:1074E000A23C832CE01CC10C1FEF3EFF5DCF7CDF74
:1074F0009BAFBABFD98FF89F176E367E554E745E1C
:10750000932EB23ED10EF01E0701030205000407C0
:10751000070400050203010780807F7E7D7C7B7A63
:107520007978777676757473727171706F6E6E6D2F
:107530006C6C6B6A6A6968686766666564646363D5
:1075400062616160605F5F5E5E5D5D5C5C5B5B5A5B
:107550005A595958585757565655555554545353C8
:1075600052525251515050504F4F4F4E4E4D4D4D23
:107570004C4C4C4B4B4B4A4A4A494949484848476E
:1075800047474746464645454544444444434343AC
:107590004342424242414141B8750008C0000020C8
:1075A0001C000000F8200008D4750008DC00002052
:1075B000DC0A00001421000800000000010203049E
:1075C0000102030406070809000000000000000093
:0475D00000000000B7
:04000005080020B51A
:00000001FF
